{
  "_format": "hh-sol-artifact-1",
  "contractName": "Market",
  "sourceName": "contracts/NFTmarketplace.sol",
  "abi": [
    {
      "inputs": [],
      "stateMutability": "nonpayable",
      "type": "constructor"
    },
    {
      "anonymous": false,
      "inputs": [
        {
          "indexed": true,
          "internalType": "address",
          "name": "owner",
          "type": "address"
        },
        {
          "indexed": true,
          "internalType": "address",
          "name": "approved",
          "type": "address"
        },
        {
          "indexed": true,
          "internalType": "uint256",
          "name": "tokenId",
          "type": "uint256"
        }
      ],
      "name": "Approval",
      "type": "event"
    },
    {
      "anonymous": false,
      "inputs": [
        {
          "indexed": true,
          "internalType": "address",
          "name": "owner",
          "type": "address"
        },
        {
          "indexed": true,
          "internalType": "address",
          "name": "operator",
          "type": "address"
        },
        {
          "indexed": false,
          "internalType": "bool",
          "name": "approved",
          "type": "bool"
        }
      ],
      "name": "ApprovalForAll",
      "type": "event"
    },
    {
      "anonymous": false,
      "inputs": [
        {
          "indexed": false,
          "internalType": "uint256",
          "name": "_fromTokenId",
          "type": "uint256"
        },
        {
          "indexed": false,
          "internalType": "uint256",
          "name": "_toTokenId",
          "type": "uint256"
        }
      ],
      "name": "BatchMetadataUpdate",
      "type": "event"
    },
    {
      "anonymous": false,
      "inputs": [
        {
          "indexed": false,
          "internalType": "uint256",
          "name": "_tokenId",
          "type": "uint256"
        }
      ],
      "name": "MetadataUpdate",
      "type": "event"
    },
    {
      "anonymous": false,
      "inputs": [
        {
          "indexed": true,
          "internalType": "address",
          "name": "previousOwner",
          "type": "address"
        },
        {
          "indexed": true,
          "internalType": "address",
          "name": "newOwner",
          "type": "address"
        }
      ],
      "name": "OwnershipTransferred",
      "type": "event"
    },
    {
      "anonymous": false,
      "inputs": [
        {
          "indexed": true,
          "internalType": "address",
          "name": "from",
          "type": "address"
        },
        {
          "indexed": true,
          "internalType": "address",
          "name": "to",
          "type": "address"
        },
        {
          "indexed": true,
          "internalType": "uint256",
          "name": "tokenId",
          "type": "uint256"
        }
      ],
      "name": "Transfer",
      "type": "event"
    },
    {
      "inputs": [],
      "name": "NFTsForSale",
      "outputs": [
        {
          "components": [
            {
              "internalType": "address payable",
              "name": "owner",
              "type": "address"
            },
            {
              "internalType": "uint256",
              "name": "tokenId",
              "type": "uint256"
            },
            {
              "internalType": "string",
              "name": "tokenURI",
              "type": "string"
            },
            {
              "internalType": "uint256",
              "name": "price",
              "type": "uint256"
            },
            {
              "internalType": "string",
              "name": "name",
              "type": "string"
            },
            {
              "internalType": "string",
              "name": "description",
              "type": "string"
            },
            {
              "internalType": "string",
              "name": "category",
              "type": "string"
            },
            {
              "internalType": "bool",
              "name": "isListedForSale",
              "type": "bool"
            },
            {
              "internalType": "bool",
              "name": "isListedForAuction",
              "type": "bool"
            }
          ],
          "internalType": "struct Market.Token[]",
          "name": "",
          "type": "tuple[]"
        }
      ],
      "stateMutability": "view",
      "type": "function"
    },
    {
      "inputs": [
        {
          "internalType": "address",
          "name": "to",
          "type": "address"
        },
        {
          "internalType": "uint256",
          "name": "tokenId",
          "type": "uint256"
        }
      ],
      "name": "approve",
      "outputs": [],
      "stateMutability": "nonpayable",
      "type": "function"
    },
    {
      "inputs": [
        {
          "internalType": "address",
          "name": "owner",
          "type": "address"
        }
      ],
      "name": "balanceOf",
      "outputs": [
        {
          "internalType": "uint256",
          "name": "",
          "type": "uint256"
        }
      ],
      "stateMutability": "view",
      "type": "function"
    },
    {
      "inputs": [
        {
          "internalType": "uint256",
          "name": "auctionIndex",
          "type": "uint256"
        }
      ],
      "name": "bidOnAuction",
      "outputs": [],
      "stateMutability": "payable",
      "type": "function"
    },
    {
      "inputs": [
        {
          "internalType": "uint256",
          "name": "auctionIndex",
          "type": "uint256"
        }
      ],
      "name": "finalizeAuction",
      "outputs": [],
      "stateMutability": "payable",
      "type": "function"
    },
    {
      "inputs": [],
      "name": "getAllAuctions",
      "outputs": [
        {
          "components": [
            {
              "internalType": "uint256",
              "name": "tokenIndex",
              "type": "uint256"
            },
            {
              "internalType": "uint256",
              "name": "startingPrice",
              "type": "uint256"
            },
            {
              "internalType": "address payable",
              "name": "creator",
              "type": "address"
            },
            {
              "internalType": "uint256",
              "name": "endTime",
              "type": "uint256"
            },
            {
              "internalType": "uint256",
              "name": "highestBid",
              "type": "uint256"
            },
            {
              "internalType": "address",
              "name": "highestBidder",
              "type": "address"
            }
          ],
          "internalType": "struct Market.Auction[]",
          "name": "",
          "type": "tuple[]"
        }
      ],
      "stateMutability": "view",
      "type": "function"
    },
    {
      "inputs": [
        {
          "internalType": "uint256",
          "name": "tokenId",
          "type": "uint256"
        }
      ],
      "name": "getApproved",
      "outputs": [
        {
          "internalType": "address",
          "name": "",
          "type": "address"
        }
      ],
      "stateMutability": "view",
      "type": "function"
    },
    {
      "inputs": [
        {
          "internalType": "address",
          "name": "owner",
          "type": "address"
        },
        {
          "internalType": "address",
          "name": "operator",
          "type": "address"
        }
      ],
      "name": "isApprovedForAll",
      "outputs": [
        {
          "internalType": "bool",
          "name": "",
          "type": "bool"
        }
      ],
      "stateMutability": "view",
      "type": "function"
    },
    {
      "inputs": [
        {
          "internalType": "string",
          "name": "tokenURI",
          "type": "string"
        },
        {
          "internalType": "string",
          "name": "name",
          "type": "string"
        },
        {
          "internalType": "string",
          "name": "description",
          "type": "string"
        },
        {
          "internalType": "string",
          "name": "category",
          "type": "string"
        }
      ],
      "name": "mintNFT",
      "outputs": [
        {
          "internalType": "uint256",
          "name": "",
          "type": "uint256"
        }
      ],
      "stateMutability": "nonpayable",
      "type": "function"
    },
    {
      "inputs": [],
      "name": "name",
      "outputs": [
        {
          "internalType": "string",
          "name": "",
          "type": "string"
        }
      ],
      "stateMutability": "view",
      "type": "function"
    },
    {
      "inputs": [],
      "name": "owner",
      "outputs": [
        {
          "internalType": "address",
          "name": "",
          "type": "address"
        }
      ],
      "stateMutability": "view",
      "type": "function"
    },
    {
      "inputs": [
        {
          "internalType": "uint256",
          "name": "tokenId",
          "type": "uint256"
        }
      ],
      "name": "ownerOf",
      "outputs": [
        {
          "internalType": "address",
          "name": "",
          "type": "address"
        }
      ],
      "stateMutability": "view",
      "type": "function"
    },
    {
      "inputs": [
        {
          "internalType": "uint256",
          "name": "index",
          "type": "uint256"
        }
      ],
      "name": "purchaseNFT",
      "outputs": [],
      "stateMutability": "payable",
      "type": "function"
    },
    {
      "inputs": [
        {
          "internalType": "uint256",
          "name": "i",
          "type": "uint256"
        }
      ],
      "name": "removeAuction",
      "outputs": [],
      "stateMutability": "nonpayable",
      "type": "function"
    },
    {
      "inputs": [
        {
          "internalType": "uint256",
          "name": "index",
          "type": "uint256"
        }
      ],
      "name": "removeFromSale",
      "outputs": [],
      "stateMutability": "nonpayable",
      "type": "function"
    },
    {
      "inputs": [],
      "name": "renounceOwnership",
      "outputs": [],
      "stateMutability": "nonpayable",
      "type": "function"
    },
    {
      "inputs": [
        {
          "internalType": "address",
          "name": "from",
          "type": "address"
        },
        {
          "internalType": "address",
          "name": "to",
          "type": "address"
        },
        {
          "internalType": "uint256",
          "name": "tokenId",
          "type": "uint256"
        }
      ],
      "name": "safeTransferFrom",
      "outputs": [],
      "stateMutability": "nonpayable",
      "type": "function"
    },
    {
      "inputs": [
        {
          "internalType": "address",
          "name": "from",
          "type": "address"
        },
        {
          "internalType": "address",
          "name": "to",
          "type": "address"
        },
        {
          "internalType": "uint256",
          "name": "tokenId",
          "type": "uint256"
        },
        {
          "internalType": "bytes",
          "name": "data",
          "type": "bytes"
        }
      ],
      "name": "safeTransferFrom",
      "outputs": [],
      "stateMutability": "nonpayable",
      "type": "function"
    },
    {
      "inputs": [
        {
          "internalType": "uint256",
          "name": "index",
          "type": "uint256"
        },
        {
          "internalType": "uint256",
          "name": "price",
          "type": "uint256"
        }
      ],
      "name": "sellNFT",
      "outputs": [],
      "stateMutability": "nonpayable",
      "type": "function"
    },
    {
      "inputs": [
        {
          "internalType": "address",
          "name": "operator",
          "type": "address"
        },
        {
          "internalType": "bool",
          "name": "approved",
          "type": "bool"
        }
      ],
      "name": "setApprovalForAll",
      "outputs": [],
      "stateMutability": "nonpayable",
      "type": "function"
    },
    {
      "inputs": [
        {
          "internalType": "uint256",
          "name": "startingPrice",
          "type": "uint256"
        },
        {
          "internalType": "uint256",
          "name": "durationInSeconds",
          "type": "uint256"
        },
        {
          "internalType": "uint256",
          "name": "index",
          "type": "uint256"
        }
      ],
      "name": "startAuction",
      "outputs": [],
      "stateMutability": "nonpayable",
      "type": "function"
    },
    {
      "inputs": [
        {
          "internalType": "bytes4",
          "name": "interfaceId",
          "type": "bytes4"
        }
      ],
      "name": "supportsInterface",
      "outputs": [
        {
          "internalType": "bool",
          "name": "",
          "type": "bool"
        }
      ],
      "stateMutability": "view",
      "type": "function"
    },
    {
      "inputs": [],
      "name": "symbol",
      "outputs": [
        {
          "internalType": "string",
          "name": "",
          "type": "string"
        }
      ],
      "stateMutability": "view",
      "type": "function"
    },
    {
      "inputs": [
        {
          "internalType": "uint256",
          "name": "tokenId",
          "type": "uint256"
        }
      ],
      "name": "tokenURI",
      "outputs": [
        {
          "internalType": "string",
          "name": "",
          "type": "string"
        }
      ],
      "stateMutability": "view",
      "type": "function"
    },
    {
      "inputs": [
        {
          "internalType": "uint256",
          "name": "",
          "type": "uint256"
        }
      ],
      "name": "tokens",
      "outputs": [
        {
          "internalType": "address payable",
          "name": "owner",
          "type": "address"
        },
        {
          "internalType": "uint256",
          "name": "tokenId",
          "type": "uint256"
        },
        {
          "internalType": "string",
          "name": "tokenURI",
          "type": "string"
        },
        {
          "internalType": "uint256",
          "name": "price",
          "type": "uint256"
        },
        {
          "internalType": "string",
          "name": "name",
          "type": "string"
        },
        {
          "internalType": "string",
          "name": "description",
          "type": "string"
        },
        {
          "internalType": "string",
          "name": "category",
          "type": "string"
        },
        {
          "internalType": "bool",
          "name": "isListedForSale",
          "type": "bool"
        },
        {
          "internalType": "bool",
          "name": "isListedForAuction",
          "type": "bool"
        }
      ],
      "stateMutability": "view",
      "type": "function"
    },
    {
      "inputs": [
        {
          "internalType": "address",
          "name": "from",
          "type": "address"
        },
        {
          "internalType": "address",
          "name": "to",
          "type": "address"
        },
        {
          "internalType": "uint256",
          "name": "tokenId",
          "type": "uint256"
        }
      ],
      "name": "transferFrom",
      "outputs": [],
      "stateMutability": "nonpayable",
      "type": "function"
    },
    {
      "inputs": [
        {
          "internalType": "address",
          "name": "newOwner",
          "type": "address"
        }
      ],
      "name": "transferOwnership",
      "outputs": [],
      "stateMutability": "nonpayable",
      "type": "function"
    },
    {
      "inputs": [],
      "name": "viewAllTokens",
      "outputs": [
        {
          "components": [
            {
              "internalType": "address payable",
              "name": "owner",
              "type": "address"
            },
            {
              "internalType": "uint256",
              "name": "tokenId",
              "type": "uint256"
            },
            {
              "internalType": "string",
              "name": "tokenURI",
              "type": "string"
            },
            {
              "internalType": "uint256",
              "name": "price",
              "type": "uint256"
            },
            {
              "internalType": "string",
              "name": "name",
              "type": "string"
            },
            {
              "internalType": "string",
              "name": "description",
              "type": "string"
            },
            {
              "internalType": "string",
              "name": "category",
              "type": "string"
            },
            {
              "internalType": "bool",
              "name": "isListedForSale",
              "type": "bool"
            },
            {
              "internalType": "bool",
              "name": "isListedForAuction",
              "type": "bool"
            }
          ],
          "internalType": "struct Market.Token[]",
          "name": "",
          "type": "tuple[]"
        }
      ],
      "stateMutability": "view",
      "type": "function"
    }
  ],
  "bytecode": "0x60806040523480156200001157600080fd5b506040518060400160405280600c81526020017f4d61726b65745f506c61636500000000000000000000000000000000000000008152506040518060400160405280600381526020017f4d4b50000000000000000000000000000000000000000000000000000000000081525081600090816200008f919062000412565b508060019081620000a1919062000412565b505050620000c4620000b8620000ca60201b60201c565b620000d260201b60201c565b620004f9565b600033905090565b6000600760009054906101000a900473ffffffffffffffffffffffffffffffffffffffff16905081600760006101000a81548173ffffffffffffffffffffffffffffffffffffffff021916908373ffffffffffffffffffffffffffffffffffffffff1602179055508173ffffffffffffffffffffffffffffffffffffffff168173ffffffffffffffffffffffffffffffffffffffff167f8be0079c531659141344cd1fd0a4f28419497f9722a3daafe3b4186f6b6457e060405160405180910390a35050565b600081519050919050565b7f4e487b7100000000000000000000000000000000000000000000000000000000600052604160045260246000fd5b7f4e487b7100000000000000000000000000000000000000000000000000000000600052602260045260246000fd5b600060028204905060018216806200021a57607f821691505b60208210810362000230576200022f620001d2565b5b50919050565b60008190508160005260206000209050919050565b60006020601f8301049050919050565b600082821b905092915050565b6000600883026200029a7fffffffffffffffffffffffffffffffffffffffffffffffffffffffffffffffff826200025b565b620002a686836200025b565b95508019841693508086168417925050509392505050565b6000819050919050565b6000819050919050565b6000620002f3620002ed620002e784620002be565b620002c8565b620002be565b9050919050565b6000819050919050565b6200030f83620002d2565b620003276200031e82620002fa565b84845462000268565b825550505050565b600090565b6200033e6200032f565b6200034b81848462000304565b505050565b5b8181101562000373576200036760008262000334565b60018101905062000351565b5050565b601f821115620003c2576200038c8162000236565b62000397846200024b565b81016020851015620003a7578190505b620003bf620003b6856200024b565b83018262000350565b50505b505050565b600082821c905092915050565b6000620003e760001984600802620003c7565b1980831691505092915050565b6000620004028383620003d4565b9150826002028217905092915050565b6200041d8262000198565b67ffffffffffffffff811115620004395762000438620001a3565b5b62000445825462000201565b6200045282828562000377565b600060209050601f8311600181146200048a576000841562000475578287015190505b620004818582620003f4565b865550620004f1565b601f1984166200049a8662000236565b60005b82811015620004c4578489015182556001820191506020850194506020810190506200049d565b86831015620004e45784890151620004e0601f891682620003d4565b8355505b6001600288020188555050505b505050505050565b615ee880620005096000396000f3fe6080604052600436106101b75760003560e01c8063715018a6116100ec578063c87b56dd1161008a578063e985e9c511610064578063e985e9c5146105e5578063eec9057114610622578063f1daf0d41461065f578063f2fde38b1461068a576101b7565b8063c87b56dd14610561578063cbd2bdfd1461059e578063e8083863146105c9576101b7565b806391e078bb116100c657806391e078bb146104bb57806395d89b41146104e4578063a22cb4651461050f578063b88d4fde14610538576101b7565b8063715018a6146104505780638da5cb5b1461046757806391a48a1e14610492576101b7565b806323b872dd1161015957806342842e0e1161013357806342842e0e146103685780634f64b2be146103915780636352211e146103d657806370a0823114610413576101b7565b806323b872dd146102fa57806326b7aeea146103235780632dd7030b1461033f576101b7565b8063081812fc11610195578063081812fc1461024f578063095ea7b31461028c5780631361a3b6146102b5578063150bde03146102de576101b7565b806301ffc9a7146101bc57806302cfba81146101f957806306fdde0314610224575b600080fd5b3480156101c857600080fd5b506101e360048036038101906101de91906141f6565b6106b3565b6040516101f0919061423e565b60405180910390f35b34801561020557600080fd5b5061020e610714565b60405161021b91906144ee565b60405180910390f35b34801561023057600080fd5b50610239610a5c565b604051610246919061455a565b60405180910390f35b34801561025b57600080fd5b50610276600480360381019061027191906145a8565b610aee565b60405161028391906145f6565b60405180910390f35b34801561029857600080fd5b506102b360048036038101906102ae919061463d565b610b34565b005b3480156102c157600080fd5b506102dc60048036038101906102d791906145a8565b610c4b565b005b6102f860048036038101906102f391906145a8565b610d80565b005b34801561030657600080fd5b50610321600480360381019061031c919061467d565b61107f565b005b61033d600480360381019061033891906145a8565b6110df565b005b34801561034b57600080fd5b50610366600480360381019061036191906145a8565b6113d7565b005b34801561037457600080fd5b5061038f600480360381019061038a919061467d565b611624565b005b34801561039d57600080fd5b506103b860048036038101906103b391906145a8565b611644565b6040516103cd999897969594939291906146ee565b60405180910390f35b3480156103e257600080fd5b506103fd60048036038101906103f891906145a8565b6118fc565b60405161040a91906145f6565b60405180910390f35b34801561041f57600080fd5b5061043a60048036038101906104359190614797565b611982565b60405161044791906147c4565b60405180910390f35b34801561045c57600080fd5b50610465611a39565b005b34801561047357600080fd5b5061047c611a4d565b60405161048991906145f6565b60405180910390f35b34801561049e57600080fd5b506104b960048036038101906104b491906147df565b611a77565b005b3480156104c757600080fd5b506104e260048036038101906104dd919061481f565b611c8f565b005b3480156104f057600080fd5b506104f9611fcd565b604051610506919061455a565b60405180910390f35b34801561051b57600080fd5b506105366004803603810190610531919061489e565b61205f565b005b34801561054457600080fd5b5061055f600480360381019061055a9190614a13565b612075565b005b34801561056d57600080fd5b50610588600480360381019061058391906145a8565b6120d7565b604051610595919061455a565b60405180910390f35b3480156105aa57600080fd5b506105b36121e9565b6040516105c09190614bcf565b60405180910390f35b6105e360048036038101906105de91906145a8565b61231c565b005b3480156105f157600080fd5b5061060c60048036038101906106079190614bf1565b612928565b604051610619919061423e565b60405180910390f35b34801561062e57600080fd5b5061064960048036038101906106449190614cd2565b6129bc565b60405161065691906147c4565b60405180910390f35b34801561066b57600080fd5b50610674612b8a565b60405161068191906144ee565b60405180910390f35b34801561069657600080fd5b506106b160048036038101906106ac9190614797565b612f94565b005b6000634906490660e01b7bffffffffffffffffffffffffffffffffffffffffffffffffffffffff1916827bffffffffffffffffffffffffffffffffffffffffffffffffffffffff1916148061070d575061070c82613017565b5b9050919050565b60606009805480602002602001604051908101604052809291908181526020016000905b82821015610a535783829060005260206000209060080201604051806101200160405290816000820160009054906101000a900473ffffffffffffffffffffffffffffffffffffffff1673ffffffffffffffffffffffffffffffffffffffff1673ffffffffffffffffffffffffffffffffffffffff168152602001600182015481526020016002820180546107cc90614dd8565b80601f01602080910402602001604051908101604052809291908181526020018280546107f890614dd8565b80156108455780601f1061081a57610100808354040283529160200191610845565b820191906000526020600020905b81548152906001019060200180831161082857829003601f168201915b505050505081526020016003820154815260200160048201805461086890614dd8565b80601f016020809104026020016040519081016040528092919081815260200182805461089490614dd8565b80156108e15780601f106108b6576101008083540402835291602001916108e1565b820191906000526020600020905b8154815290600101906020018083116108c457829003601f168201915b505050505081526020016005820180546108fa90614dd8565b80601f016020809104026020016040519081016040528092919081815260200182805461092690614dd8565b80156109735780601f1061094857610100808354040283529160200191610973565b820191906000526020600020905b81548152906001019060200180831161095657829003601f168201915b5050505050815260200160068201805461098c90614dd8565b80601f01602080910402602001604051908101604052809291908181526020018280546109b890614dd8565b8015610a055780601f106109da57610100808354040283529160200191610a05565b820191906000526020600020905b8154815290600101906020018083116109e857829003601f168201915b505050505081526020016007820160009054906101000a900460ff161515151581526020016007820160019054906101000a900460ff16151515158152505081526020019060010190610738565b50505050905090565b606060008054610a6b90614dd8565b80601f0160208091040260200160405190810160405280929190818152602001828054610a9790614dd8565b8015610ae45780601f10610ab957610100808354040283529160200191610ae4565b820191906000526020600020905b815481529060010190602001808311610ac757829003601f168201915b5050505050905090565b6000610af9826130f9565b6004600083815260200190815260200160002060009054906101000a900473ffffffffffffffffffffffffffffffffffffffff169050919050565b6000610b3f826118fc565b90508073ffffffffffffffffffffffffffffffffffffffff168373ffffffffffffffffffffffffffffffffffffffff1603610baf576040517f08c379a0000000000000000000000000000000000000000000000000000000008152600401610ba690614e7b565b60405180910390fd5b8073ffffffffffffffffffffffffffffffffffffffff16610bce613144565b73ffffffffffffffffffffffffffffffffffffffff161480610bfd5750610bfc81610bf7613144565b612928565b5b610c3c576040517f08c379a0000000000000000000000000000000000000000000000000000000008152600401610c3390614f0d565b60405180910390fd5b610c46838361314c565b505050565b8060098181548110610c6057610c5f614f2d565b5b906000526020600020906008020160000160009054906101000a900473ffffffffffffffffffffffffffffffffffffffff1673ffffffffffffffffffffffffffffffffffffffff163373ffffffffffffffffffffffffffffffffffffffff1614610cc957600080fd5b8160098181548110610cde57610cdd614f2d565b5b906000526020600020906008020160070160009054906101000a900460ff1615610d3d576040517f08c379a0000000000000000000000000000000000000000000000000000000008152600401610d3490614fa8565b60405180910390fd5b600060098481548110610d5357610d52614f2d565b5b906000526020600020906008020160070160006101000a81548160ff021916908315150217905550505050565b8060098181548110610d9557610d94614f2d565b5b906000526020600020906008020160070160019054906101000a900460ff1615610df4576040517f08c379a0000000000000000000000000000000000000000000000000000000008152600401610deb90615014565b60405180910390fd5b600082101580610e08575060098054905082105b610e47576040517f08c379a0000000000000000000000000000000000000000000000000000000008152600401610e3e90615080565b60405180910390fd5b60098281548110610e5b57610e5a614f2d565b5b906000526020600020906008020160030154341015610eaf576040517f08c379a0000000000000000000000000000000000000000000000000000000008152600401610ea6906150ec565b60405180910390fd5b600060098381548110610ec557610ec4614f2d565b5b906000526020600020906008020160000160009054906101000a900473ffffffffffffffffffffffffffffffffffffffff1690508073ffffffffffffffffffffffffffffffffffffffff166108fc349081150290604051600060405180830381858888f19350505050158015610f3f573d6000803e3d6000fd5b503360098481548110610f5557610f54614f2d565b5b906000526020600020906008020160000160006101000a81548173ffffffffffffffffffffffffffffffffffffffff021916908373ffffffffffffffffffffffffffffffffffffffff160217905550610fd4813360098681548110610fbd57610fbc614f2d565b5b906000526020600020906008020160010154613205565b600060098481548110610fea57610fe9614f2d565b5b906000526020600020906008020160070160016101000a81548160ff02191690831515021790555060006009848154811061102857611027614f2d565b5b906000526020600020906008020160070160006101000a81548160ff021916908315150217905550346009848154811061106557611064614f2d565b5b906000526020600020906008020160030181905550505050565b61109061108a613144565b826134fe565b6110cf576040517f08c379a00000000000000000000000000000000000000000000000000000000081526004016110c69061517e565b60405180910390fd5b6110da838383613205565b505050565b3373ffffffffffffffffffffffffffffffffffffffff16600a828154811061110a57611109614f2d565b5b906000526020600020906006020160020160009054906101000a900473ffffffffffffffffffffffffffffffffffffffff1673ffffffffffffffffffffffffffffffffffffffff1603611192576040517f08c379a000000000000000000000000000000000000000000000000000000000815260040161118990615210565b60405180910390fd5b600a81815481106111a6576111a5614f2d565b5b90600052602060002090600602016004015434116111f9576040517f08c379a00000000000000000000000000000000000000000000000000000000081526004016111f0906152a2565b60405180910390fd5b600a818154811061120d5761120c614f2d565b5b9060005260206000209060060201600301544210611260576040517f08c379a00000000000000000000000000000000000000000000000000000000081526004016112579061530e565b60405180910390fd5b6000600a828154811061127657611275614f2d565b5b9060005260206000209060060201600401541115611346576000600a82815481106112a4576112a3614f2d565b5b906000526020600020906006020160050160009054906101000a900473ffffffffffffffffffffffffffffffffffffffff1690508073ffffffffffffffffffffffffffffffffffffffff166108fc600a848154811061130657611305614f2d565b5b9060005260206000209060060201600401549081150290604051600060405180830381858888f19350505050158015611343573d6000803e3d6000fd5b50505b34600a828154811061135b5761135a614f2d565b5b90600052602060002090600602016004018190555033600a828154811061138557611384614f2d565b5b906000526020600020906006020160050160006101000a81548173ffffffffffffffffffffffffffffffffffffffff021916908373ffffffffffffffffffffffffffffffffffffffff16021790555050565b60006009600a83815481106113ef576113ee614f2d565b5b9060005260206000209060060201600001548154811061141257611411614f2d565b5b906000526020600020906008020160070160016101000a81548160ff021916908315150217905550600a6001600a8054905061144e919061535d565b8154811061145f5761145e614f2d565b5b9060005260206000209060060201600a828154811061148157611480614f2d565b5b906000526020600020906006020160008201548160000155600182015481600101556002820160009054906101000a900473ffffffffffffffffffffffffffffffffffffffff168160020160006101000a81548173ffffffffffffffffffffffffffffffffffffffff021916908373ffffffffffffffffffffffffffffffffffffffff16021790555060038201548160030155600482015481600401556005820160009054906101000a900473ffffffffffffffffffffffffffffffffffffffff168160050160006101000a81548173ffffffffffffffffffffffffffffffffffffffff021916908373ffffffffffffffffffffffffffffffffffffffff160217905550905050600a80548061159a57611599615391565b5b600190038181906000526020600020906006020160008082016000905560018201600090556002820160006101000a81549073ffffffffffffffffffffffffffffffffffffffff0219169055600382016000905560048201600090556005820160006101000a81549073ffffffffffffffffffffffffffffffffffffffff02191690555050905550565b61163f83838360405180602001604052806000815250612075565b505050565b6009818154811061165457600080fd5b90600052602060002090600802016000915090508060000160009054906101000a900473ffffffffffffffffffffffffffffffffffffffff16908060010154908060020180546116a390614dd8565b80601f01602080910402602001604051908101604052809291908181526020018280546116cf90614dd8565b801561171c5780601f106116f15761010080835404028352916020019161171c565b820191906000526020600020905b8154815290600101906020018083116116ff57829003601f168201915b50505050509080600301549080600401805461173790614dd8565b80601f016020809104026020016040519081016040528092919081815260200182805461176390614dd8565b80156117b05780601f10611785576101008083540402835291602001916117b0565b820191906000526020600020905b81548152906001019060200180831161179357829003601f168201915b5050505050908060050180546117c590614dd8565b80601f01602080910402602001604051908101604052809291908181526020018280546117f190614dd8565b801561183e5780601f106118135761010080835404028352916020019161183e565b820191906000526020600020905b81548152906001019060200180831161182157829003601f168201915b50505050509080600601805461185390614dd8565b80601f016020809104026020016040519081016040528092919081815260200182805461187f90614dd8565b80156118cc5780601f106118a1576101008083540402835291602001916118cc565b820191906000526020600020905b8154815290600101906020018083116118af57829003601f168201915b5050505050908060070160009054906101000a900460ff16908060070160019054906101000a900460ff16905089565b60008061190883613593565b9050600073ffffffffffffffffffffffffffffffffffffffff168173ffffffffffffffffffffffffffffffffffffffff1603611979576040517f08c379a00000000000000000000000000000000000000000000000000000000081526004016119709061540c565b60405180910390fd5b80915050919050565b60008073ffffffffffffffffffffffffffffffffffffffff168273ffffffffffffffffffffffffffffffffffffffff16036119f2576040517f08c379a00000000000000000000000000000000000000000000000000000000081526004016119e99061549e565b60405180910390fd5b600360008373ffffffffffffffffffffffffffffffffffffffff1673ffffffffffffffffffffffffffffffffffffffff168152602001908152602001600020549050919050565b611a416135d0565b611a4b600061364e565b565b6000600760009054906101000a900473ffffffffffffffffffffffffffffffffffffffff16905090565b8160098181548110611a8c57611a8b614f2d565b5b906000526020600020906008020160000160009054906101000a900473ffffffffffffffffffffffffffffffffffffffff1673ffffffffffffffffffffffffffffffffffffffff163373ffffffffffffffffffffffffffffffffffffffff1614611af557600080fd5b8260098181548110611b0a57611b09614f2d565b5b906000526020600020906008020160070160009054906101000a900460ff1615611b69576040517f08c379a0000000000000000000000000000000000000000000000000000000008152600401611b6090614fa8565b60405180910390fd5b8360098181548110611b7e57611b7d614f2d565b5b906000526020600020906008020160070160019054906101000a900460ff1615611bdd576040517f08c379a0000000000000000000000000000000000000000000000000000000008152600401611bd490615014565b60405180910390fd5b60008411611c20576040517f08c379a0000000000000000000000000000000000000000000000000000000008152600401611c1790615530565b60405180910390fd5b8360098681548110611c3557611c34614f2d565b5b906000526020600020906008020160030181905550600160098681548110611c6057611c5f614f2d565b5b906000526020600020906008020160070160006101000a81548160ff0219169083151502179055505050505050565b8060098181548110611ca457611ca3614f2d565b5b906000526020600020906008020160000160009054906101000a900473ffffffffffffffffffffffffffffffffffffffff1673ffffffffffffffffffffffffffffffffffffffff163373ffffffffffffffffffffffffffffffffffffffff1614611d0d57600080fd5b8160098181548110611d2257611d21614f2d565b5b906000526020600020906008020160070160009054906101000a900460ff1615611d81576040517f08c379a0000000000000000000000000000000000000000000000000000000008152600401611d7890614fa8565b60405180910390fd5b8260098181548110611d9657611d95614f2d565b5b906000526020600020906008020160070160019054906101000a900460ff1615611df5576040517f08c379a0000000000000000000000000000000000000000000000000000000008152600401611dec90615014565b60405180910390fd5b611dfd6140c2565b33816040019073ffffffffffffffffffffffffffffffffffffffff16908173ffffffffffffffffffffffffffffffffffffffff16815250508542611e419190615550565b816060018181525050600081608001818152505060008160a0019073ffffffffffffffffffffffffffffffffffffffff16908173ffffffffffffffffffffffffffffffffffffffff16815250508681602001818152505084816000018181525050600160098681548110611eb857611eb7614f2d565b5b906000526020600020906008020160070160016101000a81548160ff021916908315150217905550600a819080600181540180825580915050600190039060005260206000209060060201600090919091909150600082015181600001556020820151816001015560408201518160020160006101000a81548173ffffffffffffffffffffffffffffffffffffffff021916908373ffffffffffffffffffffffffffffffffffffffff160217905550606082015181600301556080820151816004015560a08201518160050160006101000a81548173ffffffffffffffffffffffffffffffffffffffff021916908373ffffffffffffffffffffffffffffffffffffffff160217905550505050505050505050565b606060018054611fdc90614dd8565b80601f016020809104026020016040519081016040528092919081815260200182805461200890614dd8565b80156120555780601f1061202a57610100808354040283529160200191612055565b820191906000526020600020905b81548152906001019060200180831161203857829003601f168201915b5050505050905090565b61207161206a613144565b8383613714565b5050565b612086612080613144565b836134fe565b6120c5576040517f08c379a00000000000000000000000000000000000000000000000000000000081526004016120bc9061517e565b60405180910390fd5b6120d184848484613880565b50505050565b60606120e2826130f9565b600060066000848152602001908152602001600020805461210290614dd8565b80601f016020809104026020016040519081016040528092919081815260200182805461212e90614dd8565b801561217b5780601f106121505761010080835404028352916020019161217b565b820191906000526020600020905b81548152906001019060200180831161215e57829003601f168201915b50505050509050600061218c6138dc565b905060008151036121a15781925050506121e4565b6000825111156121d65780826040516020016121be9291906155c0565b604051602081830303815290604052925050506121e4565b6121df846138f3565b925050505b919050565b6060600a805480602002602001604051908101604052809291908181526020016000905b8282101561231357838290600052602060002090600602016040518060c001604052908160008201548152602001600182015481526020016002820160009054906101000a900473ffffffffffffffffffffffffffffffffffffffff1673ffffffffffffffffffffffffffffffffffffffff1673ffffffffffffffffffffffffffffffffffffffff16815260200160038201548152602001600482015481526020016005820160009054906101000a900473ffffffffffffffffffffffffffffffffffffffff1673ffffffffffffffffffffffffffffffffffffffff1673ffffffffffffffffffffffffffffffffffffffff16815250508152602001906001019061220d565b50505050905090565b80600a818154811061233157612330614f2d565b5b906000526020600020906006020160020160009054906101000a900473ffffffffffffffffffffffffffffffffffffffff1673ffffffffffffffffffffffffffffffffffffffff163373ffffffffffffffffffffffffffffffffffffffff161461239a57600080fd5b6000600a83815481106123b0576123af614f2d565b5b90600052602060002090600602016004015411612402576040517f08c379a00000000000000000000000000000000000000000000000000000000081526004016123f990615630565b60405180910390fd5b6000600a838154811061241857612417614f2d565b5b906000526020600020906006020160020160009054906101000a900473ffffffffffffffffffffffffffffffffffffffff1690506124e681600a858154811061246457612463614f2d565b5b906000526020600020906006020160050160009054906101000a900473ffffffffffffffffffffffffffffffffffffffff166009600a87815481106124ac576124ab614f2d565b5b906000526020600020906006020160000154815481106124cf576124ce614f2d565b5b90600052602060002090600802016001015461107f565b600a83815481106124fa576124f9614f2d565b5b906000526020600020906006020160050160009054906101000a900473ffffffffffffffffffffffffffffffffffffffff166009600a858154811061254257612541614f2d565b5b9060005260206000209060060201600001548154811061256557612564614f2d565b5b906000526020600020906008020160000160006101000a81548173ffffffffffffffffffffffffffffffffffffffff021916908373ffffffffffffffffffffffffffffffffffffffff160217905550600a83815481106125c8576125c7614f2d565b5b9060005260206000209060060201600401546009600a85815481106125f0576125ef614f2d565b5b9060005260206000209060060201600001548154811061261357612612614f2d565b5b90600052602060002090600802016003018190555060006009600a85815481106126405761263f614f2d565b5b9060005260206000209060060201600001548154811061266357612662614f2d565b5b906000526020600020906008020160070160016101000a81548160ff021916908315150217905550600a838154811061269f5761269e614f2d565b5b906000526020600020906006020160020160009054906101000a900473ffffffffffffffffffffffffffffffffffffffff1673ffffffffffffffffffffffffffffffffffffffff166108fc600a85815481106126fe576126fd614f2d565b5b9060005260206000209060060201600401549081150290604051600060405180830381858888f1935050505015801561273b573d6000803e3d6000fd5b50600a6001600a80549050612750919061535d565b8154811061276157612760614f2d565b5b9060005260206000209060060201600a848154811061278357612782614f2d565b5b906000526020600020906006020160008201548160000155600182015481600101556002820160009054906101000a900473ffffffffffffffffffffffffffffffffffffffff168160020160006101000a81548173ffffffffffffffffffffffffffffffffffffffff021916908373ffffffffffffffffffffffffffffffffffffffff16021790555060038201548160030155600482015481600401556005820160009054906101000a900473ffffffffffffffffffffffffffffffffffffffff168160050160006101000a81548173ffffffffffffffffffffffffffffffffffffffff021916908373ffffffffffffffffffffffffffffffffffffffff160217905550905050600a80548061289c5761289b615391565b5b600190038181906000526020600020906006020160008082016000905560018201600090556002820160006101000a81549073ffffffffffffffffffffffffffffffffffffffff0219169055600382016000905560048201600090556005820160006101000a81549073ffffffffffffffffffffffffffffffffffffffff021916905550509055505050565b6000600560008473ffffffffffffffffffffffffffffffffffffffff1673ffffffffffffffffffffffffffffffffffffffff16815260200190815260200160002060008373ffffffffffffffffffffffffffffffffffffffff1673ffffffffffffffffffffffffffffffffffffffff16815260200190815260200160002060009054906101000a900460ff16905092915050565b6000806129c9600861395b565b90506129d53382613969565b6129df8187613b86565b60006040518061012001604052803373ffffffffffffffffffffffffffffffffffffffff16815260200183815260200188815260200160008152602001878152602001868152602001858152602001600015158152602001600015158152509050600981908060018154018082558091505060019003906000526020600020906008020160009091909190915060008201518160000160006101000a81548173ffffffffffffffffffffffffffffffffffffffff021916908373ffffffffffffffffffffffffffffffffffffffff160217905550602082015181600101556040820151816002019081612ad291906157fc565b50606082015181600301556080820151816004019081612af291906157fc565b5060a0820151816005019081612b0891906157fc565b5060c0820151816006019081612b1e91906157fc565b5060e08201518160070160006101000a81548160ff0219169083151502179055506101008201518160070160016101000a81548160ff0219169083151502179055505050612b6c6008613c2a565b6001600980549050612b7e919061535d565b92505050949350505050565b6060600060098054905067ffffffffffffffff811115612bad57612bac6148e8565b5b604051908082528060200260200182016040528015612be657816020015b612bd3614124565b815260200190600190039081612bcb5790505b5090506000805b600980549050811015612f885760098181548110612c0e57612c0d614f2d565b5b906000526020600020906008020160070160009054906101000a900460ff1615612f755760098181548110612c4657612c45614f2d565b5b9060005260206000209060080201604051806101200160405290816000820160009054906101000a900473ffffffffffffffffffffffffffffffffffffffff1673ffffffffffffffffffffffffffffffffffffffff1673ffffffffffffffffffffffffffffffffffffffff16815260200160018201548152602001600282018054612cd090614dd8565b80601f0160208091040260200160405190810160405280929190818152602001828054612cfc90614dd8565b8015612d495780601f10612d1e57610100808354040283529160200191612d49565b820191906000526020600020905b815481529060010190602001808311612d2c57829003601f168201915b5050505050815260200160038201548152602001600482018054612d6c90614dd8565b80601f0160208091040260200160405190810160405280929190818152602001828054612d9890614dd8565b8015612de55780601f10612dba57610100808354040283529160200191612de5565b820191906000526020600020905b815481529060010190602001808311612dc857829003601f168201915b50505050508152602001600582018054612dfe90614dd8565b80601f0160208091040260200160405190810160405280929190818152602001828054612e2a90614dd8565b8015612e775780601f10612e4c57610100808354040283529160200191612e77565b820191906000526020600020905b815481529060010190602001808311612e5a57829003601f168201915b50505050508152602001600682018054612e9090614dd8565b80601f0160208091040260200160405190810160405280929190818152602001828054612ebc90614dd8565b8015612f095780601f10612ede57610100808354040283529160200191612f09565b820191906000526020600020905b815481529060010190602001808311612eec57829003601f168201915b505050505081526020016007820160009054906101000a900460ff161515151581526020016007820160019054906101000a900460ff161515151581525050838381518110612f5b57612f5a614f2d565b5b60200260200101819052508180612f71906158ce565b9250505b8080612f80906158ce565b915050612bed565b50808252819250505090565b612f9c6135d0565b600073ffffffffffffffffffffffffffffffffffffffff168173ffffffffffffffffffffffffffffffffffffffff160361300b576040517f08c379a000000000000000000000000000000000000000000000000000000000815260040161300290615988565b60405180910390fd5b6130148161364e565b50565b60007f80ac58cd000000000000000000000000000000000000000000000000000000007bffffffffffffffffffffffffffffffffffffffffffffffffffffffff1916827bffffffffffffffffffffffffffffffffffffffffffffffffffffffff191614806130e257507f5b5e139f000000000000000000000000000000000000000000000000000000007bffffffffffffffffffffffffffffffffffffffffffffffffffffffff1916827bffffffffffffffffffffffffffffffffffffffffffffffffffffffff1916145b806130f257506130f182613c40565b5b9050919050565b61310281613caa565b613141576040517f08c379a00000000000000000000000000000000000000000000000000000000081526004016131389061540c565b60405180910390fd5b50565b600033905090565b816004600083815260200190815260200160002060006101000a81548173ffffffffffffffffffffffffffffffffffffffff021916908373ffffffffffffffffffffffffffffffffffffffff160217905550808273ffffffffffffffffffffffffffffffffffffffff166131bf836118fc565b73ffffffffffffffffffffffffffffffffffffffff167f8c5be1e5ebec7d5bd14f71427d1e84f3dd0314c0f7b2291e5b200ac8c7c3b92560405160405180910390a45050565b8273ffffffffffffffffffffffffffffffffffffffff16613225826118fc565b73ffffffffffffffffffffffffffffffffffffffff161461327b576040517f08c379a000000000000000000000000000000000000000000000000000000000815260040161327290615a1a565b60405180910390fd5b600073ffffffffffffffffffffffffffffffffffffffff168273ffffffffffffffffffffffffffffffffffffffff16036132ea576040517f08c379a00000000000000000000000000000000000000000000000000000000081526004016132e190615aac565b60405180910390fd5b6132f78383836001613ceb565b8273ffffffffffffffffffffffffffffffffffffffff16613317826118fc565b73ffffffffffffffffffffffffffffffffffffffff161461336d576040517f08c379a000000000000000000000000000000000000000000000000000000000815260040161336490615a1a565b60405180910390fd5b6004600082815260200190815260200160002060006101000a81549073ffffffffffffffffffffffffffffffffffffffff02191690556001600360008573ffffffffffffffffffffffffffffffffffffffff1673ffffffffffffffffffffffffffffffffffffffff168152602001908152602001600020600082825403925050819055506001600360008473ffffffffffffffffffffffffffffffffffffffff1673ffffffffffffffffffffffffffffffffffffffff16815260200190815260200160002060008282540192505081905550816002600083815260200190815260200160002060006101000a81548173ffffffffffffffffffffffffffffffffffffffff021916908373ffffffffffffffffffffffffffffffffffffffff160217905550808273ffffffffffffffffffffffffffffffffffffffff168473ffffffffffffffffffffffffffffffffffffffff167fddf252ad1be2c89b69c2b068fc378daa952ba7f163c4a11628f55a4df523b3ef60405160405180910390a46134f98383836001613cf1565b505050565b60008061350a836118fc565b90508073ffffffffffffffffffffffffffffffffffffffff168473ffffffffffffffffffffffffffffffffffffffff16148061354c575061354b8185612928565b5b8061358a57508373ffffffffffffffffffffffffffffffffffffffff1661357284610aee565b73ffffffffffffffffffffffffffffffffffffffff16145b91505092915050565b60006002600083815260200190815260200160002060009054906101000a900473ffffffffffffffffffffffffffffffffffffffff169050919050565b6135d8613144565b73ffffffffffffffffffffffffffffffffffffffff166135f6611a4d565b73ffffffffffffffffffffffffffffffffffffffff161461364c576040517f08c379a000000000000000000000000000000000000000000000000000000000815260040161364390615b18565b60405180910390fd5b565b6000600760009054906101000a900473ffffffffffffffffffffffffffffffffffffffff16905081600760006101000a81548173ffffffffffffffffffffffffffffffffffffffff021916908373ffffffffffffffffffffffffffffffffffffffff1602179055508173ffffffffffffffffffffffffffffffffffffffff168173ffffffffffffffffffffffffffffffffffffffff167f8be0079c531659141344cd1fd0a4f28419497f9722a3daafe3b4186f6b6457e060405160405180910390a35050565b8173ffffffffffffffffffffffffffffffffffffffff168373ffffffffffffffffffffffffffffffffffffffff1603613782576040517f08c379a000000000000000000000000000000000000000000000000000000000815260040161377990615b84565b60405180910390fd5b80600560008573ffffffffffffffffffffffffffffffffffffffff1673ffffffffffffffffffffffffffffffffffffffff16815260200190815260200160002060008473ffffffffffffffffffffffffffffffffffffffff1673ffffffffffffffffffffffffffffffffffffffff16815260200190815260200160002060006101000a81548160ff0219169083151502179055508173ffffffffffffffffffffffffffffffffffffffff168373ffffffffffffffffffffffffffffffffffffffff167f17307eab39ab6107e8899845ad3d59bd9653f200f220920489ca2b5937696c3183604051613873919061423e565b60405180910390a3505050565b61388b848484613205565b61389784848484613cf7565b6138d6576040517f08c379a00000000000000000000000000000000000000000000000000000000081526004016138cd90615c16565b60405180910390fd5b50505050565b606060405180602001604052806000815250905090565b60606138fe826130f9565b60006139086138dc565b905060008151116139285760405180602001604052806000815250613953565b8061393284613e7e565b6040516020016139439291906155c0565b6040516020818303038152906040525b915050919050565b600081600001549050919050565b600073ffffffffffffffffffffffffffffffffffffffff168273ffffffffffffffffffffffffffffffffffffffff16036139d8576040517f08c379a00000000000000000000000000000000000000000000000000000000081526004016139cf90615c82565b60405180910390fd5b6139e181613caa565b15613a21576040517f08c379a0000000000000000000000000000000000000000000000000000000008152600401613a1890615cee565b60405180910390fd5b613a2f600083836001613ceb565b613a3881613caa565b15613a78576040517f08c379a0000000000000000000000000000000000000000000000000000000008152600401613a6f90615cee565b60405180910390fd5b6001600360008473ffffffffffffffffffffffffffffffffffffffff1673ffffffffffffffffffffffffffffffffffffffff16815260200190815260200160002060008282540192505081905550816002600083815260200190815260200160002060006101000a81548173ffffffffffffffffffffffffffffffffffffffff021916908373ffffffffffffffffffffffffffffffffffffffff160217905550808273ffffffffffffffffffffffffffffffffffffffff16600073ffffffffffffffffffffffffffffffffffffffff167fddf252ad1be2c89b69c2b068fc378daa952ba7f163c4a11628f55a4df523b3ef60405160405180910390a4613b82600083836001613cf1565b5050565b613b8f82613caa565b613bce576040517f08c379a0000000000000000000000000000000000000000000000000000000008152600401613bc590615d80565b60405180910390fd5b80600660008481526020019081526020016000209081613bee91906157fc565b507ff8e1a15aba9398e019f0b49df1a4fde98ee17ae345cb5f6b5e2c27f5033e8ce782604051613c1e91906147c4565b60405180910390a15050565b6001816000016000828254019250508190555050565b60007f01ffc9a7000000000000000000000000000000000000000000000000000000007bffffffffffffffffffffffffffffffffffffffffffffffffffffffff1916827bffffffffffffffffffffffffffffffffffffffffffffffffffffffff1916149050919050565b60008073ffffffffffffffffffffffffffffffffffffffff16613ccc83613593565b73ffffffffffffffffffffffffffffffffffffffff1614159050919050565b50505050565b50505050565b6000613d188473ffffffffffffffffffffffffffffffffffffffff16613f4c565b15613e71578373ffffffffffffffffffffffffffffffffffffffff1663150b7a02613d41613144565b8786866040518563ffffffff1660e01b8152600401613d639493929190615df5565b6020604051808303816000875af1925050508015613d9f57506040513d601f19601f82011682018060405250810190613d9c9190615e56565b60015b613e21573d8060008114613dcf576040519150601f19603f3d011682016040523d82523d6000602084013e613dd4565b606091505b506000815103613e19576040517f08c379a0000000000000000000000000000000000000000000000000000000008152600401613e1090615c16565b60405180910390fd5b805181602001fd5b63150b7a0260e01b7bffffffffffffffffffffffffffffffffffffffffffffffffffffffff1916817bffffffffffffffffffffffffffffffffffffffffffffffffffffffff191614915050613e76565b600190505b949350505050565b606060006001613e8d84613f6f565b01905060008167ffffffffffffffff811115613eac57613eab6148e8565b5b6040519080825280601f01601f191660200182016040528015613ede5781602001600182028036833780820191505090505b509050600082602001820190505b600115613f41578080600190039150507f3031323334353637383961626364656600000000000000000000000000000000600a86061a8153600a8581613f3557613f34615e83565b5b04945060008503613eec575b819350505050919050565b6000808273ffffffffffffffffffffffffffffffffffffffff163b119050919050565b600080600090507a184f03e93ff9f4daa797ed6e38ed64bf6a1f0100000000000000008310613fcd577a184f03e93ff9f4daa797ed6e38ed64bf6a1f0100000000000000008381613fc357613fc2615e83565b5b0492506040810190505b6d04ee2d6d415b85acef8100000000831061400a576d04ee2d6d415b85acef8100000000838161400057613fff615e83565b5b0492506020810190505b662386f26fc10000831061403957662386f26fc10000838161402f5761402e615e83565b5b0492506010810190505b6305f5e1008310614062576305f5e100838161405857614057615e83565b5b0492506008810190505b612710831061408757612710838161407d5761407c615e83565b5b0492506004810190505b606483106140aa57606483816140a05761409f615e83565b5b0492506002810190505b600a83106140b9576001810190505b80915050919050565b6040518060c001604052806000815260200160008152602001600073ffffffffffffffffffffffffffffffffffffffff1681526020016000815260200160008152602001600073ffffffffffffffffffffffffffffffffffffffff1681525090565b604051806101200160405280600073ffffffffffffffffffffffffffffffffffffffff1681526020016000815260200160608152602001600081526020016060815260200160608152602001606081526020016000151581526020016000151581525090565b6000604051905090565b600080fd5b600080fd5b60007fffffffff0000000000000000000000000000000000000000000000000000000082169050919050565b6141d38161419e565b81146141de57600080fd5b50565b6000813590506141f0816141ca565b92915050565b60006020828403121561420c5761420b614194565b5b600061421a848285016141e1565b91505092915050565b60008115159050919050565b61423881614223565b82525050565b6000602082019050614253600083018461422f565b92915050565b600081519050919050565b600082825260208201905092915050565b6000819050602082019050919050565b600073ffffffffffffffffffffffffffffffffffffffff82169050919050565b60006142b082614285565b9050919050565b6142c0816142a5565b82525050565b6000819050919050565b6142d9816142c6565b82525050565b600081519050919050565b600082825260208201905092915050565b60005b838110156143195780820151818401526020810190506142fe565b60008484015250505050565b6000601f19601f8301169050919050565b6000614341826142df565b61434b81856142ea565b935061435b8185602086016142fb565b61436481614325565b840191505092915050565b61437881614223565b82525050565b60006101208301600083015161439760008601826142b7565b5060208301516143aa60208601826142d0565b50604083015184820360408601526143c28282614336565b91505060608301516143d760608601826142d0565b50608083015184820360808601526143ef8282614336565b91505060a083015184820360a08601526144098282614336565b91505060c083015184820360c08601526144238282614336565b91505060e083015161443860e086018261436f565b5061010083015161444d61010086018261436f565b508091505092915050565b6000614464838361437e565b905092915050565b6000602082019050919050565b600061448482614259565b61448e8185614264565b9350836020820285016144a085614275565b8060005b858110156144dc57848403895281516144bd8582614458565b94506144c88361446c565b925060208a019950506001810190506144a4565b50829750879550505050505092915050565b600060208201905081810360008301526145088184614479565b905092915050565b600082825260208201905092915050565b600061452c826142df565b6145368185614510565b93506145468185602086016142fb565b61454f81614325565b840191505092915050565b600060208201905081810360008301526145748184614521565b905092915050565b614585816142c6565b811461459057600080fd5b50565b6000813590506145a28161457c565b92915050565b6000602082840312156145be576145bd614194565b5b60006145cc84828501614593565b91505092915050565b60006145e082614285565b9050919050565b6145f0816145d5565b82525050565b600060208201905061460b60008301846145e7565b92915050565b61461a816145d5565b811461462557600080fd5b50565b60008135905061463781614611565b92915050565b6000806040838503121561465457614653614194565b5b600061466285828601614628565b925050602061467385828601614593565b9150509250929050565b60008060006060848603121561469657614695614194565b5b60006146a486828701614628565b93505060206146b586828701614628565b92505060406146c686828701614593565b9150509250925092565b6146d9816142a5565b82525050565b6146e8816142c6565b82525050565b600061012082019050614704600083018c6146d0565b614711602083018b6146df565b8181036040830152614723818a614521565b905061473260608301896146df565b81810360808301526147448188614521565b905081810360a08301526147588187614521565b905081810360c083015261476c8186614521565b905061477b60e083018561422f565b61478961010083018461422f565b9a9950505050505050505050565b6000602082840312156147ad576147ac614194565b5b60006147bb84828501614628565b91505092915050565b60006020820190506147d960008301846146df565b92915050565b600080604083850312156147f6576147f5614194565b5b600061480485828601614593565b925050602061481585828601614593565b9150509250929050565b60008060006060848603121561483857614837614194565b5b600061484686828701614593565b935050602061485786828701614593565b925050604061486886828701614593565b9150509250925092565b61487b81614223565b811461488657600080fd5b50565b60008135905061489881614872565b92915050565b600080604083850312156148b5576148b4614194565b5b60006148c385828601614628565b92505060206148d485828601614889565b9150509250929050565b600080fd5b600080fd5b7f4e487b7100000000000000000000000000000000000000000000000000000000600052604160045260246000fd5b61492082614325565b810181811067ffffffffffffffff8211171561493f5761493e6148e8565b5b80604052505050565b600061495261418a565b905061495e8282614917565b919050565b600067ffffffffffffffff82111561497e5761497d6148e8565b5b61498782614325565b9050602081019050919050565b82818337600083830152505050565b60006149b66149b184614963565b614948565b9050828152602081018484840111156149d2576149d16148e3565b5b6149dd848285614994565b509392505050565b600082601f8301126149fa576149f96148de565b5b8135614a0a8482602086016149a3565b91505092915050565b60008060008060808587031215614a2d57614a2c614194565b5b6000614a3b87828801614628565b9450506020614a4c87828801614628565b9350506040614a5d87828801614593565b925050606085013567ffffffffffffffff811115614a7e57614a7d614199565b5b614a8a878288016149e5565b91505092959194509250565b600081519050919050565b600082825260208201905092915050565b6000819050602082019050919050565b614acb816145d5565b82525050565b60c082016000820151614ae760008501826142d0565b506020820151614afa60208501826142d0565b506040820151614b0d60408501826142b7565b506060820151614b2060608501826142d0565b506080820151614b3360808501826142d0565b5060a0820151614b4660a0850182614ac2565b50505050565b6000614b588383614ad1565b60c08301905092915050565b6000602082019050919050565b6000614b7c82614a96565b614b868185614aa1565b9350614b9183614ab2565b8060005b83811015614bc2578151614ba98882614b4c565b9750614bb483614b64565b925050600181019050614b95565b5085935050505092915050565b60006020820190508181036000830152614be98184614b71565b905092915050565b60008060408385031215614c0857614c07614194565b5b6000614c1685828601614628565b9250506020614c2785828601614628565b9150509250929050565b600067ffffffffffffffff821115614c4c57614c4b6148e8565b5b614c5582614325565b9050602081019050919050565b6000614c75614c7084614c31565b614948565b905082815260208101848484011115614c9157614c906148e3565b5b614c9c848285614994565b509392505050565b600082601f830112614cb957614cb86148de565b5b8135614cc9848260208601614c62565b91505092915050565b60008060008060808587031215614cec57614ceb614194565b5b600085013567ffffffffffffffff811115614d0a57614d09614199565b5b614d1687828801614ca4565b945050602085013567ffffffffffffffff811115614d3757614d36614199565b5b614d4387828801614ca4565b935050604085013567ffffffffffffffff811115614d6457614d63614199565b5b614d7087828801614ca4565b925050606085013567ffffffffffffffff811115614d9157614d90614199565b5b614d9d87828801614ca4565b91505092959194509250565b7f4e487b7100000000000000000000000000000000000000000000000000000000600052602260045260246000fd5b60006002820490506001821680614df057607f821691505b602082108103614e0357614e02614da9565b5b50919050565b7f4552433732313a20617070726f76616c20746f2063757272656e74206f776e6560008201527f7200000000000000000000000000000000000000000000000000000000000000602082015250565b6000614e65602183614510565b9150614e7082614e09565b604082019050919050565b60006020820190508181036000830152614e9481614e58565b9050919050565b7f4552433732313a20617070726f76652063616c6c6572206973206e6f7420746f60008201527f6b656e206f776e6572206f7220617070726f76656420666f7220616c6c000000602082015250565b6000614ef7603d83614510565b9150614f0282614e9b565b604082019050919050565b60006020820190508181036000830152614f2681614eea565b9050919050565b7f4e487b7100000000000000000000000000000000000000000000000000000000600052603260045260246000fd5b7f416c7265616479206c697374656420666f722073616c65000000000000000000600082015250565b6000614f92601783614510565b9150614f9d82614f5c565b602082019050919050565b60006020820190508181036000830152614fc181614f85565b9050919050565b7f416c7265616479204c697374656420666f722041756374696f6e000000000000600082015250565b6000614ffe601a83614510565b915061500982614fc8565b602082019050919050565b6000602082019050818103600083015261502d81614ff1565b9050919050565b7f696e76616c696420696e64657800000000000000000000000000000000000000600082015250565b600061506a600d83614510565b915061507582615034565b602082019050919050565b600060208201905081810360008301526150998161505d565b9050919050565b7f496e73756666696369656e7420616d6f756e7400000000000000000000000000600082015250565b60006150d6601383614510565b91506150e1826150a0565b602082019050919050565b60006020820190508181036000830152615105816150c9565b9050919050565b7f4552433732313a2063616c6c6572206973206e6f7420746f6b656e206f776e6560008201527f72206f7220617070726f76656400000000000000000000000000000000000000602082015250565b6000615168602d83614510565b91506151738261510c565b604082019050919050565b600060208201905081810360008301526151978161515b565b9050919050565b7f4f776e6572732063616e6e6f7420626964206f6e207468656972206f776e204e60008201527f4654000000000000000000000000000000000000000000000000000000000000602082015250565b60006151fa602283614510565b91506152058261519e565b604082019050919050565b60006020820190508181036000830152615229816151ed565b9050919050565b7f426964206d75737420626520686967686572207468616e20746865207072657660008201527f696f757320626964000000000000000000000000000000000000000000000000602082015250565b600061528c602883614510565b915061529782615230565b604082019050919050565b600060208201905081810360008301526152bb8161527f565b9050919050565b7f41756374696f6e2068617320656e646564000000000000000000000000000000600082015250565b60006152f8601183614510565b9150615303826152c2565b602082019050919050565b60006020820190508181036000830152615327816152eb565b9050919050565b7f4e487b7100000000000000000000000000000000000000000000000000000000600052601160045260246000fd5b6000615368826142c6565b9150615373836142c6565b925082820390508181111561538b5761538a61532e565b5b92915050565b7f4e487b7100000000000000000000000000000000000000000000000000000000600052603160045260246000fd5b7f4552433732313a20696e76616c696420746f6b656e2049440000000000000000600082015250565b60006153f6601883614510565b9150615401826153c0565b602082019050919050565b60006020820190508181036000830152615425816153e9565b9050919050565b7f4552433732313a2061646472657373207a65726f206973206e6f74206120766160008201527f6c6964206f776e65720000000000000000000000000000000000000000000000602082015250565b6000615488602983614510565b91506154938261542c565b604082019050919050565b600060208201905081810360008301526154b78161547b565b9050919050565b7f50726963652073686f756c642062652067726561746572207468616e207a657260008201527f6f00000000000000000000000000000000000000000000000000000000000000602082015250565b600061551a602183614510565b9150615525826154be565b604082019050919050565b600060208201905081810360008301526155498161550d565b9050919050565b600061555b826142c6565b9150615566836142c6565b925082820190508082111561557e5761557d61532e565b5b92915050565b600081905092915050565b600061559a826142df565b6155a48185615584565b93506155b48185602086016142fb565b80840191505092915050565b60006155cc828561558f565b91506155d8828461558f565b91508190509392505050565b7f4e6f206f6e652068617320626964206f6e207468652061756374696f6e000000600082015250565b600061561a601d83614510565b9150615625826155e4565b602082019050919050565b600060208201905081810360008301526156498161560d565b9050919050565b60008190508160005260206000209050919050565b60006020601f8301049050919050565b600082821b905092915050565b6000600883026156b27fffffffffffffffffffffffffffffffffffffffffffffffffffffffffffffffff82615675565b6156bc8683615675565b95508019841693508086168417925050509392505050565b6000819050919050565b60006156f96156f46156ef846142c6565b6156d4565b6142c6565b9050919050565b6000819050919050565b615713836156de565b61572761571f82615700565b848454615682565b825550505050565b600090565b61573c61572f565b61574781848461570a565b505050565b5b8181101561576b57615760600082615734565b60018101905061574d565b5050565b601f8211156157b05761578181615650565b61578a84615665565b81016020851015615799578190505b6157ad6157a585615665565b83018261574c565b50505b505050565b600082821c905092915050565b60006157d3600019846008026157b5565b1980831691505092915050565b60006157ec83836157c2565b9150826002028217905092915050565b615805826142df565b67ffffffffffffffff81111561581e5761581d6148e8565b5b6158288254614dd8565b61583382828561576f565b600060209050601f8311600181146158665760008415615854578287015190505b61585e85826157e0565b8655506158c6565b601f19841661587486615650565b60005b8281101561589c57848901518255600182019150602085019450602081019050615877565b868310156158b957848901516158b5601f8916826157c2565b8355505b6001600288020188555050505b505050505050565b60006158d9826142c6565b91507fffffffffffffffffffffffffffffffffffffffffffffffffffffffffffffffff820361590b5761590a61532e565b5b600182019050919050565b7f4f776e61626c653a206e6577206f776e657220697320746865207a65726f206160008201527f6464726573730000000000000000000000000000000000000000000000000000602082015250565b6000615972602683614510565b915061597d82615916565b604082019050919050565b600060208201905081810360008301526159a181615965565b9050919050565b7f4552433732313a207472616e736665722066726f6d20696e636f72726563742060008201527f6f776e6572000000000000000000000000000000000000000000000000000000602082015250565b6000615a04602583614510565b9150615a0f826159a8565b604082019050919050565b60006020820190508181036000830152615a33816159f7565b9050919050565b7f4552433732313a207472616e7366657220746f20746865207a65726f2061646460008201527f7265737300000000000000000000000000000000000000000000000000000000602082015250565b6000615a96602483614510565b9150615aa182615a3a565b604082019050919050565b60006020820190508181036000830152615ac581615a89565b9050919050565b7f4f776e61626c653a2063616c6c6572206973206e6f7420746865206f776e6572600082015250565b6000615b02602083614510565b9150615b0d82615acc565b602082019050919050565b60006020820190508181036000830152615b3181615af5565b9050919050565b7f4552433732313a20617070726f766520746f2063616c6c657200000000000000600082015250565b6000615b6e601983614510565b9150615b7982615b38565b602082019050919050565b60006020820190508181036000830152615b9d81615b61565b9050919050565b7f4552433732313a207472616e7366657220746f206e6f6e20455243373231526560008201527f63656976657220696d706c656d656e7465720000000000000000000000000000602082015250565b6000615c00603283614510565b9150615c0b82615ba4565b604082019050919050565b60006020820190508181036000830152615c2f81615bf3565b9050919050565b7f4552433732313a206d696e7420746f20746865207a65726f2061646472657373600082015250565b6000615c6c602083614510565b9150615c7782615c36565b602082019050919050565b60006020820190508181036000830152615c9b81615c5f565b9050919050565b7f4552433732313a20746f6b656e20616c7265616479206d696e74656400000000600082015250565b6000615cd8601c83614510565b9150615ce382615ca2565b602082019050919050565b60006020820190508181036000830152615d0781615ccb565b9050919050565b7f45524337323155524953746f726167653a2055524920736574206f66206e6f6e60008201527f6578697374656e7420746f6b656e000000000000000000000000000000000000602082015250565b6000615d6a602e83614510565b9150615d7582615d0e565b604082019050919050565b60006020820190508181036000830152615d9981615d5d565b9050919050565b600081519050919050565b600082825260208201905092915050565b6000615dc782615da0565b615dd18185615dab565b9350615de18185602086016142fb565b615dea81614325565b840191505092915050565b6000608082019050615e0a60008301876145e7565b615e1760208301866145e7565b615e2460408301856146df565b8181036060830152615e368184615dbc565b905095945050505050565b600081519050615e50816141ca565b92915050565b600060208284031215615e6c57615e6b614194565b5b6000615e7a84828501615e41565b91505092915050565b7f4e487b7100000000000000000000000000000000000000000000000000000000600052601260045260246000fdfea26469706673582212206bd4b2755eb5c957de7a86a194f8909170e083392e95fa8099ba1a43d4086d9564736f6c63430008130033",
  "linkReferences": {},
  "deployedLinkReferences": {}
}