{
  "_format": "hh-sol-artifact-1",
  "contractName": "Market",
  "sourceName": "contracts/NFTmarketplace.sol",
  "abi": [
    {
      "inputs": [],
      "stateMutability": "nonpayable",
      "type": "constructor"
    },
    {
      "anonymous": false,
      "inputs": [
        {
          "indexed": true,
          "internalType": "address",
          "name": "owner",
          "type": "address"
        },
        {
          "indexed": true,
          "internalType": "address",
          "name": "approved",
          "type": "address"
        },
        {
          "indexed": true,
          "internalType": "uint256",
          "name": "tokenId",
          "type": "uint256"
        }
      ],
      "name": "Approval",
      "type": "event"
    },
    {
      "anonymous": false,
      "inputs": [
        {
          "indexed": true,
          "internalType": "address",
          "name": "owner",
          "type": "address"
        },
        {
          "indexed": true,
          "internalType": "address",
          "name": "operator",
          "type": "address"
        },
        {
          "indexed": false,
          "internalType": "bool",
          "name": "approved",
          "type": "bool"
        }
      ],
      "name": "ApprovalForAll",
      "type": "event"
    },
    {
      "anonymous": false,
      "inputs": [
        {
          "indexed": false,
          "internalType": "uint256",
          "name": "_fromTokenId",
          "type": "uint256"
        },
        {
          "indexed": false,
          "internalType": "uint256",
          "name": "_toTokenId",
          "type": "uint256"
        }
      ],
      "name": "BatchMetadataUpdate",
      "type": "event"
    },
    {
      "anonymous": false,
      "inputs": [
        {
          "indexed": false,
          "internalType": "uint256",
          "name": "_tokenId",
          "type": "uint256"
        }
      ],
      "name": "MetadataUpdate",
      "type": "event"
    },
    {
      "anonymous": false,
      "inputs": [
        {
          "indexed": true,
          "internalType": "address",
          "name": "previousOwner",
          "type": "address"
        },
        {
          "indexed": true,
          "internalType": "address",
          "name": "newOwner",
          "type": "address"
        }
      ],
      "name": "OwnershipTransferred",
      "type": "event"
    },
    {
      "anonymous": false,
      "inputs": [
        {
          "indexed": true,
          "internalType": "address",
          "name": "from",
          "type": "address"
        },
        {
          "indexed": true,
          "internalType": "address",
          "name": "to",
          "type": "address"
        },
        {
          "indexed": true,
          "internalType": "uint256",
          "name": "tokenId",
          "type": "uint256"
        }
      ],
      "name": "Transfer",
      "type": "event"
    },
    {
      "inputs": [
        {
          "internalType": "address",
          "name": "to",
          "type": "address"
        },
        {
          "internalType": "uint256",
          "name": "tokenId",
          "type": "uint256"
        }
      ],
      "name": "approve",
      "outputs": [],
      "stateMutability": "nonpayable",
      "type": "function"
    },
    {
      "inputs": [
        {
          "internalType": "address",
          "name": "owner",
          "type": "address"
        }
      ],
      "name": "balanceOf",
      "outputs": [
        {
          "internalType": "uint256",
          "name": "",
          "type": "uint256"
        }
      ],
      "stateMutability": "view",
      "type": "function"
    },
    {
      "inputs": [
        {
          "internalType": "uint256",
          "name": "tokenId",
          "type": "uint256"
        }
      ],
      "name": "getApproved",
      "outputs": [
        {
          "internalType": "address",
          "name": "",
          "type": "address"
        }
      ],
      "stateMutability": "view",
      "type": "function"
    },
    {
      "inputs": [
        {
          "internalType": "address",
          "name": "owner",
          "type": "address"
        },
        {
          "internalType": "address",
          "name": "operator",
          "type": "address"
        }
      ],
      "name": "isApprovedForAll",
      "outputs": [
        {
          "internalType": "bool",
          "name": "",
          "type": "bool"
        }
      ],
      "stateMutability": "view",
      "type": "function"
    },
    {
      "inputs": [
        {
          "internalType": "uint256",
          "name": "index",
          "type": "uint256"
        }
      ],
      "name": "listNFT",
      "outputs": [],
      "stateMutability": "nonpayable",
      "type": "function"
    },
    {
      "inputs": [
        {
          "internalType": "string",
          "name": "tokenURI",
          "type": "string"
        },
        {
          "internalType": "uint256",
          "name": "price",
          "type": "uint256"
        },
        {
          "internalType": "string",
          "name": "name",
          "type": "string"
        },
        {
          "internalType": "string",
          "name": "description",
          "type": "string"
        }
      ],
      "name": "mintNFT",
      "outputs": [
        {
          "internalType": "uint256",
          "name": "",
          "type": "uint256"
        }
      ],
      "stateMutability": "nonpayable",
      "type": "function"
    },
    {
      "inputs": [],
      "name": "name",
      "outputs": [
        {
          "internalType": "string",
          "name": "",
          "type": "string"
        }
      ],
      "stateMutability": "view",
      "type": "function"
    },
    {
      "inputs": [],
      "name": "owner",
      "outputs": [
        {
          "internalType": "address",
          "name": "",
          "type": "address"
        }
      ],
      "stateMutability": "view",
      "type": "function"
    },
    {
      "inputs": [
        {
          "internalType": "uint256",
          "name": "tokenId",
          "type": "uint256"
        }
      ],
      "name": "ownerOf",
      "outputs": [
        {
          "internalType": "address",
          "name": "",
          "type": "address"
        }
      ],
      "stateMutability": "view",
      "type": "function"
    },
    {
      "inputs": [
        {
          "internalType": "uint256",
          "name": "index",
          "type": "uint256"
        }
      ],
      "name": "purchaseNFT",
      "outputs": [],
      "stateMutability": "payable",
      "type": "function"
    },
    {
      "inputs": [],
      "name": "renounceOwnership",
      "outputs": [],
      "stateMutability": "nonpayable",
      "type": "function"
    },
    {
      "inputs": [
        {
          "internalType": "address",
          "name": "from",
          "type": "address"
        },
        {
          "internalType": "address",
          "name": "to",
          "type": "address"
        },
        {
          "internalType": "uint256",
          "name": "tokenId",
          "type": "uint256"
        }
      ],
      "name": "safeTransferFrom",
      "outputs": [],
      "stateMutability": "nonpayable",
      "type": "function"
    },
    {
      "inputs": [
        {
          "internalType": "address",
          "name": "from",
          "type": "address"
        },
        {
          "internalType": "address",
          "name": "to",
          "type": "address"
        },
        {
          "internalType": "uint256",
          "name": "tokenId",
          "type": "uint256"
        },
        {
          "internalType": "bytes",
          "name": "data",
          "type": "bytes"
        }
      ],
      "name": "safeTransferFrom",
      "outputs": [],
      "stateMutability": "nonpayable",
      "type": "function"
    },
    {
      "inputs": [
        {
          "internalType": "address",
          "name": "operator",
          "type": "address"
        },
        {
          "internalType": "bool",
          "name": "approved",
          "type": "bool"
        }
      ],
      "name": "setApprovalForAll",
      "outputs": [],
      "stateMutability": "nonpayable",
      "type": "function"
    },
    {
      "inputs": [
        {
          "internalType": "bytes4",
          "name": "interfaceId",
          "type": "bytes4"
        }
      ],
      "name": "supportsInterface",
      "outputs": [
        {
          "internalType": "bool",
          "name": "",
          "type": "bool"
        }
      ],
      "stateMutability": "view",
      "type": "function"
    },
    {
      "inputs": [],
      "name": "symbol",
      "outputs": [
        {
          "internalType": "string",
          "name": "",
          "type": "string"
        }
      ],
      "stateMutability": "view",
      "type": "function"
    },
    {
      "inputs": [
        {
          "internalType": "uint256",
          "name": "tokenId",
          "type": "uint256"
        }
      ],
      "name": "tokenURI",
      "outputs": [
        {
          "internalType": "string",
          "name": "",
          "type": "string"
        }
      ],
      "stateMutability": "view",
      "type": "function"
    },
    {
      "inputs": [
        {
          "internalType": "uint256",
          "name": "",
          "type": "uint256"
        }
      ],
      "name": "tokens",
      "outputs": [
        {
          "internalType": "address",
          "name": "owner",
          "type": "address"
        },
        {
          "internalType": "uint256",
          "name": "tokenId",
          "type": "uint256"
        },
        {
          "internalType": "string",
          "name": "tokenURI",
          "type": "string"
        },
        {
          "internalType": "uint256",
          "name": "price",
          "type": "uint256"
        },
        {
          "internalType": "bool",
          "name": "isSold",
          "type": "bool"
        },
        {
          "internalType": "string",
          "name": "name",
          "type": "string"
        },
        {
          "internalType": "string",
          "name": "description",
          "type": "string"
        },
        {
          "internalType": "bool",
          "name": "isListedForSale",
          "type": "bool"
        }
      ],
      "stateMutability": "view",
      "type": "function"
    },
    {
      "inputs": [
        {
          "internalType": "address",
          "name": "from",
          "type": "address"
        },
        {
          "internalType": "address",
          "name": "to",
          "type": "address"
        },
        {
          "internalType": "uint256",
          "name": "tokenId",
          "type": "uint256"
        }
      ],
      "name": "transferFrom",
      "outputs": [],
      "stateMutability": "nonpayable",
      "type": "function"
    },
    {
      "inputs": [
        {
          "internalType": "address",
          "name": "newOwner",
          "type": "address"
        }
      ],
      "name": "transferOwnership",
      "outputs": [],
      "stateMutability": "nonpayable",
      "type": "function"
    },
    {
      "inputs": [],
      "name": "viewAllTokens",
      "outputs": [
        {
          "components": [
            {
              "internalType": "address",
              "name": "owner",
              "type": "address"
            },
            {
              "internalType": "uint256",
              "name": "tokenId",
              "type": "uint256"
            },
            {
              "internalType": "string",
              "name": "tokenURI",
              "type": "string"
            },
            {
              "internalType": "uint256",
              "name": "price",
              "type": "uint256"
            },
            {
              "internalType": "bool",
              "name": "isSold",
              "type": "bool"
            },
            {
              "internalType": "string",
              "name": "name",
              "type": "string"
            },
            {
              "internalType": "string",
              "name": "description",
              "type": "string"
            },
            {
              "internalType": "bool",
              "name": "isListedForSale",
              "type": "bool"
            }
          ],
          "internalType": "struct Market.Token[]",
          "name": "",
          "type": "tuple[]"
        }
      ],
      "stateMutability": "view",
      "type": "function"
    }
  ],
  "bytecode": "0x60806040523480156200001157600080fd5b506040518060400160405280600c81526020017f4d61726b65745f506c61636500000000000000000000000000000000000000008152506040518060400160405280600381526020017f4d4b50000000000000000000000000000000000000000000000000000000000081525081600090816200008f919062000412565b508060019081620000a1919062000412565b505050620000c4620000b8620000ca60201b60201c565b620000d260201b60201c565b620004f9565b600033905090565b6000600760009054906101000a900473ffffffffffffffffffffffffffffffffffffffff16905081600760006101000a81548173ffffffffffffffffffffffffffffffffffffffff021916908373ffffffffffffffffffffffffffffffffffffffff1602179055508173ffffffffffffffffffffffffffffffffffffffff168173ffffffffffffffffffffffffffffffffffffffff167f8be0079c531659141344cd1fd0a4f28419497f9722a3daafe3b4186f6b6457e060405160405180910390a35050565b600081519050919050565b7f4e487b7100000000000000000000000000000000000000000000000000000000600052604160045260246000fd5b7f4e487b7100000000000000000000000000000000000000000000000000000000600052602260045260246000fd5b600060028204905060018216806200021a57607f821691505b60208210810362000230576200022f620001d2565b5b50919050565b60008190508160005260206000209050919050565b60006020601f8301049050919050565b600082821b905092915050565b6000600883026200029a7fffffffffffffffffffffffffffffffffffffffffffffffffffffffffffffffff826200025b565b620002a686836200025b565b95508019841693508086168417925050509392505050565b6000819050919050565b6000819050919050565b6000620002f3620002ed620002e784620002be565b620002c8565b620002be565b9050919050565b6000819050919050565b6200030f83620002d2565b620003276200031e82620002fa565b84845462000268565b825550505050565b600090565b6200033e6200032f565b6200034b81848462000304565b505050565b5b8181101562000373576200036760008262000334565b60018101905062000351565b5050565b601f821115620003c2576200038c8162000236565b62000397846200024b565b81016020851015620003a7578190505b620003bf620003b6856200024b565b83018262000350565b50505b505050565b600082821c905092915050565b6000620003e760001984600802620003c7565b1980831691505092915050565b6000620004028383620003d4565b9150826002028217905092915050565b6200041d8262000198565b67ffffffffffffffff811115620004395762000438620001a3565b5b62000445825462000201565b6200045282828562000377565b600060209050601f8311600181146200048a576000841562000475578287015190505b620004818582620003f4565b865550620004f1565b601f1984166200049a8662000236565b60005b82811015620004c4578489015182556001820191506020850194506020810190506200049d565b86831015620004e45784890151620004e0601f891682620003d4565b8355505b6001600288020188555050505b505050505050565b61401780620005096000396000f3fe60806040526004361061012a5760003560e01c80636352211e116100ab578063a22cb4651161006f578063a22cb465146103fe578063b88d4fde14610427578063c87b56dd14610450578063d076f13f1461048d578063e985e9c5146104b6578063f2fde38b146104f35761012a565b80636352211e1461031757806370a0823114610354578063715018a6146103915780638da5cb5b146103a857806395d89b41146103d35761012a565b806313de9826116100f257806313de982614610228578063150bde031461026557806323b872dd1461028157806342842e0e146102aa5780634f64b2be146102d35761012a565b806301ffc9a71461012f57806302cfba811461016c57806306fdde0314610197578063081812fc146101c2578063095ea7b3146101ff575b600080fd5b34801561013b57600080fd5b5061015660048036038101906101519190612803565b61051c565b604051610163919061284b565b60405180910390f35b34801561017857600080fd5b5061018161057d565b60405161018e9190612adf565b60405180910390f35b3480156101a357600080fd5b506101ac610833565b6040516101b99190612b4b565b60405180910390f35b3480156101ce57600080fd5b506101e960048036038101906101e49190612b99565b6108c5565b6040516101f69190612bd5565b60405180910390f35b34801561020b57600080fd5b5061022660048036038101906102219190612c1c565b61090b565b005b34801561023457600080fd5b5061024f600480360381019061024a9190612d91565b610a22565b60405161025c9190612e5b565b60405180910390f35b61027f600480360381019061027a9190612b99565b610c15565b005b34801561028d57600080fd5b506102a860048036038101906102a39190612e76565b610f53565b005b3480156102b657600080fd5b506102d160048036038101906102cc9190612e76565b610fb3565b005b3480156102df57600080fd5b506102fa60048036038101906102f59190612b99565b610fd3565b60405161030e989796959493929190612ec9565b60405180910390f35b34801561032357600080fd5b5061033e60048036038101906103399190612b99565b6111fd565b60405161034b9190612bd5565b60405180910390f35b34801561036057600080fd5b5061037b60048036038101906103769190612f5c565b611283565b6040516103889190612e5b565b60405180910390f35b34801561039d57600080fd5b506103a661133a565b005b3480156103b457600080fd5b506103bd61134e565b6040516103ca9190612bd5565b60405180910390f35b3480156103df57600080fd5b506103e8611378565b6040516103f59190612b4b565b60405180910390f35b34801561040a57600080fd5b5061042560048036038101906104209190612fb5565b61140a565b005b34801561043357600080fd5b5061044e60048036038101906104499190613096565b611420565b005b34801561045c57600080fd5b5061047760048036038101906104729190612b99565b611482565b6040516104849190612b4b565b60405180910390f35b34801561049957600080fd5b506104b460048036038101906104af9190612b99565b611594565b005b3480156104c257600080fd5b506104dd60048036038101906104d89190613119565b6115d5565b6040516104ea919061284b565b60405180910390f35b3480156104ff57600080fd5b5061051a60048036038101906105159190612f5c565b611669565b005b6000634906490660e01b7bffffffffffffffffffffffffffffffffffffffffffffffffffffffff1916827bffffffffffffffffffffffffffffffffffffffffffffffffffffffff191614806105765750610575826116ec565b5b9050919050565b60606009805480602002602001604051908101604052809291908181526020016000905b8282101561082a5783829060005260206000209060080201604051806101000160405290816000820160009054906101000a900473ffffffffffffffffffffffffffffffffffffffff1673ffffffffffffffffffffffffffffffffffffffff1673ffffffffffffffffffffffffffffffffffffffff1681526020016001820154815260200160028201805461063590613188565b80601f016020809104026020016040519081016040528092919081815260200182805461066190613188565b80156106ae5780601f10610683576101008083540402835291602001916106ae565b820191906000526020600020905b81548152906001019060200180831161069157829003601f168201915b50505050508152602001600382015481526020016004820160009054906101000a900460ff161515151581526020016005820180546106ec90613188565b80601f016020809104026020016040519081016040528092919081815260200182805461071890613188565b80156107655780601f1061073a57610100808354040283529160200191610765565b820191906000526020600020905b81548152906001019060200180831161074857829003601f168201915b5050505050815260200160068201805461077e90613188565b80601f01602080910402602001604051908101604052809291908181526020018280546107aa90613188565b80156107f75780601f106107cc576101008083540402835291602001916107f7565b820191906000526020600020905b8154815290600101906020018083116107da57829003601f168201915b505050505081526020016007820160009054906101000a900460ff161515151581525050815260200190600101906105a1565b50505050905090565b60606000805461084290613188565b80601f016020809104026020016040519081016040528092919081815260200182805461086e90613188565b80156108bb5780601f10610890576101008083540402835291602001916108bb565b820191906000526020600020905b81548152906001019060200180831161089e57829003601f168201915b5050505050905090565b60006108d0826117ce565b6004600083815260200190815260200160002060009054906101000a900473ffffffffffffffffffffffffffffffffffffffff169050919050565b6000610916826111fd565b90508073ffffffffffffffffffffffffffffffffffffffff168373ffffffffffffffffffffffffffffffffffffffff1603610986576040517f08c379a000000000000000000000000000000000000000000000000000000000815260040161097d9061322b565b60405180910390fd5b8073ffffffffffffffffffffffffffffffffffffffff166109a5611819565b73ffffffffffffffffffffffffffffffffffffffff1614806109d457506109d3816109ce611819565b6115d5565b5b610a13576040517f08c379a0000000000000000000000000000000000000000000000000000000008152600401610a0a906132bd565b60405180910390fd5b610a1d8383611821565b505050565b6000808411610a66576040517f08c379a0000000000000000000000000000000000000000000000000000000008152600401610a5d9061334f565b60405180910390fd5b6000610a7260086118da565b9050610a7e33826118e8565b610a888187611b05565b60006040518061010001604052803373ffffffffffffffffffffffffffffffffffffffff168152602001838152602001888152602001878152602001600015158152602001868152602001858152602001600015158152509050600981908060018154018082558091505060019003906000526020600020906008020160009091909190915060008201518160000160006101000a81548173ffffffffffffffffffffffffffffffffffffffff021916908373ffffffffffffffffffffffffffffffffffffffff160217905550602082015181600101556040820151816002019081610b74919061351b565b506060820151816003015560808201518160040160006101000a81548160ff02191690831515021790555060a0820151816005019081610bb4919061351b565b5060c0820151816006019081610bca919061351b565b5060e08201518160070160006101000a81548160ff0219169083151502179055505050610bf76008611ba9565b6001600980549050610c09919061361c565b92505050949350505050565b600081101580610c29575060098054905081105b610c68576040517f08c379a0000000000000000000000000000000000000000000000000000000008152600401610c5f9061369c565b60405180910390fd5b60098181548110610c7c57610c7b6136bc565b5b9060005260206000209060080201600301543414610ccf576040517f08c379a0000000000000000000000000000000000000000000000000000000008152600401610cc690613737565b60405180910390fd5b60098181548110610ce357610ce26136bc565b5b906000526020600020906008020160040160009054906101000a900460ff1615610d42576040517f08c379a0000000000000000000000000000000000000000000000000000000008152600401610d39906137a3565b60405180910390fd5b60098181548110610d5657610d556136bc565b5b906000526020600020906008020160000160009054906101000a900473ffffffffffffffffffffffffffffffffffffffff1673ffffffffffffffffffffffffffffffffffffffff163373ffffffffffffffffffffffffffffffffffffffff1603610df5576040517f08c379a0000000000000000000000000000000000000000000000000000000008152600401610dec90613835565b60405180910390fd5b600060098281548110610e0b57610e0a6136bc565b5b906000526020600020906008020160000160009054906101000a900473ffffffffffffffffffffffffffffffffffffffff1690503360098381548110610e5457610e536136bc565b5b906000526020600020906008020160000160006101000a81548173ffffffffffffffffffffffffffffffffffffffff021916908373ffffffffffffffffffffffffffffffffffffffff160217905550610ed3813360098581548110610ebc57610ebb6136bc565b5b906000526020600020906008020160010154611bbf565b600160098381548110610ee957610ee86136bc565b5b906000526020600020906008020160040160006101000a81548160ff021916908315150217905550600060098381548110610f2757610f266136bc565b5b906000526020600020906008020160070160006101000a81548160ff0219169083151502179055505050565b610f64610f5e611819565b82611eb8565b610fa3576040517f08c379a0000000000000000000000000000000000000000000000000000000008152600401610f9a906138c7565b60405180910390fd5b610fae838383611bbf565b505050565b610fce83838360405180602001604052806000815250611420565b505050565b60098181548110610fe357600080fd5b90600052602060002090600802016000915090508060000160009054906101000a900473ffffffffffffffffffffffffffffffffffffffff169080600101549080600201805461103290613188565b80601f016020809104026020016040519081016040528092919081815260200182805461105e90613188565b80156110ab5780601f10611080576101008083540402835291602001916110ab565b820191906000526020600020905b81548152906001019060200180831161108e57829003601f168201915b5050505050908060030154908060040160009054906101000a900460ff16908060050180546110d990613188565b80601f016020809104026020016040519081016040528092919081815260200182805461110590613188565b80156111525780601f1061112757610100808354040283529160200191611152565b820191906000526020600020905b81548152906001019060200180831161113557829003601f168201915b50505050509080600601805461116790613188565b80601f016020809104026020016040519081016040528092919081815260200182805461119390613188565b80156111e05780601f106111b5576101008083540402835291602001916111e0565b820191906000526020600020905b8154815290600101906020018083116111c357829003601f168201915b5050505050908060070160009054906101000a900460ff16905088565b60008061120983611f4d565b9050600073ffffffffffffffffffffffffffffffffffffffff168173ffffffffffffffffffffffffffffffffffffffff160361127a576040517f08c379a000000000000000000000000000000000000000000000000000000000815260040161127190613933565b60405180910390fd5b80915050919050565b60008073ffffffffffffffffffffffffffffffffffffffff168273ffffffffffffffffffffffffffffffffffffffff16036112f3576040517f08c379a00000000000000000000000000000000000000000000000000000000081526004016112ea906139c5565b60405180910390fd5b600360008373ffffffffffffffffffffffffffffffffffffffff1673ffffffffffffffffffffffffffffffffffffffff168152602001908152602001600020549050919050565b611342611f8a565b61134c6000612008565b565b6000600760009054906101000a900473ffffffffffffffffffffffffffffffffffffffff16905090565b60606001805461138790613188565b80601f01602080910402602001604051908101604052809291908181526020018280546113b390613188565b80156114005780601f106113d557610100808354040283529160200191611400565b820191906000526020600020905b8154815290600101906020018083116113e357829003601f168201915b5050505050905090565b61141c611415611819565b83836120ce565b5050565b61143161142b611819565b83611eb8565b611470576040517f08c379a0000000000000000000000000000000000000000000000000000000008152600401611467906138c7565b60405180910390fd5b61147c8484848461223a565b50505050565b606061148d826117ce565b60006006600084815260200190815260200160002080546114ad90613188565b80601f01602080910402602001604051908101604052809291908181526020018280546114d990613188565b80156115265780601f106114fb57610100808354040283529160200191611526565b820191906000526020600020905b81548152906001019060200180831161150957829003601f168201915b505050505090506000611537612296565b9050600081510361154c57819250505061158f565b600082511115611581578082604051602001611569929190613a21565b6040516020818303038152906040529250505061158f565b61158a846122ad565b925050505b919050565b6001600982815481106115aa576115a96136bc565b5b906000526020600020906008020160070160006101000a81548160ff02191690831515021790555050565b6000600560008473ffffffffffffffffffffffffffffffffffffffff1673ffffffffffffffffffffffffffffffffffffffff16815260200190815260200160002060008373ffffffffffffffffffffffffffffffffffffffff1673ffffffffffffffffffffffffffffffffffffffff16815260200190815260200160002060009054906101000a900460ff16905092915050565b611671611f8a565b600073ffffffffffffffffffffffffffffffffffffffff168173ffffffffffffffffffffffffffffffffffffffff16036116e0576040517f08c379a00000000000000000000000000000000000000000000000000000000081526004016116d790613ab7565b60405180910390fd5b6116e981612008565b50565b60007f80ac58cd000000000000000000000000000000000000000000000000000000007bffffffffffffffffffffffffffffffffffffffffffffffffffffffff1916827bffffffffffffffffffffffffffffffffffffffffffffffffffffffff191614806117b757507f5b5e139f000000000000000000000000000000000000000000000000000000007bffffffffffffffffffffffffffffffffffffffffffffffffffffffff1916827bffffffffffffffffffffffffffffffffffffffffffffffffffffffff1916145b806117c757506117c682612315565b5b9050919050565b6117d78161237f565b611816576040517f08c379a000000000000000000000000000000000000000000000000000000000815260040161180d90613933565b60405180910390fd5b50565b600033905090565b816004600083815260200190815260200160002060006101000a81548173ffffffffffffffffffffffffffffffffffffffff021916908373ffffffffffffffffffffffffffffffffffffffff160217905550808273ffffffffffffffffffffffffffffffffffffffff16611894836111fd565b73ffffffffffffffffffffffffffffffffffffffff167f8c5be1e5ebec7d5bd14f71427d1e84f3dd0314c0f7b2291e5b200ac8c7c3b92560405160405180910390a45050565b600081600001549050919050565b600073ffffffffffffffffffffffffffffffffffffffff168273ffffffffffffffffffffffffffffffffffffffff1603611957576040517f08c379a000000000000000000000000000000000000000000000000000000000815260040161194e90613b23565b60405180910390fd5b6119608161237f565b156119a0576040517f08c379a000000000000000000000000000000000000000000000000000000000815260040161199790613b8f565b60405180910390fd5b6119ae6000838360016123c0565b6119b78161237f565b156119f7576040517f08c379a00000000000000000000000000000000000000000000000000000000081526004016119ee90613b8f565b60405180910390fd5b6001600360008473ffffffffffffffffffffffffffffffffffffffff1673ffffffffffffffffffffffffffffffffffffffff16815260200190815260200160002060008282540192505081905550816002600083815260200190815260200160002060006101000a81548173ffffffffffffffffffffffffffffffffffffffff021916908373ffffffffffffffffffffffffffffffffffffffff160217905550808273ffffffffffffffffffffffffffffffffffffffff16600073ffffffffffffffffffffffffffffffffffffffff167fddf252ad1be2c89b69c2b068fc378daa952ba7f163c4a11628f55a4df523b3ef60405160405180910390a4611b016000838360016123c6565b5050565b611b0e8261237f565b611b4d576040517f08c379a0000000000000000000000000000000000000000000000000000000008152600401611b4490613c21565b60405180910390fd5b80600660008481526020019081526020016000209081611b6d919061351b565b507ff8e1a15aba9398e019f0b49df1a4fde98ee17ae345cb5f6b5e2c27f5033e8ce782604051611b9d9190612e5b565b60405180910390a15050565b6001816000016000828254019250508190555050565b8273ffffffffffffffffffffffffffffffffffffffff16611bdf826111fd565b73ffffffffffffffffffffffffffffffffffffffff1614611c35576040517f08c379a0000000000000000000000000000000000000000000000000000000008152600401611c2c90613cb3565b60405180910390fd5b600073ffffffffffffffffffffffffffffffffffffffff168273ffffffffffffffffffffffffffffffffffffffff1603611ca4576040517f08c379a0000000000000000000000000000000000000000000000000000000008152600401611c9b90613d45565b60405180910390fd5b611cb183838360016123c0565b8273ffffffffffffffffffffffffffffffffffffffff16611cd1826111fd565b73ffffffffffffffffffffffffffffffffffffffff1614611d27576040517f08c379a0000000000000000000000000000000000000000000000000000000008152600401611d1e90613cb3565b60405180910390fd5b6004600082815260200190815260200160002060006101000a81549073ffffffffffffffffffffffffffffffffffffffff02191690556001600360008573ffffffffffffffffffffffffffffffffffffffff1673ffffffffffffffffffffffffffffffffffffffff168152602001908152602001600020600082825403925050819055506001600360008473ffffffffffffffffffffffffffffffffffffffff1673ffffffffffffffffffffffffffffffffffffffff16815260200190815260200160002060008282540192505081905550816002600083815260200190815260200160002060006101000a81548173ffffffffffffffffffffffffffffffffffffffff021916908373ffffffffffffffffffffffffffffffffffffffff160217905550808273ffffffffffffffffffffffffffffffffffffffff168473ffffffffffffffffffffffffffffffffffffffff167fddf252ad1be2c89b69c2b068fc378daa952ba7f163c4a11628f55a4df523b3ef60405160405180910390a4611eb383838360016123c6565b505050565b600080611ec4836111fd565b90508073ffffffffffffffffffffffffffffffffffffffff168473ffffffffffffffffffffffffffffffffffffffff161480611f065750611f0581856115d5565b5b80611f4457508373ffffffffffffffffffffffffffffffffffffffff16611f2c846108c5565b73ffffffffffffffffffffffffffffffffffffffff16145b91505092915050565b60006002600083815260200190815260200160002060009054906101000a900473ffffffffffffffffffffffffffffffffffffffff169050919050565b611f92611819565b73ffffffffffffffffffffffffffffffffffffffff16611fb061134e565b73ffffffffffffffffffffffffffffffffffffffff1614612006576040517f08c379a0000000000000000000000000000000000000000000000000000000008152600401611ffd90613db1565b60405180910390fd5b565b6000600760009054906101000a900473ffffffffffffffffffffffffffffffffffffffff16905081600760006101000a81548173ffffffffffffffffffffffffffffffffffffffff021916908373ffffffffffffffffffffffffffffffffffffffff1602179055508173ffffffffffffffffffffffffffffffffffffffff168173ffffffffffffffffffffffffffffffffffffffff167f8be0079c531659141344cd1fd0a4f28419497f9722a3daafe3b4186f6b6457e060405160405180910390a35050565b8173ffffffffffffffffffffffffffffffffffffffff168373ffffffffffffffffffffffffffffffffffffffff160361213c576040517f08c379a000000000000000000000000000000000000000000000000000000000815260040161213390613e1d565b60405180910390fd5b80600560008573ffffffffffffffffffffffffffffffffffffffff1673ffffffffffffffffffffffffffffffffffffffff16815260200190815260200160002060008473ffffffffffffffffffffffffffffffffffffffff1673ffffffffffffffffffffffffffffffffffffffff16815260200190815260200160002060006101000a81548160ff0219169083151502179055508173ffffffffffffffffffffffffffffffffffffffff168373ffffffffffffffffffffffffffffffffffffffff167f17307eab39ab6107e8899845ad3d59bd9653f200f220920489ca2b5937696c318360405161222d919061284b565b60405180910390a3505050565b612245848484611bbf565b612251848484846123cc565b612290576040517f08c379a000000000000000000000000000000000000000000000000000000000815260040161228790613eaf565b60405180910390fd5b50505050565b606060405180602001604052806000815250905090565b60606122b8826117ce565b60006122c2612296565b905060008151116122e2576040518060200160405280600081525061230d565b806122ec84612553565b6040516020016122fd929190613a21565b6040516020818303038152906040525b915050919050565b60007f01ffc9a7000000000000000000000000000000000000000000000000000000007bffffffffffffffffffffffffffffffffffffffffffffffffffffffff1916827bffffffffffffffffffffffffffffffffffffffffffffffffffffffff1916149050919050565b60008073ffffffffffffffffffffffffffffffffffffffff166123a183611f4d565b73ffffffffffffffffffffffffffffffffffffffff1614159050919050565b50505050565b50505050565b60006123ed8473ffffffffffffffffffffffffffffffffffffffff16612621565b15612546578373ffffffffffffffffffffffffffffffffffffffff1663150b7a02612416611819565b8786866040518563ffffffff1660e01b81526004016124389493929190613f24565b6020604051808303816000875af192505050801561247457506040513d601f19601f820116820180604052508101906124719190613f85565b60015b6124f6573d80600081146124a4576040519150601f19603f3d011682016040523d82523d6000602084013e6124a9565b606091505b5060008151036124ee576040517f08c379a00000000000000000000000000000000000000000000000000000000081526004016124e590613eaf565b60405180910390fd5b805181602001fd5b63150b7a0260e01b7bffffffffffffffffffffffffffffffffffffffffffffffffffffffff1916817bffffffffffffffffffffffffffffffffffffffffffffffffffffffff19161491505061254b565b600190505b949350505050565b60606000600161256284612644565b01905060008167ffffffffffffffff81111561258157612580612c66565b5b6040519080825280601f01601f1916602001820160405280156125b35781602001600182028036833780820191505090505b509050600082602001820190505b600115612616578080600190039150507f3031323334353637383961626364656600000000000000000000000000000000600a86061a8153600a858161260a57612609613fb2565b5b049450600085036125c1575b819350505050919050565b6000808273ffffffffffffffffffffffffffffffffffffffff163b119050919050565b600080600090507a184f03e93ff9f4daa797ed6e38ed64bf6a1f01000000000000000083106126a2577a184f03e93ff9f4daa797ed6e38ed64bf6a1f010000000000000000838161269857612697613fb2565b5b0492506040810190505b6d04ee2d6d415b85acef810000000083106126df576d04ee2d6d415b85acef810000000083816126d5576126d4613fb2565b5b0492506020810190505b662386f26fc10000831061270e57662386f26fc10000838161270457612703613fb2565b5b0492506010810190505b6305f5e1008310612737576305f5e100838161272d5761272c613fb2565b5b0492506008810190505b612710831061275c57612710838161275257612751613fb2565b5b0492506004810190505b6064831061277f576064838161277557612774613fb2565b5b0492506002810190505b600a831061278e576001810190505b80915050919050565b6000604051905090565b600080fd5b600080fd5b60007fffffffff0000000000000000000000000000000000000000000000000000000082169050919050565b6127e0816127ab565b81146127eb57600080fd5b50565b6000813590506127fd816127d7565b92915050565b600060208284031215612819576128186127a1565b5b6000612827848285016127ee565b91505092915050565b60008115159050919050565b61284581612830565b82525050565b6000602082019050612860600083018461283c565b92915050565b600081519050919050565b600082825260208201905092915050565b6000819050602082019050919050565b600073ffffffffffffffffffffffffffffffffffffffff82169050919050565b60006128bd82612892565b9050919050565b6128cd816128b2565b82525050565b6000819050919050565b6128e6816128d3565b82525050565b600081519050919050565b600082825260208201905092915050565b60005b8381101561292657808201518184015260208101905061290b565b60008484015250505050565b6000601f19601f8301169050919050565b600061294e826128ec565b61295881856128f7565b9350612968818560208601612908565b61297181612932565b840191505092915050565b61298581612830565b82525050565b6000610100830160008301516129a460008601826128c4565b5060208301516129b760208601826128dd565b50604083015184820360408601526129cf8282612943565b91505060608301516129e460608601826128dd565b5060808301516129f7608086018261297c565b5060a083015184820360a0860152612a0f8282612943565b91505060c083015184820360c0860152612a298282612943565b91505060e0830151612a3e60e086018261297c565b508091505092915050565b6000612a55838361298b565b905092915050565b6000602082019050919050565b6000612a7582612866565b612a7f8185612871565b935083602082028501612a9185612882565b8060005b85811015612acd5784840389528151612aae8582612a49565b9450612ab983612a5d565b925060208a01995050600181019050612a95565b50829750879550505050505092915050565b60006020820190508181036000830152612af98184612a6a565b905092915050565b600082825260208201905092915050565b6000612b1d826128ec565b612b278185612b01565b9350612b37818560208601612908565b612b4081612932565b840191505092915050565b60006020820190508181036000830152612b658184612b12565b905092915050565b612b76816128d3565b8114612b8157600080fd5b50565b600081359050612b9381612b6d565b92915050565b600060208284031215612baf57612bae6127a1565b5b6000612bbd84828501612b84565b91505092915050565b612bcf816128b2565b82525050565b6000602082019050612bea6000830184612bc6565b92915050565b612bf9816128b2565b8114612c0457600080fd5b50565b600081359050612c1681612bf0565b92915050565b60008060408385031215612c3357612c326127a1565b5b6000612c4185828601612c07565b9250506020612c5285828601612b84565b9150509250929050565b600080fd5b600080fd5b7f4e487b7100000000000000000000000000000000000000000000000000000000600052604160045260246000fd5b612c9e82612932565b810181811067ffffffffffffffff82111715612cbd57612cbc612c66565b5b80604052505050565b6000612cd0612797565b9050612cdc8282612c95565b919050565b600067ffffffffffffffff821115612cfc57612cfb612c66565b5b612d0582612932565b9050602081019050919050565b82818337600083830152505050565b6000612d34612d2f84612ce1565b612cc6565b905082815260208101848484011115612d5057612d4f612c61565b5b612d5b848285612d12565b509392505050565b600082601f830112612d7857612d77612c5c565b5b8135612d88848260208601612d21565b91505092915050565b60008060008060808587031215612dab57612daa6127a1565b5b600085013567ffffffffffffffff811115612dc957612dc86127a6565b5b612dd587828801612d63565b9450506020612de687828801612b84565b935050604085013567ffffffffffffffff811115612e0757612e066127a6565b5b612e1387828801612d63565b925050606085013567ffffffffffffffff811115612e3457612e336127a6565b5b612e4087828801612d63565b91505092959194509250565b612e55816128d3565b82525050565b6000602082019050612e706000830184612e4c565b92915050565b600080600060608486031215612e8f57612e8e6127a1565b5b6000612e9d86828701612c07565b9350506020612eae86828701612c07565b9250506040612ebf86828701612b84565b9150509250925092565b600061010082019050612edf600083018b612bc6565b612eec602083018a612e4c565b8181036040830152612efe8189612b12565b9050612f0d6060830188612e4c565b612f1a608083018761283c565b81810360a0830152612f2c8186612b12565b905081810360c0830152612f408185612b12565b9050612f4f60e083018461283c565b9998505050505050505050565b600060208284031215612f7257612f716127a1565b5b6000612f8084828501612c07565b91505092915050565b612f9281612830565b8114612f9d57600080fd5b50565b600081359050612faf81612f89565b92915050565b60008060408385031215612fcc57612fcb6127a1565b5b6000612fda85828601612c07565b9250506020612feb85828601612fa0565b9150509250929050565b600067ffffffffffffffff8211156130105761300f612c66565b5b61301982612932565b9050602081019050919050565b600061303961303484612ff5565b612cc6565b90508281526020810184848401111561305557613054612c61565b5b613060848285612d12565b509392505050565b600082601f83011261307d5761307c612c5c565b5b813561308d848260208601613026565b91505092915050565b600080600080608085870312156130b0576130af6127a1565b5b60006130be87828801612c07565b94505060206130cf87828801612c07565b93505060406130e087828801612b84565b925050606085013567ffffffffffffffff811115613101576131006127a6565b5b61310d87828801613068565b91505092959194509250565b600080604083850312156131305761312f6127a1565b5b600061313e85828601612c07565b925050602061314f85828601612c07565b9150509250929050565b7f4e487b7100000000000000000000000000000000000000000000000000000000600052602260045260246000fd5b600060028204905060018216806131a057607f821691505b6020821081036131b3576131b2613159565b5b50919050565b7f4552433732313a20617070726f76616c20746f2063757272656e74206f776e6560008201527f7200000000000000000000000000000000000000000000000000000000000000602082015250565b6000613215602183612b01565b9150613220826131b9565b604082019050919050565b6000602082019050818103600083015261324481613208565b9050919050565b7f4552433732313a20617070726f76652063616c6c6572206973206e6f7420746f60008201527f6b656e206f776e6572206f7220617070726f76656420666f7220616c6c000000602082015250565b60006132a7603d83612b01565b91506132b28261324b565b604082019050919050565b600060208201905081810360008301526132d68161329a565b9050919050565b7f496e697469616c2070726963652073686f756c6420626520677265617465722060008201527f7468616e20300000000000000000000000000000000000000000000000000000602082015250565b6000613339602683612b01565b9150613344826132dd565b604082019050919050565b600060208201905081810360008301526133688161332c565b9050919050565b60008190508160005260206000209050919050565b60006020601f8301049050919050565b600082821b905092915050565b6000600883026133d17fffffffffffffffffffffffffffffffffffffffffffffffffffffffffffffffff82613394565b6133db8683613394565b95508019841693508086168417925050509392505050565b6000819050919050565b600061341861341361340e846128d3565b6133f3565b6128d3565b9050919050565b6000819050919050565b613432836133fd565b61344661343e8261341f565b8484546133a1565b825550505050565b600090565b61345b61344e565b613466818484613429565b505050565b5b8181101561348a5761347f600082613453565b60018101905061346c565b5050565b601f8211156134cf576134a08161336f565b6134a984613384565b810160208510156134b8578190505b6134cc6134c485613384565b83018261346b565b50505b505050565b600082821c905092915050565b60006134f2600019846008026134d4565b1980831691505092915050565b600061350b83836134e1565b9150826002028217905092915050565b613524826128ec565b67ffffffffffffffff81111561353d5761353c612c66565b5b6135478254613188565b61355282828561348e565b600060209050601f8311600181146135855760008415613573578287015190505b61357d85826134ff565b8655506135e5565b601f1984166135938661336f565b60005b828110156135bb57848901518255600182019150602085019450602081019050613596565b868310156135d857848901516135d4601f8916826134e1565b8355505b6001600288020188555050505b505050505050565b7f4e487b7100000000000000000000000000000000000000000000000000000000600052601160045260246000fd5b6000613627826128d3565b9150613632836128d3565b925082820390508181111561364a576136496135ed565b5b92915050565b7f696e76616c696420696e64657800000000000000000000000000000000000000600082015250565b6000613686600d83612b01565b915061369182613650565b602082019050919050565b600060208201905081810360008301526136b581613679565b9050919050565b7f4e487b7100000000000000000000000000000000000000000000000000000000600052603260045260246000fd5b7f496e73756666696369656e7420616d6f756e7400000000000000000000000000600082015250565b6000613721601383612b01565b915061372c826136eb565b602082019050919050565b6000602082019050818103600083015261375081613714565b9050919050565b7f546f6b656e20616c726561647920736f6c640000000000000000000000000000600082015250565b600061378d601283612b01565b915061379882613757565b602082019050919050565b600060208201905081810360008301526137bc81613780565b9050919050565b7f4f776e65722063616e2774207075726368617365207468656972206f776e204e60008201527f4654000000000000000000000000000000000000000000000000000000000000602082015250565b600061381f602283612b01565b915061382a826137c3565b604082019050919050565b6000602082019050818103600083015261384e81613812565b9050919050565b7f4552433732313a2063616c6c6572206973206e6f7420746f6b656e206f776e6560008201527f72206f7220617070726f76656400000000000000000000000000000000000000602082015250565b60006138b1602d83612b01565b91506138bc82613855565b604082019050919050565b600060208201905081810360008301526138e0816138a4565b9050919050565b7f4552433732313a20696e76616c696420746f6b656e2049440000000000000000600082015250565b600061391d601883612b01565b9150613928826138e7565b602082019050919050565b6000602082019050818103600083015261394c81613910565b9050919050565b7f4552433732313a2061646472657373207a65726f206973206e6f74206120766160008201527f6c6964206f776e65720000000000000000000000000000000000000000000000602082015250565b60006139af602983612b01565b91506139ba82613953565b604082019050919050565b600060208201905081810360008301526139de816139a2565b9050919050565b600081905092915050565b60006139fb826128ec565b613a0581856139e5565b9350613a15818560208601612908565b80840191505092915050565b6000613a2d82856139f0565b9150613a3982846139f0565b91508190509392505050565b7f4f776e61626c653a206e6577206f776e657220697320746865207a65726f206160008201527f6464726573730000000000000000000000000000000000000000000000000000602082015250565b6000613aa1602683612b01565b9150613aac82613a45565b604082019050919050565b60006020820190508181036000830152613ad081613a94565b9050919050565b7f4552433732313a206d696e7420746f20746865207a65726f2061646472657373600082015250565b6000613b0d602083612b01565b9150613b1882613ad7565b602082019050919050565b60006020820190508181036000830152613b3c81613b00565b9050919050565b7f4552433732313a20746f6b656e20616c7265616479206d696e74656400000000600082015250565b6000613b79601c83612b01565b9150613b8482613b43565b602082019050919050565b60006020820190508181036000830152613ba881613b6c565b9050919050565b7f45524337323155524953746f726167653a2055524920736574206f66206e6f6e60008201527f6578697374656e7420746f6b656e000000000000000000000000000000000000602082015250565b6000613c0b602e83612b01565b9150613c1682613baf565b604082019050919050565b60006020820190508181036000830152613c3a81613bfe565b9050919050565b7f4552433732313a207472616e736665722066726f6d20696e636f72726563742060008201527f6f776e6572000000000000000000000000000000000000000000000000000000602082015250565b6000613c9d602583612b01565b9150613ca882613c41565b604082019050919050565b60006020820190508181036000830152613ccc81613c90565b9050919050565b7f4552433732313a207472616e7366657220746f20746865207a65726f2061646460008201527f7265737300000000000000000000000000000000000000000000000000000000602082015250565b6000613d2f602483612b01565b9150613d3a82613cd3565b604082019050919050565b60006020820190508181036000830152613d5e81613d22565b9050919050565b7f4f776e61626c653a2063616c6c6572206973206e6f7420746865206f776e6572600082015250565b6000613d9b602083612b01565b9150613da682613d65565b602082019050919050565b60006020820190508181036000830152613dca81613d8e565b9050919050565b7f4552433732313a20617070726f766520746f2063616c6c657200000000000000600082015250565b6000613e07601983612b01565b9150613e1282613dd1565b602082019050919050565b60006020820190508181036000830152613e3681613dfa565b9050919050565b7f4552433732313a207472616e7366657220746f206e6f6e20455243373231526560008201527f63656976657220696d706c656d656e7465720000000000000000000000000000602082015250565b6000613e99603283612b01565b9150613ea482613e3d565b604082019050919050565b60006020820190508181036000830152613ec881613e8c565b9050919050565b600081519050919050565b600082825260208201905092915050565b6000613ef682613ecf565b613f008185613eda565b9350613f10818560208601612908565b613f1981612932565b840191505092915050565b6000608082019050613f396000830187612bc6565b613f466020830186612bc6565b613f536040830185612e4c565b8181036060830152613f658184613eeb565b905095945050505050565b600081519050613f7f816127d7565b92915050565b600060208284031215613f9b57613f9a6127a1565b5b6000613fa984828501613f70565b91505092915050565b7f4e487b7100000000000000000000000000000000000000000000000000000000600052601260045260246000fdfea26469706673582212200576c8e23d25708a2e2acf0977b792152d1245bf3ba4a362a65bf49e1103483d64736f6c63430008130033",
  "linkReferences": {},
  "deployedLinkReferences": {}
}