{
  "_format": "hh-sol-artifact-1",
  "contractName": "Market",
  "sourceName": "contracts/NFTmarketplace.sol",
  "abi": [
    {
      "inputs": [],
      "stateMutability": "nonpayable",
      "type": "constructor"
    },
    {
      "anonymous": false,
      "inputs": [
        {
          "indexed": true,
          "internalType": "address",
          "name": "owner",
          "type": "address"
        },
        {
          "indexed": true,
          "internalType": "address",
          "name": "approved",
          "type": "address"
        },
        {
          "indexed": true,
          "internalType": "uint256",
          "name": "tokenId",
          "type": "uint256"
        }
      ],
      "name": "Approval",
      "type": "event"
    },
    {
      "anonymous": false,
      "inputs": [
        {
          "indexed": true,
          "internalType": "address",
          "name": "owner",
          "type": "address"
        },
        {
          "indexed": true,
          "internalType": "address",
          "name": "operator",
          "type": "address"
        },
        {
          "indexed": false,
          "internalType": "bool",
          "name": "approved",
          "type": "bool"
        }
      ],
      "name": "ApprovalForAll",
      "type": "event"
    },
    {
      "anonymous": false,
      "inputs": [
        {
          "indexed": false,
          "internalType": "uint256",
          "name": "_fromTokenId",
          "type": "uint256"
        },
        {
          "indexed": false,
          "internalType": "uint256",
          "name": "_toTokenId",
          "type": "uint256"
        }
      ],
      "name": "BatchMetadataUpdate",
      "type": "event"
    },
    {
      "anonymous": false,
      "inputs": [
        {
          "indexed": false,
          "internalType": "uint256",
          "name": "_tokenId",
          "type": "uint256"
        }
      ],
      "name": "MetadataUpdate",
      "type": "event"
    },
    {
      "anonymous": false,
      "inputs": [
        {
          "indexed": true,
          "internalType": "address",
          "name": "previousOwner",
          "type": "address"
        },
        {
          "indexed": true,
          "internalType": "address",
          "name": "newOwner",
          "type": "address"
        }
      ],
      "name": "OwnershipTransferred",
      "type": "event"
    },
    {
      "anonymous": false,
      "inputs": [
        {
          "indexed": true,
          "internalType": "address",
          "name": "from",
          "type": "address"
        },
        {
          "indexed": true,
          "internalType": "address",
          "name": "to",
          "type": "address"
        },
        {
          "indexed": true,
          "internalType": "uint256",
          "name": "tokenId",
          "type": "uint256"
        }
      ],
      "name": "Transfer",
      "type": "event"
    },
    {
      "inputs": [],
      "name": "NFTsForSale",
      "outputs": [
        {
          "components": [
            {
              "internalType": "address payable",
              "name": "owner",
              "type": "address"
            },
            {
              "internalType": "uint256",
              "name": "tokenId",
              "type": "uint256"
            },
            {
              "internalType": "string",
              "name": "tokenURI",
              "type": "string"
            },
            {
              "internalType": "uint256",
              "name": "price",
              "type": "uint256"
            },
            {
              "internalType": "string",
              "name": "name",
              "type": "string"
            },
            {
              "internalType": "string",
              "name": "description",
              "type": "string"
            },
            {
              "internalType": "string",
              "name": "category",
              "type": "string"
            },
            {
              "internalType": "bool",
              "name": "isListedForSale",
              "type": "bool"
            },
            {
              "internalType": "bool",
              "name": "isListedForAuction",
              "type": "bool"
            }
          ],
          "internalType": "struct Market.Token[]",
          "name": "",
          "type": "tuple[]"
        }
      ],
      "stateMutability": "view",
      "type": "function"
    },
    {
      "inputs": [
        {
          "internalType": "address",
          "name": "to",
          "type": "address"
        },
        {
          "internalType": "uint256",
          "name": "tokenId",
          "type": "uint256"
        }
      ],
      "name": "approve",
      "outputs": [],
      "stateMutability": "nonpayable",
      "type": "function"
    },
    {
      "inputs": [
        {
          "internalType": "address",
          "name": "owner",
          "type": "address"
        }
      ],
      "name": "balanceOf",
      "outputs": [
        {
          "internalType": "uint256",
          "name": "",
          "type": "uint256"
        }
      ],
      "stateMutability": "view",
      "type": "function"
    },
    {
      "inputs": [
        {
          "internalType": "uint256",
          "name": "auctionIndex",
          "type": "uint256"
        }
      ],
      "name": "bidOnAuction",
      "outputs": [],
      "stateMutability": "payable",
      "type": "function"
    },
    {
      "inputs": [
        {
          "internalType": "uint256",
          "name": "auctionIndex",
          "type": "uint256"
        }
      ],
      "name": "finalizeAuction",
      "outputs": [],
      "stateMutability": "payable",
      "type": "function"
    },
    {
      "inputs": [],
      "name": "getAllAuctions",
      "outputs": [
        {
          "components": [
            {
              "internalType": "uint256",
              "name": "tokenIndex",
              "type": "uint256"
            },
            {
              "internalType": "uint256",
              "name": "startingPrice",
              "type": "uint256"
            },
            {
              "internalType": "address payable",
              "name": "creator",
              "type": "address"
            },
            {
              "internalType": "uint256",
              "name": "endTime",
              "type": "uint256"
            },
            {
              "internalType": "uint256",
              "name": "highestBid",
              "type": "uint256"
            },
            {
              "internalType": "address",
              "name": "highestBidder",
              "type": "address"
            }
          ],
          "internalType": "struct Market.Auction[]",
          "name": "",
          "type": "tuple[]"
        }
      ],
      "stateMutability": "view",
      "type": "function"
    },
    {
      "inputs": [
        {
          "internalType": "uint256",
          "name": "tokenId",
          "type": "uint256"
        }
      ],
      "name": "getApproved",
      "outputs": [
        {
          "internalType": "address",
          "name": "",
          "type": "address"
        }
      ],
      "stateMutability": "view",
      "type": "function"
    },
    {
      "inputs": [
        {
          "internalType": "address",
          "name": "owner",
          "type": "address"
        },
        {
          "internalType": "address",
          "name": "operator",
          "type": "address"
        }
      ],
      "name": "isApprovedForAll",
      "outputs": [
        {
          "internalType": "bool",
          "name": "",
          "type": "bool"
        }
      ],
      "stateMutability": "view",
      "type": "function"
    },
    {
      "inputs": [
        {
          "internalType": "string",
          "name": "tokenURI",
          "type": "string"
        },
        {
          "internalType": "string",
          "name": "name",
          "type": "string"
        },
        {
          "internalType": "string",
          "name": "description",
          "type": "string"
        },
        {
          "internalType": "string",
          "name": "category",
          "type": "string"
        }
      ],
      "name": "mintNFT",
      "outputs": [
        {
          "internalType": "uint256",
          "name": "",
          "type": "uint256"
        }
      ],
      "stateMutability": "nonpayable",
      "type": "function"
    },
    {
      "inputs": [],
      "name": "name",
      "outputs": [
        {
          "internalType": "string",
          "name": "",
          "type": "string"
        }
      ],
      "stateMutability": "view",
      "type": "function"
    },
    {
      "inputs": [],
      "name": "owner",
      "outputs": [
        {
          "internalType": "address",
          "name": "",
          "type": "address"
        }
      ],
      "stateMutability": "view",
      "type": "function"
    },
    {
      "inputs": [
        {
          "internalType": "uint256",
          "name": "tokenId",
          "type": "uint256"
        }
      ],
      "name": "ownerOf",
      "outputs": [
        {
          "internalType": "address",
          "name": "",
          "type": "address"
        }
      ],
      "stateMutability": "view",
      "type": "function"
    },
    {
      "inputs": [
        {
          "internalType": "uint256",
          "name": "index",
          "type": "uint256"
        }
      ],
      "name": "purchaseNFT",
      "outputs": [],
      "stateMutability": "payable",
      "type": "function"
    },
    {
      "inputs": [
        {
          "internalType": "uint256",
          "name": "index",
          "type": "uint256"
        }
      ],
      "name": "removeFromSale",
      "outputs": [],
      "stateMutability": "nonpayable",
      "type": "function"
    },
    {
      "inputs": [],
      "name": "renounceOwnership",
      "outputs": [],
      "stateMutability": "nonpayable",
      "type": "function"
    },
    {
      "inputs": [
        {
          "internalType": "address",
          "name": "from",
          "type": "address"
        },
        {
          "internalType": "address",
          "name": "to",
          "type": "address"
        },
        {
          "internalType": "uint256",
          "name": "tokenId",
          "type": "uint256"
        }
      ],
      "name": "safeTransferFrom",
      "outputs": [],
      "stateMutability": "nonpayable",
      "type": "function"
    },
    {
      "inputs": [
        {
          "internalType": "address",
          "name": "from",
          "type": "address"
        },
        {
          "internalType": "address",
          "name": "to",
          "type": "address"
        },
        {
          "internalType": "uint256",
          "name": "tokenId",
          "type": "uint256"
        },
        {
          "internalType": "bytes",
          "name": "data",
          "type": "bytes"
        }
      ],
      "name": "safeTransferFrom",
      "outputs": [],
      "stateMutability": "nonpayable",
      "type": "function"
    },
    {
      "inputs": [
        {
          "internalType": "uint256",
          "name": "index",
          "type": "uint256"
        },
        {
          "internalType": "uint256",
          "name": "price",
          "type": "uint256"
        }
      ],
      "name": "sellNFT",
      "outputs": [],
      "stateMutability": "nonpayable",
      "type": "function"
    },
    {
      "inputs": [
        {
          "internalType": "address",
          "name": "operator",
          "type": "address"
        },
        {
          "internalType": "bool",
          "name": "approved",
          "type": "bool"
        }
      ],
      "name": "setApprovalForAll",
      "outputs": [],
      "stateMutability": "nonpayable",
      "type": "function"
    },
    {
      "inputs": [
        {
          "internalType": "uint256",
          "name": "startingPrice",
          "type": "uint256"
        },
        {
          "internalType": "uint256",
          "name": "durationInSeconds",
          "type": "uint256"
        },
        {
          "internalType": "uint256",
          "name": "index",
          "type": "uint256"
        }
      ],
      "name": "startAuction",
      "outputs": [],
      "stateMutability": "nonpayable",
      "type": "function"
    },
    {
      "inputs": [
        {
          "internalType": "bytes4",
          "name": "interfaceId",
          "type": "bytes4"
        }
      ],
      "name": "supportsInterface",
      "outputs": [
        {
          "internalType": "bool",
          "name": "",
          "type": "bool"
        }
      ],
      "stateMutability": "view",
      "type": "function"
    },
    {
      "inputs": [],
      "name": "symbol",
      "outputs": [
        {
          "internalType": "string",
          "name": "",
          "type": "string"
        }
      ],
      "stateMutability": "view",
      "type": "function"
    },
    {
      "inputs": [
        {
          "internalType": "uint256",
          "name": "tokenId",
          "type": "uint256"
        }
      ],
      "name": "tokenURI",
      "outputs": [
        {
          "internalType": "string",
          "name": "",
          "type": "string"
        }
      ],
      "stateMutability": "view",
      "type": "function"
    },
    {
      "inputs": [
        {
          "internalType": "uint256",
          "name": "",
          "type": "uint256"
        }
      ],
      "name": "tokens",
      "outputs": [
        {
          "internalType": "address payable",
          "name": "owner",
          "type": "address"
        },
        {
          "internalType": "uint256",
          "name": "tokenId",
          "type": "uint256"
        },
        {
          "internalType": "string",
          "name": "tokenURI",
          "type": "string"
        },
        {
          "internalType": "uint256",
          "name": "price",
          "type": "uint256"
        },
        {
          "internalType": "string",
          "name": "name",
          "type": "string"
        },
        {
          "internalType": "string",
          "name": "description",
          "type": "string"
        },
        {
          "internalType": "string",
          "name": "category",
          "type": "string"
        },
        {
          "internalType": "bool",
          "name": "isListedForSale",
          "type": "bool"
        },
        {
          "internalType": "bool",
          "name": "isListedForAuction",
          "type": "bool"
        }
      ],
      "stateMutability": "view",
      "type": "function"
    },
    {
      "inputs": [
        {
          "internalType": "address",
          "name": "from",
          "type": "address"
        },
        {
          "internalType": "address",
          "name": "to",
          "type": "address"
        },
        {
          "internalType": "uint256",
          "name": "tokenId",
          "type": "uint256"
        }
      ],
      "name": "transferFrom",
      "outputs": [],
      "stateMutability": "nonpayable",
      "type": "function"
    },
    {
      "inputs": [
        {
          "internalType": "address",
          "name": "newOwner",
          "type": "address"
        }
      ],
      "name": "transferOwnership",
      "outputs": [],
      "stateMutability": "nonpayable",
      "type": "function"
    },
    {
      "inputs": [],
      "name": "viewAllTokens",
      "outputs": [
        {
          "components": [
            {
              "internalType": "address payable",
              "name": "owner",
              "type": "address"
            },
            {
              "internalType": "uint256",
              "name": "tokenId",
              "type": "uint256"
            },
            {
              "internalType": "string",
              "name": "tokenURI",
              "type": "string"
            },
            {
              "internalType": "uint256",
              "name": "price",
              "type": "uint256"
            },
            {
              "internalType": "string",
              "name": "name",
              "type": "string"
            },
            {
              "internalType": "string",
              "name": "description",
              "type": "string"
            },
            {
              "internalType": "string",
              "name": "category",
              "type": "string"
            },
            {
              "internalType": "bool",
              "name": "isListedForSale",
              "type": "bool"
            },
            {
              "internalType": "bool",
              "name": "isListedForAuction",
              "type": "bool"
            }
          ],
          "internalType": "struct Market.Token[]",
          "name": "",
          "type": "tuple[]"
        }
      ],
      "stateMutability": "view",
      "type": "function"
    }
  ],
  "bytecode": "0x60806040523480156200001157600080fd5b506040518060400160405280600c81526020017f4d61726b65745f506c61636500000000000000000000000000000000000000008152506040518060400160405280600381526020017f4d4b50000000000000000000000000000000000000000000000000000000000081525081600090816200008f919062000412565b508060019081620000a1919062000412565b505050620000c4620000b8620000ca60201b60201c565b620000d260201b60201c565b620004f9565b600033905090565b6000600760009054906101000a900473ffffffffffffffffffffffffffffffffffffffff16905081600760006101000a81548173ffffffffffffffffffffffffffffffffffffffff021916908373ffffffffffffffffffffffffffffffffffffffff1602179055508173ffffffffffffffffffffffffffffffffffffffff168173ffffffffffffffffffffffffffffffffffffffff167f8be0079c531659141344cd1fd0a4f28419497f9722a3daafe3b4186f6b6457e060405160405180910390a35050565b600081519050919050565b7f4e487b7100000000000000000000000000000000000000000000000000000000600052604160045260246000fd5b7f4e487b7100000000000000000000000000000000000000000000000000000000600052602260045260246000fd5b600060028204905060018216806200021a57607f821691505b60208210810362000230576200022f620001d2565b5b50919050565b60008190508160005260206000209050919050565b60006020601f8301049050919050565b600082821b905092915050565b6000600883026200029a7fffffffffffffffffffffffffffffffffffffffffffffffffffffffffffffffff826200025b565b620002a686836200025b565b95508019841693508086168417925050509392505050565b6000819050919050565b6000819050919050565b6000620002f3620002ed620002e784620002be565b620002c8565b620002be565b9050919050565b6000819050919050565b6200030f83620002d2565b620003276200031e82620002fa565b84845462000268565b825550505050565b600090565b6200033e6200032f565b6200034b81848462000304565b505050565b5b8181101562000373576200036760008262000334565b60018101905062000351565b5050565b601f821115620003c2576200038c8162000236565b62000397846200024b565b81016020851015620003a7578190505b620003bf620003b6856200024b565b83018262000350565b50505b505050565b600082821c905092915050565b6000620003e760001984600802620003c7565b1980831691505092915050565b6000620004028383620003d4565b9150826002028217905092915050565b6200041d8262000198565b67ffffffffffffffff811115620004395762000438620001a3565b5b62000445825462000201565b6200045282828562000377565b600060209050601f8311600181146200048a576000841562000475578287015190505b620004818582620003f4565b865550620004f1565b601f1984166200049a8662000236565b60005b82811015620004c4578489015182556001820191506020850194506020810190506200049d565b86831015620004e45784890151620004e0601f891682620003d4565b8355505b6001600288020188555050505b505050505050565b615e8a80620005096000396000f3fe60806040526004361061019c5760003560e01c8063715018a6116100ec578063c87b56dd1161008a578063e985e9c511610064578063e985e9c5146105a1578063eec90571146105de578063f1daf0d41461061b578063f2fde38b146106465761019c565b8063c87b56dd1461051d578063cbd2bdfd1461055a578063e8083863146105855761019c565b806391e078bb116100c657806391e078bb1461047757806395d89b41146104a0578063a22cb465146104cb578063b88d4fde146104f45761019c565b8063715018a61461040c5780638da5cb5b1461042357806391a48a1e1461044e5761019c565b8063150bde031161015957806342842e0e1161013357806342842e0e146103245780634f64b2be1461034d5780636352211e1461039257806370a08231146103cf5761019c565b8063150bde03146102c357806323b872dd146102df57806326b7aeea146103085761019c565b806301ffc9a7146101a157806302cfba81146101de57806306fdde0314610209578063081812fc14610234578063095ea7b3146102715780631361a3b61461029a575b600080fd5b3480156101ad57600080fd5b506101c860048036038101906101c39190613f30565b61066f565b6040516101d59190613f78565b60405180910390f35b3480156101ea57600080fd5b506101f36106d0565b6040516102009190614228565b60405180910390f35b34801561021557600080fd5b5061021e610a18565b60405161022b9190614294565b60405180910390f35b34801561024057600080fd5b5061025b600480360381019061025691906142e2565b610aaa565b6040516102689190614330565b60405180910390f35b34801561027d57600080fd5b5061029860048036038101906102939190614377565b610af0565b005b3480156102a657600080fd5b506102c160048036038101906102bc91906142e2565b610c07565b005b6102dd60048036038101906102d891906142e2565b610d3a565b005b3480156102eb57600080fd5b50610306600480360381019061030191906143b7565b61115c565b005b610322600480360381019061031d91906142e2565b6111bc565b005b34801561033057600080fd5b5061034b600480360381019061034691906143b7565b6113d3565b005b34801561035957600080fd5b50610374600480360381019061036f91906142e2565b6113f3565b60405161038999989796959493929190614428565b60405180910390f35b34801561039e57600080fd5b506103b960048036038101906103b491906142e2565b6116ab565b6040516103c69190614330565b60405180910390f35b3480156103db57600080fd5b506103f660048036038101906103f191906144d1565b611731565b60405161040391906144fe565b60405180910390f35b34801561041857600080fd5b506104216117e8565b005b34801561042f57600080fd5b506104386117fc565b6040516104459190614330565b60405180910390f35b34801561045a57600080fd5b5061047560048036038101906104709190614519565b611826565b005b34801561048357600080fd5b5061049e60048036038101906104999190614559565b611a6e565b005b3480156104ac57600080fd5b506104b5611d6a565b6040516104c29190614294565b60405180910390f35b3480156104d757600080fd5b506104f260048036038101906104ed91906145d8565b611dfc565b005b34801561050057600080fd5b5061051b6004803603810190610516919061474d565b611e12565b005b34801561052957600080fd5b50610544600480360381019061053f91906142e2565b611e74565b6040516105519190614294565b60405180910390f35b34801561056657600080fd5b5061056f611f86565b60405161057c9190614909565b60405180910390f35b61059f600480360381019061059a91906142e2565b6120b9565b005b3480156105ad57600080fd5b506105c860048036038101906105c3919061492b565b612662565b6040516105d59190613f78565b60405180910390f35b3480156105ea57600080fd5b5061060560048036038101906106009190614a0c565b6126f6565b60405161061291906144fe565b60405180910390f35b34801561062757600080fd5b506106306128c4565b60405161063d9190614228565b60405180910390f35b34801561065257600080fd5b5061066d600480360381019061066891906144d1565b612cce565b005b6000634906490660e01b7bffffffffffffffffffffffffffffffffffffffffffffffffffffffff1916827bffffffffffffffffffffffffffffffffffffffffffffffffffffffff191614806106c957506106c882612d51565b5b9050919050565b60606009805480602002602001604051908101604052809291908181526020016000905b82821015610a0f5783829060005260206000209060080201604051806101200160405290816000820160009054906101000a900473ffffffffffffffffffffffffffffffffffffffff1673ffffffffffffffffffffffffffffffffffffffff1673ffffffffffffffffffffffffffffffffffffffff1681526020016001820154815260200160028201805461078890614b12565b80601f01602080910402602001604051908101604052809291908181526020018280546107b490614b12565b80156108015780601f106107d657610100808354040283529160200191610801565b820191906000526020600020905b8154815290600101906020018083116107e457829003601f168201915b505050505081526020016003820154815260200160048201805461082490614b12565b80601f016020809104026020016040519081016040528092919081815260200182805461085090614b12565b801561089d5780601f106108725761010080835404028352916020019161089d565b820191906000526020600020905b81548152906001019060200180831161088057829003601f168201915b505050505081526020016005820180546108b690614b12565b80601f01602080910402602001604051908101604052809291908181526020018280546108e290614b12565b801561092f5780601f106109045761010080835404028352916020019161092f565b820191906000526020600020905b81548152906001019060200180831161091257829003601f168201915b5050505050815260200160068201805461094890614b12565b80601f016020809104026020016040519081016040528092919081815260200182805461097490614b12565b80156109c15780601f10610996576101008083540402835291602001916109c1565b820191906000526020600020905b8154815290600101906020018083116109a457829003601f168201915b505050505081526020016007820160009054906101000a900460ff161515151581526020016007820160019054906101000a900460ff161515151581525050815260200190600101906106f4565b50505050905090565b606060008054610a2790614b12565b80601f0160208091040260200160405190810160405280929190818152602001828054610a5390614b12565b8015610aa05780601f10610a7557610100808354040283529160200191610aa0565b820191906000526020600020905b815481529060010190602001808311610a8357829003601f168201915b5050505050905090565b6000610ab582612e33565b6004600083815260200190815260200160002060009054906101000a900473ffffffffffffffffffffffffffffffffffffffff169050919050565b6000610afb826116ab565b90508073ffffffffffffffffffffffffffffffffffffffff168373ffffffffffffffffffffffffffffffffffffffff1603610b6b576040517f08c379a0000000000000000000000000000000000000000000000000000000008152600401610b6290614bb5565b60405180910390fd5b8073ffffffffffffffffffffffffffffffffffffffff16610b8a612e7e565b73ffffffffffffffffffffffffffffffffffffffff161480610bb95750610bb881610bb3612e7e565b612662565b5b610bf8576040517f08c379a0000000000000000000000000000000000000000000000000000000008152600401610bef90614c47565b60405180910390fd5b610c028383612e86565b505050565b8060098181548110610c1c57610c1b614c67565b5b906000526020600020906008020160000160009054906101000a900473ffffffffffffffffffffffffffffffffffffffff1673ffffffffffffffffffffffffffffffffffffffff163373ffffffffffffffffffffffffffffffffffffffff1614610c8557600080fd5b60098281548110610c9957610c98614c67565b5b906000526020600020906008020160070160009054906101000a900460ff1615610cf8576040517f08c379a0000000000000000000000000000000000000000000000000000000008152600401610cef90614ce2565b60405180910390fd5b600060098381548110610d0e57610d0d614c67565b5b906000526020600020906008020160070160006101000a81548160ff0219169083151502179055505050565b60098181548110610d4e57610d4d614c67565b5b906000526020600020906008020160000160009054906101000a900473ffffffffffffffffffffffffffffffffffffffff1673ffffffffffffffffffffffffffffffffffffffff163373ffffffffffffffffffffffffffffffffffffffff1603610ded576040517f08c379a0000000000000000000000000000000000000000000000000000000008152600401610de490614d74565b60405180910390fd5b600081101580610e01575060098054905081105b610e40576040517f08c379a0000000000000000000000000000000000000000000000000000000008152600401610e3790614de0565b60405180910390fd5b60098181548110610e5457610e53614c67565b5b906000526020600020906008020160070160009054906101000a900460ff16610eb2576040517f08c379a0000000000000000000000000000000000000000000000000000000008152600401610ea990614e4c565b60405180910390fd5b60098181548110610ec657610ec5614c67565b5b906000526020600020906008020160030154341015610f1a576040517f08c379a0000000000000000000000000000000000000000000000000000000008152600401610f1190614eb8565b60405180910390fd5b60098181548110610f2e57610f2d614c67565b5b906000526020600020906008020160070160019054906101000a900460ff1615610f8d576040517f08c379a0000000000000000000000000000000000000000000000000000000008152600401610f8490614f24565b60405180910390fd5b600060098281548110610fa357610fa2614c67565b5b906000526020600020906008020160000160009054906101000a900473ffffffffffffffffffffffffffffffffffffffff1690508073ffffffffffffffffffffffffffffffffffffffff166108fc349081150290604051600060405180830381858888f1935050505015801561101d573d6000803e3d6000fd5b50336009838154811061103357611032614c67565b5b906000526020600020906008020160000160006101000a81548173ffffffffffffffffffffffffffffffffffffffff021916908373ffffffffffffffffffffffffffffffffffffffff1602179055506110b281336009858154811061109b5761109a614c67565b5b906000526020600020906008020160010154612f3f565b6000600983815481106110c8576110c7614c67565b5b906000526020600020906008020160070160016101000a81548160ff02191690831515021790555060006009838154811061110657611105614c67565b5b906000526020600020906008020160070160006101000a81548160ff021916908315150217905550346009838154811061114357611142614c67565b5b9060005260206000209060080201600301819055505050565b61116d611167612e7e565b82613238565b6111ac576040517f08c379a00000000000000000000000000000000000000000000000000000000081526004016111a390614fb6565b60405180910390fd5b6111b7838383612f3f565b505050565b6000600a82815481106111d2576111d1614c67565b5b906000526020600020906006020190503373ffffffffffffffffffffffffffffffffffffffff168160020160009054906101000a900473ffffffffffffffffffffffffffffffffffffffff1673ffffffffffffffffffffffffffffffffffffffff1603611274576040517f08c379a000000000000000000000000000000000000000000000000000000000815260040161126b90615048565b60405180910390fd5b806004015434116112ba576040517f08c379a00000000000000000000000000000000000000000000000000000000081526004016112b1906150da565b60405180910390fd5b80600301544210611300576040517f08c379a00000000000000000000000000000000000000000000000000000000081526004016112f790615146565b60405180910390fd5b6000816004015411156113835760008160050160009054906101000a900473ffffffffffffffffffffffffffffffffffffffff1690508073ffffffffffffffffffffffffffffffffffffffff166108fc83600401549081150290604051600060405180830381858888f19350505050158015611380573d6000803e3d6000fd5b50505b348160040181905550338160050160006101000a81548173ffffffffffffffffffffffffffffffffffffffff021916908373ffffffffffffffffffffffffffffffffffffffff1602179055505050565b6113ee83838360405180602001604052806000815250611e12565b505050565b6009818154811061140357600080fd5b90600052602060002090600802016000915090508060000160009054906101000a900473ffffffffffffffffffffffffffffffffffffffff169080600101549080600201805461145290614b12565b80601f016020809104026020016040519081016040528092919081815260200182805461147e90614b12565b80156114cb5780601f106114a0576101008083540402835291602001916114cb565b820191906000526020600020905b8154815290600101906020018083116114ae57829003601f168201915b5050505050908060030154908060040180546114e690614b12565b80601f016020809104026020016040519081016040528092919081815260200182805461151290614b12565b801561155f5780601f106115345761010080835404028352916020019161155f565b820191906000526020600020905b81548152906001019060200180831161154257829003601f168201915b50505050509080600501805461157490614b12565b80601f01602080910402602001604051908101604052809291908181526020018280546115a090614b12565b80156115ed5780601f106115c2576101008083540402835291602001916115ed565b820191906000526020600020905b8154815290600101906020018083116115d057829003601f168201915b50505050509080600601805461160290614b12565b80601f016020809104026020016040519081016040528092919081815260200182805461162e90614b12565b801561167b5780601f106116505761010080835404028352916020019161167b565b820191906000526020600020905b81548152906001019060200180831161165e57829003601f168201915b5050505050908060070160009054906101000a900460ff16908060070160019054906101000a900460ff16905089565b6000806116b7836132cd565b9050600073ffffffffffffffffffffffffffffffffffffffff168173ffffffffffffffffffffffffffffffffffffffff1603611728576040517f08c379a000000000000000000000000000000000000000000000000000000000815260040161171f906151b2565b60405180910390fd5b80915050919050565b60008073ffffffffffffffffffffffffffffffffffffffff168273ffffffffffffffffffffffffffffffffffffffff16036117a1576040517f08c379a000000000000000000000000000000000000000000000000000000000815260040161179890615244565b60405180910390fd5b600360008373ffffffffffffffffffffffffffffffffffffffff1673ffffffffffffffffffffffffffffffffffffffff168152602001908152602001600020549050919050565b6117f061330a565b6117fa6000613388565b565b6000600760009054906101000a900473ffffffffffffffffffffffffffffffffffffffff16905090565b6009828154811061183a57611839614c67565b5b906000526020600020906008020160000160009054906101000a900473ffffffffffffffffffffffffffffffffffffffff1673ffffffffffffffffffffffffffffffffffffffff163373ffffffffffffffffffffffffffffffffffffffff16146118d9576040517f08c379a00000000000000000000000000000000000000000000000000000000081526004016118d0906152d6565b60405180910390fd5b6000811161191c576040517f08c379a000000000000000000000000000000000000000000000000000000000815260040161191390615368565b60405180910390fd5b600982815481106119305761192f614c67565b5b906000526020600020906008020160070160009054906101000a900460ff161561198f576040517f08c379a0000000000000000000000000000000000000000000000000000000008152600401611986906153d4565b60405180910390fd5b600982815481106119a3576119a2614c67565b5b906000526020600020906008020160070160019054906101000a900460ff1615611a02576040517f08c379a00000000000000000000000000000000000000000000000000000000081526004016119f990615440565b60405180910390fd5b8060098381548110611a1757611a16614c67565b5b906000526020600020906008020160030181905550600160098381548110611a4257611a41614c67565b5b906000526020600020906008020160070160006101000a81548160ff0219169083151502179055505050565b8060098181548110611a8357611a82614c67565b5b906000526020600020906008020160000160009054906101000a900473ffffffffffffffffffffffffffffffffffffffff1673ffffffffffffffffffffffffffffffffffffffff163373ffffffffffffffffffffffffffffffffffffffff1614611aec57600080fd5b60098281548110611b0057611aff614c67565b5b906000526020600020906008020160070160009054906101000a900460ff1615611b5f576040517f08c379a0000000000000000000000000000000000000000000000000000000008152600401611b56906153d4565b60405180910390fd5b60098281548110611b7357611b72614c67565b5b906000526020600020906008020160070160019054906101000a900460ff1615611bd2576040517f08c379a0000000000000000000000000000000000000000000000000000000008152600401611bc990614f24565b60405180910390fd5b611bda613dfc565b33816040019073ffffffffffffffffffffffffffffffffffffffff16908173ffffffffffffffffffffffffffffffffffffffff16815250508342611c1e919061548f565b816060018181525050600081608001818152505060008160a0019073ffffffffffffffffffffffffffffffffffffffff16908173ffffffffffffffffffffffffffffffffffffffff16815250508481602001818152505082816000018181525050600a819080600181540180825580915050600190039060005260206000209060060201600090919091909150600082015181600001556020820151816001015560408201518160020160006101000a81548173ffffffffffffffffffffffffffffffffffffffff021916908373ffffffffffffffffffffffffffffffffffffffff160217905550606082015181600301556080820151816004015560a08201518160050160006101000a81548173ffffffffffffffffffffffffffffffffffffffff021916908373ffffffffffffffffffffffffffffffffffffffff16021790555050505050505050565b606060018054611d7990614b12565b80601f0160208091040260200160405190810160405280929190818152602001828054611da590614b12565b8015611df25780601f10611dc757610100808354040283529160200191611df2565b820191906000526020600020905b815481529060010190602001808311611dd557829003601f168201915b5050505050905090565b611e0e611e07612e7e565b838361344e565b5050565b611e23611e1d612e7e565b83613238565b611e62576040517f08c379a0000000000000000000000000000000000000000000000000000000008152600401611e5990614fb6565b60405180910390fd5b611e6e848484846135ba565b50505050565b6060611e7f82612e33565b6000600660008481526020019081526020016000208054611e9f90614b12565b80601f0160208091040260200160405190810160405280929190818152602001828054611ecb90614b12565b8015611f185780601f10611eed57610100808354040283529160200191611f18565b820191906000526020600020905b815481529060010190602001808311611efb57829003601f168201915b505050505090506000611f29613616565b90506000815103611f3e578192505050611f81565b600082511115611f73578082604051602001611f5b9291906154ff565b60405160208183030381529060405292505050611f81565b611f7c8461362d565b925050505b919050565b6060600a805480602002602001604051908101604052809291908181526020016000905b828210156120b057838290600052602060002090600602016040518060c001604052908160008201548152602001600182015481526020016002820160009054906101000a900473ffffffffffffffffffffffffffffffffffffffff1673ffffffffffffffffffffffffffffffffffffffff1673ffffffffffffffffffffffffffffffffffffffff16815260200160038201548152602001600482015481526020016005820160009054906101000a900473ffffffffffffffffffffffffffffffffffffffff1673ffffffffffffffffffffffffffffffffffffffff1673ffffffffffffffffffffffffffffffffffffffff168152505081526020019060010190611faa565b50505050905090565b80600a81815481106120ce576120cd614c67565b5b906000526020600020906006020160020160009054906101000a900473ffffffffffffffffffffffffffffffffffffffff1673ffffffffffffffffffffffffffffffffffffffff163373ffffffffffffffffffffffffffffffffffffffff161461213757600080fd5b6000600a838154811061214d5761214c614c67565b5b9060005260206000209060060201600401541161219f576040517f08c379a00000000000000000000000000000000000000000000000000000000081526004016121969061556f565b60405180910390fd5b6000600a83815481106121b5576121b4614c67565b5b906000526020600020906006020160020160009054906101000a900473ffffffffffffffffffffffffffffffffffffffff16905061228381600a858154811061220157612200614c67565b5b906000526020600020906006020160050160009054906101000a900473ffffffffffffffffffffffffffffffffffffffff166009600a878154811061224957612248614c67565b5b9060005260206000209060060201600001548154811061226c5761226b614c67565b5b90600052602060002090600802016001015461115c565b600a838154811061229757612296614c67565b5b906000526020600020906006020160050160009054906101000a900473ffffffffffffffffffffffffffffffffffffffff166009600a85815481106122df576122de614c67565b5b9060005260206000209060060201600001548154811061230257612301614c67565b5b906000526020600020906008020160000160006101000a81548173ffffffffffffffffffffffffffffffffffffffff021916908373ffffffffffffffffffffffffffffffffffffffff160217905550600a838154811061236557612364614c67565b5b9060005260206000209060060201600401546009600a858154811061238d5761238c614c67565b5b906000526020600020906006020160000154815481106123b0576123af614c67565b5b906000526020600020906008020160030181905550600a83815481106123d9576123d8614c67565b5b906000526020600020906006020160020160009054906101000a900473ffffffffffffffffffffffffffffffffffffffff1673ffffffffffffffffffffffffffffffffffffffff166108fc600a858154811061243857612437614c67565b5b9060005260206000209060060201600401549081150290604051600060405180830381858888f19350505050158015612475573d6000803e3d6000fd5b50600a6001600a8054905061248a919061558f565b8154811061249b5761249a614c67565b5b9060005260206000209060060201600a84815481106124bd576124bc614c67565b5b906000526020600020906006020160008201548160000155600182015481600101556002820160009054906101000a900473ffffffffffffffffffffffffffffffffffffffff168160020160006101000a81548173ffffffffffffffffffffffffffffffffffffffff021916908373ffffffffffffffffffffffffffffffffffffffff16021790555060038201548160030155600482015481600401556005820160009054906101000a900473ffffffffffffffffffffffffffffffffffffffff168160050160006101000a81548173ffffffffffffffffffffffffffffffffffffffff021916908373ffffffffffffffffffffffffffffffffffffffff160217905550905050600a8054806125d6576125d56155c3565b5b600190038181906000526020600020906006020160008082016000905560018201600090556002820160006101000a81549073ffffffffffffffffffffffffffffffffffffffff0219169055600382016000905560048201600090556005820160006101000a81549073ffffffffffffffffffffffffffffffffffffffff021916905550509055505050565b6000600560008473ffffffffffffffffffffffffffffffffffffffff1673ffffffffffffffffffffffffffffffffffffffff16815260200190815260200160002060008373ffffffffffffffffffffffffffffffffffffffff1673ffffffffffffffffffffffffffffffffffffffff16815260200190815260200160002060009054906101000a900460ff16905092915050565b6000806127036008613695565b905061270f33826136a3565b61271981876138c0565b60006040518061012001604052803373ffffffffffffffffffffffffffffffffffffffff16815260200183815260200188815260200160008152602001878152602001868152602001858152602001600015158152602001600015158152509050600981908060018154018082558091505060019003906000526020600020906008020160009091909190915060008201518160000160006101000a81548173ffffffffffffffffffffffffffffffffffffffff021916908373ffffffffffffffffffffffffffffffffffffffff16021790555060208201518160010155604082015181600201908161280c919061579e565b5060608201518160030155608082015181600401908161282c919061579e565b5060a0820151816005019081612842919061579e565b5060c0820151816006019081612858919061579e565b5060e08201518160070160006101000a81548160ff0219169083151502179055506101008201518160070160016101000a81548160ff02191690831515021790555050506128a66008613964565b60016009805490506128b8919061558f565b92505050949350505050565b6060600060098054905067ffffffffffffffff8111156128e7576128e6614622565b5b60405190808252806020026020018201604052801561292057816020015b61290d613e5e565b8152602001906001900390816129055790505b5090506000805b600980549050811015612cc2576009818154811061294857612947614c67565b5b906000526020600020906008020160070160009054906101000a900460ff1615612caf57600981815481106129805761297f614c67565b5b9060005260206000209060080201604051806101200160405290816000820160009054906101000a900473ffffffffffffffffffffffffffffffffffffffff1673ffffffffffffffffffffffffffffffffffffffff1673ffffffffffffffffffffffffffffffffffffffff16815260200160018201548152602001600282018054612a0a90614b12565b80601f0160208091040260200160405190810160405280929190818152602001828054612a3690614b12565b8015612a835780601f10612a5857610100808354040283529160200191612a83565b820191906000526020600020905b815481529060010190602001808311612a6657829003601f168201915b5050505050815260200160038201548152602001600482018054612aa690614b12565b80601f0160208091040260200160405190810160405280929190818152602001828054612ad290614b12565b8015612b1f5780601f10612af457610100808354040283529160200191612b1f565b820191906000526020600020905b815481529060010190602001808311612b0257829003601f168201915b50505050508152602001600582018054612b3890614b12565b80601f0160208091040260200160405190810160405280929190818152602001828054612b6490614b12565b8015612bb15780601f10612b8657610100808354040283529160200191612bb1565b820191906000526020600020905b815481529060010190602001808311612b9457829003601f168201915b50505050508152602001600682018054612bca90614b12565b80601f0160208091040260200160405190810160405280929190818152602001828054612bf690614b12565b8015612c435780601f10612c1857610100808354040283529160200191612c43565b820191906000526020600020905b815481529060010190602001808311612c2657829003601f168201915b505050505081526020016007820160009054906101000a900460ff161515151581526020016007820160019054906101000a900460ff161515151581525050838381518110612c9557612c94614c67565b5b60200260200101819052508180612cab90615870565b9250505b8080612cba90615870565b915050612927565b50808252819250505090565b612cd661330a565b600073ffffffffffffffffffffffffffffffffffffffff168173ffffffffffffffffffffffffffffffffffffffff1603612d45576040517f08c379a0000000000000000000000000000000000000000000000000000000008152600401612d3c9061592a565b60405180910390fd5b612d4e81613388565b50565b60007f80ac58cd000000000000000000000000000000000000000000000000000000007bffffffffffffffffffffffffffffffffffffffffffffffffffffffff1916827bffffffffffffffffffffffffffffffffffffffffffffffffffffffff19161480612e1c57507f5b5e139f000000000000000000000000000000000000000000000000000000007bffffffffffffffffffffffffffffffffffffffffffffffffffffffff1916827bffffffffffffffffffffffffffffffffffffffffffffffffffffffff1916145b80612e2c5750612e2b8261397a565b5b9050919050565b612e3c816139e4565b612e7b576040517f08c379a0000000000000000000000000000000000000000000000000000000008152600401612e72906151b2565b60405180910390fd5b50565b600033905090565b816004600083815260200190815260200160002060006101000a81548173ffffffffffffffffffffffffffffffffffffffff021916908373ffffffffffffffffffffffffffffffffffffffff160217905550808273ffffffffffffffffffffffffffffffffffffffff16612ef9836116ab565b73ffffffffffffffffffffffffffffffffffffffff167f8c5be1e5ebec7d5bd14f71427d1e84f3dd0314c0f7b2291e5b200ac8c7c3b92560405160405180910390a45050565b8273ffffffffffffffffffffffffffffffffffffffff16612f5f826116ab565b73ffffffffffffffffffffffffffffffffffffffff1614612fb5576040517f08c379a0000000000000000000000000000000000000000000000000000000008152600401612fac906159bc565b60405180910390fd5b600073ffffffffffffffffffffffffffffffffffffffff168273ffffffffffffffffffffffffffffffffffffffff1603613024576040517f08c379a000000000000000000000000000000000000000000000000000000000815260040161301b90615a4e565b60405180910390fd5b6130318383836001613a25565b8273ffffffffffffffffffffffffffffffffffffffff16613051826116ab565b73ffffffffffffffffffffffffffffffffffffffff16146130a7576040517f08c379a000000000000000000000000000000000000000000000000000000000815260040161309e906159bc565b60405180910390fd5b6004600082815260200190815260200160002060006101000a81549073ffffffffffffffffffffffffffffffffffffffff02191690556001600360008573ffffffffffffffffffffffffffffffffffffffff1673ffffffffffffffffffffffffffffffffffffffff168152602001908152602001600020600082825403925050819055506001600360008473ffffffffffffffffffffffffffffffffffffffff1673ffffffffffffffffffffffffffffffffffffffff16815260200190815260200160002060008282540192505081905550816002600083815260200190815260200160002060006101000a81548173ffffffffffffffffffffffffffffffffffffffff021916908373ffffffffffffffffffffffffffffffffffffffff160217905550808273ffffffffffffffffffffffffffffffffffffffff168473ffffffffffffffffffffffffffffffffffffffff167fddf252ad1be2c89b69c2b068fc378daa952ba7f163c4a11628f55a4df523b3ef60405160405180910390a46132338383836001613a2b565b505050565b600080613244836116ab565b90508073ffffffffffffffffffffffffffffffffffffffff168473ffffffffffffffffffffffffffffffffffffffff16148061328657506132858185612662565b5b806132c457508373ffffffffffffffffffffffffffffffffffffffff166132ac84610aaa565b73ffffffffffffffffffffffffffffffffffffffff16145b91505092915050565b60006002600083815260200190815260200160002060009054906101000a900473ffffffffffffffffffffffffffffffffffffffff169050919050565b613312612e7e565b73ffffffffffffffffffffffffffffffffffffffff166133306117fc565b73ffffffffffffffffffffffffffffffffffffffff1614613386576040517f08c379a000000000000000000000000000000000000000000000000000000000815260040161337d90615aba565b60405180910390fd5b565b6000600760009054906101000a900473ffffffffffffffffffffffffffffffffffffffff16905081600760006101000a81548173ffffffffffffffffffffffffffffffffffffffff021916908373ffffffffffffffffffffffffffffffffffffffff1602179055508173ffffffffffffffffffffffffffffffffffffffff168173ffffffffffffffffffffffffffffffffffffffff167f8be0079c531659141344cd1fd0a4f28419497f9722a3daafe3b4186f6b6457e060405160405180910390a35050565b8173ffffffffffffffffffffffffffffffffffffffff168373ffffffffffffffffffffffffffffffffffffffff16036134bc576040517f08c379a00000000000000000000000000000000000000000000000000000000081526004016134b390615b26565b60405180910390fd5b80600560008573ffffffffffffffffffffffffffffffffffffffff1673ffffffffffffffffffffffffffffffffffffffff16815260200190815260200160002060008473ffffffffffffffffffffffffffffffffffffffff1673ffffffffffffffffffffffffffffffffffffffff16815260200190815260200160002060006101000a81548160ff0219169083151502179055508173ffffffffffffffffffffffffffffffffffffffff168373ffffffffffffffffffffffffffffffffffffffff167f17307eab39ab6107e8899845ad3d59bd9653f200f220920489ca2b5937696c31836040516135ad9190613f78565b60405180910390a3505050565b6135c5848484612f3f565b6135d184848484613a31565b613610576040517f08c379a000000000000000000000000000000000000000000000000000000000815260040161360790615bb8565b60405180910390fd5b50505050565b606060405180602001604052806000815250905090565b606061363882612e33565b6000613642613616565b90506000815111613662576040518060200160405280600081525061368d565b8061366c84613bb8565b60405160200161367d9291906154ff565b6040516020818303038152906040525b915050919050565b600081600001549050919050565b600073ffffffffffffffffffffffffffffffffffffffff168273ffffffffffffffffffffffffffffffffffffffff1603613712576040517f08c379a000000000000000000000000000000000000000000000000000000000815260040161370990615c24565b60405180910390fd5b61371b816139e4565b1561375b576040517f08c379a000000000000000000000000000000000000000000000000000000000815260040161375290615c90565b60405180910390fd5b613769600083836001613a25565b613772816139e4565b156137b2576040517f08c379a00000000000000000000000000000000000000000000000000000000081526004016137a990615c90565b60405180910390fd5b6001600360008473ffffffffffffffffffffffffffffffffffffffff1673ffffffffffffffffffffffffffffffffffffffff16815260200190815260200160002060008282540192505081905550816002600083815260200190815260200160002060006101000a81548173ffffffffffffffffffffffffffffffffffffffff021916908373ffffffffffffffffffffffffffffffffffffffff160217905550808273ffffffffffffffffffffffffffffffffffffffff16600073ffffffffffffffffffffffffffffffffffffffff167fddf252ad1be2c89b69c2b068fc378daa952ba7f163c4a11628f55a4df523b3ef60405160405180910390a46138bc600083836001613a2b565b5050565b6138c9826139e4565b613908576040517f08c379a00000000000000000000000000000000000000000000000000000000081526004016138ff90615d22565b60405180910390fd5b80600660008481526020019081526020016000209081613928919061579e565b507ff8e1a15aba9398e019f0b49df1a4fde98ee17ae345cb5f6b5e2c27f5033e8ce78260405161395891906144fe565b60405180910390a15050565b6001816000016000828254019250508190555050565b60007f01ffc9a7000000000000000000000000000000000000000000000000000000007bffffffffffffffffffffffffffffffffffffffffffffffffffffffff1916827bffffffffffffffffffffffffffffffffffffffffffffffffffffffff1916149050919050565b60008073ffffffffffffffffffffffffffffffffffffffff16613a06836132cd565b73ffffffffffffffffffffffffffffffffffffffff1614159050919050565b50505050565b50505050565b6000613a528473ffffffffffffffffffffffffffffffffffffffff16613c86565b15613bab578373ffffffffffffffffffffffffffffffffffffffff1663150b7a02613a7b612e7e565b8786866040518563ffffffff1660e01b8152600401613a9d9493929190615d97565b6020604051808303816000875af1925050508015613ad957506040513d601f19601f82011682018060405250810190613ad69190615df8565b60015b613b5b573d8060008114613b09576040519150601f19603f3d011682016040523d82523d6000602084013e613b0e565b606091505b506000815103613b53576040517f08c379a0000000000000000000000000000000000000000000000000000000008152600401613b4a90615bb8565b60405180910390fd5b805181602001fd5b63150b7a0260e01b7bffffffffffffffffffffffffffffffffffffffffffffffffffffffff1916817bffffffffffffffffffffffffffffffffffffffffffffffffffffffff191614915050613bb0565b600190505b949350505050565b606060006001613bc784613ca9565b01905060008167ffffffffffffffff811115613be657613be5614622565b5b6040519080825280601f01601f191660200182016040528015613c185781602001600182028036833780820191505090505b509050600082602001820190505b600115613c7b578080600190039150507f3031323334353637383961626364656600000000000000000000000000000000600a86061a8153600a8581613c6f57613c6e615e25565b5b04945060008503613c26575b819350505050919050565b6000808273ffffffffffffffffffffffffffffffffffffffff163b119050919050565b600080600090507a184f03e93ff9f4daa797ed6e38ed64bf6a1f0100000000000000008310613d07577a184f03e93ff9f4daa797ed6e38ed64bf6a1f0100000000000000008381613cfd57613cfc615e25565b5b0492506040810190505b6d04ee2d6d415b85acef81000000008310613d44576d04ee2d6d415b85acef81000000008381613d3a57613d39615e25565b5b0492506020810190505b662386f26fc100008310613d7357662386f26fc100008381613d6957613d68615e25565b5b0492506010810190505b6305f5e1008310613d9c576305f5e1008381613d9257613d91615e25565b5b0492506008810190505b6127108310613dc1576127108381613db757613db6615e25565b5b0492506004810190505b60648310613de45760648381613dda57613dd9615e25565b5b0492506002810190505b600a8310613df3576001810190505b80915050919050565b6040518060c001604052806000815260200160008152602001600073ffffffffffffffffffffffffffffffffffffffff1681526020016000815260200160008152602001600073ffffffffffffffffffffffffffffffffffffffff1681525090565b604051806101200160405280600073ffffffffffffffffffffffffffffffffffffffff1681526020016000815260200160608152602001600081526020016060815260200160608152602001606081526020016000151581526020016000151581525090565b6000604051905090565b600080fd5b600080fd5b60007fffffffff0000000000000000000000000000000000000000000000000000000082169050919050565b613f0d81613ed8565b8114613f1857600080fd5b50565b600081359050613f2a81613f04565b92915050565b600060208284031215613f4657613f45613ece565b5b6000613f5484828501613f1b565b91505092915050565b60008115159050919050565b613f7281613f5d565b82525050565b6000602082019050613f8d6000830184613f69565b92915050565b600081519050919050565b600082825260208201905092915050565b6000819050602082019050919050565b600073ffffffffffffffffffffffffffffffffffffffff82169050919050565b6000613fea82613fbf565b9050919050565b613ffa81613fdf565b82525050565b6000819050919050565b61401381614000565b82525050565b600081519050919050565b600082825260208201905092915050565b60005b83811015614053578082015181840152602081019050614038565b60008484015250505050565b6000601f19601f8301169050919050565b600061407b82614019565b6140858185614024565b9350614095818560208601614035565b61409e8161405f565b840191505092915050565b6140b281613f5d565b82525050565b6000610120830160008301516140d16000860182613ff1565b5060208301516140e4602086018261400a565b50604083015184820360408601526140fc8282614070565b9150506060830151614111606086018261400a565b50608083015184820360808601526141298282614070565b91505060a083015184820360a08601526141438282614070565b91505060c083015184820360c086015261415d8282614070565b91505060e083015161417260e08601826140a9565b506101008301516141876101008601826140a9565b508091505092915050565b600061419e83836140b8565b905092915050565b6000602082019050919050565b60006141be82613f93565b6141c88185613f9e565b9350836020820285016141da85613faf565b8060005b8581101561421657848403895281516141f78582614192565b9450614202836141a6565b925060208a019950506001810190506141de565b50829750879550505050505092915050565b6000602082019050818103600083015261424281846141b3565b905092915050565b600082825260208201905092915050565b600061426682614019565b614270818561424a565b9350614280818560208601614035565b6142898161405f565b840191505092915050565b600060208201905081810360008301526142ae818461425b565b905092915050565b6142bf81614000565b81146142ca57600080fd5b50565b6000813590506142dc816142b6565b92915050565b6000602082840312156142f8576142f7613ece565b5b6000614306848285016142cd565b91505092915050565b600061431a82613fbf565b9050919050565b61432a8161430f565b82525050565b60006020820190506143456000830184614321565b92915050565b6143548161430f565b811461435f57600080fd5b50565b6000813590506143718161434b565b92915050565b6000806040838503121561438e5761438d613ece565b5b600061439c85828601614362565b92505060206143ad858286016142cd565b9150509250929050565b6000806000606084860312156143d0576143cf613ece565b5b60006143de86828701614362565b93505060206143ef86828701614362565b9250506040614400868287016142cd565b9150509250925092565b61441381613fdf565b82525050565b61442281614000565b82525050565b60006101208201905061443e600083018c61440a565b61444b602083018b614419565b818103604083015261445d818a61425b565b905061446c6060830189614419565b818103608083015261447e818861425b565b905081810360a0830152614492818761425b565b905081810360c08301526144a6818661425b565b90506144b560e0830185613f69565b6144c3610100830184613f69565b9a9950505050505050505050565b6000602082840312156144e7576144e6613ece565b5b60006144f584828501614362565b91505092915050565b60006020820190506145136000830184614419565b92915050565b600080604083850312156145305761452f613ece565b5b600061453e858286016142cd565b925050602061454f858286016142cd565b9150509250929050565b60008060006060848603121561457257614571613ece565b5b6000614580868287016142cd565b9350506020614591868287016142cd565b92505060406145a2868287016142cd565b9150509250925092565b6145b581613f5d565b81146145c057600080fd5b50565b6000813590506145d2816145ac565b92915050565b600080604083850312156145ef576145ee613ece565b5b60006145fd85828601614362565b925050602061460e858286016145c3565b9150509250929050565b600080fd5b600080fd5b7f4e487b7100000000000000000000000000000000000000000000000000000000600052604160045260246000fd5b61465a8261405f565b810181811067ffffffffffffffff8211171561467957614678614622565b5b80604052505050565b600061468c613ec4565b90506146988282614651565b919050565b600067ffffffffffffffff8211156146b8576146b7614622565b5b6146c18261405f565b9050602081019050919050565b82818337600083830152505050565b60006146f06146eb8461469d565b614682565b90508281526020810184848401111561470c5761470b61461d565b5b6147178482856146ce565b509392505050565b600082601f83011261473457614733614618565b5b81356147448482602086016146dd565b91505092915050565b6000806000806080858703121561476757614766613ece565b5b600061477587828801614362565b945050602061478687828801614362565b9350506040614797878288016142cd565b925050606085013567ffffffffffffffff8111156147b8576147b7613ed3565b5b6147c48782880161471f565b91505092959194509250565b600081519050919050565b600082825260208201905092915050565b6000819050602082019050919050565b6148058161430f565b82525050565b60c082016000820151614821600085018261400a565b506020820151614834602085018261400a565b5060408201516148476040850182613ff1565b50606082015161485a606085018261400a565b50608082015161486d608085018261400a565b5060a082015161488060a08501826147fc565b50505050565b6000614892838361480b565b60c08301905092915050565b6000602082019050919050565b60006148b6826147d0565b6148c081856147db565b93506148cb836147ec565b8060005b838110156148fc5781516148e38882614886565b97506148ee8361489e565b9250506001810190506148cf565b5085935050505092915050565b6000602082019050818103600083015261492381846148ab565b905092915050565b6000806040838503121561494257614941613ece565b5b600061495085828601614362565b925050602061496185828601614362565b9150509250929050565b600067ffffffffffffffff82111561498657614985614622565b5b61498f8261405f565b9050602081019050919050565b60006149af6149aa8461496b565b614682565b9050828152602081018484840111156149cb576149ca61461d565b5b6149d68482856146ce565b509392505050565b600082601f8301126149f3576149f2614618565b5b8135614a0384826020860161499c565b91505092915050565b60008060008060808587031215614a2657614a25613ece565b5b600085013567ffffffffffffffff811115614a4457614a43613ed3565b5b614a50878288016149de565b945050602085013567ffffffffffffffff811115614a7157614a70613ed3565b5b614a7d878288016149de565b935050604085013567ffffffffffffffff811115614a9e57614a9d613ed3565b5b614aaa878288016149de565b925050606085013567ffffffffffffffff811115614acb57614aca613ed3565b5b614ad7878288016149de565b91505092959194509250565b7f4e487b7100000000000000000000000000000000000000000000000000000000600052602260045260246000fd5b60006002820490506001821680614b2a57607f821691505b602082108103614b3d57614b3c614ae3565b5b50919050565b7f4552433732313a20617070726f76616c20746f2063757272656e74206f776e6560008201527f7200000000000000000000000000000000000000000000000000000000000000602082015250565b6000614b9f60218361424a565b9150614baa82614b43565b604082019050919050565b60006020820190508181036000830152614bce81614b92565b9050919050565b7f4552433732313a20617070726f76652063616c6c6572206973206e6f7420746f60008201527f6b656e206f776e6572206f7220617070726f76656420666f7220616c6c000000602082015250565b6000614c31603d8361424a565b9150614c3c82614bd5565b604082019050919050565b60006020820190508181036000830152614c6081614c24565b9050919050565b7f4e487b7100000000000000000000000000000000000000000000000000000000600052603260045260246000fd5b7f416c7265616479204e6f74204c697374656420466f722073616c652e2e000000600082015250565b6000614ccc601d8361424a565b9150614cd782614c96565b602082019050919050565b60006020820190508181036000830152614cfb81614cbf565b9050919050565b7f4f776e65722063616e2774207075726368617365207468656972206f776e204e60008201527f4654000000000000000000000000000000000000000000000000000000000000602082015250565b6000614d5e60228361424a565b9150614d6982614d02565b604082019050919050565b60006020820190508181036000830152614d8d81614d51565b9050919050565b7f696e76616c696420696e64657800000000000000000000000000000000000000600082015250565b6000614dca600d8361424a565b9150614dd582614d94565b602082019050919050565b60006020820190508181036000830152614df981614dbd565b9050919050565b7f4e4654206973206e6f74204c697374656420666f722073616c652e2e00000000600082015250565b6000614e36601c8361424a565b9150614e4182614e00565b602082019050919050565b60006020820190508181036000830152614e6581614e29565b9050919050565b7f496e73756666696369656e7420616d6f756e7400000000000000000000000000600082015250565b6000614ea260138361424a565b9150614ead82614e6c565b602082019050919050565b60006020820190508181036000830152614ed181614e95565b9050919050565b7f416c7265616479204c697374656420666f722041756374696f6e000000000000600082015250565b6000614f0e601a8361424a565b9150614f1982614ed8565b602082019050919050565b60006020820190508181036000830152614f3d81614f01565b9050919050565b7f4552433732313a2063616c6c6572206973206e6f7420746f6b656e206f776e6560008201527f72206f7220617070726f76656400000000000000000000000000000000000000602082015250565b6000614fa0602d8361424a565b9150614fab82614f44565b604082019050919050565b60006020820190508181036000830152614fcf81614f93565b9050919050565b7f4f776e6572732063616e6e6f7420626964206f6e207468656972206f776e204e60008201527f4654000000000000000000000000000000000000000000000000000000000000602082015250565b600061503260228361424a565b915061503d82614fd6565b604082019050919050565b6000602082019050818103600083015261506181615025565b9050919050565b7f426964206d75737420626520686967686572207468616e20746865207072657660008201527f696f757320626964000000000000000000000000000000000000000000000000602082015250565b60006150c460288361424a565b91506150cf82615068565b604082019050919050565b600060208201905081810360008301526150f3816150b7565b9050919050565b7f41756374696f6e2068617320656e646564000000000000000000000000000000600082015250565b600061513060118361424a565b915061513b826150fa565b602082019050919050565b6000602082019050818103600083015261515f81615123565b9050919050565b7f4552433732313a20696e76616c696420746f6b656e2049440000000000000000600082015250565b600061519c60188361424a565b91506151a782615166565b602082019050919050565b600060208201905081810360008301526151cb8161518f565b9050919050565b7f4552433732313a2061646472657373207a65726f206973206e6f74206120766160008201527f6c6964206f776e65720000000000000000000000000000000000000000000000602082015250565b600061522e60298361424a565b9150615239826151d2565b604082019050919050565b6000602082019050818103600083015261525d81615221565b9050919050565b7f4f6e6c7920746865206f776e6572206f66204e46542063616e206c697374206960008201527f742e000000000000000000000000000000000000000000000000000000000000602082015250565b60006152c060228361424a565b91506152cb82615264565b604082019050919050565b600060208201905081810360008301526152ef816152b3565b9050919050565b7f50726963652073686f756c642062652067726561746572207468616e207a657260008201527f6f00000000000000000000000000000000000000000000000000000000000000602082015250565b600061535260218361424a565b915061535d826152f6565b604082019050919050565b6000602082019050818103600083015261538181615345565b9050919050565b7f416c7265616479206c697374656420666f722073616c65000000000000000000600082015250565b60006153be60178361424a565b91506153c982615388565b602082019050919050565b600060208201905081810360008301526153ed816153b1565b9050919050565b7f416c7265616479206c697374656420466f722041756374696f6e000000000000600082015250565b600061542a601a8361424a565b9150615435826153f4565b602082019050919050565b600060208201905081810360008301526154598161541d565b9050919050565b7f4e487b7100000000000000000000000000000000000000000000000000000000600052601160045260246000fd5b600061549a82614000565b91506154a583614000565b92508282019050808211156154bd576154bc615460565b5b92915050565b600081905092915050565b60006154d982614019565b6154e381856154c3565b93506154f3818560208601614035565b80840191505092915050565b600061550b82856154ce565b915061551782846154ce565b91508190509392505050565b7f4e6f206f6e652068617320626964206f6e207468652061756374696f6e000000600082015250565b6000615559601d8361424a565b915061556482615523565b602082019050919050565b600060208201905081810360008301526155888161554c565b9050919050565b600061559a82614000565b91506155a583614000565b92508282039050818111156155bd576155bc615460565b5b92915050565b7f4e487b7100000000000000000000000000000000000000000000000000000000600052603160045260246000fd5b60008190508160005260206000209050919050565b60006020601f8301049050919050565b600082821b905092915050565b6000600883026156547fffffffffffffffffffffffffffffffffffffffffffffffffffffffffffffffff82615617565b61565e8683615617565b95508019841693508086168417925050509392505050565b6000819050919050565b600061569b61569661569184614000565b615676565b614000565b9050919050565b6000819050919050565b6156b583615680565b6156c96156c1826156a2565b848454615624565b825550505050565b600090565b6156de6156d1565b6156e98184846156ac565b505050565b5b8181101561570d576157026000826156d6565b6001810190506156ef565b5050565b601f82111561575257615723816155f2565b61572c84615607565b8101602085101561573b578190505b61574f61574785615607565b8301826156ee565b50505b505050565b600082821c905092915050565b600061577560001984600802615757565b1980831691505092915050565b600061578e8383615764565b9150826002028217905092915050565b6157a782614019565b67ffffffffffffffff8111156157c0576157bf614622565b5b6157ca8254614b12565b6157d5828285615711565b600060209050601f83116001811461580857600084156157f6578287015190505b6158008582615782565b865550615868565b601f198416615816866155f2565b60005b8281101561583e57848901518255600182019150602085019450602081019050615819565b8683101561585b5784890151615857601f891682615764565b8355505b6001600288020188555050505b505050505050565b600061587b82614000565b91507fffffffffffffffffffffffffffffffffffffffffffffffffffffffffffffffff82036158ad576158ac615460565b5b600182019050919050565b7f4f776e61626c653a206e6577206f776e657220697320746865207a65726f206160008201527f6464726573730000000000000000000000000000000000000000000000000000602082015250565b600061591460268361424a565b915061591f826158b8565b604082019050919050565b6000602082019050818103600083015261594381615907565b9050919050565b7f4552433732313a207472616e736665722066726f6d20696e636f72726563742060008201527f6f776e6572000000000000000000000000000000000000000000000000000000602082015250565b60006159a660258361424a565b91506159b18261594a565b604082019050919050565b600060208201905081810360008301526159d581615999565b9050919050565b7f4552433732313a207472616e7366657220746f20746865207a65726f2061646460008201527f7265737300000000000000000000000000000000000000000000000000000000602082015250565b6000615a3860248361424a565b9150615a43826159dc565b604082019050919050565b60006020820190508181036000830152615a6781615a2b565b9050919050565b7f4f776e61626c653a2063616c6c6572206973206e6f7420746865206f776e6572600082015250565b6000615aa460208361424a565b9150615aaf82615a6e565b602082019050919050565b60006020820190508181036000830152615ad381615a97565b9050919050565b7f4552433732313a20617070726f766520746f2063616c6c657200000000000000600082015250565b6000615b1060198361424a565b9150615b1b82615ada565b602082019050919050565b60006020820190508181036000830152615b3f81615b03565b9050919050565b7f4552433732313a207472616e7366657220746f206e6f6e20455243373231526560008201527f63656976657220696d706c656d656e7465720000000000000000000000000000602082015250565b6000615ba260328361424a565b9150615bad82615b46565b604082019050919050565b60006020820190508181036000830152615bd181615b95565b9050919050565b7f4552433732313a206d696e7420746f20746865207a65726f2061646472657373600082015250565b6000615c0e60208361424a565b9150615c1982615bd8565b602082019050919050565b60006020820190508181036000830152615c3d81615c01565b9050919050565b7f4552433732313a20746f6b656e20616c7265616479206d696e74656400000000600082015250565b6000615c7a601c8361424a565b9150615c8582615c44565b602082019050919050565b60006020820190508181036000830152615ca981615c6d565b9050919050565b7f45524337323155524953746f726167653a2055524920736574206f66206e6f6e60008201527f6578697374656e7420746f6b656e000000000000000000000000000000000000602082015250565b6000615d0c602e8361424a565b9150615d1782615cb0565b604082019050919050565b60006020820190508181036000830152615d3b81615cff565b9050919050565b600081519050919050565b600082825260208201905092915050565b6000615d6982615d42565b615d738185615d4d565b9350615d83818560208601614035565b615d8c8161405f565b840191505092915050565b6000608082019050615dac6000830187614321565b615db96020830186614321565b615dc66040830185614419565b8181036060830152615dd88184615d5e565b905095945050505050565b600081519050615df281613f04565b92915050565b600060208284031215615e0e57615e0d613ece565b5b6000615e1c84828501615de3565b91505092915050565b7f4e487b7100000000000000000000000000000000000000000000000000000000600052601260045260246000fdfea2646970667358221220787e2fd3ee652fa8d3610b546fabb893161445de5b40865cbf1af9726f83a0d564736f6c63430008130033",
  "linkReferences": {},
  "deployedLinkReferences": {}
}