{
  "_format": "hh-sol-artifact-1",
  "contractName": "Market",
  "sourceName": "contracts/NFTmarketplace.sol",
  "abi": [
    {
      "inputs": [],
      "stateMutability": "nonpayable",
      "type": "constructor"
    },
    {
      "anonymous": false,
      "inputs": [
        {
          "indexed": true,
          "internalType": "address",
          "name": "owner",
          "type": "address"
        },
        {
          "indexed": true,
          "internalType": "address",
          "name": "approved",
          "type": "address"
        },
        {
          "indexed": true,
          "internalType": "uint256",
          "name": "tokenId",
          "type": "uint256"
        }
      ],
      "name": "Approval",
      "type": "event"
    },
    {
      "anonymous": false,
      "inputs": [
        {
          "indexed": true,
          "internalType": "address",
          "name": "owner",
          "type": "address"
        },
        {
          "indexed": true,
          "internalType": "address",
          "name": "operator",
          "type": "address"
        },
        {
          "indexed": false,
          "internalType": "bool",
          "name": "approved",
          "type": "bool"
        }
      ],
      "name": "ApprovalForAll",
      "type": "event"
    },
    {
      "anonymous": false,
      "inputs": [
        {
          "indexed": false,
          "internalType": "uint256",
          "name": "_fromTokenId",
          "type": "uint256"
        },
        {
          "indexed": false,
          "internalType": "uint256",
          "name": "_toTokenId",
          "type": "uint256"
        }
      ],
      "name": "BatchMetadataUpdate",
      "type": "event"
    },
    {
      "anonymous": false,
      "inputs": [
        {
          "indexed": false,
          "internalType": "uint256",
          "name": "_tokenId",
          "type": "uint256"
        }
      ],
      "name": "MetadataUpdate",
      "type": "event"
    },
    {
      "anonymous": false,
      "inputs": [
        {
          "indexed": true,
          "internalType": "address",
          "name": "owner",
          "type": "address"
        },
        {
          "indexed": true,
          "internalType": "uint256",
          "name": "tokenId",
          "type": "uint256"
        },
        {
          "indexed": false,
          "internalType": "string",
          "name": "tokenURI",
          "type": "string"
        },
        {
          "indexed": false,
          "internalType": "string",
          "name": "name",
          "type": "string"
        },
        {
          "indexed": false,
          "internalType": "string",
          "name": "description",
          "type": "string"
        },
        {
          "indexed": false,
          "internalType": "string",
          "name": "category",
          "type": "string"
        }
      ],
      "name": "NFTMinted",
      "type": "event"
    },
    {
      "anonymous": false,
      "inputs": [
        {
          "indexed": true,
          "internalType": "address",
          "name": "previousOwner",
          "type": "address"
        },
        {
          "indexed": true,
          "internalType": "address",
          "name": "newOwner",
          "type": "address"
        }
      ],
      "name": "OwnershipTransferred",
      "type": "event"
    },
    {
      "anonymous": false,
      "inputs": [
        {
          "indexed": true,
          "internalType": "address",
          "name": "from",
          "type": "address"
        },
        {
          "indexed": true,
          "internalType": "address",
          "name": "to",
          "type": "address"
        },
        {
          "indexed": true,
          "internalType": "uint256",
          "name": "tokenId",
          "type": "uint256"
        }
      ],
      "name": "Transfer",
      "type": "event"
    },
    {
      "inputs": [
        {
          "internalType": "address",
          "name": "to",
          "type": "address"
        },
        {
          "internalType": "uint256",
          "name": "tokenId",
          "type": "uint256"
        }
      ],
      "name": "approve",
      "outputs": [],
      "stateMutability": "nonpayable",
      "type": "function"
    },
    {
      "inputs": [
        {
          "internalType": "uint256",
          "name": "",
          "type": "uint256"
        }
      ],
      "name": "auctions",
      "outputs": [
        {
          "internalType": "uint256",
          "name": "tokenIndex",
          "type": "uint256"
        },
        {
          "internalType": "uint256",
          "name": "startingPrice",
          "type": "uint256"
        },
        {
          "internalType": "address payable",
          "name": "creator",
          "type": "address"
        },
        {
          "internalType": "uint256",
          "name": "endTime",
          "type": "uint256"
        },
        {
          "internalType": "uint256",
          "name": "highestBid",
          "type": "uint256"
        },
        {
          "internalType": "address",
          "name": "highestBidder",
          "type": "address"
        }
      ],
      "stateMutability": "view",
      "type": "function"
    },
    {
      "inputs": [
        {
          "internalType": "address",
          "name": "owner",
          "type": "address"
        }
      ],
      "name": "balanceOf",
      "outputs": [
        {
          "internalType": "uint256",
          "name": "",
          "type": "uint256"
        }
      ],
      "stateMutability": "view",
      "type": "function"
    },
    {
      "inputs": [
        {
          "internalType": "uint256",
          "name": "auctionIndex",
          "type": "uint256"
        }
      ],
      "name": "bidOnAuction",
      "outputs": [],
      "stateMutability": "payable",
      "type": "function"
    },
    {
      "inputs": [
        {
          "internalType": "uint256",
          "name": "auctionIndex",
          "type": "uint256"
        }
      ],
      "name": "finalizeAuction",
      "outputs": [],
      "stateMutability": "payable",
      "type": "function"
    },
    {
      "inputs": [],
      "name": "getAllAuctions",
      "outputs": [
        {
          "components": [
            {
              "internalType": "uint256",
              "name": "tokenIndex",
              "type": "uint256"
            },
            {
              "internalType": "uint256",
              "name": "startingPrice",
              "type": "uint256"
            },
            {
              "internalType": "address payable",
              "name": "creator",
              "type": "address"
            },
            {
              "internalType": "uint256",
              "name": "endTime",
              "type": "uint256"
            },
            {
              "internalType": "uint256",
              "name": "highestBid",
              "type": "uint256"
            },
            {
              "internalType": "address",
              "name": "highestBidder",
              "type": "address"
            }
          ],
          "internalType": "struct Market.Auction[]",
          "name": "",
          "type": "tuple[]"
        }
      ],
      "stateMutability": "view",
      "type": "function"
    },
    {
      "inputs": [
        {
          "internalType": "uint256",
          "name": "tokenId",
          "type": "uint256"
        }
      ],
      "name": "getApproved",
      "outputs": [
        {
          "internalType": "address",
          "name": "",
          "type": "address"
        }
      ],
      "stateMutability": "view",
      "type": "function"
    },
    {
      "inputs": [
        {
          "internalType": "address",
          "name": "owner",
          "type": "address"
        },
        {
          "internalType": "address",
          "name": "operator",
          "type": "address"
        }
      ],
      "name": "isApprovedForAll",
      "outputs": [
        {
          "internalType": "bool",
          "name": "",
          "type": "bool"
        }
      ],
      "stateMutability": "view",
      "type": "function"
    },
    {
      "inputs": [
        {
          "internalType": "string",
          "name": "tokenURI",
          "type": "string"
        },
        {
          "internalType": "string",
          "name": "name",
          "type": "string"
        },
        {
          "internalType": "string",
          "name": "description",
          "type": "string"
        },
        {
          "internalType": "string",
          "name": "category",
          "type": "string"
        }
      ],
      "name": "mintNFT",
      "outputs": [
        {
          "internalType": "uint256",
          "name": "",
          "type": "uint256"
        }
      ],
      "stateMutability": "nonpayable",
      "type": "function"
    },
    {
      "inputs": [],
      "name": "name",
      "outputs": [
        {
          "internalType": "string",
          "name": "",
          "type": "string"
        }
      ],
      "stateMutability": "view",
      "type": "function"
    },
    {
      "inputs": [],
      "name": "owner",
      "outputs": [
        {
          "internalType": "address",
          "name": "",
          "type": "address"
        }
      ],
      "stateMutability": "view",
      "type": "function"
    },
    {
      "inputs": [
        {
          "internalType": "uint256",
          "name": "tokenId",
          "type": "uint256"
        }
      ],
      "name": "ownerOf",
      "outputs": [
        {
          "internalType": "address",
          "name": "",
          "type": "address"
        }
      ],
      "stateMutability": "view",
      "type": "function"
    },
    {
      "inputs": [
        {
          "internalType": "uint256",
          "name": "index",
          "type": "uint256"
        }
      ],
      "name": "purchaseNFT",
      "outputs": [],
      "stateMutability": "payable",
      "type": "function"
    },
    {
      "inputs": [
        {
          "internalType": "uint256",
          "name": "index",
          "type": "uint256"
        }
      ],
      "name": "removeFromSale",
      "outputs": [],
      "stateMutability": "nonpayable",
      "type": "function"
    },
    {
      "inputs": [],
      "name": "renounceOwnership",
      "outputs": [],
      "stateMutability": "nonpayable",
      "type": "function"
    },
    {
      "inputs": [
        {
          "internalType": "address",
          "name": "from",
          "type": "address"
        },
        {
          "internalType": "address",
          "name": "to",
          "type": "address"
        },
        {
          "internalType": "uint256",
          "name": "tokenId",
          "type": "uint256"
        }
      ],
      "name": "safeTransferFrom",
      "outputs": [],
      "stateMutability": "nonpayable",
      "type": "function"
    },
    {
      "inputs": [
        {
          "internalType": "address",
          "name": "from",
          "type": "address"
        },
        {
          "internalType": "address",
          "name": "to",
          "type": "address"
        },
        {
          "internalType": "uint256",
          "name": "tokenId",
          "type": "uint256"
        },
        {
          "internalType": "bytes",
          "name": "data",
          "type": "bytes"
        }
      ],
      "name": "safeTransferFrom",
      "outputs": [],
      "stateMutability": "nonpayable",
      "type": "function"
    },
    {
      "inputs": [
        {
          "internalType": "uint256",
          "name": "index",
          "type": "uint256"
        },
        {
          "internalType": "uint256",
          "name": "price",
          "type": "uint256"
        }
      ],
      "name": "sellNFT",
      "outputs": [],
      "stateMutability": "nonpayable",
      "type": "function"
    },
    {
      "inputs": [
        {
          "internalType": "address",
          "name": "operator",
          "type": "address"
        },
        {
          "internalType": "bool",
          "name": "approved",
          "type": "bool"
        }
      ],
      "name": "setApprovalForAll",
      "outputs": [],
      "stateMutability": "nonpayable",
      "type": "function"
    },
    {
      "inputs": [
        {
          "internalType": "uint256",
          "name": "startingPrice",
          "type": "uint256"
        },
        {
          "internalType": "uint256",
          "name": "durationInSeconds",
          "type": "uint256"
        },
        {
          "internalType": "uint256",
          "name": "index",
          "type": "uint256"
        }
      ],
      "name": "startAuction",
      "outputs": [],
      "stateMutability": "nonpayable",
      "type": "function"
    },
    {
      "inputs": [
        {
          "internalType": "bytes4",
          "name": "interfaceId",
          "type": "bytes4"
        }
      ],
      "name": "supportsInterface",
      "outputs": [
        {
          "internalType": "bool",
          "name": "",
          "type": "bool"
        }
      ],
      "stateMutability": "view",
      "type": "function"
    },
    {
      "inputs": [],
      "name": "symbol",
      "outputs": [
        {
          "internalType": "string",
          "name": "",
          "type": "string"
        }
      ],
      "stateMutability": "view",
      "type": "function"
    },
    {
      "inputs": [
        {
          "internalType": "uint256",
          "name": "tokenId",
          "type": "uint256"
        }
      ],
      "name": "tokenURI",
      "outputs": [
        {
          "internalType": "string",
          "name": "",
          "type": "string"
        }
      ],
      "stateMutability": "view",
      "type": "function"
    },
    {
      "inputs": [
        {
          "internalType": "uint256",
          "name": "",
          "type": "uint256"
        }
      ],
      "name": "tokens",
      "outputs": [
        {
          "internalType": "address payable",
          "name": "owner",
          "type": "address"
        },
        {
          "internalType": "uint256",
          "name": "tokenId",
          "type": "uint256"
        },
        {
          "internalType": "string",
          "name": "tokenURI",
          "type": "string"
        },
        {
          "internalType": "uint256",
          "name": "price",
          "type": "uint256"
        },
        {
          "internalType": "string",
          "name": "name",
          "type": "string"
        },
        {
          "internalType": "string",
          "name": "description",
          "type": "string"
        },
        {
          "internalType": "string",
          "name": "category",
          "type": "string"
        },
        {
          "internalType": "bool",
          "name": "isListedForSale",
          "type": "bool"
        },
        {
          "internalType": "bool",
          "name": "isListedForAuction",
          "type": "bool"
        }
      ],
      "stateMutability": "view",
      "type": "function"
    },
    {
      "inputs": [
        {
          "internalType": "address",
          "name": "from",
          "type": "address"
        },
        {
          "internalType": "address",
          "name": "to",
          "type": "address"
        },
        {
          "internalType": "uint256",
          "name": "tokenId",
          "type": "uint256"
        }
      ],
      "name": "transferFrom",
      "outputs": [],
      "stateMutability": "nonpayable",
      "type": "function"
    },
    {
      "inputs": [
        {
          "internalType": "address",
          "name": "newOwner",
          "type": "address"
        }
      ],
      "name": "transferOwnership",
      "outputs": [],
      "stateMutability": "nonpayable",
      "type": "function"
    },
    {
      "inputs": [],
      "name": "viewAllTokens",
      "outputs": [
        {
          "components": [
            {
              "internalType": "address payable",
              "name": "owner",
              "type": "address"
            },
            {
              "internalType": "uint256",
              "name": "tokenId",
              "type": "uint256"
            },
            {
              "internalType": "string",
              "name": "tokenURI",
              "type": "string"
            },
            {
              "internalType": "uint256",
              "name": "price",
              "type": "uint256"
            },
            {
              "internalType": "string",
              "name": "name",
              "type": "string"
            },
            {
              "internalType": "string",
              "name": "description",
              "type": "string"
            },
            {
              "internalType": "string",
              "name": "category",
              "type": "string"
            },
            {
              "internalType": "bool",
              "name": "isListedForSale",
              "type": "bool"
            },
            {
              "internalType": "bool",
              "name": "isListedForAuction",
              "type": "bool"
            }
          ],
          "internalType": "struct Market.Token[]",
          "name": "",
          "type": "tuple[]"
        }
      ],
      "stateMutability": "view",
      "type": "function"
    }
  ],
  "bytecode": "0x60806040523480156200001157600080fd5b506040518060400160405280600c81526020017f4d61726b65745f506c61636500000000000000000000000000000000000000008152506040518060400160405280600381526020017f4d4b50000000000000000000000000000000000000000000000000000000000081525081600090816200008f919062000412565b508060019081620000a1919062000412565b505050620000c4620000b8620000ca60201b60201c565b620000d260201b60201c565b620004f9565b600033905090565b6000600760009054906101000a900473ffffffffffffffffffffffffffffffffffffffff16905081600760006101000a81548173ffffffffffffffffffffffffffffffffffffffff021916908373ffffffffffffffffffffffffffffffffffffffff1602179055508173ffffffffffffffffffffffffffffffffffffffff168173ffffffffffffffffffffffffffffffffffffffff167f8be0079c531659141344cd1fd0a4f28419497f9722a3daafe3b4186f6b6457e060405160405180910390a35050565b600081519050919050565b7f4e487b7100000000000000000000000000000000000000000000000000000000600052604160045260246000fd5b7f4e487b7100000000000000000000000000000000000000000000000000000000600052602260045260246000fd5b600060028204905060018216806200021a57607f821691505b60208210810362000230576200022f620001d2565b5b50919050565b60008190508160005260206000209050919050565b60006020601f8301049050919050565b600082821b905092915050565b6000600883026200029a7fffffffffffffffffffffffffffffffffffffffffffffffffffffffffffffffff826200025b565b620002a686836200025b565b95508019841693508086168417925050509392505050565b6000819050919050565b6000819050919050565b6000620002f3620002ed620002e784620002be565b620002c8565b620002be565b9050919050565b6000819050919050565b6200030f83620002d2565b620003276200031e82620002fa565b84845462000268565b825550505050565b600090565b6200033e6200032f565b6200034b81848462000304565b505050565b5b8181101562000373576200036760008262000334565b60018101905062000351565b5050565b601f821115620003c2576200038c8162000236565b62000397846200024b565b81016020851015620003a7578190505b620003bf620003b6856200024b565b83018262000350565b50505b505050565b600082821c905092915050565b6000620003e760001984600802620003c7565b1980831691505092915050565b6000620004028383620003d4565b9150826002028217905092915050565b6200041d8262000198565b67ffffffffffffffff811115620004395762000438620001a3565b5b62000445825462000201565b6200045282828562000377565b600060209050601f8311600181146200048a576000841562000475578287015190505b620004818582620003f4565b865550620004f1565b601f1984166200049a8662000236565b60005b82811015620004c4578489015182556001820191506020850194506020810190506200049d565b86831015620004e45784890151620004e0601f891682620003d4565b8355505b6001600288020188555050505b505050505050565b615a2980620005096000396000f3fe60806040526004361061019c5760003560e01c806370a08231116100ec578063b88d4fde1161008a578063e808386311610064578063e8083863146105c7578063e985e9c5146105e3578063eec9057114610620578063f2fde38b1461065d5761019c565b8063b88d4fde14610536578063c87b56dd1461055f578063cbd2bdfd1461059c5761019c565b806391a48a1e116100c657806391a48a1e1461049057806391e078bb146104b957806395d89b41146104e2578063a22cb4651461050d5761019c565b806370a0823114610411578063715018a61461044e5780638da5cb5b146104655761019c565b8063150bde031161015957806342842e0e1161013357806342842e0e146103245780634f64b2be1461034d578063571a26a0146103925780636352211e146103d45761019c565b8063150bde03146102c357806323b872dd146102df57806326b7aeea146103085761019c565b806301ffc9a7146101a157806302cfba81146101de57806306fdde0314610209578063081812fc14610234578063095ea7b3146102715780631361a3b61461029a575b600080fd5b3480156101ad57600080fd5b506101c860048036038101906101c39190613c51565b610686565b6040516101d59190613c99565b60405180910390f35b3480156101ea57600080fd5b506101f36106e7565b6040516102009190613f49565b60405180910390f35b34801561021557600080fd5b5061021e610a2f565b60405161022b9190613fb5565b60405180910390f35b34801561024057600080fd5b5061025b60048036038101906102569190614003565b610ac1565b6040516102689190614051565b60405180910390f35b34801561027d57600080fd5b5061029860048036038101906102939190614098565b610b07565b005b3480156102a657600080fd5b506102c160048036038101906102bc9190614003565b610c1e565b005b6102dd60048036038101906102d89190614003565b610d89565b005b3480156102eb57600080fd5b50610306600480360381019061030191906140d8565b610fbc565b005b610322600480360381019061031d9190614003565b61101c565b005b34801561033057600080fd5b5061034b600480360381019061034691906140d8565b611314565b005b34801561035957600080fd5b50610374600480360381019061036f9190614003565b611334565b60405161038999989796959493929190614149565b60405180910390f35b34801561039e57600080fd5b506103b960048036038101906103b49190614003565b6115ec565b6040516103cb969594939291906141f2565b60405180910390f35b3480156103e057600080fd5b506103fb60048036038101906103f69190614003565b611678565b6040516104089190614051565b60405180910390f35b34801561041d57600080fd5b5061043860048036038101906104339190614253565b6116fe565b6040516104459190614280565b60405180910390f35b34801561045a57600080fd5b506104636117b5565b005b34801561047157600080fd5b5061047a6117c9565b6040516104879190614051565b60405180910390f35b34801561049c57600080fd5b506104b760048036038101906104b2919061429b565b6117f3565b005b3480156104c557600080fd5b506104e060048036038101906104db91906142db565b611a41565b005b3480156104ee57600080fd5b506104f7611cbd565b6040516105049190613fb5565b60405180910390f35b34801561051957600080fd5b50610534600480360381019061052f919061435a565b611d4f565b005b34801561054257600080fd5b5061055d600480360381019061055891906144cf565b611d65565b005b34801561056b57600080fd5b5061058660048036038101906105819190614003565b611dc7565b6040516105939190613fb5565b60405180910390f35b3480156105a857600080fd5b506105b1611ed9565b6040516105be919061468b565b60405180910390f35b6105e160048036038101906105dc9190614003565b61200c565b005b3480156105ef57600080fd5b5061060a600480360381019061060591906146ad565b612800565b6040516106179190613c99565b60405180910390f35b34801561062c57600080fd5b506106476004803603810190610642919061478e565b612894565b6040516106549190614280565b60405180910390f35b34801561066957600080fd5b50610684600480360381019061067f9190614253565b612ab7565b005b6000634906490660e01b7bffffffffffffffffffffffffffffffffffffffffffffffffffffffff1916827bffffffffffffffffffffffffffffffffffffffffffffffffffffffff191614806106e057506106df82612b3a565b5b9050919050565b60606009805480602002602001604051908101604052809291908181526020016000905b82821015610a265783829060005260206000209060080201604051806101200160405290816000820160009054906101000a900473ffffffffffffffffffffffffffffffffffffffff1673ffffffffffffffffffffffffffffffffffffffff1673ffffffffffffffffffffffffffffffffffffffff1681526020016001820154815260200160028201805461079f90614894565b80601f01602080910402602001604051908101604052809291908181526020018280546107cb90614894565b80156108185780601f106107ed57610100808354040283529160200191610818565b820191906000526020600020905b8154815290600101906020018083116107fb57829003601f168201915b505050505081526020016003820154815260200160048201805461083b90614894565b80601f016020809104026020016040519081016040528092919081815260200182805461086790614894565b80156108b45780601f10610889576101008083540402835291602001916108b4565b820191906000526020600020905b81548152906001019060200180831161089757829003601f168201915b505050505081526020016005820180546108cd90614894565b80601f01602080910402602001604051908101604052809291908181526020018280546108f990614894565b80156109465780601f1061091b57610100808354040283529160200191610946565b820191906000526020600020905b81548152906001019060200180831161092957829003601f168201915b5050505050815260200160068201805461095f90614894565b80601f016020809104026020016040519081016040528092919081815260200182805461098b90614894565b80156109d85780601f106109ad576101008083540402835291602001916109d8565b820191906000526020600020905b8154815290600101906020018083116109bb57829003601f168201915b505050505081526020016007820160009054906101000a900460ff161515151581526020016007820160019054906101000a900460ff1615151515815250508152602001906001019061070b565b50505050905090565b606060008054610a3e90614894565b80601f0160208091040260200160405190810160405280929190818152602001828054610a6a90614894565b8015610ab75780601f10610a8c57610100808354040283529160200191610ab7565b820191906000526020600020905b815481529060010190602001808311610a9a57829003601f168201915b5050505050905090565b6000610acc82612c1c565b6004600083815260200190815260200160002060009054906101000a900473ffffffffffffffffffffffffffffffffffffffff169050919050565b6000610b1282611678565b90508073ffffffffffffffffffffffffffffffffffffffff168373ffffffffffffffffffffffffffffffffffffffff1603610b82576040517f08c379a0000000000000000000000000000000000000000000000000000000008152600401610b7990614937565b60405180910390fd5b8073ffffffffffffffffffffffffffffffffffffffff16610ba1612c67565b73ffffffffffffffffffffffffffffffffffffffff161480610bd05750610bcf81610bca612c67565b612800565b5b610c0f576040517f08c379a0000000000000000000000000000000000000000000000000000000008152600401610c06906149c9565b60405180910390fd5b610c198383612c6f565b505050565b8060098181548110610c3357610c326149e9565b5b906000526020600020906008020160000160009054906101000a900473ffffffffffffffffffffffffffffffffffffffff1673ffffffffffffffffffffffffffffffffffffffff163373ffffffffffffffffffffffffffffffffffffffff1614610cd2576040517f08c379a0000000000000000000000000000000000000000000000000000000008152600401610cc990614a64565b60405180910390fd5b8160098181548110610ce757610ce66149e9565b5b906000526020600020906008020160070160009054906101000a900460ff1615610d46576040517f08c379a0000000000000000000000000000000000000000000000000000000008152600401610d3d90614ad0565b60405180910390fd5b600060098481548110610d5c57610d5b6149e9565b5b906000526020600020906008020160070160006101000a81548160ff021916908315150217905550505050565b8060098181548110610d9e57610d9d6149e9565b5b906000526020600020906008020160070160019054906101000a900460ff1615610dfd576040517f08c379a0000000000000000000000000000000000000000000000000000000008152600401610df490614b3c565b60405180910390fd5b600060098381548110610e1357610e126149e9565b5b906000526020600020906008020190506009805490508310610e6a576040517f08c379a0000000000000000000000000000000000000000000000000000000008152600401610e6190614ba8565b60405180910390fd5b8060030154341015610eb1576040517f08c379a0000000000000000000000000000000000000000000000000000000008152600401610ea890614c14565b60405180910390fd5b60008160000160009054906101000a900473ffffffffffffffffffffffffffffffffffffffff169050338260000160006101000a81548173ffffffffffffffffffffffffffffffffffffffff021916908373ffffffffffffffffffffffffffffffffffffffff16021790555060008260070160016101000a81548160ff02191690831515021790555060008260070160006101000a81548160ff021916908315150217905550348260030181905550610f6f81338460010154612d28565b8073ffffffffffffffffffffffffffffffffffffffff166108fc349081150290604051600060405180830381858888f19350505050158015610fb5573d6000803e3d6000fd5b5050505050565b610fcd610fc7612c67565b82613021565b61100c576040517f08c379a000000000000000000000000000000000000000000000000000000000815260040161100390614ca6565b60405180910390fd5b611017838383612d28565b505050565b3373ffffffffffffffffffffffffffffffffffffffff16600a8281548110611047576110466149e9565b5b906000526020600020906006020160020160009054906101000a900473ffffffffffffffffffffffffffffffffffffffff1673ffffffffffffffffffffffffffffffffffffffff16036110cf576040517f08c379a00000000000000000000000000000000000000000000000000000000081526004016110c690614d38565b60405180910390fd5b600a81815481106110e3576110e26149e9565b5b9060005260206000209060060201600401543411611136576040517f08c379a000000000000000000000000000000000000000000000000000000000815260040161112d90614dca565b60405180910390fd5b600a818154811061114a576111496149e9565b5b906000526020600020906006020160030154421061119d576040517f08c379a000000000000000000000000000000000000000000000000000000000815260040161119490614e36565b60405180910390fd5b6000600a82815481106111b3576111b26149e9565b5b9060005260206000209060060201600401541115611283576000600a82815481106111e1576111e06149e9565b5b906000526020600020906006020160050160009054906101000a900473ffffffffffffffffffffffffffffffffffffffff1690508073ffffffffffffffffffffffffffffffffffffffff166108fc600a8481548110611243576112426149e9565b5b9060005260206000209060060201600401549081150290604051600060405180830381858888f19350505050158015611280573d6000803e3d6000fd5b50505b34600a8281548110611298576112976149e9565b5b90600052602060002090600602016004018190555033600a82815481106112c2576112c16149e9565b5b906000526020600020906006020160050160006101000a81548173ffffffffffffffffffffffffffffffffffffffff021916908373ffffffffffffffffffffffffffffffffffffffff16021790555050565b61132f83838360405180602001604052806000815250611d65565b505050565b6009818154811061134457600080fd5b90600052602060002090600802016000915090508060000160009054906101000a900473ffffffffffffffffffffffffffffffffffffffff169080600101549080600201805461139390614894565b80601f01602080910402602001604051908101604052809291908181526020018280546113bf90614894565b801561140c5780601f106113e15761010080835404028352916020019161140c565b820191906000526020600020905b8154815290600101906020018083116113ef57829003601f168201915b50505050509080600301549080600401805461142790614894565b80601f016020809104026020016040519081016040528092919081815260200182805461145390614894565b80156114a05780601f10611475576101008083540402835291602001916114a0565b820191906000526020600020905b81548152906001019060200180831161148357829003601f168201915b5050505050908060050180546114b590614894565b80601f01602080910402602001604051908101604052809291908181526020018280546114e190614894565b801561152e5780601f106115035761010080835404028352916020019161152e565b820191906000526020600020905b81548152906001019060200180831161151157829003601f168201915b50505050509080600601805461154390614894565b80601f016020809104026020016040519081016040528092919081815260200182805461156f90614894565b80156115bc5780601f10611591576101008083540402835291602001916115bc565b820191906000526020600020905b81548152906001019060200180831161159f57829003601f168201915b5050505050908060070160009054906101000a900460ff16908060070160019054906101000a900460ff16905089565b600a81815481106115fc57600080fd5b90600052602060002090600602016000915090508060000154908060010154908060020160009054906101000a900473ffffffffffffffffffffffffffffffffffffffff16908060030154908060040154908060050160009054906101000a900473ffffffffffffffffffffffffffffffffffffffff16905086565b600080611684836130b6565b9050600073ffffffffffffffffffffffffffffffffffffffff168173ffffffffffffffffffffffffffffffffffffffff16036116f5576040517f08c379a00000000000000000000000000000000000000000000000000000000081526004016116ec90614ea2565b60405180910390fd5b80915050919050565b60008073ffffffffffffffffffffffffffffffffffffffff168273ffffffffffffffffffffffffffffffffffffffff160361176e576040517f08c379a000000000000000000000000000000000000000000000000000000000815260040161176590614f34565b60405180910390fd5b600360008373ffffffffffffffffffffffffffffffffffffffff1673ffffffffffffffffffffffffffffffffffffffff168152602001908152602001600020549050919050565b6117bd6130f3565b6117c76000613171565b565b6000600760009054906101000a900473ffffffffffffffffffffffffffffffffffffffff16905090565b8160098181548110611808576118076149e9565b5b906000526020600020906008020160000160009054906101000a900473ffffffffffffffffffffffffffffffffffffffff1673ffffffffffffffffffffffffffffffffffffffff163373ffffffffffffffffffffffffffffffffffffffff16146118a7576040517f08c379a000000000000000000000000000000000000000000000000000000000815260040161189e90614a64565b60405180910390fd5b82600981815481106118bc576118bb6149e9565b5b906000526020600020906008020160070160009054906101000a900460ff161561191b576040517f08c379a000000000000000000000000000000000000000000000000000000000815260040161191290614ad0565b60405180910390fd5b83600981815481106119305761192f6149e9565b5b906000526020600020906008020160070160019054906101000a900460ff161561198f576040517f08c379a000000000000000000000000000000000000000000000000000000000815260040161198690614b3c565b60405180910390fd5b600084116119d2576040517f08c379a00000000000000000000000000000000000000000000000000000000081526004016119c990614fc6565b60405180910390fd5b83600986815481106119e7576119e66149e9565b5b906000526020600020906008020160030181905550600160098681548110611a1257611a116149e9565b5b906000526020600020906008020160070160006101000a81548160ff0219169083151502179055505050505050565b8060098181548110611a5657611a556149e9565b5b906000526020600020906008020160070160009054906101000a900460ff1615611ab5576040517f08c379a0000000000000000000000000000000000000000000000000000000008152600401611aac90614ad0565b60405180910390fd5b8160098181548110611aca57611ac96149e9565b5b906000526020600020906008020160070160019054906101000a900460ff1615611b29576040517f08c379a0000000000000000000000000000000000000000000000000000000008152600401611b2090614b3c565b60405180910390fd5b60006040518060c001604052808581526020018781526020013373ffffffffffffffffffffffffffffffffffffffff1681526020018642611b6a9190615015565b815260200160008152602001600073ffffffffffffffffffffffffffffffffffffffff168152509050600160098581548110611ba957611ba86149e9565b5b906000526020600020906008020160070160016101000a81548160ff021916908315150217905550600a819080600181540180825580915050600190039060005260206000209060060201600090919091909150600082015181600001556020820151816001015560408201518160020160006101000a81548173ffffffffffffffffffffffffffffffffffffffff021916908373ffffffffffffffffffffffffffffffffffffffff160217905550606082015181600301556080820151816004015560a08201518160050160006101000a81548173ffffffffffffffffffffffffffffffffffffffff021916908373ffffffffffffffffffffffffffffffffffffffff1602179055505050505050505050565b606060018054611ccc90614894565b80601f0160208091040260200160405190810160405280929190818152602001828054611cf890614894565b8015611d455780601f10611d1a57610100808354040283529160200191611d45565b820191906000526020600020905b815481529060010190602001808311611d2857829003601f168201915b5050505050905090565b611d61611d5a612c67565b8383613237565b5050565b611d76611d70612c67565b83613021565b611db5576040517f08c379a0000000000000000000000000000000000000000000000000000000008152600401611dac90614ca6565b60405180910390fd5b611dc1848484846133a3565b50505050565b6060611dd282612c1c565b6000600660008481526020019081526020016000208054611df290614894565b80601f0160208091040260200160405190810160405280929190818152602001828054611e1e90614894565b8015611e6b5780601f10611e4057610100808354040283529160200191611e6b565b820191906000526020600020905b815481529060010190602001808311611e4e57829003601f168201915b505050505090506000611e7c6133ff565b90506000815103611e91578192505050611ed4565b600082511115611ec6578082604051602001611eae929190615085565b60405160208183030381529060405292505050611ed4565b611ecf84613416565b925050505b919050565b6060600a805480602002602001604051908101604052809291908181526020016000905b8282101561200357838290600052602060002090600602016040518060c001604052908160008201548152602001600182015481526020016002820160009054906101000a900473ffffffffffffffffffffffffffffffffffffffff1673ffffffffffffffffffffffffffffffffffffffff1673ffffffffffffffffffffffffffffffffffffffff16815260200160038201548152602001600482015481526020016005820160009054906101000a900473ffffffffffffffffffffffffffffffffffffffff1673ffffffffffffffffffffffffffffffffffffffff1673ffffffffffffffffffffffffffffffffffffffff168152505081526020019060010190611efd565b50505050905090565b80600a8181548110612021576120206149e9565b5b906000526020600020906006020160020160009054906101000a900473ffffffffffffffffffffffffffffffffffffffff1673ffffffffffffffffffffffffffffffffffffffff163373ffffffffffffffffffffffffffffffffffffffff16146120c0576040517f08c379a00000000000000000000000000000000000000000000000000000000081526004016120b7906150f5565b60405180910390fd5b6000600a83815481106120d6576120d56149e9565b5b906000526020600020906006020160040154116122d957600a6001600a805490506121019190615115565b81548110612112576121116149e9565b5b9060005260206000209060060201600a8381548110612134576121336149e9565b5b906000526020600020906006020160008201548160000155600182015481600101556002820160009054906101000a900473ffffffffffffffffffffffffffffffffffffffff168160020160006101000a81548173ffffffffffffffffffffffffffffffffffffffff021916908373ffffffffffffffffffffffffffffffffffffffff16021790555060038201548160030155600482015481600401556005820160009054906101000a900473ffffffffffffffffffffffffffffffffffffffff168160050160006101000a81548173ffffffffffffffffffffffffffffffffffffffff021916908373ffffffffffffffffffffffffffffffffffffffff160217905550905050600a80548061224d5761224c615149565b5b600190038181906000526020600020906006020160008082016000905560018201600090556002820160006101000a81549073ffffffffffffffffffffffffffffffffffffffff0219169055600382016000905560048201600090556005820160006101000a81549073ffffffffffffffffffffffffffffffffffffffff0219169055505090556127fc565b6000600a83815481106122ef576122ee6149e9565b5b906000526020600020906006020160020160009054906101000a900473ffffffffffffffffffffffffffffffffffffffff1690506123bd81600a858154811061233b5761233a6149e9565b5b906000526020600020906006020160050160009054906101000a900473ffffffffffffffffffffffffffffffffffffffff166009600a8781548110612383576123826149e9565b5b906000526020600020906006020160000154815481106123a6576123a56149e9565b5b906000526020600020906008020160010154610fbc565b600a83815481106123d1576123d06149e9565b5b906000526020600020906006020160050160009054906101000a900473ffffffffffffffffffffffffffffffffffffffff166009600a8581548110612419576124186149e9565b5b9060005260206000209060060201600001548154811061243c5761243b6149e9565b5b906000526020600020906008020160000160006101000a81548173ffffffffffffffffffffffffffffffffffffffff021916908373ffffffffffffffffffffffffffffffffffffffff160217905550600a838154811061249f5761249e6149e9565b5b9060005260206000209060060201600401546009600a85815481106124c7576124c66149e9565b5b906000526020600020906006020160000154815481106124ea576124e96149e9565b5b90600052602060002090600802016003018190555060006009600a8581548110612517576125166149e9565b5b9060005260206000209060060201600001548154811061253a576125396149e9565b5b906000526020600020906008020160070160016101000a81548160ff021916908315150217905550600a8381548110612576576125756149e9565b5b906000526020600020906006020160020160009054906101000a900473ffffffffffffffffffffffffffffffffffffffff1673ffffffffffffffffffffffffffffffffffffffff166108fc600a85815481106125d5576125d46149e9565b5b9060005260206000209060060201600401549081150290604051600060405180830381858888f19350505050158015612612573d6000803e3d6000fd5b50600a6001600a805490506126279190615115565b81548110612638576126376149e9565b5b9060005260206000209060060201600a848154811061265a576126596149e9565b5b906000526020600020906006020160008201548160000155600182015481600101556002820160009054906101000a900473ffffffffffffffffffffffffffffffffffffffff168160020160006101000a81548173ffffffffffffffffffffffffffffffffffffffff021916908373ffffffffffffffffffffffffffffffffffffffff16021790555060038201548160030155600482015481600401556005820160009054906101000a900473ffffffffffffffffffffffffffffffffffffffff168160050160006101000a81548173ffffffffffffffffffffffffffffffffffffffff021916908373ffffffffffffffffffffffffffffffffffffffff160217905550905050600a80548061277357612772615149565b5b600190038181906000526020600020906006020160008082016000905560018201600090556002820160006101000a81549073ffffffffffffffffffffffffffffffffffffffff0219169055600382016000905560048201600090556005820160006101000a81549073ffffffffffffffffffffffffffffffffffffffff021916905550509055505b5050565b6000600560008473ffffffffffffffffffffffffffffffffffffffff1673ffffffffffffffffffffffffffffffffffffffff16815260200190815260200160002060008373ffffffffffffffffffffffffffffffffffffffff1673ffffffffffffffffffffffffffffffffffffffff16815260200190815260200160002060009054906101000a900460ff16905092915050565b6000806128a1600861347e565b90506128ad338261348c565b6128b781876136a9565b60006040518061012001604052803373ffffffffffffffffffffffffffffffffffffffff16815260200183815260200188815260200160008152602001878152602001868152602001858152602001600015158152602001600015158152509050600981908060018154018082558091505060019003906000526020600020906008020160009091909190915060008201518160000160006101000a81548173ffffffffffffffffffffffffffffffffffffffff021916908373ffffffffffffffffffffffffffffffffffffffff1602179055506020820151816001015560408201518160020190816129aa9190615324565b506060820151816003015560808201518160040190816129ca9190615324565b5060a08201518160050190816129e09190615324565b5060c08201518160060190816129f69190615324565b5060e08201518160070160006101000a81548160ff0219169083151502179055506101008201518160070160016101000a81548160ff0219169083151502179055505050612a44600861374d565b813373ffffffffffffffffffffffffffffffffffffffff167fd517afb36f117519a1b60791d436e10d670c17e4543975e77b8948f337a69bf889898989604051612a9194939291906153f6565b60405180910390a36001600980549050612aab9190615115565b92505050949350505050565b612abf6130f3565b600073ffffffffffffffffffffffffffffffffffffffff168173ffffffffffffffffffffffffffffffffffffffff1603612b2e576040517f08c379a0000000000000000000000000000000000000000000000000000000008152600401612b25906154c9565b60405180910390fd5b612b3781613171565b50565b60007f80ac58cd000000000000000000000000000000000000000000000000000000007bffffffffffffffffffffffffffffffffffffffffffffffffffffffff1916827bffffffffffffffffffffffffffffffffffffffffffffffffffffffff19161480612c0557507f5b5e139f000000000000000000000000000000000000000000000000000000007bffffffffffffffffffffffffffffffffffffffffffffffffffffffff1916827bffffffffffffffffffffffffffffffffffffffffffffffffffffffff1916145b80612c155750612c1482613763565b5b9050919050565b612c25816137cd565b612c64576040517f08c379a0000000000000000000000000000000000000000000000000000000008152600401612c5b90614ea2565b60405180910390fd5b50565b600033905090565b816004600083815260200190815260200160002060006101000a81548173ffffffffffffffffffffffffffffffffffffffff021916908373ffffffffffffffffffffffffffffffffffffffff160217905550808273ffffffffffffffffffffffffffffffffffffffff16612ce283611678565b73ffffffffffffffffffffffffffffffffffffffff167f8c5be1e5ebec7d5bd14f71427d1e84f3dd0314c0f7b2291e5b200ac8c7c3b92560405160405180910390a45050565b8273ffffffffffffffffffffffffffffffffffffffff16612d4882611678565b73ffffffffffffffffffffffffffffffffffffffff1614612d9e576040517f08c379a0000000000000000000000000000000000000000000000000000000008152600401612d959061555b565b60405180910390fd5b600073ffffffffffffffffffffffffffffffffffffffff168273ffffffffffffffffffffffffffffffffffffffff1603612e0d576040517f08c379a0000000000000000000000000000000000000000000000000000000008152600401612e04906155ed565b60405180910390fd5b612e1a838383600161380e565b8273ffffffffffffffffffffffffffffffffffffffff16612e3a82611678565b73ffffffffffffffffffffffffffffffffffffffff1614612e90576040517f08c379a0000000000000000000000000000000000000000000000000000000008152600401612e879061555b565b60405180910390fd5b6004600082815260200190815260200160002060006101000a81549073ffffffffffffffffffffffffffffffffffffffff02191690556001600360008573ffffffffffffffffffffffffffffffffffffffff1673ffffffffffffffffffffffffffffffffffffffff168152602001908152602001600020600082825403925050819055506001600360008473ffffffffffffffffffffffffffffffffffffffff1673ffffffffffffffffffffffffffffffffffffffff16815260200190815260200160002060008282540192505081905550816002600083815260200190815260200160002060006101000a81548173ffffffffffffffffffffffffffffffffffffffff021916908373ffffffffffffffffffffffffffffffffffffffff160217905550808273ffffffffffffffffffffffffffffffffffffffff168473ffffffffffffffffffffffffffffffffffffffff167fddf252ad1be2c89b69c2b068fc378daa952ba7f163c4a11628f55a4df523b3ef60405160405180910390a461301c8383836001613814565b505050565b60008061302d83611678565b90508073ffffffffffffffffffffffffffffffffffffffff168473ffffffffffffffffffffffffffffffffffffffff16148061306f575061306e8185612800565b5b806130ad57508373ffffffffffffffffffffffffffffffffffffffff1661309584610ac1565b73ffffffffffffffffffffffffffffffffffffffff16145b91505092915050565b60006002600083815260200190815260200160002060009054906101000a900473ffffffffffffffffffffffffffffffffffffffff169050919050565b6130fb612c67565b73ffffffffffffffffffffffffffffffffffffffff166131196117c9565b73ffffffffffffffffffffffffffffffffffffffff161461316f576040517f08c379a000000000000000000000000000000000000000000000000000000000815260040161316690615659565b60405180910390fd5b565b6000600760009054906101000a900473ffffffffffffffffffffffffffffffffffffffff16905081600760006101000a81548173ffffffffffffffffffffffffffffffffffffffff021916908373ffffffffffffffffffffffffffffffffffffffff1602179055508173ffffffffffffffffffffffffffffffffffffffff168173ffffffffffffffffffffffffffffffffffffffff167f8be0079c531659141344cd1fd0a4f28419497f9722a3daafe3b4186f6b6457e060405160405180910390a35050565b8173ffffffffffffffffffffffffffffffffffffffff168373ffffffffffffffffffffffffffffffffffffffff16036132a5576040517f08c379a000000000000000000000000000000000000000000000000000000000815260040161329c906156c5565b60405180910390fd5b80600560008573ffffffffffffffffffffffffffffffffffffffff1673ffffffffffffffffffffffffffffffffffffffff16815260200190815260200160002060008473ffffffffffffffffffffffffffffffffffffffff1673ffffffffffffffffffffffffffffffffffffffff16815260200190815260200160002060006101000a81548160ff0219169083151502179055508173ffffffffffffffffffffffffffffffffffffffff168373ffffffffffffffffffffffffffffffffffffffff167f17307eab39ab6107e8899845ad3d59bd9653f200f220920489ca2b5937696c31836040516133969190613c99565b60405180910390a3505050565b6133ae848484612d28565b6133ba8484848461381a565b6133f9576040517f08c379a00000000000000000000000000000000000000000000000000000000081526004016133f090615757565b60405180910390fd5b50505050565b606060405180602001604052806000815250905090565b606061342182612c1c565b600061342b6133ff565b9050600081511161344b5760405180602001604052806000815250613476565b80613455846139a1565b604051602001613466929190615085565b6040516020818303038152906040525b915050919050565b600081600001549050919050565b600073ffffffffffffffffffffffffffffffffffffffff168273ffffffffffffffffffffffffffffffffffffffff16036134fb576040517f08c379a00000000000000000000000000000000000000000000000000000000081526004016134f2906157c3565b60405180910390fd5b613504816137cd565b15613544576040517f08c379a000000000000000000000000000000000000000000000000000000000815260040161353b9061582f565b60405180910390fd5b61355260008383600161380e565b61355b816137cd565b1561359b576040517f08c379a00000000000000000000000000000000000000000000000000000000081526004016135929061582f565b60405180910390fd5b6001600360008473ffffffffffffffffffffffffffffffffffffffff1673ffffffffffffffffffffffffffffffffffffffff16815260200190815260200160002060008282540192505081905550816002600083815260200190815260200160002060006101000a81548173ffffffffffffffffffffffffffffffffffffffff021916908373ffffffffffffffffffffffffffffffffffffffff160217905550808273ffffffffffffffffffffffffffffffffffffffff16600073ffffffffffffffffffffffffffffffffffffffff167fddf252ad1be2c89b69c2b068fc378daa952ba7f163c4a11628f55a4df523b3ef60405160405180910390a46136a5600083836001613814565b5050565b6136b2826137cd565b6136f1576040517f08c379a00000000000000000000000000000000000000000000000000000000081526004016136e8906158c1565b60405180910390fd5b806006600084815260200190815260200160002090816137119190615324565b507ff8e1a15aba9398e019f0b49df1a4fde98ee17ae345cb5f6b5e2c27f5033e8ce7826040516137419190614280565b60405180910390a15050565b6001816000016000828254019250508190555050565b60007f01ffc9a7000000000000000000000000000000000000000000000000000000007bffffffffffffffffffffffffffffffffffffffffffffffffffffffff1916827bffffffffffffffffffffffffffffffffffffffffffffffffffffffff1916149050919050565b60008073ffffffffffffffffffffffffffffffffffffffff166137ef836130b6565b73ffffffffffffffffffffffffffffffffffffffff1614159050919050565b50505050565b50505050565b600061383b8473ffffffffffffffffffffffffffffffffffffffff16613a6f565b15613994578373ffffffffffffffffffffffffffffffffffffffff1663150b7a02613864612c67565b8786866040518563ffffffff1660e01b81526004016138869493929190615936565b6020604051808303816000875af19250505080156138c257506040513d601f19601f820116820180604052508101906138bf9190615997565b60015b613944573d80600081146138f2576040519150601f19603f3d011682016040523d82523d6000602084013e6138f7565b606091505b50600081510361393c576040517f08c379a000000000000000000000000000000000000000000000000000000000815260040161393390615757565b60405180910390fd5b805181602001fd5b63150b7a0260e01b7bffffffffffffffffffffffffffffffffffffffffffffffffffffffff1916817bffffffffffffffffffffffffffffffffffffffffffffffffffffffff191614915050613999565b600190505b949350505050565b6060600060016139b084613a92565b01905060008167ffffffffffffffff8111156139cf576139ce6143a4565b5b6040519080825280601f01601f191660200182016040528015613a015781602001600182028036833780820191505090505b509050600082602001820190505b600115613a64578080600190039150507f3031323334353637383961626364656600000000000000000000000000000000600a86061a8153600a8581613a5857613a576159c4565b5b04945060008503613a0f575b819350505050919050565b6000808273ffffffffffffffffffffffffffffffffffffffff163b119050919050565b600080600090507a184f03e93ff9f4daa797ed6e38ed64bf6a1f0100000000000000008310613af0577a184f03e93ff9f4daa797ed6e38ed64bf6a1f0100000000000000008381613ae657613ae56159c4565b5b0492506040810190505b6d04ee2d6d415b85acef81000000008310613b2d576d04ee2d6d415b85acef81000000008381613b2357613b226159c4565b5b0492506020810190505b662386f26fc100008310613b5c57662386f26fc100008381613b5257613b516159c4565b5b0492506010810190505b6305f5e1008310613b85576305f5e1008381613b7b57613b7a6159c4565b5b0492506008810190505b6127108310613baa576127108381613ba057613b9f6159c4565b5b0492506004810190505b60648310613bcd5760648381613bc357613bc26159c4565b5b0492506002810190505b600a8310613bdc576001810190505b80915050919050565b6000604051905090565b600080fd5b600080fd5b60007fffffffff0000000000000000000000000000000000000000000000000000000082169050919050565b613c2e81613bf9565b8114613c3957600080fd5b50565b600081359050613c4b81613c25565b92915050565b600060208284031215613c6757613c66613bef565b5b6000613c7584828501613c3c565b91505092915050565b60008115159050919050565b613c9381613c7e565b82525050565b6000602082019050613cae6000830184613c8a565b92915050565b600081519050919050565b600082825260208201905092915050565b6000819050602082019050919050565b600073ffffffffffffffffffffffffffffffffffffffff82169050919050565b6000613d0b82613ce0565b9050919050565b613d1b81613d00565b82525050565b6000819050919050565b613d3481613d21565b82525050565b600081519050919050565b600082825260208201905092915050565b60005b83811015613d74578082015181840152602081019050613d59565b60008484015250505050565b6000601f19601f8301169050919050565b6000613d9c82613d3a565b613da68185613d45565b9350613db6818560208601613d56565b613dbf81613d80565b840191505092915050565b613dd381613c7e565b82525050565b600061012083016000830151613df26000860182613d12565b506020830151613e056020860182613d2b565b5060408301518482036040860152613e1d8282613d91565b9150506060830151613e326060860182613d2b565b5060808301518482036080860152613e4a8282613d91565b91505060a083015184820360a0860152613e648282613d91565b91505060c083015184820360c0860152613e7e8282613d91565b91505060e0830151613e9360e0860182613dca565b50610100830151613ea8610100860182613dca565b508091505092915050565b6000613ebf8383613dd9565b905092915050565b6000602082019050919050565b6000613edf82613cb4565b613ee98185613cbf565b935083602082028501613efb85613cd0565b8060005b85811015613f375784840389528151613f188582613eb3565b9450613f2383613ec7565b925060208a01995050600181019050613eff565b50829750879550505050505092915050565b60006020820190508181036000830152613f638184613ed4565b905092915050565b600082825260208201905092915050565b6000613f8782613d3a565b613f918185613f6b565b9350613fa1818560208601613d56565b613faa81613d80565b840191505092915050565b60006020820190508181036000830152613fcf8184613f7c565b905092915050565b613fe081613d21565b8114613feb57600080fd5b50565b600081359050613ffd81613fd7565b92915050565b60006020828403121561401957614018613bef565b5b600061402784828501613fee565b91505092915050565b600061403b82613ce0565b9050919050565b61404b81614030565b82525050565b60006020820190506140666000830184614042565b92915050565b61407581614030565b811461408057600080fd5b50565b6000813590506140928161406c565b92915050565b600080604083850312156140af576140ae613bef565b5b60006140bd85828601614083565b92505060206140ce85828601613fee565b9150509250929050565b6000806000606084860312156140f1576140f0613bef565b5b60006140ff86828701614083565b935050602061411086828701614083565b925050604061412186828701613fee565b9150509250925092565b61413481613d00565b82525050565b61414381613d21565b82525050565b60006101208201905061415f600083018c61412b565b61416c602083018b61413a565b818103604083015261417e818a613f7c565b905061418d606083018961413a565b818103608083015261419f8188613f7c565b905081810360a08301526141b38187613f7c565b905081810360c08301526141c78186613f7c565b90506141d660e0830185613c8a565b6141e4610100830184613c8a565b9a9950505050505050505050565b600060c082019050614207600083018961413a565b614214602083018861413a565b614221604083018761412b565b61422e606083018661413a565b61423b608083018561413a565b61424860a0830184614042565b979650505050505050565b60006020828403121561426957614268613bef565b5b600061427784828501614083565b91505092915050565b6000602082019050614295600083018461413a565b92915050565b600080604083850312156142b2576142b1613bef565b5b60006142c085828601613fee565b92505060206142d185828601613fee565b9150509250929050565b6000806000606084860312156142f4576142f3613bef565b5b600061430286828701613fee565b935050602061431386828701613fee565b925050604061432486828701613fee565b9150509250925092565b61433781613c7e565b811461434257600080fd5b50565b6000813590506143548161432e565b92915050565b6000806040838503121561437157614370613bef565b5b600061437f85828601614083565b925050602061439085828601614345565b9150509250929050565b600080fd5b600080fd5b7f4e487b7100000000000000000000000000000000000000000000000000000000600052604160045260246000fd5b6143dc82613d80565b810181811067ffffffffffffffff821117156143fb576143fa6143a4565b5b80604052505050565b600061440e613be5565b905061441a82826143d3565b919050565b600067ffffffffffffffff82111561443a576144396143a4565b5b61444382613d80565b9050602081019050919050565b82818337600083830152505050565b600061447261446d8461441f565b614404565b90508281526020810184848401111561448e5761448d61439f565b5b614499848285614450565b509392505050565b600082601f8301126144b6576144b561439a565b5b81356144c684826020860161445f565b91505092915050565b600080600080608085870312156144e9576144e8613bef565b5b60006144f787828801614083565b945050602061450887828801614083565b935050604061451987828801613fee565b925050606085013567ffffffffffffffff81111561453a57614539613bf4565b5b614546878288016144a1565b91505092959194509250565b600081519050919050565b600082825260208201905092915050565b6000819050602082019050919050565b61458781614030565b82525050565b60c0820160008201516145a36000850182613d2b565b5060208201516145b66020850182613d2b565b5060408201516145c96040850182613d12565b5060608201516145dc6060850182613d2b565b5060808201516145ef6080850182613d2b565b5060a082015161460260a085018261457e565b50505050565b6000614614838361458d565b60c08301905092915050565b6000602082019050919050565b600061463882614552565b614642818561455d565b935061464d8361456e565b8060005b8381101561467e5781516146658882614608565b975061467083614620565b925050600181019050614651565b5085935050505092915050565b600060208201905081810360008301526146a5818461462d565b905092915050565b600080604083850312156146c4576146c3613bef565b5b60006146d285828601614083565b92505060206146e385828601614083565b9150509250929050565b600067ffffffffffffffff821115614708576147076143a4565b5b61471182613d80565b9050602081019050919050565b600061473161472c846146ed565b614404565b90508281526020810184848401111561474d5761474c61439f565b5b614758848285614450565b509392505050565b600082601f8301126147755761477461439a565b5b813561478584826020860161471e565b91505092915050565b600080600080608085870312156147a8576147a7613bef565b5b600085013567ffffffffffffffff8111156147c6576147c5613bf4565b5b6147d287828801614760565b945050602085013567ffffffffffffffff8111156147f3576147f2613bf4565b5b6147ff87828801614760565b935050604085013567ffffffffffffffff8111156148205761481f613bf4565b5b61482c87828801614760565b925050606085013567ffffffffffffffff81111561484d5761484c613bf4565b5b61485987828801614760565b91505092959194509250565b7f4e487b7100000000000000000000000000000000000000000000000000000000600052602260045260246000fd5b600060028204905060018216806148ac57607f821691505b6020821081036148bf576148be614865565b5b50919050565b7f4552433732313a20617070726f76616c20746f2063757272656e74206f776e6560008201527f7200000000000000000000000000000000000000000000000000000000000000602082015250565b6000614921602183613f6b565b915061492c826148c5565b604082019050919050565b6000602082019050818103600083015261495081614914565b9050919050565b7f4552433732313a20617070726f76652063616c6c6572206973206e6f7420746f60008201527f6b656e206f776e6572206f7220617070726f76656420666f7220616c6c000000602082015250565b60006149b3603d83613f6b565b91506149be82614957565b604082019050919050565b600060208201905081810360008301526149e2816149a6565b9050919050565b7f4e487b7100000000000000000000000000000000000000000000000000000000600052603260045260246000fd5b7f4e6f742074686520746f6b656e206f776e657200000000000000000000000000600082015250565b6000614a4e601383613f6b565b9150614a5982614a18565b602082019050919050565b60006020820190508181036000830152614a7d81614a41565b9050919050565b7f416c7265616479206c697374656420666f722073616c65000000000000000000600082015250565b6000614aba601783613f6b565b9150614ac582614a84565b602082019050919050565b60006020820190508181036000830152614ae981614aad565b9050919050565b7f416c7265616479206c697374656420666f722061756374696f6e000000000000600082015250565b6000614b26601a83613f6b565b9150614b3182614af0565b602082019050919050565b60006020820190508181036000830152614b5581614b19565b9050919050565b7f496e76616c696420696e64657800000000000000000000000000000000000000600082015250565b6000614b92600d83613f6b565b9150614b9d82614b5c565b602082019050919050565b60006020820190508181036000830152614bc181614b85565b9050919050565b7f496e73756666696369656e7420616d6f756e7400000000000000000000000000600082015250565b6000614bfe601383613f6b565b9150614c0982614bc8565b602082019050919050565b60006020820190508181036000830152614c2d81614bf1565b9050919050565b7f4552433732313a2063616c6c6572206973206e6f7420746f6b656e206f776e6560008201527f72206f7220617070726f76656400000000000000000000000000000000000000602082015250565b6000614c90602d83613f6b565b9150614c9b82614c34565b604082019050919050565b60006020820190508181036000830152614cbf81614c83565b9050919050565b7f4f776e6572732063616e6e6f7420626964206f6e207468656972206f776e204e60008201527f4654000000000000000000000000000000000000000000000000000000000000602082015250565b6000614d22602283613f6b565b9150614d2d82614cc6565b604082019050919050565b60006020820190508181036000830152614d5181614d15565b9050919050565b7f426964206d75737420626520686967686572207468616e20746865207072657660008201527f696f757320626964000000000000000000000000000000000000000000000000602082015250565b6000614db4602883613f6b565b9150614dbf82614d58565b604082019050919050565b60006020820190508181036000830152614de381614da7565b9050919050565b7f41756374696f6e2068617320656e646564000000000000000000000000000000600082015250565b6000614e20601183613f6b565b9150614e2b82614dea565b602082019050919050565b60006020820190508181036000830152614e4f81614e13565b9050919050565b7f4552433732313a20696e76616c696420746f6b656e2049440000000000000000600082015250565b6000614e8c601883613f6b565b9150614e9782614e56565b602082019050919050565b60006020820190508181036000830152614ebb81614e7f565b9050919050565b7f4552433732313a2061646472657373207a65726f206973206e6f74206120766160008201527f6c6964206f776e65720000000000000000000000000000000000000000000000602082015250565b6000614f1e602983613f6b565b9150614f2982614ec2565b604082019050919050565b60006020820190508181036000830152614f4d81614f11565b9050919050565b7f50726963652073686f756c642062652067726561746572207468616e207a657260008201527f6f00000000000000000000000000000000000000000000000000000000000000602082015250565b6000614fb0602183613f6b565b9150614fbb82614f54565b604082019050919050565b60006020820190508181036000830152614fdf81614fa3565b9050919050565b7f4e487b7100000000000000000000000000000000000000000000000000000000600052601160045260246000fd5b600061502082613d21565b915061502b83613d21565b925082820190508082111561504357615042614fe6565b5b92915050565b600081905092915050565b600061505f82613d3a565b6150698185615049565b9350615079818560208601613d56565b80840191505092915050565b60006150918285615054565b915061509d8284615054565b91508190509392505050565b7f4e6f74207468652061756374696f6e206f776e65720000000000000000000000600082015250565b60006150df601583613f6b565b91506150ea826150a9565b602082019050919050565b6000602082019050818103600083015261510e816150d2565b9050919050565b600061512082613d21565b915061512b83613d21565b925082820390508181111561514357615142614fe6565b5b92915050565b7f4e487b7100000000000000000000000000000000000000000000000000000000600052603160045260246000fd5b60008190508160005260206000209050919050565b60006020601f8301049050919050565b600082821b905092915050565b6000600883026151da7fffffffffffffffffffffffffffffffffffffffffffffffffffffffffffffffff8261519d565b6151e4868361519d565b95508019841693508086168417925050509392505050565b6000819050919050565b600061522161521c61521784613d21565b6151fc565b613d21565b9050919050565b6000819050919050565b61523b83615206565b61524f61524782615228565b8484546151aa565b825550505050565b600090565b615264615257565b61526f818484615232565b505050565b5b818110156152935761528860008261525c565b600181019050615275565b5050565b601f8211156152d8576152a981615178565b6152b28461518d565b810160208510156152c1578190505b6152d56152cd8561518d565b830182615274565b50505b505050565b600082821c905092915050565b60006152fb600019846008026152dd565b1980831691505092915050565b600061531483836152ea565b9150826002028217905092915050565b61532d82613d3a565b67ffffffffffffffff811115615346576153456143a4565b5b6153508254614894565b61535b828285615297565b600060209050601f83116001811461538e576000841561537c578287015190505b6153868582615308565b8655506153ee565b601f19841661539c86615178565b60005b828110156153c45784890151825560018201915060208501945060208101905061539f565b868310156153e157848901516153dd601f8916826152ea565b8355505b6001600288020188555050505b505050505050565b600060808201905081810360008301526154108187613f7c565b905081810360208301526154248186613f7c565b905081810360408301526154388185613f7c565b9050818103606083015261544c8184613f7c565b905095945050505050565b7f4f776e61626c653a206e6577206f776e657220697320746865207a65726f206160008201527f6464726573730000000000000000000000000000000000000000000000000000602082015250565b60006154b3602683613f6b565b91506154be82615457565b604082019050919050565b600060208201905081810360008301526154e2816154a6565b9050919050565b7f4552433732313a207472616e736665722066726f6d20696e636f72726563742060008201527f6f776e6572000000000000000000000000000000000000000000000000000000602082015250565b6000615545602583613f6b565b9150615550826154e9565b604082019050919050565b6000602082019050818103600083015261557481615538565b9050919050565b7f4552433732313a207472616e7366657220746f20746865207a65726f2061646460008201527f7265737300000000000000000000000000000000000000000000000000000000602082015250565b60006155d7602483613f6b565b91506155e28261557b565b604082019050919050565b60006020820190508181036000830152615606816155ca565b9050919050565b7f4f776e61626c653a2063616c6c6572206973206e6f7420746865206f776e6572600082015250565b6000615643602083613f6b565b915061564e8261560d565b602082019050919050565b6000602082019050818103600083015261567281615636565b9050919050565b7f4552433732313a20617070726f766520746f2063616c6c657200000000000000600082015250565b60006156af601983613f6b565b91506156ba82615679565b602082019050919050565b600060208201905081810360008301526156de816156a2565b9050919050565b7f4552433732313a207472616e7366657220746f206e6f6e20455243373231526560008201527f63656976657220696d706c656d656e7465720000000000000000000000000000602082015250565b6000615741603283613f6b565b915061574c826156e5565b604082019050919050565b6000602082019050818103600083015261577081615734565b9050919050565b7f4552433732313a206d696e7420746f20746865207a65726f2061646472657373600082015250565b60006157ad602083613f6b565b91506157b882615777565b602082019050919050565b600060208201905081810360008301526157dc816157a0565b9050919050565b7f4552433732313a20746f6b656e20616c7265616479206d696e74656400000000600082015250565b6000615819601c83613f6b565b9150615824826157e3565b602082019050919050565b600060208201905081810360008301526158488161580c565b9050919050565b7f45524337323155524953746f726167653a2055524920736574206f66206e6f6e60008201527f6578697374656e7420746f6b656e000000000000000000000000000000000000602082015250565b60006158ab602e83613f6b565b91506158b68261584f565b604082019050919050565b600060208201905081810360008301526158da8161589e565b9050919050565b600081519050919050565b600082825260208201905092915050565b6000615908826158e1565b61591281856158ec565b9350615922818560208601613d56565b61592b81613d80565b840191505092915050565b600060808201905061594b6000830187614042565b6159586020830186614042565b615965604083018561413a565b818103606083015261597781846158fd565b905095945050505050565b60008151905061599181613c25565b92915050565b6000602082840312156159ad576159ac613bef565b5b60006159bb84828501615982565b91505092915050565b7f4e487b7100000000000000000000000000000000000000000000000000000000600052601260045260246000fdfea26469706673582212209fdc9520023a6d0d34e5b28bb105623f4ebb8a40c985c5e61910f0da053fbc4564736f6c63430008130033",
  "linkReferences": {},
  "deployedLinkReferences": {}
}