{
  "_format": "hh-sol-artifact-1",
  "contractName": "Market",
  "sourceName": "contracts/NFTmarketplace.sol",
  "abi": [
    {
      "inputs": [],
      "stateMutability": "nonpayable",
      "type": "constructor"
    },
    {
      "anonymous": false,
      "inputs": [
        {
          "indexed": true,
          "internalType": "address",
          "name": "owner",
          "type": "address"
        },
        {
          "indexed": true,
          "internalType": "address",
          "name": "approved",
          "type": "address"
        },
        {
          "indexed": true,
          "internalType": "uint256",
          "name": "tokenId",
          "type": "uint256"
        }
      ],
      "name": "Approval",
      "type": "event"
    },
    {
      "anonymous": false,
      "inputs": [
        {
          "indexed": true,
          "internalType": "address",
          "name": "owner",
          "type": "address"
        },
        {
          "indexed": true,
          "internalType": "address",
          "name": "operator",
          "type": "address"
        },
        {
          "indexed": false,
          "internalType": "bool",
          "name": "approved",
          "type": "bool"
        }
      ],
      "name": "ApprovalForAll",
      "type": "event"
    },
    {
      "anonymous": false,
      "inputs": [
        {
          "indexed": false,
          "internalType": "uint256",
          "name": "_fromTokenId",
          "type": "uint256"
        },
        {
          "indexed": false,
          "internalType": "uint256",
          "name": "_toTokenId",
          "type": "uint256"
        }
      ],
      "name": "BatchMetadataUpdate",
      "type": "event"
    },
    {
      "anonymous": false,
      "inputs": [
        {
          "indexed": false,
          "internalType": "uint256",
          "name": "_tokenId",
          "type": "uint256"
        }
      ],
      "name": "MetadataUpdate",
      "type": "event"
    },
    {
      "anonymous": false,
      "inputs": [
        {
          "indexed": true,
          "internalType": "address",
          "name": "previousOwner",
          "type": "address"
        },
        {
          "indexed": true,
          "internalType": "address",
          "name": "newOwner",
          "type": "address"
        }
      ],
      "name": "OwnershipTransferred",
      "type": "event"
    },
    {
      "anonymous": false,
      "inputs": [
        {
          "indexed": true,
          "internalType": "address",
          "name": "from",
          "type": "address"
        },
        {
          "indexed": true,
          "internalType": "address",
          "name": "to",
          "type": "address"
        },
        {
          "indexed": true,
          "internalType": "uint256",
          "name": "tokenId",
          "type": "uint256"
        }
      ],
      "name": "Transfer",
      "type": "event"
    },
    {
      "inputs": [],
      "name": "NFTsForSale",
      "outputs": [
        {
          "components": [
            {
              "internalType": "address payable",
              "name": "owner",
              "type": "address"
            },
            {
              "internalType": "uint256",
              "name": "tokenId",
              "type": "uint256"
            },
            {
              "internalType": "string",
              "name": "tokenURI",
              "type": "string"
            },
            {
              "internalType": "uint256",
              "name": "price",
              "type": "uint256"
            },
            {
              "internalType": "string",
              "name": "name",
              "type": "string"
            },
            {
              "internalType": "string",
              "name": "description",
              "type": "string"
            },
            {
              "internalType": "string",
              "name": "category",
              "type": "string"
            },
            {
              "internalType": "bool",
              "name": "isListedForSale",
              "type": "bool"
            },
            {
              "internalType": "bool",
              "name": "isListedForAuction",
              "type": "bool"
            }
          ],
          "internalType": "struct Market.Token[]",
          "name": "",
          "type": "tuple[]"
        }
      ],
      "stateMutability": "view",
      "type": "function"
    },
    {
      "inputs": [
        {
          "internalType": "address",
          "name": "to",
          "type": "address"
        },
        {
          "internalType": "uint256",
          "name": "tokenId",
          "type": "uint256"
        }
      ],
      "name": "approve",
      "outputs": [],
      "stateMutability": "nonpayable",
      "type": "function"
    },
    {
      "inputs": [
        {
          "internalType": "address",
          "name": "owner",
          "type": "address"
        }
      ],
      "name": "balanceOf",
      "outputs": [
        {
          "internalType": "uint256",
          "name": "",
          "type": "uint256"
        }
      ],
      "stateMutability": "view",
      "type": "function"
    },
    {
      "inputs": [
        {
          "internalType": "uint256",
          "name": "auctionIndex",
          "type": "uint256"
        }
      ],
      "name": "bidOnAuction",
      "outputs": [],
      "stateMutability": "payable",
      "type": "function"
    },
    {
      "inputs": [
        {
          "internalType": "uint256",
          "name": "auctionIndex",
          "type": "uint256"
        }
      ],
      "name": "finalizeAuction",
      "outputs": [],
      "stateMutability": "payable",
      "type": "function"
    },
    {
      "inputs": [],
      "name": "getAllAuctions",
      "outputs": [
        {
          "components": [
            {
              "internalType": "uint256",
              "name": "tokenIndex",
              "type": "uint256"
            },
            {
              "internalType": "uint256",
              "name": "startingPrice",
              "type": "uint256"
            },
            {
              "internalType": "address payable",
              "name": "creator",
              "type": "address"
            },
            {
              "internalType": "uint256",
              "name": "endTime",
              "type": "uint256"
            },
            {
              "internalType": "uint256",
              "name": "highestBid",
              "type": "uint256"
            },
            {
              "internalType": "address",
              "name": "highestBidder",
              "type": "address"
            }
          ],
          "internalType": "struct Market.Auction[]",
          "name": "",
          "type": "tuple[]"
        }
      ],
      "stateMutability": "view",
      "type": "function"
    },
    {
      "inputs": [
        {
          "internalType": "uint256",
          "name": "tokenId",
          "type": "uint256"
        }
      ],
      "name": "getApproved",
      "outputs": [
        {
          "internalType": "address",
          "name": "",
          "type": "address"
        }
      ],
      "stateMutability": "view",
      "type": "function"
    },
    {
      "inputs": [
        {
          "internalType": "address",
          "name": "owner",
          "type": "address"
        },
        {
          "internalType": "address",
          "name": "operator",
          "type": "address"
        }
      ],
      "name": "isApprovedForAll",
      "outputs": [
        {
          "internalType": "bool",
          "name": "",
          "type": "bool"
        }
      ],
      "stateMutability": "view",
      "type": "function"
    },
    {
      "inputs": [
        {
          "internalType": "string",
          "name": "tokenURI",
          "type": "string"
        },
        {
          "internalType": "string",
          "name": "name",
          "type": "string"
        },
        {
          "internalType": "string",
          "name": "description",
          "type": "string"
        },
        {
          "internalType": "string",
          "name": "category",
          "type": "string"
        }
      ],
      "name": "mintNFT",
      "outputs": [
        {
          "internalType": "uint256",
          "name": "",
          "type": "uint256"
        }
      ],
      "stateMutability": "nonpayable",
      "type": "function"
    },
    {
      "inputs": [],
      "name": "name",
      "outputs": [
        {
          "internalType": "string",
          "name": "",
          "type": "string"
        }
      ],
      "stateMutability": "view",
      "type": "function"
    },
    {
      "inputs": [],
      "name": "owner",
      "outputs": [
        {
          "internalType": "address",
          "name": "",
          "type": "address"
        }
      ],
      "stateMutability": "view",
      "type": "function"
    },
    {
      "inputs": [
        {
          "internalType": "uint256",
          "name": "tokenId",
          "type": "uint256"
        }
      ],
      "name": "ownerOf",
      "outputs": [
        {
          "internalType": "address",
          "name": "",
          "type": "address"
        }
      ],
      "stateMutability": "view",
      "type": "function"
    },
    {
      "inputs": [
        {
          "internalType": "uint256",
          "name": "index",
          "type": "uint256"
        }
      ],
      "name": "purchaseNFT",
      "outputs": [],
      "stateMutability": "payable",
      "type": "function"
    },
    {
      "inputs": [
        {
          "internalType": "uint256",
          "name": "i",
          "type": "uint256"
        }
      ],
      "name": "removeAuction",
      "outputs": [],
      "stateMutability": "nonpayable",
      "type": "function"
    },
    {
      "inputs": [
        {
          "internalType": "uint256",
          "name": "index",
          "type": "uint256"
        }
      ],
      "name": "removeFromSale",
      "outputs": [],
      "stateMutability": "nonpayable",
      "type": "function"
    },
    {
      "inputs": [],
      "name": "renounceOwnership",
      "outputs": [],
      "stateMutability": "nonpayable",
      "type": "function"
    },
    {
      "inputs": [
        {
          "internalType": "address",
          "name": "from",
          "type": "address"
        },
        {
          "internalType": "address",
          "name": "to",
          "type": "address"
        },
        {
          "internalType": "uint256",
          "name": "tokenId",
          "type": "uint256"
        }
      ],
      "name": "safeTransferFrom",
      "outputs": [],
      "stateMutability": "nonpayable",
      "type": "function"
    },
    {
      "inputs": [
        {
          "internalType": "address",
          "name": "from",
          "type": "address"
        },
        {
          "internalType": "address",
          "name": "to",
          "type": "address"
        },
        {
          "internalType": "uint256",
          "name": "tokenId",
          "type": "uint256"
        },
        {
          "internalType": "bytes",
          "name": "data",
          "type": "bytes"
        }
      ],
      "name": "safeTransferFrom",
      "outputs": [],
      "stateMutability": "nonpayable",
      "type": "function"
    },
    {
      "inputs": [
        {
          "internalType": "uint256",
          "name": "index",
          "type": "uint256"
        },
        {
          "internalType": "uint256",
          "name": "price",
          "type": "uint256"
        }
      ],
      "name": "sellNFT",
      "outputs": [],
      "stateMutability": "nonpayable",
      "type": "function"
    },
    {
      "inputs": [
        {
          "internalType": "address",
          "name": "operator",
          "type": "address"
        },
        {
          "internalType": "bool",
          "name": "approved",
          "type": "bool"
        }
      ],
      "name": "setApprovalForAll",
      "outputs": [],
      "stateMutability": "nonpayable",
      "type": "function"
    },
    {
      "inputs": [
        {
          "internalType": "uint256",
          "name": "startingPrice",
          "type": "uint256"
        },
        {
          "internalType": "uint256",
          "name": "durationInSeconds",
          "type": "uint256"
        },
        {
          "internalType": "uint256",
          "name": "index",
          "type": "uint256"
        }
      ],
      "name": "startAuction",
      "outputs": [],
      "stateMutability": "nonpayable",
      "type": "function"
    },
    {
      "inputs": [
        {
          "internalType": "bytes4",
          "name": "interfaceId",
          "type": "bytes4"
        }
      ],
      "name": "supportsInterface",
      "outputs": [
        {
          "internalType": "bool",
          "name": "",
          "type": "bool"
        }
      ],
      "stateMutability": "view",
      "type": "function"
    },
    {
      "inputs": [],
      "name": "symbol",
      "outputs": [
        {
          "internalType": "string",
          "name": "",
          "type": "string"
        }
      ],
      "stateMutability": "view",
      "type": "function"
    },
    {
      "inputs": [
        {
          "internalType": "uint256",
          "name": "tokenId",
          "type": "uint256"
        }
      ],
      "name": "tokenURI",
      "outputs": [
        {
          "internalType": "string",
          "name": "",
          "type": "string"
        }
      ],
      "stateMutability": "view",
      "type": "function"
    },
    {
      "inputs": [
        {
          "internalType": "uint256",
          "name": "",
          "type": "uint256"
        }
      ],
      "name": "tokens",
      "outputs": [
        {
          "internalType": "address payable",
          "name": "owner",
          "type": "address"
        },
        {
          "internalType": "uint256",
          "name": "tokenId",
          "type": "uint256"
        },
        {
          "internalType": "string",
          "name": "tokenURI",
          "type": "string"
        },
        {
          "internalType": "uint256",
          "name": "price",
          "type": "uint256"
        },
        {
          "internalType": "string",
          "name": "name",
          "type": "string"
        },
        {
          "internalType": "string",
          "name": "description",
          "type": "string"
        },
        {
          "internalType": "string",
          "name": "category",
          "type": "string"
        },
        {
          "internalType": "bool",
          "name": "isListedForSale",
          "type": "bool"
        },
        {
          "internalType": "bool",
          "name": "isListedForAuction",
          "type": "bool"
        }
      ],
      "stateMutability": "view",
      "type": "function"
    },
    {
      "inputs": [
        {
          "internalType": "address",
          "name": "from",
          "type": "address"
        },
        {
          "internalType": "address",
          "name": "to",
          "type": "address"
        },
        {
          "internalType": "uint256",
          "name": "tokenId",
          "type": "uint256"
        }
      ],
      "name": "transferFrom",
      "outputs": [],
      "stateMutability": "nonpayable",
      "type": "function"
    },
    {
      "inputs": [
        {
          "internalType": "address",
          "name": "newOwner",
          "type": "address"
        }
      ],
      "name": "transferOwnership",
      "outputs": [],
      "stateMutability": "nonpayable",
      "type": "function"
    },
    {
      "inputs": [],
      "name": "viewAllTokens",
      "outputs": [
        {
          "components": [
            {
              "internalType": "address payable",
              "name": "owner",
              "type": "address"
            },
            {
              "internalType": "uint256",
              "name": "tokenId",
              "type": "uint256"
            },
            {
              "internalType": "string",
              "name": "tokenURI",
              "type": "string"
            },
            {
              "internalType": "uint256",
              "name": "price",
              "type": "uint256"
            },
            {
              "internalType": "string",
              "name": "name",
              "type": "string"
            },
            {
              "internalType": "string",
              "name": "description",
              "type": "string"
            },
            {
              "internalType": "string",
              "name": "category",
              "type": "string"
            },
            {
              "internalType": "bool",
              "name": "isListedForSale",
              "type": "bool"
            },
            {
              "internalType": "bool",
              "name": "isListedForAuction",
              "type": "bool"
            }
          ],
          "internalType": "struct Market.Token[]",
          "name": "",
          "type": "tuple[]"
        }
      ],
      "stateMutability": "view",
      "type": "function"
    }
  ],
  "bytecode": "0x60806040523480156200001157600080fd5b506040518060400160405280600c81526020017f4d61726b65745f506c61636500000000000000000000000000000000000000008152506040518060400160405280600381526020017f4d4b50000000000000000000000000000000000000000000000000000000000081525081600090816200008f919062000412565b508060019081620000a1919062000412565b505050620000c4620000b8620000ca60201b60201c565b620000d260201b60201c565b620004f9565b600033905090565b6000600760009054906101000a900473ffffffffffffffffffffffffffffffffffffffff16905081600760006101000a81548173ffffffffffffffffffffffffffffffffffffffff021916908373ffffffffffffffffffffffffffffffffffffffff1602179055508173ffffffffffffffffffffffffffffffffffffffff168173ffffffffffffffffffffffffffffffffffffffff167f8be0079c531659141344cd1fd0a4f28419497f9722a3daafe3b4186f6b6457e060405160405180910390a35050565b600081519050919050565b7f4e487b7100000000000000000000000000000000000000000000000000000000600052604160045260246000fd5b7f4e487b7100000000000000000000000000000000000000000000000000000000600052602260045260246000fd5b600060028204905060018216806200021a57607f821691505b60208210810362000230576200022f620001d2565b5b50919050565b60008190508160005260206000209050919050565b60006020601f8301049050919050565b600082821b905092915050565b6000600883026200029a7fffffffffffffffffffffffffffffffffffffffffffffffffffffffffffffffff826200025b565b620002a686836200025b565b95508019841693508086168417925050509392505050565b6000819050919050565b6000819050919050565b6000620002f3620002ed620002e784620002be565b620002c8565b620002be565b9050919050565b6000819050919050565b6200030f83620002d2565b620003276200031e82620002fa565b84845462000268565b825550505050565b600090565b6200033e6200032f565b6200034b81848462000304565b505050565b5b8181101562000373576200036760008262000334565b60018101905062000351565b5050565b601f821115620003c2576200038c8162000236565b62000397846200024b565b81016020851015620003a7578190505b620003bf620003b6856200024b565b83018262000350565b50505b505050565b600082821c905092915050565b6000620003e760001984600802620003c7565b1980831691505092915050565b6000620004028383620003d4565b9150826002028217905092915050565b6200041d8262000198565b67ffffffffffffffff811115620004395762000438620001a3565b5b62000445825462000201565b6200045282828562000377565b600060209050601f8311600181146200048a576000841562000475578287015190505b620004818582620003f4565b865550620004f1565b601f1984166200049a8662000236565b60005b82811015620004c4578489015182556001820191506020850194506020810190506200049d565b86831015620004e45784890151620004e0601f891682620003d4565b8355505b6001600288020188555050505b505050505050565b615f5d80620005096000396000f3fe6080604052600436106101b75760003560e01c8063715018a6116100ec578063c87b56dd1161008a578063e985e9c511610064578063e985e9c5146105e5578063eec9057114610622578063f1daf0d41461065f578063f2fde38b1461068a576101b7565b8063c87b56dd14610561578063cbd2bdfd1461059e578063e8083863146105c9576101b7565b806391e078bb116100c657806391e078bb146104bb57806395d89b41146104e4578063a22cb4651461050f578063b88d4fde14610538576101b7565b8063715018a6146104505780638da5cb5b1461046757806391a48a1e14610492576101b7565b806323b872dd1161015957806342842e0e1161013357806342842e0e146103685780634f64b2be146103915780636352211e146103d657806370a0823114610413576101b7565b806323b872dd146102fa57806326b7aeea146103235780632dd7030b1461033f576101b7565b8063081812fc11610195578063081812fc1461024f578063095ea7b31461028c5780631361a3b6146102b5578063150bde03146102de576101b7565b806301ffc9a7146101bc57806302cfba81146101f957806306fdde0314610224575b600080fd5b3480156101c857600080fd5b506101e360048036038101906101de919061426b565b6106b3565b6040516101f091906142b3565b60405180910390f35b34801561020557600080fd5b5061020e610714565b60405161021b9190614563565b60405180910390f35b34801561023057600080fd5b50610239610a5c565b60405161024691906145cf565b60405180910390f35b34801561025b57600080fd5b506102766004803603810190610271919061461d565b610aee565b604051610283919061466b565b60405180910390f35b34801561029857600080fd5b506102b360048036038101906102ae91906146b2565b610b34565b005b3480156102c157600080fd5b506102dc60048036038101906102d7919061461d565b610c4b565b005b6102f860048036038101906102f3919061461d565b610d80565b005b34801561030657600080fd5b50610321600480360381019061031c91906146f2565b6110f4565b005b61033d6004803603810190610338919061461d565b611154565b005b34801561034b57600080fd5b506103666004803603810190610361919061461d565b61144c565b005b34801561037457600080fd5b5061038f600480360381019061038a91906146f2565b611699565b005b34801561039d57600080fd5b506103b860048036038101906103b3919061461d565b6116b9565b6040516103cd99989796959493929190614763565b60405180910390f35b3480156103e257600080fd5b506103fd60048036038101906103f8919061461d565b611971565b60405161040a919061466b565b60405180910390f35b34801561041f57600080fd5b5061043a6004803603810190610435919061480c565b6119f7565b6040516104479190614839565b60405180910390f35b34801561045c57600080fd5b50610465611aae565b005b34801561047357600080fd5b5061047c611ac2565b604051610489919061466b565b60405180910390f35b34801561049e57600080fd5b506104b960048036038101906104b49190614854565b611aec565b005b3480156104c757600080fd5b506104e260048036038101906104dd9190614894565b611d04565b005b3480156104f057600080fd5b506104f9612042565b60405161050691906145cf565b60405180910390f35b34801561051b57600080fd5b5061053660048036038101906105319190614913565b6120d4565b005b34801561054457600080fd5b5061055f600480360381019061055a9190614a88565b6120ea565b005b34801561056d57600080fd5b506105886004803603810190610583919061461d565b61214c565b60405161059591906145cf565b60405180910390f35b3480156105aa57600080fd5b506105b361225e565b6040516105c09190614c44565b60405180910390f35b6105e360048036038101906105de919061461d565b612391565b005b3480156105f157600080fd5b5061060c60048036038101906106079190614c66565b61299d565b60405161061991906142b3565b60405180910390f35b34801561062e57600080fd5b5061064960048036038101906106449190614d47565b612a31565b6040516106569190614839565b60405180910390f35b34801561066b57600080fd5b50610674612bff565b6040516106819190614563565b60405180910390f35b34801561069657600080fd5b506106b160048036038101906106ac919061480c565b613009565b005b6000634906490660e01b7bffffffffffffffffffffffffffffffffffffffffffffffffffffffff1916827bffffffffffffffffffffffffffffffffffffffffffffffffffffffff1916148061070d575061070c8261308c565b5b9050919050565b60606009805480602002602001604051908101604052809291908181526020016000905b82821015610a535783829060005260206000209060080201604051806101200160405290816000820160009054906101000a900473ffffffffffffffffffffffffffffffffffffffff1673ffffffffffffffffffffffffffffffffffffffff1673ffffffffffffffffffffffffffffffffffffffff168152602001600182015481526020016002820180546107cc90614e4d565b80601f01602080910402602001604051908101604052809291908181526020018280546107f890614e4d565b80156108455780601f1061081a57610100808354040283529160200191610845565b820191906000526020600020905b81548152906001019060200180831161082857829003601f168201915b505050505081526020016003820154815260200160048201805461086890614e4d565b80601f016020809104026020016040519081016040528092919081815260200182805461089490614e4d565b80156108e15780601f106108b6576101008083540402835291602001916108e1565b820191906000526020600020905b8154815290600101906020018083116108c457829003601f168201915b505050505081526020016005820180546108fa90614e4d565b80601f016020809104026020016040519081016040528092919081815260200182805461092690614e4d565b80156109735780601f1061094857610100808354040283529160200191610973565b820191906000526020600020905b81548152906001019060200180831161095657829003601f168201915b5050505050815260200160068201805461098c90614e4d565b80601f01602080910402602001604051908101604052809291908181526020018280546109b890614e4d565b8015610a055780601f106109da57610100808354040283529160200191610a05565b820191906000526020600020905b8154815290600101906020018083116109e857829003601f168201915b505050505081526020016007820160009054906101000a900460ff161515151581526020016007820160019054906101000a900460ff16151515158152505081526020019060010190610738565b50505050905090565b606060008054610a6b90614e4d565b80601f0160208091040260200160405190810160405280929190818152602001828054610a9790614e4d565b8015610ae45780601f10610ab957610100808354040283529160200191610ae4565b820191906000526020600020905b815481529060010190602001808311610ac757829003601f168201915b5050505050905090565b6000610af98261316e565b6004600083815260200190815260200160002060009054906101000a900473ffffffffffffffffffffffffffffffffffffffff169050919050565b6000610b3f82611971565b90508073ffffffffffffffffffffffffffffffffffffffff168373ffffffffffffffffffffffffffffffffffffffff1603610baf576040517f08c379a0000000000000000000000000000000000000000000000000000000008152600401610ba690614ef0565b60405180910390fd5b8073ffffffffffffffffffffffffffffffffffffffff16610bce6131b9565b73ffffffffffffffffffffffffffffffffffffffff161480610bfd5750610bfc81610bf76131b9565b61299d565b5b610c3c576040517f08c379a0000000000000000000000000000000000000000000000000000000008152600401610c3390614f82565b60405180910390fd5b610c4683836131c1565b505050565b8060098181548110610c6057610c5f614fa2565b5b906000526020600020906008020160000160009054906101000a900473ffffffffffffffffffffffffffffffffffffffff1673ffffffffffffffffffffffffffffffffffffffff163373ffffffffffffffffffffffffffffffffffffffff1614610cc957600080fd5b8160098181548110610cde57610cdd614fa2565b5b906000526020600020906008020160070160009054906101000a900460ff1615610d3d576040517f08c379a0000000000000000000000000000000000000000000000000000000008152600401610d349061501d565b60405180910390fd5b600060098481548110610d5357610d52614fa2565b5b906000526020600020906008020160070160006101000a81548160ff021916908315150217905550505050565b8060098181548110610d9557610d94614fa2565b5b906000526020600020906008020160070160009054906101000a900460ff1615610df4576040517f08c379a0000000000000000000000000000000000000000000000000000000008152600401610deb9061501d565b60405180910390fd5b8160098181548110610e0957610e08614fa2565b5b906000526020600020906008020160070160019054906101000a900460ff1615610e68576040517f08c379a0000000000000000000000000000000000000000000000000000000008152600401610e5f90615089565b60405180910390fd5b600083101580610e7c575060098054905083105b610ebb576040517f08c379a0000000000000000000000000000000000000000000000000000000008152600401610eb2906150f5565b60405180910390fd5b60098381548110610ecf57610ece614fa2565b5b906000526020600020906008020160030154341015610f23576040517f08c379a0000000000000000000000000000000000000000000000000000000008152600401610f1a90615161565b60405180910390fd5b600060098481548110610f3957610f38614fa2565b5b906000526020600020906008020160000160009054906101000a900473ffffffffffffffffffffffffffffffffffffffff1690508073ffffffffffffffffffffffffffffffffffffffff166108fc349081150290604051600060405180830381858888f19350505050158015610fb3573d6000803e3d6000fd5b503360098581548110610fc957610fc8614fa2565b5b906000526020600020906008020160000160006101000a81548173ffffffffffffffffffffffffffffffffffffffff021916908373ffffffffffffffffffffffffffffffffffffffff16021790555061104881336009878154811061103157611030614fa2565b5b90600052602060002090600802016001015461327a565b60006009858154811061105e5761105d614fa2565b5b906000526020600020906008020160070160016101000a81548160ff02191690831515021790555060006009858154811061109c5761109b614fa2565b5b906000526020600020906008020160070160006101000a81548160ff02191690831515021790555034600985815481106110d9576110d8614fa2565b5b90600052602060002090600802016003018190555050505050565b6111056110ff6131b9565b82613573565b611144576040517f08c379a000000000000000000000000000000000000000000000000000000000815260040161113b906151f3565b60405180910390fd5b61114f83838361327a565b505050565b3373ffffffffffffffffffffffffffffffffffffffff16600a828154811061117f5761117e614fa2565b5b906000526020600020906006020160020160009054906101000a900473ffffffffffffffffffffffffffffffffffffffff1673ffffffffffffffffffffffffffffffffffffffff1603611207576040517f08c379a00000000000000000000000000000000000000000000000000000000081526004016111fe90615285565b60405180910390fd5b600a818154811061121b5761121a614fa2565b5b906000526020600020906006020160040154341161126e576040517f08c379a000000000000000000000000000000000000000000000000000000000815260040161126590615317565b60405180910390fd5b600a818154811061128257611281614fa2565b5b90600052602060002090600602016003015442106112d5576040517f08c379a00000000000000000000000000000000000000000000000000000000081526004016112cc90615383565b60405180910390fd5b6000600a82815481106112eb576112ea614fa2565b5b90600052602060002090600602016004015411156113bb576000600a828154811061131957611318614fa2565b5b906000526020600020906006020160050160009054906101000a900473ffffffffffffffffffffffffffffffffffffffff1690508073ffffffffffffffffffffffffffffffffffffffff166108fc600a848154811061137b5761137a614fa2565b5b9060005260206000209060060201600401549081150290604051600060405180830381858888f193505050501580156113b8573d6000803e3d6000fd5b50505b34600a82815481106113d0576113cf614fa2565b5b90600052602060002090600602016004018190555033600a82815481106113fa576113f9614fa2565b5b906000526020600020906006020160050160006101000a81548173ffffffffffffffffffffffffffffffffffffffff021916908373ffffffffffffffffffffffffffffffffffffffff16021790555050565b60006009600a838154811061146457611463614fa2565b5b9060005260206000209060060201600001548154811061148757611486614fa2565b5b906000526020600020906008020160070160016101000a81548160ff021916908315150217905550600a6001600a805490506114c391906153d2565b815481106114d4576114d3614fa2565b5b9060005260206000209060060201600a82815481106114f6576114f5614fa2565b5b906000526020600020906006020160008201548160000155600182015481600101556002820160009054906101000a900473ffffffffffffffffffffffffffffffffffffffff168160020160006101000a81548173ffffffffffffffffffffffffffffffffffffffff021916908373ffffffffffffffffffffffffffffffffffffffff16021790555060038201548160030155600482015481600401556005820160009054906101000a900473ffffffffffffffffffffffffffffffffffffffff168160050160006101000a81548173ffffffffffffffffffffffffffffffffffffffff021916908373ffffffffffffffffffffffffffffffffffffffff160217905550905050600a80548061160f5761160e615406565b5b600190038181906000526020600020906006020160008082016000905560018201600090556002820160006101000a81549073ffffffffffffffffffffffffffffffffffffffff0219169055600382016000905560048201600090556005820160006101000a81549073ffffffffffffffffffffffffffffffffffffffff02191690555050905550565b6116b4838383604051806020016040528060008152506120ea565b505050565b600981815481106116c957600080fd5b90600052602060002090600802016000915090508060000160009054906101000a900473ffffffffffffffffffffffffffffffffffffffff169080600101549080600201805461171890614e4d565b80601f016020809104026020016040519081016040528092919081815260200182805461174490614e4d565b80156117915780601f1061176657610100808354040283529160200191611791565b820191906000526020600020905b81548152906001019060200180831161177457829003601f168201915b5050505050908060030154908060040180546117ac90614e4d565b80601f01602080910402602001604051908101604052809291908181526020018280546117d890614e4d565b80156118255780601f106117fa57610100808354040283529160200191611825565b820191906000526020600020905b81548152906001019060200180831161180857829003601f168201915b50505050509080600501805461183a90614e4d565b80601f016020809104026020016040519081016040528092919081815260200182805461186690614e4d565b80156118b35780601f10611888576101008083540402835291602001916118b3565b820191906000526020600020905b81548152906001019060200180831161189657829003601f168201915b5050505050908060060180546118c890614e4d565b80601f01602080910402602001604051908101604052809291908181526020018280546118f490614e4d565b80156119415780601f1061191657610100808354040283529160200191611941565b820191906000526020600020905b81548152906001019060200180831161192457829003601f168201915b5050505050908060070160009054906101000a900460ff16908060070160019054906101000a900460ff16905089565b60008061197d83613608565b9050600073ffffffffffffffffffffffffffffffffffffffff168173ffffffffffffffffffffffffffffffffffffffff16036119ee576040517f08c379a00000000000000000000000000000000000000000000000000000000081526004016119e590615481565b60405180910390fd5b80915050919050565b60008073ffffffffffffffffffffffffffffffffffffffff168273ffffffffffffffffffffffffffffffffffffffff1603611a67576040517f08c379a0000000000000000000000000000000000000000000000000000000008152600401611a5e90615513565b60405180910390fd5b600360008373ffffffffffffffffffffffffffffffffffffffff1673ffffffffffffffffffffffffffffffffffffffff168152602001908152602001600020549050919050565b611ab6613645565b611ac060006136c3565b565b6000600760009054906101000a900473ffffffffffffffffffffffffffffffffffffffff16905090565b8160098181548110611b0157611b00614fa2565b5b906000526020600020906008020160000160009054906101000a900473ffffffffffffffffffffffffffffffffffffffff1673ffffffffffffffffffffffffffffffffffffffff163373ffffffffffffffffffffffffffffffffffffffff1614611b6a57600080fd5b8260098181548110611b7f57611b7e614fa2565b5b906000526020600020906008020160070160009054906101000a900460ff1615611bde576040517f08c379a0000000000000000000000000000000000000000000000000000000008152600401611bd59061501d565b60405180910390fd5b8360098181548110611bf357611bf2614fa2565b5b906000526020600020906008020160070160019054906101000a900460ff1615611c52576040517f08c379a0000000000000000000000000000000000000000000000000000000008152600401611c4990615089565b60405180910390fd5b60008411611c95576040517f08c379a0000000000000000000000000000000000000000000000000000000008152600401611c8c906155a5565b60405180910390fd5b8360098681548110611caa57611ca9614fa2565b5b906000526020600020906008020160030181905550600160098681548110611cd557611cd4614fa2565b5b906000526020600020906008020160070160006101000a81548160ff0219169083151502179055505050505050565b8060098181548110611d1957611d18614fa2565b5b906000526020600020906008020160000160009054906101000a900473ffffffffffffffffffffffffffffffffffffffff1673ffffffffffffffffffffffffffffffffffffffff163373ffffffffffffffffffffffffffffffffffffffff1614611d8257600080fd5b8160098181548110611d9757611d96614fa2565b5b906000526020600020906008020160070160009054906101000a900460ff1615611df6576040517f08c379a0000000000000000000000000000000000000000000000000000000008152600401611ded9061501d565b60405180910390fd5b8260098181548110611e0b57611e0a614fa2565b5b906000526020600020906008020160070160019054906101000a900460ff1615611e6a576040517f08c379a0000000000000000000000000000000000000000000000000000000008152600401611e6190615089565b60405180910390fd5b611e72614137565b33816040019073ffffffffffffffffffffffffffffffffffffffff16908173ffffffffffffffffffffffffffffffffffffffff16815250508542611eb691906155c5565b816060018181525050600081608001818152505060008160a0019073ffffffffffffffffffffffffffffffffffffffff16908173ffffffffffffffffffffffffffffffffffffffff16815250508681602001818152505084816000018181525050600160098681548110611f2d57611f2c614fa2565b5b906000526020600020906008020160070160016101000a81548160ff021916908315150217905550600a819080600181540180825580915050600190039060005260206000209060060201600090919091909150600082015181600001556020820151816001015560408201518160020160006101000a81548173ffffffffffffffffffffffffffffffffffffffff021916908373ffffffffffffffffffffffffffffffffffffffff160217905550606082015181600301556080820151816004015560a08201518160050160006101000a81548173ffffffffffffffffffffffffffffffffffffffff021916908373ffffffffffffffffffffffffffffffffffffffff160217905550505050505050505050565b60606001805461205190614e4d565b80601f016020809104026020016040519081016040528092919081815260200182805461207d90614e4d565b80156120ca5780601f1061209f576101008083540402835291602001916120ca565b820191906000526020600020905b8154815290600101906020018083116120ad57829003601f168201915b5050505050905090565b6120e66120df6131b9565b8383613789565b5050565b6120fb6120f56131b9565b83613573565b61213a576040517f08c379a0000000000000000000000000000000000000000000000000000000008152600401612131906151f3565b60405180910390fd5b612146848484846138f5565b50505050565b60606121578261316e565b600060066000848152602001908152602001600020805461217790614e4d565b80601f01602080910402602001604051908101604052809291908181526020018280546121a390614e4d565b80156121f05780601f106121c5576101008083540402835291602001916121f0565b820191906000526020600020905b8154815290600101906020018083116121d357829003601f168201915b505050505090506000612201613951565b90506000815103612216578192505050612259565b60008251111561224b578082604051602001612233929190615635565b60405160208183030381529060405292505050612259565b61225484613968565b925050505b919050565b6060600a805480602002602001604051908101604052809291908181526020016000905b8282101561238857838290600052602060002090600602016040518060c001604052908160008201548152602001600182015481526020016002820160009054906101000a900473ffffffffffffffffffffffffffffffffffffffff1673ffffffffffffffffffffffffffffffffffffffff1673ffffffffffffffffffffffffffffffffffffffff16815260200160038201548152602001600482015481526020016005820160009054906101000a900473ffffffffffffffffffffffffffffffffffffffff1673ffffffffffffffffffffffffffffffffffffffff1673ffffffffffffffffffffffffffffffffffffffff168152505081526020019060010190612282565b50505050905090565b80600a81815481106123a6576123a5614fa2565b5b906000526020600020906006020160020160009054906101000a900473ffffffffffffffffffffffffffffffffffffffff1673ffffffffffffffffffffffffffffffffffffffff163373ffffffffffffffffffffffffffffffffffffffff161461240f57600080fd5b6000600a838154811061242557612424614fa2565b5b90600052602060002090600602016004015411612477576040517f08c379a000000000000000000000000000000000000000000000000000000000815260040161246e906156a5565b60405180910390fd5b6000600a838154811061248d5761248c614fa2565b5b906000526020600020906006020160020160009054906101000a900473ffffffffffffffffffffffffffffffffffffffff16905061255b81600a85815481106124d9576124d8614fa2565b5b906000526020600020906006020160050160009054906101000a900473ffffffffffffffffffffffffffffffffffffffff166009600a878154811061252157612520614fa2565b5b9060005260206000209060060201600001548154811061254457612543614fa2565b5b9060005260206000209060080201600101546110f4565b600a838154811061256f5761256e614fa2565b5b906000526020600020906006020160050160009054906101000a900473ffffffffffffffffffffffffffffffffffffffff166009600a85815481106125b7576125b6614fa2565b5b906000526020600020906006020160000154815481106125da576125d9614fa2565b5b906000526020600020906008020160000160006101000a81548173ffffffffffffffffffffffffffffffffffffffff021916908373ffffffffffffffffffffffffffffffffffffffff160217905550600a838154811061263d5761263c614fa2565b5b9060005260206000209060060201600401546009600a858154811061266557612664614fa2565b5b9060005260206000209060060201600001548154811061268857612687614fa2565b5b90600052602060002090600802016003018190555060006009600a85815481106126b5576126b4614fa2565b5b906000526020600020906006020160000154815481106126d8576126d7614fa2565b5b906000526020600020906008020160070160016101000a81548160ff021916908315150217905550600a838154811061271457612713614fa2565b5b906000526020600020906006020160020160009054906101000a900473ffffffffffffffffffffffffffffffffffffffff1673ffffffffffffffffffffffffffffffffffffffff166108fc600a858154811061277357612772614fa2565b5b9060005260206000209060060201600401549081150290604051600060405180830381858888f193505050501580156127b0573d6000803e3d6000fd5b50600a6001600a805490506127c591906153d2565b815481106127d6576127d5614fa2565b5b9060005260206000209060060201600a84815481106127f8576127f7614fa2565b5b906000526020600020906006020160008201548160000155600182015481600101556002820160009054906101000a900473ffffffffffffffffffffffffffffffffffffffff168160020160006101000a81548173ffffffffffffffffffffffffffffffffffffffff021916908373ffffffffffffffffffffffffffffffffffffffff16021790555060038201548160030155600482015481600401556005820160009054906101000a900473ffffffffffffffffffffffffffffffffffffffff168160050160006101000a81548173ffffffffffffffffffffffffffffffffffffffff021916908373ffffffffffffffffffffffffffffffffffffffff160217905550905050600a80548061291157612910615406565b5b600190038181906000526020600020906006020160008082016000905560018201600090556002820160006101000a81549073ffffffffffffffffffffffffffffffffffffffff0219169055600382016000905560048201600090556005820160006101000a81549073ffffffffffffffffffffffffffffffffffffffff021916905550509055505050565b6000600560008473ffffffffffffffffffffffffffffffffffffffff1673ffffffffffffffffffffffffffffffffffffffff16815260200190815260200160002060008373ffffffffffffffffffffffffffffffffffffffff1673ffffffffffffffffffffffffffffffffffffffff16815260200190815260200160002060009054906101000a900460ff16905092915050565b600080612a3e60086139d0565b9050612a4a33826139de565b612a548187613bfb565b60006040518061012001604052803373ffffffffffffffffffffffffffffffffffffffff16815260200183815260200188815260200160008152602001878152602001868152602001858152602001600015158152602001600015158152509050600981908060018154018082558091505060019003906000526020600020906008020160009091909190915060008201518160000160006101000a81548173ffffffffffffffffffffffffffffffffffffffff021916908373ffffffffffffffffffffffffffffffffffffffff160217905550602082015181600101556040820151816002019081612b479190615871565b50606082015181600301556080820151816004019081612b679190615871565b5060a0820151816005019081612b7d9190615871565b5060c0820151816006019081612b939190615871565b5060e08201518160070160006101000a81548160ff0219169083151502179055506101008201518160070160016101000a81548160ff0219169083151502179055505050612be16008613c9f565b6001600980549050612bf391906153d2565b92505050949350505050565b6060600060098054905067ffffffffffffffff811115612c2257612c2161495d565b5b604051908082528060200260200182016040528015612c5b57816020015b612c48614199565b815260200190600190039081612c405790505b5090506000805b600980549050811015612ffd5760098181548110612c8357612c82614fa2565b5b906000526020600020906008020160070160009054906101000a900460ff1615612fea5760098181548110612cbb57612cba614fa2565b5b9060005260206000209060080201604051806101200160405290816000820160009054906101000a900473ffffffffffffffffffffffffffffffffffffffff1673ffffffffffffffffffffffffffffffffffffffff1673ffffffffffffffffffffffffffffffffffffffff16815260200160018201548152602001600282018054612d4590614e4d565b80601f0160208091040260200160405190810160405280929190818152602001828054612d7190614e4d565b8015612dbe5780601f10612d9357610100808354040283529160200191612dbe565b820191906000526020600020905b815481529060010190602001808311612da157829003601f168201915b5050505050815260200160038201548152602001600482018054612de190614e4d565b80601f0160208091040260200160405190810160405280929190818152602001828054612e0d90614e4d565b8015612e5a5780601f10612e2f57610100808354040283529160200191612e5a565b820191906000526020600020905b815481529060010190602001808311612e3d57829003601f168201915b50505050508152602001600582018054612e7390614e4d565b80601f0160208091040260200160405190810160405280929190818152602001828054612e9f90614e4d565b8015612eec5780601f10612ec157610100808354040283529160200191612eec565b820191906000526020600020905b815481529060010190602001808311612ecf57829003601f168201915b50505050508152602001600682018054612f0590614e4d565b80601f0160208091040260200160405190810160405280929190818152602001828054612f3190614e4d565b8015612f7e5780601f10612f5357610100808354040283529160200191612f7e565b820191906000526020600020905b815481529060010190602001808311612f6157829003601f168201915b505050505081526020016007820160009054906101000a900460ff161515151581526020016007820160019054906101000a900460ff161515151581525050838381518110612fd057612fcf614fa2565b5b60200260200101819052508180612fe690615943565b9250505b8080612ff590615943565b915050612c62565b50808252819250505090565b613011613645565b600073ffffffffffffffffffffffffffffffffffffffff168173ffffffffffffffffffffffffffffffffffffffff1603613080576040517f08c379a0000000000000000000000000000000000000000000000000000000008152600401613077906159fd565b60405180910390fd5b613089816136c3565b50565b60007f80ac58cd000000000000000000000000000000000000000000000000000000007bffffffffffffffffffffffffffffffffffffffffffffffffffffffff1916827bffffffffffffffffffffffffffffffffffffffffffffffffffffffff1916148061315757507f5b5e139f000000000000000000000000000000000000000000000000000000007bffffffffffffffffffffffffffffffffffffffffffffffffffffffff1916827bffffffffffffffffffffffffffffffffffffffffffffffffffffffff1916145b80613167575061316682613cb5565b5b9050919050565b61317781613d1f565b6131b6576040517f08c379a00000000000000000000000000000000000000000000000000000000081526004016131ad90615481565b60405180910390fd5b50565b600033905090565b816004600083815260200190815260200160002060006101000a81548173ffffffffffffffffffffffffffffffffffffffff021916908373ffffffffffffffffffffffffffffffffffffffff160217905550808273ffffffffffffffffffffffffffffffffffffffff1661323483611971565b73ffffffffffffffffffffffffffffffffffffffff167f8c5be1e5ebec7d5bd14f71427d1e84f3dd0314c0f7b2291e5b200ac8c7c3b92560405160405180910390a45050565b8273ffffffffffffffffffffffffffffffffffffffff1661329a82611971565b73ffffffffffffffffffffffffffffffffffffffff16146132f0576040517f08c379a00000000000000000000000000000000000000000000000000000000081526004016132e790615a8f565b60405180910390fd5b600073ffffffffffffffffffffffffffffffffffffffff168273ffffffffffffffffffffffffffffffffffffffff160361335f576040517f08c379a000000000000000000000000000000000000000000000000000000000815260040161335690615b21565b60405180910390fd5b61336c8383836001613d60565b8273ffffffffffffffffffffffffffffffffffffffff1661338c82611971565b73ffffffffffffffffffffffffffffffffffffffff16146133e2576040517f08c379a00000000000000000000000000000000000000000000000000000000081526004016133d990615a8f565b60405180910390fd5b6004600082815260200190815260200160002060006101000a81549073ffffffffffffffffffffffffffffffffffffffff02191690556001600360008573ffffffffffffffffffffffffffffffffffffffff1673ffffffffffffffffffffffffffffffffffffffff168152602001908152602001600020600082825403925050819055506001600360008473ffffffffffffffffffffffffffffffffffffffff1673ffffffffffffffffffffffffffffffffffffffff16815260200190815260200160002060008282540192505081905550816002600083815260200190815260200160002060006101000a81548173ffffffffffffffffffffffffffffffffffffffff021916908373ffffffffffffffffffffffffffffffffffffffff160217905550808273ffffffffffffffffffffffffffffffffffffffff168473ffffffffffffffffffffffffffffffffffffffff167fddf252ad1be2c89b69c2b068fc378daa952ba7f163c4a11628f55a4df523b3ef60405160405180910390a461356e8383836001613d66565b505050565b60008061357f83611971565b90508073ffffffffffffffffffffffffffffffffffffffff168473ffffffffffffffffffffffffffffffffffffffff1614806135c157506135c0818561299d565b5b806135ff57508373ffffffffffffffffffffffffffffffffffffffff166135e784610aee565b73ffffffffffffffffffffffffffffffffffffffff16145b91505092915050565b60006002600083815260200190815260200160002060009054906101000a900473ffffffffffffffffffffffffffffffffffffffff169050919050565b61364d6131b9565b73ffffffffffffffffffffffffffffffffffffffff1661366b611ac2565b73ffffffffffffffffffffffffffffffffffffffff16146136c1576040517f08c379a00000000000000000000000000000000000000000000000000000000081526004016136b890615b8d565b60405180910390fd5b565b6000600760009054906101000a900473ffffffffffffffffffffffffffffffffffffffff16905081600760006101000a81548173ffffffffffffffffffffffffffffffffffffffff021916908373ffffffffffffffffffffffffffffffffffffffff1602179055508173ffffffffffffffffffffffffffffffffffffffff168173ffffffffffffffffffffffffffffffffffffffff167f8be0079c531659141344cd1fd0a4f28419497f9722a3daafe3b4186f6b6457e060405160405180910390a35050565b8173ffffffffffffffffffffffffffffffffffffffff168373ffffffffffffffffffffffffffffffffffffffff16036137f7576040517f08c379a00000000000000000000000000000000000000000000000000000000081526004016137ee90615bf9565b60405180910390fd5b80600560008573ffffffffffffffffffffffffffffffffffffffff1673ffffffffffffffffffffffffffffffffffffffff16815260200190815260200160002060008473ffffffffffffffffffffffffffffffffffffffff1673ffffffffffffffffffffffffffffffffffffffff16815260200190815260200160002060006101000a81548160ff0219169083151502179055508173ffffffffffffffffffffffffffffffffffffffff168373ffffffffffffffffffffffffffffffffffffffff167f17307eab39ab6107e8899845ad3d59bd9653f200f220920489ca2b5937696c31836040516138e891906142b3565b60405180910390a3505050565b61390084848461327a565b61390c84848484613d6c565b61394b576040517f08c379a000000000000000000000000000000000000000000000000000000000815260040161394290615c8b565b60405180910390fd5b50505050565b606060405180602001604052806000815250905090565b60606139738261316e565b600061397d613951565b9050600081511161399d57604051806020016040528060008152506139c8565b806139a784613ef3565b6040516020016139b8929190615635565b6040516020818303038152906040525b915050919050565b600081600001549050919050565b600073ffffffffffffffffffffffffffffffffffffffff168273ffffffffffffffffffffffffffffffffffffffff1603613a4d576040517f08c379a0000000000000000000000000000000000000000000000000000000008152600401613a4490615cf7565b60405180910390fd5b613a5681613d1f565b15613a96576040517f08c379a0000000000000000000000000000000000000000000000000000000008152600401613a8d90615d63565b60405180910390fd5b613aa4600083836001613d60565b613aad81613d1f565b15613aed576040517f08c379a0000000000000000000000000000000000000000000000000000000008152600401613ae490615d63565b60405180910390fd5b6001600360008473ffffffffffffffffffffffffffffffffffffffff1673ffffffffffffffffffffffffffffffffffffffff16815260200190815260200160002060008282540192505081905550816002600083815260200190815260200160002060006101000a81548173ffffffffffffffffffffffffffffffffffffffff021916908373ffffffffffffffffffffffffffffffffffffffff160217905550808273ffffffffffffffffffffffffffffffffffffffff16600073ffffffffffffffffffffffffffffffffffffffff167fddf252ad1be2c89b69c2b068fc378daa952ba7f163c4a11628f55a4df523b3ef60405160405180910390a4613bf7600083836001613d66565b5050565b613c0482613d1f565b613c43576040517f08c379a0000000000000000000000000000000000000000000000000000000008152600401613c3a90615df5565b60405180910390fd5b80600660008481526020019081526020016000209081613c639190615871565b507ff8e1a15aba9398e019f0b49df1a4fde98ee17ae345cb5f6b5e2c27f5033e8ce782604051613c939190614839565b60405180910390a15050565b6001816000016000828254019250508190555050565b60007f01ffc9a7000000000000000000000000000000000000000000000000000000007bffffffffffffffffffffffffffffffffffffffffffffffffffffffff1916827bffffffffffffffffffffffffffffffffffffffffffffffffffffffff1916149050919050565b60008073ffffffffffffffffffffffffffffffffffffffff16613d4183613608565b73ffffffffffffffffffffffffffffffffffffffff1614159050919050565b50505050565b50505050565b6000613d8d8473ffffffffffffffffffffffffffffffffffffffff16613fc1565b15613ee6578373ffffffffffffffffffffffffffffffffffffffff1663150b7a02613db66131b9565b8786866040518563ffffffff1660e01b8152600401613dd89493929190615e6a565b6020604051808303816000875af1925050508015613e1457506040513d601f19601f82011682018060405250810190613e119190615ecb565b60015b613e96573d8060008114613e44576040519150601f19603f3d011682016040523d82523d6000602084013e613e49565b606091505b506000815103613e8e576040517f08c379a0000000000000000000000000000000000000000000000000000000008152600401613e8590615c8b565b60405180910390fd5b805181602001fd5b63150b7a0260e01b7bffffffffffffffffffffffffffffffffffffffffffffffffffffffff1916817bffffffffffffffffffffffffffffffffffffffffffffffffffffffff191614915050613eeb565b600190505b949350505050565b606060006001613f0284613fe4565b01905060008167ffffffffffffffff811115613f2157613f2061495d565b5b6040519080825280601f01601f191660200182016040528015613f535781602001600182028036833780820191505090505b509050600082602001820190505b600115613fb6578080600190039150507f3031323334353637383961626364656600000000000000000000000000000000600a86061a8153600a8581613faa57613fa9615ef8565b5b04945060008503613f61575b819350505050919050565b6000808273ffffffffffffffffffffffffffffffffffffffff163b119050919050565b600080600090507a184f03e93ff9f4daa797ed6e38ed64bf6a1f0100000000000000008310614042577a184f03e93ff9f4daa797ed6e38ed64bf6a1f010000000000000000838161403857614037615ef8565b5b0492506040810190505b6d04ee2d6d415b85acef8100000000831061407f576d04ee2d6d415b85acef8100000000838161407557614074615ef8565b5b0492506020810190505b662386f26fc1000083106140ae57662386f26fc1000083816140a4576140a3615ef8565b5b0492506010810190505b6305f5e10083106140d7576305f5e10083816140cd576140cc615ef8565b5b0492506008810190505b61271083106140fc5761271083816140f2576140f1615ef8565b5b0492506004810190505b6064831061411f576064838161411557614114615ef8565b5b0492506002810190505b600a831061412e576001810190505b80915050919050565b6040518060c001604052806000815260200160008152602001600073ffffffffffffffffffffffffffffffffffffffff1681526020016000815260200160008152602001600073ffffffffffffffffffffffffffffffffffffffff1681525090565b604051806101200160405280600073ffffffffffffffffffffffffffffffffffffffff1681526020016000815260200160608152602001600081526020016060815260200160608152602001606081526020016000151581526020016000151581525090565b6000604051905090565b600080fd5b600080fd5b60007fffffffff0000000000000000000000000000000000000000000000000000000082169050919050565b61424881614213565b811461425357600080fd5b50565b6000813590506142658161423f565b92915050565b60006020828403121561428157614280614209565b5b600061428f84828501614256565b91505092915050565b60008115159050919050565b6142ad81614298565b82525050565b60006020820190506142c860008301846142a4565b92915050565b600081519050919050565b600082825260208201905092915050565b6000819050602082019050919050565b600073ffffffffffffffffffffffffffffffffffffffff82169050919050565b6000614325826142fa565b9050919050565b6143358161431a565b82525050565b6000819050919050565b61434e8161433b565b82525050565b600081519050919050565b600082825260208201905092915050565b60005b8381101561438e578082015181840152602081019050614373565b60008484015250505050565b6000601f19601f8301169050919050565b60006143b682614354565b6143c0818561435f565b93506143d0818560208601614370565b6143d98161439a565b840191505092915050565b6143ed81614298565b82525050565b60006101208301600083015161440c600086018261432c565b50602083015161441f6020860182614345565b506040830151848203604086015261443782826143ab565b915050606083015161444c6060860182614345565b506080830151848203608086015261446482826143ab565b91505060a083015184820360a086015261447e82826143ab565b91505060c083015184820360c086015261449882826143ab565b91505060e08301516144ad60e08601826143e4565b506101008301516144c26101008601826143e4565b508091505092915050565b60006144d983836143f3565b905092915050565b6000602082019050919050565b60006144f9826142ce565b61450381856142d9565b935083602082028501614515856142ea565b8060005b85811015614551578484038952815161453285826144cd565b945061453d836144e1565b925060208a01995050600181019050614519565b50829750879550505050505092915050565b6000602082019050818103600083015261457d81846144ee565b905092915050565b600082825260208201905092915050565b60006145a182614354565b6145ab8185614585565b93506145bb818560208601614370565b6145c48161439a565b840191505092915050565b600060208201905081810360008301526145e98184614596565b905092915050565b6145fa8161433b565b811461460557600080fd5b50565b600081359050614617816145f1565b92915050565b60006020828403121561463357614632614209565b5b600061464184828501614608565b91505092915050565b6000614655826142fa565b9050919050565b6146658161464a565b82525050565b6000602082019050614680600083018461465c565b92915050565b61468f8161464a565b811461469a57600080fd5b50565b6000813590506146ac81614686565b92915050565b600080604083850312156146c9576146c8614209565b5b60006146d78582860161469d565b92505060206146e885828601614608565b9150509250929050565b60008060006060848603121561470b5761470a614209565b5b60006147198682870161469d565b935050602061472a8682870161469d565b925050604061473b86828701614608565b9150509250925092565b61474e8161431a565b82525050565b61475d8161433b565b82525050565b600061012082019050614779600083018c614745565b614786602083018b614754565b8181036040830152614798818a614596565b90506147a76060830189614754565b81810360808301526147b98188614596565b905081810360a08301526147cd8187614596565b905081810360c08301526147e18186614596565b90506147f060e08301856142a4565b6147fe6101008301846142a4565b9a9950505050505050505050565b60006020828403121561482257614821614209565b5b60006148308482850161469d565b91505092915050565b600060208201905061484e6000830184614754565b92915050565b6000806040838503121561486b5761486a614209565b5b600061487985828601614608565b925050602061488a85828601614608565b9150509250929050565b6000806000606084860312156148ad576148ac614209565b5b60006148bb86828701614608565b93505060206148cc86828701614608565b92505060406148dd86828701614608565b9150509250925092565b6148f081614298565b81146148fb57600080fd5b50565b60008135905061490d816148e7565b92915050565b6000806040838503121561492a57614929614209565b5b60006149388582860161469d565b9250506020614949858286016148fe565b9150509250929050565b600080fd5b600080fd5b7f4e487b7100000000000000000000000000000000000000000000000000000000600052604160045260246000fd5b6149958261439a565b810181811067ffffffffffffffff821117156149b4576149b361495d565b5b80604052505050565b60006149c76141ff565b90506149d3828261498c565b919050565b600067ffffffffffffffff8211156149f3576149f261495d565b5b6149fc8261439a565b9050602081019050919050565b82818337600083830152505050565b6000614a2b614a26846149d8565b6149bd565b905082815260208101848484011115614a4757614a46614958565b5b614a52848285614a09565b509392505050565b600082601f830112614a6f57614a6e614953565b5b8135614a7f848260208601614a18565b91505092915050565b60008060008060808587031215614aa257614aa1614209565b5b6000614ab08782880161469d565b9450506020614ac18782880161469d565b9350506040614ad287828801614608565b925050606085013567ffffffffffffffff811115614af357614af261420e565b5b614aff87828801614a5a565b91505092959194509250565b600081519050919050565b600082825260208201905092915050565b6000819050602082019050919050565b614b408161464a565b82525050565b60c082016000820151614b5c6000850182614345565b506020820151614b6f6020850182614345565b506040820151614b82604085018261432c565b506060820151614b956060850182614345565b506080820151614ba86080850182614345565b5060a0820151614bbb60a0850182614b37565b50505050565b6000614bcd8383614b46565b60c08301905092915050565b6000602082019050919050565b6000614bf182614b0b565b614bfb8185614b16565b9350614c0683614b27565b8060005b83811015614c37578151614c1e8882614bc1565b9750614c2983614bd9565b925050600181019050614c0a565b5085935050505092915050565b60006020820190508181036000830152614c5e8184614be6565b905092915050565b60008060408385031215614c7d57614c7c614209565b5b6000614c8b8582860161469d565b9250506020614c9c8582860161469d565b9150509250929050565b600067ffffffffffffffff821115614cc157614cc061495d565b5b614cca8261439a565b9050602081019050919050565b6000614cea614ce584614ca6565b6149bd565b905082815260208101848484011115614d0657614d05614958565b5b614d11848285614a09565b509392505050565b600082601f830112614d2e57614d2d614953565b5b8135614d3e848260208601614cd7565b91505092915050565b60008060008060808587031215614d6157614d60614209565b5b600085013567ffffffffffffffff811115614d7f57614d7e61420e565b5b614d8b87828801614d19565b945050602085013567ffffffffffffffff811115614dac57614dab61420e565b5b614db887828801614d19565b935050604085013567ffffffffffffffff811115614dd957614dd861420e565b5b614de587828801614d19565b925050606085013567ffffffffffffffff811115614e0657614e0561420e565b5b614e1287828801614d19565b91505092959194509250565b7f4e487b7100000000000000000000000000000000000000000000000000000000600052602260045260246000fd5b60006002820490506001821680614e6557607f821691505b602082108103614e7857614e77614e1e565b5b50919050565b7f4552433732313a20617070726f76616c20746f2063757272656e74206f776e6560008201527f7200000000000000000000000000000000000000000000000000000000000000602082015250565b6000614eda602183614585565b9150614ee582614e7e565b604082019050919050565b60006020820190508181036000830152614f0981614ecd565b9050919050565b7f4552433732313a20617070726f76652063616c6c6572206973206e6f7420746f60008201527f6b656e206f776e6572206f7220617070726f76656420666f7220616c6c000000602082015250565b6000614f6c603d83614585565b9150614f7782614f10565b604082019050919050565b60006020820190508181036000830152614f9b81614f5f565b9050919050565b7f4e487b7100000000000000000000000000000000000000000000000000000000600052603260045260246000fd5b7f416c7265616479206c697374656420666f722073616c65000000000000000000600082015250565b6000615007601783614585565b915061501282614fd1565b602082019050919050565b6000602082019050818103600083015261503681614ffa565b9050919050565b7f416c7265616479204c697374656420666f722041756374696f6e000000000000600082015250565b6000615073601a83614585565b915061507e8261503d565b602082019050919050565b600060208201905081810360008301526150a281615066565b9050919050565b7f696e76616c696420696e64657800000000000000000000000000000000000000600082015250565b60006150df600d83614585565b91506150ea826150a9565b602082019050919050565b6000602082019050818103600083015261510e816150d2565b9050919050565b7f496e73756666696369656e7420616d6f756e7400000000000000000000000000600082015250565b600061514b601383614585565b915061515682615115565b602082019050919050565b6000602082019050818103600083015261517a8161513e565b9050919050565b7f4552433732313a2063616c6c6572206973206e6f7420746f6b656e206f776e6560008201527f72206f7220617070726f76656400000000000000000000000000000000000000602082015250565b60006151dd602d83614585565b91506151e882615181565b604082019050919050565b6000602082019050818103600083015261520c816151d0565b9050919050565b7f4f776e6572732063616e6e6f7420626964206f6e207468656972206f776e204e60008201527f4654000000000000000000000000000000000000000000000000000000000000602082015250565b600061526f602283614585565b915061527a82615213565b604082019050919050565b6000602082019050818103600083015261529e81615262565b9050919050565b7f426964206d75737420626520686967686572207468616e20746865207072657660008201527f696f757320626964000000000000000000000000000000000000000000000000602082015250565b6000615301602883614585565b915061530c826152a5565b604082019050919050565b60006020820190508181036000830152615330816152f4565b9050919050565b7f41756374696f6e2068617320656e646564000000000000000000000000000000600082015250565b600061536d601183614585565b915061537882615337565b602082019050919050565b6000602082019050818103600083015261539c81615360565b9050919050565b7f4e487b7100000000000000000000000000000000000000000000000000000000600052601160045260246000fd5b60006153dd8261433b565b91506153e88361433b565b9250828203905081811115615400576153ff6153a3565b5b92915050565b7f4e487b7100000000000000000000000000000000000000000000000000000000600052603160045260246000fd5b7f4552433732313a20696e76616c696420746f6b656e2049440000000000000000600082015250565b600061546b601883614585565b915061547682615435565b602082019050919050565b6000602082019050818103600083015261549a8161545e565b9050919050565b7f4552433732313a2061646472657373207a65726f206973206e6f74206120766160008201527f6c6964206f776e65720000000000000000000000000000000000000000000000602082015250565b60006154fd602983614585565b9150615508826154a1565b604082019050919050565b6000602082019050818103600083015261552c816154f0565b9050919050565b7f50726963652073686f756c642062652067726561746572207468616e207a657260008201527f6f00000000000000000000000000000000000000000000000000000000000000602082015250565b600061558f602183614585565b915061559a82615533565b604082019050919050565b600060208201905081810360008301526155be81615582565b9050919050565b60006155d08261433b565b91506155db8361433b565b92508282019050808211156155f3576155f26153a3565b5b92915050565b600081905092915050565b600061560f82614354565b61561981856155f9565b9350615629818560208601614370565b80840191505092915050565b60006156418285615604565b915061564d8284615604565b91508190509392505050565b7f4e6f206f6e652068617320626964206f6e207468652061756374696f6e000000600082015250565b600061568f601d83614585565b915061569a82615659565b602082019050919050565b600060208201905081810360008301526156be81615682565b9050919050565b60008190508160005260206000209050919050565b60006020601f8301049050919050565b600082821b905092915050565b6000600883026157277fffffffffffffffffffffffffffffffffffffffffffffffffffffffffffffffff826156ea565b61573186836156ea565b95508019841693508086168417925050509392505050565b6000819050919050565b600061576e6157696157648461433b565b615749565b61433b565b9050919050565b6000819050919050565b61578883615753565b61579c61579482615775565b8484546156f7565b825550505050565b600090565b6157b16157a4565b6157bc81848461577f565b505050565b5b818110156157e0576157d56000826157a9565b6001810190506157c2565b5050565b601f821115615825576157f6816156c5565b6157ff846156da565b8101602085101561580e578190505b61582261581a856156da565b8301826157c1565b50505b505050565b600082821c905092915050565b60006158486000198460080261582a565b1980831691505092915050565b60006158618383615837565b9150826002028217905092915050565b61587a82614354565b67ffffffffffffffff8111156158935761589261495d565b5b61589d8254614e4d565b6158a88282856157e4565b600060209050601f8311600181146158db57600084156158c9578287015190505b6158d38582615855565b86555061593b565b601f1984166158e9866156c5565b60005b82811015615911578489015182556001820191506020850194506020810190506158ec565b8683101561592e578489015161592a601f891682615837565b8355505b6001600288020188555050505b505050505050565b600061594e8261433b565b91507fffffffffffffffffffffffffffffffffffffffffffffffffffffffffffffffff82036159805761597f6153a3565b5b600182019050919050565b7f4f776e61626c653a206e6577206f776e657220697320746865207a65726f206160008201527f6464726573730000000000000000000000000000000000000000000000000000602082015250565b60006159e7602683614585565b91506159f28261598b565b604082019050919050565b60006020820190508181036000830152615a16816159da565b9050919050565b7f4552433732313a207472616e736665722066726f6d20696e636f72726563742060008201527f6f776e6572000000000000000000000000000000000000000000000000000000602082015250565b6000615a79602583614585565b9150615a8482615a1d565b604082019050919050565b60006020820190508181036000830152615aa881615a6c565b9050919050565b7f4552433732313a207472616e7366657220746f20746865207a65726f2061646460008201527f7265737300000000000000000000000000000000000000000000000000000000602082015250565b6000615b0b602483614585565b9150615b1682615aaf565b604082019050919050565b60006020820190508181036000830152615b3a81615afe565b9050919050565b7f4f776e61626c653a2063616c6c6572206973206e6f7420746865206f776e6572600082015250565b6000615b77602083614585565b9150615b8282615b41565b602082019050919050565b60006020820190508181036000830152615ba681615b6a565b9050919050565b7f4552433732313a20617070726f766520746f2063616c6c657200000000000000600082015250565b6000615be3601983614585565b9150615bee82615bad565b602082019050919050565b60006020820190508181036000830152615c1281615bd6565b9050919050565b7f4552433732313a207472616e7366657220746f206e6f6e20455243373231526560008201527f63656976657220696d706c656d656e7465720000000000000000000000000000602082015250565b6000615c75603283614585565b9150615c8082615c19565b604082019050919050565b60006020820190508181036000830152615ca481615c68565b9050919050565b7f4552433732313a206d696e7420746f20746865207a65726f2061646472657373600082015250565b6000615ce1602083614585565b9150615cec82615cab565b602082019050919050565b60006020820190508181036000830152615d1081615cd4565b9050919050565b7f4552433732313a20746f6b656e20616c7265616479206d696e74656400000000600082015250565b6000615d4d601c83614585565b9150615d5882615d17565b602082019050919050565b60006020820190508181036000830152615d7c81615d40565b9050919050565b7f45524337323155524953746f726167653a2055524920736574206f66206e6f6e60008201527f6578697374656e7420746f6b656e000000000000000000000000000000000000602082015250565b6000615ddf602e83614585565b9150615dea82615d83565b604082019050919050565b60006020820190508181036000830152615e0e81615dd2565b9050919050565b600081519050919050565b600082825260208201905092915050565b6000615e3c82615e15565b615e468185615e20565b9350615e56818560208601614370565b615e5f8161439a565b840191505092915050565b6000608082019050615e7f600083018761465c565b615e8c602083018661465c565b615e996040830185614754565b8181036060830152615eab8184615e31565b905095945050505050565b600081519050615ec58161423f565b92915050565b600060208284031215615ee157615ee0614209565b5b6000615eef84828501615eb6565b91505092915050565b7f4e487b7100000000000000000000000000000000000000000000000000000000600052601260045260246000fdfea264697066735822122063dcd5861f4f9f158213a05dcbeaa900dd87609034fbe7f4310345bcaa815e8c64736f6c63430008130033",
  "linkReferences": {},
  "deployedLinkReferences": {}
}