{
  "_format": "hh-sol-artifact-1",
  "contractName": "Market",
  "sourceName": "contracts/NFTmarketplace.sol",
  "abi": [
    {
      "inputs": [],
      "stateMutability": "nonpayable",
      "type": "constructor"
    },
    {
      "anonymous": false,
      "inputs": [
        {
          "indexed": true,
          "internalType": "address",
          "name": "owner",
          "type": "address"
        },
        {
          "indexed": true,
          "internalType": "address",
          "name": "approved",
          "type": "address"
        },
        {
          "indexed": true,
          "internalType": "uint256",
          "name": "tokenId",
          "type": "uint256"
        }
      ],
      "name": "Approval",
      "type": "event"
    },
    {
      "anonymous": false,
      "inputs": [
        {
          "indexed": true,
          "internalType": "address",
          "name": "owner",
          "type": "address"
        },
        {
          "indexed": true,
          "internalType": "address",
          "name": "operator",
          "type": "address"
        },
        {
          "indexed": false,
          "internalType": "bool",
          "name": "approved",
          "type": "bool"
        }
      ],
      "name": "ApprovalForAll",
      "type": "event"
    },
    {
      "anonymous": false,
      "inputs": [
        {
          "indexed": false,
          "internalType": "uint256",
          "name": "_fromTokenId",
          "type": "uint256"
        },
        {
          "indexed": false,
          "internalType": "uint256",
          "name": "_toTokenId",
          "type": "uint256"
        }
      ],
      "name": "BatchMetadataUpdate",
      "type": "event"
    },
    {
      "anonymous": false,
      "inputs": [
        {
          "indexed": false,
          "internalType": "uint256",
          "name": "_tokenId",
          "type": "uint256"
        }
      ],
      "name": "MetadataUpdate",
      "type": "event"
    },
    {
      "anonymous": false,
      "inputs": [
        {
          "indexed": true,
          "internalType": "address",
          "name": "previousOwner",
          "type": "address"
        },
        {
          "indexed": true,
          "internalType": "address",
          "name": "newOwner",
          "type": "address"
        }
      ],
      "name": "OwnershipTransferred",
      "type": "event"
    },
    {
      "anonymous": false,
      "inputs": [
        {
          "indexed": true,
          "internalType": "address",
          "name": "from",
          "type": "address"
        },
        {
          "indexed": true,
          "internalType": "address",
          "name": "to",
          "type": "address"
        },
        {
          "indexed": true,
          "internalType": "uint256",
          "name": "tokenId",
          "type": "uint256"
        }
      ],
      "name": "Transfer",
      "type": "event"
    },
    {
      "inputs": [
        {
          "internalType": "address",
          "name": "to",
          "type": "address"
        },
        {
          "internalType": "uint256",
          "name": "tokenId",
          "type": "uint256"
        }
      ],
      "name": "approve",
      "outputs": [],
      "stateMutability": "nonpayable",
      "type": "function"
    },
    {
      "inputs": [
        {
          "internalType": "address",
          "name": "owner",
          "type": "address"
        }
      ],
      "name": "balanceOf",
      "outputs": [
        {
          "internalType": "uint256",
          "name": "",
          "type": "uint256"
        }
      ],
      "stateMutability": "view",
      "type": "function"
    },
    {
      "inputs": [],
      "name": "getAllListings",
      "outputs": [
        {
          "components": [
            {
              "internalType": "address",
              "name": "owner",
              "type": "address"
            },
            {
              "internalType": "uint256",
              "name": "tokenId",
              "type": "uint256"
            },
            {
              "internalType": "string",
              "name": "tokenURI",
              "type": "string"
            },
            {
              "internalType": "uint256",
              "name": "price",
              "type": "uint256"
            },
            {
              "internalType": "bool",
              "name": "isSold",
              "type": "bool"
            },
            {
              "internalType": "string",
              "name": "name",
              "type": "string"
            },
            {
              "internalType": "string",
              "name": "description",
              "type": "string"
            }
          ],
          "internalType": "struct Market.Token[]",
          "name": "",
          "type": "tuple[]"
        }
      ],
      "stateMutability": "view",
      "type": "function"
    },
    {
      "inputs": [
        {
          "internalType": "uint256",
          "name": "tokenId",
          "type": "uint256"
        }
      ],
      "name": "getApproved",
      "outputs": [
        {
          "internalType": "address",
          "name": "",
          "type": "address"
        }
      ],
      "stateMutability": "view",
      "type": "function"
    },
    {
      "inputs": [
        {
          "internalType": "address",
          "name": "owner",
          "type": "address"
        },
        {
          "internalType": "address",
          "name": "operator",
          "type": "address"
        }
      ],
      "name": "isApprovedForAll",
      "outputs": [
        {
          "internalType": "bool",
          "name": "",
          "type": "bool"
        }
      ],
      "stateMutability": "view",
      "type": "function"
    },
    {
      "inputs": [
        {
          "internalType": "uint256",
          "name": "index",
          "type": "uint256"
        }
      ],
      "name": "listNFT",
      "outputs": [],
      "stateMutability": "nonpayable",
      "type": "function"
    },
    {
      "inputs": [
        {
          "internalType": "uint256",
          "name": "",
          "type": "uint256"
        }
      ],
      "name": "listings",
      "outputs": [
        {
          "internalType": "address",
          "name": "owner",
          "type": "address"
        },
        {
          "internalType": "uint256",
          "name": "tokenId",
          "type": "uint256"
        },
        {
          "internalType": "string",
          "name": "tokenURI",
          "type": "string"
        },
        {
          "internalType": "uint256",
          "name": "price",
          "type": "uint256"
        },
        {
          "internalType": "bool",
          "name": "isSold",
          "type": "bool"
        },
        {
          "internalType": "string",
          "name": "name",
          "type": "string"
        },
        {
          "internalType": "string",
          "name": "description",
          "type": "string"
        }
      ],
      "stateMutability": "view",
      "type": "function"
    },
    {
      "inputs": [
        {
          "internalType": "string",
          "name": "tokenURI",
          "type": "string"
        },
        {
          "internalType": "uint256",
          "name": "price",
          "type": "uint256"
        },
        {
          "internalType": "string",
          "name": "name",
          "type": "string"
        },
        {
          "internalType": "string",
          "name": "description",
          "type": "string"
        }
      ],
      "name": "mintNFT",
      "outputs": [
        {
          "internalType": "uint256",
          "name": "",
          "type": "uint256"
        }
      ],
      "stateMutability": "payable",
      "type": "function"
    },
    {
      "inputs": [],
      "name": "name",
      "outputs": [
        {
          "internalType": "string",
          "name": "",
          "type": "string"
        }
      ],
      "stateMutability": "view",
      "type": "function"
    },
    {
      "inputs": [],
      "name": "owner",
      "outputs": [
        {
          "internalType": "address",
          "name": "",
          "type": "address"
        }
      ],
      "stateMutability": "view",
      "type": "function"
    },
    {
      "inputs": [
        {
          "internalType": "uint256",
          "name": "tokenId",
          "type": "uint256"
        }
      ],
      "name": "ownerOf",
      "outputs": [
        {
          "internalType": "address",
          "name": "",
          "type": "address"
        }
      ],
      "stateMutability": "view",
      "type": "function"
    },
    {
      "inputs": [
        {
          "internalType": "uint256",
          "name": "index",
          "type": "uint256"
        }
      ],
      "name": "purchaseNFT",
      "outputs": [],
      "stateMutability": "payable",
      "type": "function"
    },
    {
      "inputs": [],
      "name": "renounceOwnership",
      "outputs": [],
      "stateMutability": "nonpayable",
      "type": "function"
    },
    {
      "inputs": [
        {
          "internalType": "address",
          "name": "from",
          "type": "address"
        },
        {
          "internalType": "address",
          "name": "to",
          "type": "address"
        },
        {
          "internalType": "uint256",
          "name": "tokenId",
          "type": "uint256"
        }
      ],
      "name": "safeTransferFrom",
      "outputs": [],
      "stateMutability": "nonpayable",
      "type": "function"
    },
    {
      "inputs": [
        {
          "internalType": "address",
          "name": "from",
          "type": "address"
        },
        {
          "internalType": "address",
          "name": "to",
          "type": "address"
        },
        {
          "internalType": "uint256",
          "name": "tokenId",
          "type": "uint256"
        },
        {
          "internalType": "bytes",
          "name": "data",
          "type": "bytes"
        }
      ],
      "name": "safeTransferFrom",
      "outputs": [],
      "stateMutability": "nonpayable",
      "type": "function"
    },
    {
      "inputs": [
        {
          "internalType": "address",
          "name": "operator",
          "type": "address"
        },
        {
          "internalType": "bool",
          "name": "approved",
          "type": "bool"
        }
      ],
      "name": "setApprovalForAll",
      "outputs": [],
      "stateMutability": "nonpayable",
      "type": "function"
    },
    {
      "inputs": [
        {
          "internalType": "bytes4",
          "name": "interfaceId",
          "type": "bytes4"
        }
      ],
      "name": "supportsInterface",
      "outputs": [
        {
          "internalType": "bool",
          "name": "",
          "type": "bool"
        }
      ],
      "stateMutability": "view",
      "type": "function"
    },
    {
      "inputs": [],
      "name": "symbol",
      "outputs": [
        {
          "internalType": "string",
          "name": "",
          "type": "string"
        }
      ],
      "stateMutability": "view",
      "type": "function"
    },
    {
      "inputs": [
        {
          "internalType": "uint256",
          "name": "tokenId",
          "type": "uint256"
        }
      ],
      "name": "tokenURI",
      "outputs": [
        {
          "internalType": "string",
          "name": "",
          "type": "string"
        }
      ],
      "stateMutability": "view",
      "type": "function"
    },
    {
      "inputs": [
        {
          "internalType": "uint256",
          "name": "",
          "type": "uint256"
        }
      ],
      "name": "tokens",
      "outputs": [
        {
          "internalType": "address",
          "name": "owner",
          "type": "address"
        },
        {
          "internalType": "uint256",
          "name": "tokenId",
          "type": "uint256"
        },
        {
          "internalType": "string",
          "name": "tokenURI",
          "type": "string"
        },
        {
          "internalType": "uint256",
          "name": "price",
          "type": "uint256"
        },
        {
          "internalType": "bool",
          "name": "isSold",
          "type": "bool"
        },
        {
          "internalType": "string",
          "name": "name",
          "type": "string"
        },
        {
          "internalType": "string",
          "name": "description",
          "type": "string"
        }
      ],
      "stateMutability": "view",
      "type": "function"
    },
    {
      "inputs": [
        {
          "internalType": "address",
          "name": "from",
          "type": "address"
        },
        {
          "internalType": "address",
          "name": "to",
          "type": "address"
        },
        {
          "internalType": "uint256",
          "name": "tokenId",
          "type": "uint256"
        }
      ],
      "name": "transferFrom",
      "outputs": [],
      "stateMutability": "nonpayable",
      "type": "function"
    },
    {
      "inputs": [
        {
          "internalType": "address",
          "name": "newOwner",
          "type": "address"
        }
      ],
      "name": "transferOwnership",
      "outputs": [],
      "stateMutability": "nonpayable",
      "type": "function"
    },
    {
      "inputs": [],
      "name": "viewAllTokens",
      "outputs": [
        {
          "components": [
            {
              "internalType": "address",
              "name": "owner",
              "type": "address"
            },
            {
              "internalType": "uint256",
              "name": "tokenId",
              "type": "uint256"
            },
            {
              "internalType": "string",
              "name": "tokenURI",
              "type": "string"
            },
            {
              "internalType": "uint256",
              "name": "price",
              "type": "uint256"
            },
            {
              "internalType": "bool",
              "name": "isSold",
              "type": "bool"
            },
            {
              "internalType": "string",
              "name": "name",
              "type": "string"
            },
            {
              "internalType": "string",
              "name": "description",
              "type": "string"
            }
          ],
          "internalType": "struct Market.Token[]",
          "name": "",
          "type": "tuple[]"
        }
      ],
      "stateMutability": "view",
      "type": "function"
    }
  ],
  "bytecode": "0x60806040523480156200001157600080fd5b506040518060400160405280600b81526020017f4d61726b6574706c6163650000000000000000000000000000000000000000008152506040518060400160405280600381526020017f4d4b50000000000000000000000000000000000000000000000000000000000081525081600090816200008f919062000412565b508060019081620000a1919062000412565b505050620000c4620000b8620000ca60201b60201c565b620000d260201b60201c565b620004f9565b600033905090565b6000600760009054906101000a900473ffffffffffffffffffffffffffffffffffffffff16905081600760006101000a81548173ffffffffffffffffffffffffffffffffffffffff021916908373ffffffffffffffffffffffffffffffffffffffff1602179055508173ffffffffffffffffffffffffffffffffffffffff168173ffffffffffffffffffffffffffffffffffffffff167f8be0079c531659141344cd1fd0a4f28419497f9722a3daafe3b4186f6b6457e060405160405180910390a35050565b600081519050919050565b7f4e487b7100000000000000000000000000000000000000000000000000000000600052604160045260246000fd5b7f4e487b7100000000000000000000000000000000000000000000000000000000600052602260045260246000fd5b600060028204905060018216806200021a57607f821691505b60208210810362000230576200022f620001d2565b5b50919050565b60008190508160005260206000209050919050565b60006020601f8301049050919050565b600082821b905092915050565b6000600883026200029a7fffffffffffffffffffffffffffffffffffffffffffffffffffffffffffffffff826200025b565b620002a686836200025b565b95508019841693508086168417925050509392505050565b6000819050919050565b6000819050919050565b6000620002f3620002ed620002e784620002be565b620002c8565b620002be565b9050919050565b6000819050919050565b6200030f83620002d2565b620003276200031e82620002fa565b84845462000268565b825550505050565b600090565b6200033e6200032f565b6200034b81848462000304565b505050565b5b8181101562000373576200036760008262000334565b60018101905062000351565b5050565b601f821115620003c2576200038c8162000236565b62000397846200024b565b81016020851015620003a7578190505b620003bf620003b6856200024b565b83018262000350565b50505b505050565b600082821c905092915050565b6000620003e760001984600802620003c7565b1980831691505092915050565b6000620004028383620003d4565b9150826002028217905092915050565b6200041d8262000198565b67ffffffffffffffff811115620004395762000438620001a3565b5b62000445825462000201565b6200045282828562000377565b600060209050601f8311600181146200048a576000841562000475578287015190505b620004818582620003f4565b865550620004f1565b601f1984166200049a8662000236565b60005b82811015620004c4578489015182556001820191506020850194506020810190506200049d565b86831015620004e45784890151620004e0601f891682620003d4565b8355505b6001600288020188555050505b505050505050565b61453580620005096000396000f3fe6080604052600436106101405760003560e01c806370a08231116100b6578063b88d4fde1161006f578063b88d4fde1461045a578063c87b56dd14610483578063d076f13f146104c0578063de74e57b146104e9578063e985e9c51461052c578063f2fde38b1461056957610140565b806370a082311461035c578063715018a6146103995780638da5cb5b146103b057806395d89b41146103db578063a22cb46514610406578063ae73ccec1461042f57610140565b806313de98261161010857806313de98261461023e578063150bde031461026e57806323b872dd1461028a57806342842e0e146102b35780634f64b2be146102dc5780636352211e1461031f57610140565b806301ffc9a71461014557806302cfba811461018257806306fdde03146101ad578063081812fc146101d8578063095ea7b314610215575b600080fd5b34801561015157600080fd5b5061016c60048036038101906101679190612cd8565b610592565b6040516101799190612d20565b60405180910390f35b34801561018e57600080fd5b506101976105f3565b6040516101a49190612fa0565b60405180910390f35b3480156101b957600080fd5b506101c261088d565b6040516101cf919061300c565b60405180910390f35b3480156101e457600080fd5b506101ff60048036038101906101fa919061305a565b61091f565b60405161020c9190613096565b60405180910390f35b34801561022157600080fd5b5061023c600480360381019061023791906130dd565b610965565b005b61025860048036038101906102539190613252565b610a7c565b604051610265919061331c565b60405180910390f35b6102886004803603810190610283919061305a565b610c45565b005b34801561029657600080fd5b506102b160048036038101906102ac9190613337565b610e92565b005b3480156102bf57600080fd5b506102da60048036038101906102d59190613337565b610ef2565b005b3480156102e857600080fd5b5061030360048036038101906102fe919061305a565b610f12565b604051610316979695949392919061338a565b60405180910390f35b34801561032b57600080fd5b506103466004803603810190610341919061305a565b611129565b6040516103539190613096565b60405180910390f35b34801561036857600080fd5b50610383600480360381019061037e919061340e565b6111af565b604051610390919061331c565b60405180910390f35b3480156103a557600080fd5b506103ae611266565b005b3480156103bc57600080fd5b506103c561127a565b6040516103d29190613096565b60405180910390f35b3480156103e757600080fd5b506103f06112a4565b6040516103fd919061300c565b60405180910390f35b34801561041257600080fd5b5061042d60048036038101906104289190613467565b611336565b005b34801561043b57600080fd5b5061044461134c565b6040516104519190612fa0565b60405180910390f35b34801561046657600080fd5b50610481600480360381019061047c9190613548565b6115e6565b005b34801561048f57600080fd5b506104aa60048036038101906104a5919061305a565b611648565b6040516104b7919061300c565b60405180910390f35b3480156104cc57600080fd5b506104e760048036038101906104e2919061305a565b61175a565b005b3480156104f557600080fd5b50610510600480360381019061050b919061305a565b611893565b604051610523979695949392919061338a565b60405180910390f35b34801561053857600080fd5b50610553600480360381019061054e91906135cb565b611aaa565b6040516105609190612d20565b60405180910390f35b34801561057557600080fd5b50610590600480360381019061058b919061340e565b611b3e565b005b6000634906490660e01b7bffffffffffffffffffffffffffffffffffffffffffffffffffffffff1916827bffffffffffffffffffffffffffffffffffffffffffffffffffffffff191614806105ec57506105eb82611bc1565b5b9050919050565b60606009805480602002602001604051908101604052809291908181526020016000905b8282101561088457838290600052602060002090600702016040518060e00160405290816000820160009054906101000a900473ffffffffffffffffffffffffffffffffffffffff1673ffffffffffffffffffffffffffffffffffffffff1673ffffffffffffffffffffffffffffffffffffffff168152602001600182015481526020016002820180546106aa9061363a565b80601f01602080910402602001604051908101604052809291908181526020018280546106d69061363a565b80156107235780601f106106f857610100808354040283529160200191610723565b820191906000526020600020905b81548152906001019060200180831161070657829003601f168201915b50505050508152602001600382015481526020016004820160009054906101000a900460ff161515151581526020016005820180546107619061363a565b80601f016020809104026020016040519081016040528092919081815260200182805461078d9061363a565b80156107da5780601f106107af576101008083540402835291602001916107da565b820191906000526020600020905b8154815290600101906020018083116107bd57829003601f168201915b505050505081526020016006820180546107f39061363a565b80601f016020809104026020016040519081016040528092919081815260200182805461081f9061363a565b801561086c5780601f106108415761010080835404028352916020019161086c565b820191906000526020600020905b81548152906001019060200180831161084f57829003601f168201915b50505050508152505081526020019060010190610617565b50505050905090565b60606000805461089c9061363a565b80601f01602080910402602001604051908101604052809291908181526020018280546108c89061363a565b80156109155780601f106108ea57610100808354040283529160200191610915565b820191906000526020600020905b8154815290600101906020018083116108f857829003601f168201915b5050505050905090565b600061092a82611ca3565b6004600083815260200190815260200160002060009054906101000a900473ffffffffffffffffffffffffffffffffffffffff169050919050565b600061097082611129565b90508073ffffffffffffffffffffffffffffffffffffffff168373ffffffffffffffffffffffffffffffffffffffff16036109e0576040517f08c379a00000000000000000000000000000000000000000000000000000000081526004016109d7906136dd565b60405180910390fd5b8073ffffffffffffffffffffffffffffffffffffffff166109ff611cee565b73ffffffffffffffffffffffffffffffffffffffff161480610a2e5750610a2d81610a28611cee565b611aaa565b5b610a6d576040517f08c379a0000000000000000000000000000000000000000000000000000000008152600401610a649061376f565b60405180910390fd5b610a778383611cf6565b505050565b6000808411610ac0576040517f08c379a0000000000000000000000000000000000000000000000000000000008152600401610ab790613801565b60405180910390fd5b6000610acc6008611daf565b9050610ad83382611dbd565b610ae28187611fda565b60006040518060e001604052803373ffffffffffffffffffffffffffffffffffffffff168152602001838152602001888152602001878152602001600015158152602001868152602001858152509050600981908060018154018082558091505060019003906000526020600020906007020160009091909190915060008201518160000160006101000a81548173ffffffffffffffffffffffffffffffffffffffff021916908373ffffffffffffffffffffffffffffffffffffffff160217905550602082015181600101556040820151816002019081610bc491906139cd565b506060820151816003015560808201518160040160006101000a81548160ff02191690831515021790555060a0820151816005019081610c0491906139cd565b5060c0820151816006019081610c1a91906139cd565b505050610c27600861207e565b6001600980549050610c399190613ace565b92505050949350505050565b6000811080610c5957506009805490508110155b610c98576040517f08c379a0000000000000000000000000000000000000000000000000000000008152600401610c8f90613b4e565b60405180910390fd5b60098181548110610cac57610cab613b6e565b5b9060005260206000209060070201600301543414610cff576040517f08c379a0000000000000000000000000000000000000000000000000000000008152600401610cf690613be9565b60405180910390fd5b60098181548110610d1357610d12613b6e565b5b906000526020600020906007020160040160009054906101000a900460ff1615610d72576040517f08c379a0000000000000000000000000000000000000000000000000000000008152600401610d6990613c55565b60405180910390fd5b600060098281548110610d8857610d87613b6e565b5b906000526020600020906007020160000160009054906101000a900473ffffffffffffffffffffffffffffffffffffffff1690503360098381548110610dd157610dd0613b6e565b5b906000526020600020906007020160000160006101000a81548173ffffffffffffffffffffffffffffffffffffffff021916908373ffffffffffffffffffffffffffffffffffffffff160217905550610e50813360098581548110610e3957610e38613b6e565b5b906000526020600020906007020160010154612094565b600160098381548110610e6657610e65613b6e565b5b906000526020600020906007020160040160006101000a81548160ff0219169083151502179055505050565b610ea3610e9d611cee565b8261238d565b610ee2576040517f08c379a0000000000000000000000000000000000000000000000000000000008152600401610ed990613ce7565b60405180910390fd5b610eed838383612094565b505050565b610f0d838383604051806020016040528060008152506115e6565b505050565b60098181548110610f2257600080fd5b90600052602060002090600702016000915090508060000160009054906101000a900473ffffffffffffffffffffffffffffffffffffffff1690806001015490806002018054610f719061363a565b80601f0160208091040260200160405190810160405280929190818152602001828054610f9d9061363a565b8015610fea5780601f10610fbf57610100808354040283529160200191610fea565b820191906000526020600020905b815481529060010190602001808311610fcd57829003601f168201915b5050505050908060030154908060040160009054906101000a900460ff16908060050180546110189061363a565b80601f01602080910402602001604051908101604052809291908181526020018280546110449061363a565b80156110915780601f1061106657610100808354040283529160200191611091565b820191906000526020600020905b81548152906001019060200180831161107457829003601f168201915b5050505050908060060180546110a69061363a565b80601f01602080910402602001604051908101604052809291908181526020018280546110d29061363a565b801561111f5780601f106110f45761010080835404028352916020019161111f565b820191906000526020600020905b81548152906001019060200180831161110257829003601f168201915b5050505050905087565b60008061113583612422565b9050600073ffffffffffffffffffffffffffffffffffffffff168173ffffffffffffffffffffffffffffffffffffffff16036111a6576040517f08c379a000000000000000000000000000000000000000000000000000000000815260040161119d90613d53565b60405180910390fd5b80915050919050565b60008073ffffffffffffffffffffffffffffffffffffffff168273ffffffffffffffffffffffffffffffffffffffff160361121f576040517f08c379a000000000000000000000000000000000000000000000000000000000815260040161121690613de5565b60405180910390fd5b600360008373ffffffffffffffffffffffffffffffffffffffff1673ffffffffffffffffffffffffffffffffffffffff168152602001908152602001600020549050919050565b61126e61245f565b61127860006124dd565b565b6000600760009054906101000a900473ffffffffffffffffffffffffffffffffffffffff16905090565b6060600180546112b39061363a565b80601f01602080910402602001604051908101604052809291908181526020018280546112df9061363a565b801561132c5780601f106113015761010080835404028352916020019161132c565b820191906000526020600020905b81548152906001019060200180831161130f57829003601f168201915b5050505050905090565b611348611341611cee565b83836125a3565b5050565b6060600a805480602002602001604051908101604052809291908181526020016000905b828210156115dd57838290600052602060002090600702016040518060e00160405290816000820160009054906101000a900473ffffffffffffffffffffffffffffffffffffffff1673ffffffffffffffffffffffffffffffffffffffff1673ffffffffffffffffffffffffffffffffffffffff168152602001600182015481526020016002820180546114039061363a565b80601f016020809104026020016040519081016040528092919081815260200182805461142f9061363a565b801561147c5780601f106114515761010080835404028352916020019161147c565b820191906000526020600020905b81548152906001019060200180831161145f57829003601f168201915b50505050508152602001600382015481526020016004820160009054906101000a900460ff161515151581526020016005820180546114ba9061363a565b80601f01602080910402602001604051908101604052809291908181526020018280546114e69061363a565b80156115335780601f1061150857610100808354040283529160200191611533565b820191906000526020600020905b81548152906001019060200180831161151657829003601f168201915b5050505050815260200160068201805461154c9061363a565b80601f01602080910402602001604051908101604052809291908181526020018280546115789061363a565b80156115c55780601f1061159a576101008083540402835291602001916115c5565b820191906000526020600020905b8154815290600101906020018083116115a857829003601f168201915b50505050508152505081526020019060010190611370565b50505050905090565b6115f76115f1611cee565b8361238d565b611636576040517f08c379a000000000000000000000000000000000000000000000000000000000815260040161162d90613ce7565b60405180910390fd5b6116428484848461270f565b50505050565b606061165382611ca3565b60006006600084815260200190815260200160002080546116739061363a565b80601f016020809104026020016040519081016040528092919081815260200182805461169f9061363a565b80156116ec5780601f106116c1576101008083540402835291602001916116ec565b820191906000526020600020905b8154815290600101906020018083116116cf57829003601f168201915b5050505050905060006116fd61276b565b90506000815103611712578192505050611755565b60008251111561174757808260405160200161172f929190613e41565b60405160208183030381529060405292505050611755565b61175084612782565b925050505b919050565b600a600982815481106117705761176f613b6e565b5b906000526020600020906007020190806001815401808255809150506001900390600052602060002090600702016000909190919091506000820160009054906101000a900473ffffffffffffffffffffffffffffffffffffffff168160000160006101000a81548173ffffffffffffffffffffffffffffffffffffffff021916908373ffffffffffffffffffffffffffffffffffffffff160217905550600182015481600101556002820181600201908161182c9190613e7b565b50600382015481600301556004820160009054906101000a900460ff168160040160006101000a81548160ff021916908315150217905550600582018160050190816118789190613e7b565b506006820181600601908161188d9190613e7b565b50505050565b600a81815481106118a357600080fd5b90600052602060002090600702016000915090508060000160009054906101000a900473ffffffffffffffffffffffffffffffffffffffff16908060010154908060020180546118f29061363a565b80601f016020809104026020016040519081016040528092919081815260200182805461191e9061363a565b801561196b5780601f106119405761010080835404028352916020019161196b565b820191906000526020600020905b81548152906001019060200180831161194e57829003601f168201915b5050505050908060030154908060040160009054906101000a900460ff16908060050180546119999061363a565b80601f01602080910402602001604051908101604052809291908181526020018280546119c59061363a565b8015611a125780601f106119e757610100808354040283529160200191611a12565b820191906000526020600020905b8154815290600101906020018083116119f557829003601f168201915b505050505090806006018054611a279061363a565b80601f0160208091040260200160405190810160405280929190818152602001828054611a539061363a565b8015611aa05780601f10611a7557610100808354040283529160200191611aa0565b820191906000526020600020905b815481529060010190602001808311611a8357829003601f168201915b5050505050905087565b6000600560008473ffffffffffffffffffffffffffffffffffffffff1673ffffffffffffffffffffffffffffffffffffffff16815260200190815260200160002060008373ffffffffffffffffffffffffffffffffffffffff1673ffffffffffffffffffffffffffffffffffffffff16815260200190815260200160002060009054906101000a900460ff16905092915050565b611b4661245f565b600073ffffffffffffffffffffffffffffffffffffffff168173ffffffffffffffffffffffffffffffffffffffff1603611bb5576040517f08c379a0000000000000000000000000000000000000000000000000000000008152600401611bac90613fd5565b60405180910390fd5b611bbe816124dd565b50565b60007f80ac58cd000000000000000000000000000000000000000000000000000000007bffffffffffffffffffffffffffffffffffffffffffffffffffffffff1916827bffffffffffffffffffffffffffffffffffffffffffffffffffffffff19161480611c8c57507f5b5e139f000000000000000000000000000000000000000000000000000000007bffffffffffffffffffffffffffffffffffffffffffffffffffffffff1916827bffffffffffffffffffffffffffffffffffffffffffffffffffffffff1916145b80611c9c5750611c9b826127ea565b5b9050919050565b611cac81612854565b611ceb576040517f08c379a0000000000000000000000000000000000000000000000000000000008152600401611ce290613d53565b60405180910390fd5b50565b600033905090565b816004600083815260200190815260200160002060006101000a81548173ffffffffffffffffffffffffffffffffffffffff021916908373ffffffffffffffffffffffffffffffffffffffff160217905550808273ffffffffffffffffffffffffffffffffffffffff16611d6983611129565b73ffffffffffffffffffffffffffffffffffffffff167f8c5be1e5ebec7d5bd14f71427d1e84f3dd0314c0f7b2291e5b200ac8c7c3b92560405160405180910390a45050565b600081600001549050919050565b600073ffffffffffffffffffffffffffffffffffffffff168273ffffffffffffffffffffffffffffffffffffffff1603611e2c576040517f08c379a0000000000000000000000000000000000000000000000000000000008152600401611e2390614041565b60405180910390fd5b611e3581612854565b15611e75576040517f08c379a0000000000000000000000000000000000000000000000000000000008152600401611e6c906140ad565b60405180910390fd5b611e83600083836001612895565b611e8c81612854565b15611ecc576040517f08c379a0000000000000000000000000000000000000000000000000000000008152600401611ec3906140ad565b60405180910390fd5b6001600360008473ffffffffffffffffffffffffffffffffffffffff1673ffffffffffffffffffffffffffffffffffffffff16815260200190815260200160002060008282540192505081905550816002600083815260200190815260200160002060006101000a81548173ffffffffffffffffffffffffffffffffffffffff021916908373ffffffffffffffffffffffffffffffffffffffff160217905550808273ffffffffffffffffffffffffffffffffffffffff16600073ffffffffffffffffffffffffffffffffffffffff167fddf252ad1be2c89b69c2b068fc378daa952ba7f163c4a11628f55a4df523b3ef60405160405180910390a4611fd660008383600161289b565b5050565b611fe382612854565b612022576040517f08c379a00000000000000000000000000000000000000000000000000000000081526004016120199061413f565b60405180910390fd5b8060066000848152602001908152602001600020908161204291906139cd565b507ff8e1a15aba9398e019f0b49df1a4fde98ee17ae345cb5f6b5e2c27f5033e8ce782604051612072919061331c565b60405180910390a15050565b6001816000016000828254019250508190555050565b8273ffffffffffffffffffffffffffffffffffffffff166120b482611129565b73ffffffffffffffffffffffffffffffffffffffff161461210a576040517f08c379a0000000000000000000000000000000000000000000000000000000008152600401612101906141d1565b60405180910390fd5b600073ffffffffffffffffffffffffffffffffffffffff168273ffffffffffffffffffffffffffffffffffffffff1603612179576040517f08c379a000000000000000000000000000000000000000000000000000000000815260040161217090614263565b60405180910390fd5b6121868383836001612895565b8273ffffffffffffffffffffffffffffffffffffffff166121a682611129565b73ffffffffffffffffffffffffffffffffffffffff16146121fc576040517f08c379a00000000000000000000000000000000000000000000000000000000081526004016121f3906141d1565b60405180910390fd5b6004600082815260200190815260200160002060006101000a81549073ffffffffffffffffffffffffffffffffffffffff02191690556001600360008573ffffffffffffffffffffffffffffffffffffffff1673ffffffffffffffffffffffffffffffffffffffff168152602001908152602001600020600082825403925050819055506001600360008473ffffffffffffffffffffffffffffffffffffffff1673ffffffffffffffffffffffffffffffffffffffff16815260200190815260200160002060008282540192505081905550816002600083815260200190815260200160002060006101000a81548173ffffffffffffffffffffffffffffffffffffffff021916908373ffffffffffffffffffffffffffffffffffffffff160217905550808273ffffffffffffffffffffffffffffffffffffffff168473ffffffffffffffffffffffffffffffffffffffff167fddf252ad1be2c89b69c2b068fc378daa952ba7f163c4a11628f55a4df523b3ef60405160405180910390a4612388838383600161289b565b505050565b60008061239983611129565b90508073ffffffffffffffffffffffffffffffffffffffff168473ffffffffffffffffffffffffffffffffffffffff1614806123db57506123da8185611aaa565b5b8061241957508373ffffffffffffffffffffffffffffffffffffffff166124018461091f565b73ffffffffffffffffffffffffffffffffffffffff16145b91505092915050565b60006002600083815260200190815260200160002060009054906101000a900473ffffffffffffffffffffffffffffffffffffffff169050919050565b612467611cee565b73ffffffffffffffffffffffffffffffffffffffff1661248561127a565b73ffffffffffffffffffffffffffffffffffffffff16146124db576040517f08c379a00000000000000000000000000000000000000000000000000000000081526004016124d2906142cf565b60405180910390fd5b565b6000600760009054906101000a900473ffffffffffffffffffffffffffffffffffffffff16905081600760006101000a81548173ffffffffffffffffffffffffffffffffffffffff021916908373ffffffffffffffffffffffffffffffffffffffff1602179055508173ffffffffffffffffffffffffffffffffffffffff168173ffffffffffffffffffffffffffffffffffffffff167f8be0079c531659141344cd1fd0a4f28419497f9722a3daafe3b4186f6b6457e060405160405180910390a35050565b8173ffffffffffffffffffffffffffffffffffffffff168373ffffffffffffffffffffffffffffffffffffffff1603612611576040517f08c379a00000000000000000000000000000000000000000000000000000000081526004016126089061433b565b60405180910390fd5b80600560008573ffffffffffffffffffffffffffffffffffffffff1673ffffffffffffffffffffffffffffffffffffffff16815260200190815260200160002060008473ffffffffffffffffffffffffffffffffffffffff1673ffffffffffffffffffffffffffffffffffffffff16815260200190815260200160002060006101000a81548160ff0219169083151502179055508173ffffffffffffffffffffffffffffffffffffffff168373ffffffffffffffffffffffffffffffffffffffff167f17307eab39ab6107e8899845ad3d59bd9653f200f220920489ca2b5937696c31836040516127029190612d20565b60405180910390a3505050565b61271a848484612094565b612726848484846128a1565b612765576040517f08c379a000000000000000000000000000000000000000000000000000000000815260040161275c906143cd565b60405180910390fd5b50505050565b606060405180602001604052806000815250905090565b606061278d82611ca3565b600061279761276b565b905060008151116127b757604051806020016040528060008152506127e2565b806127c184612a28565b6040516020016127d2929190613e41565b6040516020818303038152906040525b915050919050565b60007f01ffc9a7000000000000000000000000000000000000000000000000000000007bffffffffffffffffffffffffffffffffffffffffffffffffffffffff1916827bffffffffffffffffffffffffffffffffffffffffffffffffffffffff1916149050919050565b60008073ffffffffffffffffffffffffffffffffffffffff1661287683612422565b73ffffffffffffffffffffffffffffffffffffffff1614159050919050565b50505050565b50505050565b60006128c28473ffffffffffffffffffffffffffffffffffffffff16612af6565b15612a1b578373ffffffffffffffffffffffffffffffffffffffff1663150b7a026128eb611cee565b8786866040518563ffffffff1660e01b815260040161290d9493929190614442565b6020604051808303816000875af192505050801561294957506040513d601f19601f8201168201806040525081019061294691906144a3565b60015b6129cb573d8060008114612979576040519150601f19603f3d011682016040523d82523d6000602084013e61297e565b606091505b5060008151036129c3576040517f08c379a00000000000000000000000000000000000000000000000000000000081526004016129ba906143cd565b60405180910390fd5b805181602001fd5b63150b7a0260e01b7bffffffffffffffffffffffffffffffffffffffffffffffffffffffff1916817bffffffffffffffffffffffffffffffffffffffffffffffffffffffff191614915050612a20565b600190505b949350505050565b606060006001612a3784612b19565b01905060008167ffffffffffffffff811115612a5657612a55613127565b5b6040519080825280601f01601f191660200182016040528015612a885781602001600182028036833780820191505090505b509050600082602001820190505b600115612aeb578080600190039150507f3031323334353637383961626364656600000000000000000000000000000000600a86061a8153600a8581612adf57612ade6144d0565b5b04945060008503612a96575b819350505050919050565b6000808273ffffffffffffffffffffffffffffffffffffffff163b119050919050565b600080600090507a184f03e93ff9f4daa797ed6e38ed64bf6a1f0100000000000000008310612b77577a184f03e93ff9f4daa797ed6e38ed64bf6a1f0100000000000000008381612b6d57612b6c6144d0565b5b0492506040810190505b6d04ee2d6d415b85acef81000000008310612bb4576d04ee2d6d415b85acef81000000008381612baa57612ba96144d0565b5b0492506020810190505b662386f26fc100008310612be357662386f26fc100008381612bd957612bd86144d0565b5b0492506010810190505b6305f5e1008310612c0c576305f5e1008381612c0257612c016144d0565b5b0492506008810190505b6127108310612c31576127108381612c2757612c266144d0565b5b0492506004810190505b60648310612c545760648381612c4a57612c496144d0565b5b0492506002810190505b600a8310612c63576001810190505b80915050919050565b6000604051905090565b600080fd5b600080fd5b60007fffffffff0000000000000000000000000000000000000000000000000000000082169050919050565b612cb581612c80565b8114612cc057600080fd5b50565b600081359050612cd281612cac565b92915050565b600060208284031215612cee57612ced612c76565b5b6000612cfc84828501612cc3565b91505092915050565b60008115159050919050565b612d1a81612d05565b82525050565b6000602082019050612d356000830184612d11565b92915050565b600081519050919050565b600082825260208201905092915050565b6000819050602082019050919050565b600073ffffffffffffffffffffffffffffffffffffffff82169050919050565b6000612d9282612d67565b9050919050565b612da281612d87565b82525050565b6000819050919050565b612dbb81612da8565b82525050565b600081519050919050565b600082825260208201905092915050565b60005b83811015612dfb578082015181840152602081019050612de0565b60008484015250505050565b6000601f19601f8301169050919050565b6000612e2382612dc1565b612e2d8185612dcc565b9350612e3d818560208601612ddd565b612e4681612e07565b840191505092915050565b612e5a81612d05565b82525050565b600060e083016000830151612e786000860182612d99565b506020830151612e8b6020860182612db2565b5060408301518482036040860152612ea38282612e18565b9150506060830151612eb86060860182612db2565b506080830151612ecb6080860182612e51565b5060a083015184820360a0860152612ee38282612e18565b91505060c083015184820360c0860152612efd8282612e18565b9150508091505092915050565b6000612f168383612e60565b905092915050565b6000602082019050919050565b6000612f3682612d3b565b612f408185612d46565b935083602082028501612f5285612d57565b8060005b85811015612f8e5784840389528151612f6f8582612f0a565b9450612f7a83612f1e565b925060208a01995050600181019050612f56565b50829750879550505050505092915050565b60006020820190508181036000830152612fba8184612f2b565b905092915050565b600082825260208201905092915050565b6000612fde82612dc1565b612fe88185612fc2565b9350612ff8818560208601612ddd565b61300181612e07565b840191505092915050565b600060208201905081810360008301526130268184612fd3565b905092915050565b61303781612da8565b811461304257600080fd5b50565b6000813590506130548161302e565b92915050565b6000602082840312156130705761306f612c76565b5b600061307e84828501613045565b91505092915050565b61309081612d87565b82525050565b60006020820190506130ab6000830184613087565b92915050565b6130ba81612d87565b81146130c557600080fd5b50565b6000813590506130d7816130b1565b92915050565b600080604083850312156130f4576130f3612c76565b5b6000613102858286016130c8565b925050602061311385828601613045565b9150509250929050565b600080fd5b600080fd5b7f4e487b7100000000000000000000000000000000000000000000000000000000600052604160045260246000fd5b61315f82612e07565b810181811067ffffffffffffffff8211171561317e5761317d613127565b5b80604052505050565b6000613191612c6c565b905061319d8282613156565b919050565b600067ffffffffffffffff8211156131bd576131bc613127565b5b6131c682612e07565b9050602081019050919050565b82818337600083830152505050565b60006131f56131f0846131a2565b613187565b90508281526020810184848401111561321157613210613122565b5b61321c8482856131d3565b509392505050565b600082601f8301126132395761323861311d565b5b81356132498482602086016131e2565b91505092915050565b6000806000806080858703121561326c5761326b612c76565b5b600085013567ffffffffffffffff81111561328a57613289612c7b565b5b61329687828801613224565b94505060206132a787828801613045565b935050604085013567ffffffffffffffff8111156132c8576132c7612c7b565b5b6132d487828801613224565b925050606085013567ffffffffffffffff8111156132f5576132f4612c7b565b5b61330187828801613224565b91505092959194509250565b61331681612da8565b82525050565b6000602082019050613331600083018461330d565b92915050565b6000806000606084860312156133505761334f612c76565b5b600061335e868287016130c8565b935050602061336f868287016130c8565b925050604061338086828701613045565b9150509250925092565b600060e08201905061339f600083018a613087565b6133ac602083018961330d565b81810360408301526133be8188612fd3565b90506133cd606083018761330d565b6133da6080830186612d11565b81810360a08301526133ec8185612fd3565b905081810360c08301526134008184612fd3565b905098975050505050505050565b60006020828403121561342457613423612c76565b5b6000613432848285016130c8565b91505092915050565b61344481612d05565b811461344f57600080fd5b50565b6000813590506134618161343b565b92915050565b6000806040838503121561347e5761347d612c76565b5b600061348c858286016130c8565b925050602061349d85828601613452565b9150509250929050565b600067ffffffffffffffff8211156134c2576134c1613127565b5b6134cb82612e07565b9050602081019050919050565b60006134eb6134e6846134a7565b613187565b90508281526020810184848401111561350757613506613122565b5b6135128482856131d3565b509392505050565b600082601f83011261352f5761352e61311d565b5b813561353f8482602086016134d8565b91505092915050565b6000806000806080858703121561356257613561612c76565b5b6000613570878288016130c8565b9450506020613581878288016130c8565b935050604061359287828801613045565b925050606085013567ffffffffffffffff8111156135b3576135b2612c7b565b5b6135bf8782880161351a565b91505092959194509250565b600080604083850312156135e2576135e1612c76565b5b60006135f0858286016130c8565b9250506020613601858286016130c8565b9150509250929050565b7f4e487b7100000000000000000000000000000000000000000000000000000000600052602260045260246000fd5b6000600282049050600182168061365257607f821691505b6020821081036136655761366461360b565b5b50919050565b7f4552433732313a20617070726f76616c20746f2063757272656e74206f776e6560008201527f7200000000000000000000000000000000000000000000000000000000000000602082015250565b60006136c7602183612fc2565b91506136d28261366b565b604082019050919050565b600060208201905081810360008301526136f6816136ba565b9050919050565b7f4552433732313a20617070726f76652063616c6c6572206973206e6f7420746f60008201527f6b656e206f776e6572206f7220617070726f76656420666f7220616c6c000000602082015250565b6000613759603d83612fc2565b9150613764826136fd565b604082019050919050565b600060208201905081810360008301526137888161374c565b9050919050565b7f496e697469616c2070726963652073686f756c6420626520677265617465722060008201527f7468616e20300000000000000000000000000000000000000000000000000000602082015250565b60006137eb602683612fc2565b91506137f68261378f565b604082019050919050565b6000602082019050818103600083015261381a816137de565b9050919050565b60008190508160005260206000209050919050565b60006020601f8301049050919050565b600082821b905092915050565b6000600883026138837fffffffffffffffffffffffffffffffffffffffffffffffffffffffffffffffff82613846565b61388d8683613846565b95508019841693508086168417925050509392505050565b6000819050919050565b60006138ca6138c56138c084612da8565b6138a5565b612da8565b9050919050565b6000819050919050565b6138e4836138af565b6138f86138f0826138d1565b848454613853565b825550505050565b600090565b61390d613900565b6139188184846138db565b505050565b5b8181101561393c57613931600082613905565b60018101905061391e565b5050565b601f8211156139815761395281613821565b61395b84613836565b8101602085101561396a578190505b61397e61397685613836565b83018261391d565b50505b505050565b600082821c905092915050565b60006139a460001984600802613986565b1980831691505092915050565b60006139bd8383613993565b9150826002028217905092915050565b6139d682612dc1565b67ffffffffffffffff8111156139ef576139ee613127565b5b6139f9825461363a565b613a04828285613940565b600060209050601f831160018114613a375760008415613a25578287015190505b613a2f85826139b1565b865550613a97565b601f198416613a4586613821565b60005b82811015613a6d57848901518255600182019150602085019450602081019050613a48565b86831015613a8a5784890151613a86601f891682613993565b8355505b6001600288020188555050505b505050505050565b7f4e487b7100000000000000000000000000000000000000000000000000000000600052601160045260246000fd5b6000613ad982612da8565b9150613ae483612da8565b9250828203905081811115613afc57613afb613a9f565b5b92915050565b7f696e76616c696420696e64657800000000000000000000000000000000000000600082015250565b6000613b38600d83612fc2565b9150613b4382613b02565b602082019050919050565b60006020820190508181036000830152613b6781613b2b565b9050919050565b7f4e487b7100000000000000000000000000000000000000000000000000000000600052603260045260246000fd5b7f496e73756666696369656e7420616d6f756e7400000000000000000000000000600082015250565b6000613bd3601383612fc2565b9150613bde82613b9d565b602082019050919050565b60006020820190508181036000830152613c0281613bc6565b9050919050565b7f546f6b656e20616c726561647920736f6c640000000000000000000000000000600082015250565b6000613c3f601283612fc2565b9150613c4a82613c09565b602082019050919050565b60006020820190508181036000830152613c6e81613c32565b9050919050565b7f4552433732313a2063616c6c6572206973206e6f7420746f6b656e206f776e6560008201527f72206f7220617070726f76656400000000000000000000000000000000000000602082015250565b6000613cd1602d83612fc2565b9150613cdc82613c75565b604082019050919050565b60006020820190508181036000830152613d0081613cc4565b9050919050565b7f4552433732313a20696e76616c696420746f6b656e2049440000000000000000600082015250565b6000613d3d601883612fc2565b9150613d4882613d07565b602082019050919050565b60006020820190508181036000830152613d6c81613d30565b9050919050565b7f4552433732313a2061646472657373207a65726f206973206e6f74206120766160008201527f6c6964206f776e65720000000000000000000000000000000000000000000000602082015250565b6000613dcf602983612fc2565b9150613dda82613d73565b604082019050919050565b60006020820190508181036000830152613dfe81613dc2565b9050919050565b600081905092915050565b6000613e1b82612dc1565b613e258185613e05565b9350613e35818560208601612ddd565b80840191505092915050565b6000613e4d8285613e10565b9150613e598284613e10565b91508190509392505050565b600081549050613e748161363a565b9050919050565b818103613e89575050613f61565b613e9282613e65565b67ffffffffffffffff811115613eab57613eaa613127565b5b613eb5825461363a565b613ec0828285613940565b6000601f831160018114613eef5760008415613edd578287015490505b613ee785826139b1565b865550613f5a565b601f198416613efd87613821565b9650613f0886613821565b60005b82811015613f3057848901548255600182019150600185019450602081019050613f0b565b86831015613f4d5784890154613f49601f891682613993565b8355505b6001600288020188555050505b5050505050505b565b7f4f776e61626c653a206e6577206f776e657220697320746865207a65726f206160008201527f6464726573730000000000000000000000000000000000000000000000000000602082015250565b6000613fbf602683612fc2565b9150613fca82613f63565b604082019050919050565b60006020820190508181036000830152613fee81613fb2565b9050919050565b7f4552433732313a206d696e7420746f20746865207a65726f2061646472657373600082015250565b600061402b602083612fc2565b915061403682613ff5565b602082019050919050565b6000602082019050818103600083015261405a8161401e565b9050919050565b7f4552433732313a20746f6b656e20616c7265616479206d696e74656400000000600082015250565b6000614097601c83612fc2565b91506140a282614061565b602082019050919050565b600060208201905081810360008301526140c68161408a565b9050919050565b7f45524337323155524953746f726167653a2055524920736574206f66206e6f6e60008201527f6578697374656e7420746f6b656e000000000000000000000000000000000000602082015250565b6000614129602e83612fc2565b9150614134826140cd565b604082019050919050565b600060208201905081810360008301526141588161411c565b9050919050565b7f4552433732313a207472616e736665722066726f6d20696e636f72726563742060008201527f6f776e6572000000000000000000000000000000000000000000000000000000602082015250565b60006141bb602583612fc2565b91506141c68261415f565b604082019050919050565b600060208201905081810360008301526141ea816141ae565b9050919050565b7f4552433732313a207472616e7366657220746f20746865207a65726f2061646460008201527f7265737300000000000000000000000000000000000000000000000000000000602082015250565b600061424d602483612fc2565b9150614258826141f1565b604082019050919050565b6000602082019050818103600083015261427c81614240565b9050919050565b7f4f776e61626c653a2063616c6c6572206973206e6f7420746865206f776e6572600082015250565b60006142b9602083612fc2565b91506142c482614283565b602082019050919050565b600060208201905081810360008301526142e8816142ac565b9050919050565b7f4552433732313a20617070726f766520746f2063616c6c657200000000000000600082015250565b6000614325601983612fc2565b9150614330826142ef565b602082019050919050565b6000602082019050818103600083015261435481614318565b9050919050565b7f4552433732313a207472616e7366657220746f206e6f6e20455243373231526560008201527f63656976657220696d706c656d656e7465720000000000000000000000000000602082015250565b60006143b7603283612fc2565b91506143c28261435b565b604082019050919050565b600060208201905081810360008301526143e6816143aa565b9050919050565b600081519050919050565b600082825260208201905092915050565b6000614414826143ed565b61441e81856143f8565b935061442e818560208601612ddd565b61443781612e07565b840191505092915050565b60006080820190506144576000830187613087565b6144646020830186613087565b614471604083018561330d565b81810360608301526144838184614409565b905095945050505050565b60008151905061449d81612cac565b92915050565b6000602082840312156144b9576144b8612c76565b5b60006144c78482850161448e565b91505092915050565b7f4e487b7100000000000000000000000000000000000000000000000000000000600052601260045260246000fdfea26469706673582212202d38c94935c1f2029b320379378f6f37f42324b61f7c039f30e78a48b72a3b4964736f6c63430008130033",
  "linkReferences": {},
  "deployedLinkReferences": {}
}