{
  "_format": "hh-sol-artifact-1",
  "contractName": "Market",
  "sourceName": "contracts/NFTmarketplace.sol",
  "abi": [
    {
      "inputs": [],
      "stateMutability": "nonpayable",
      "type": "constructor"
    },
    {
      "anonymous": false,
      "inputs": [
        {
          "indexed": true,
          "internalType": "address",
          "name": "owner",
          "type": "address"
        },
        {
          "indexed": true,
          "internalType": "address",
          "name": "approved",
          "type": "address"
        },
        {
          "indexed": true,
          "internalType": "uint256",
          "name": "tokenId",
          "type": "uint256"
        }
      ],
      "name": "Approval",
      "type": "event"
    },
    {
      "anonymous": false,
      "inputs": [
        {
          "indexed": true,
          "internalType": "address",
          "name": "owner",
          "type": "address"
        },
        {
          "indexed": true,
          "internalType": "address",
          "name": "operator",
          "type": "address"
        },
        {
          "indexed": false,
          "internalType": "bool",
          "name": "approved",
          "type": "bool"
        }
      ],
      "name": "ApprovalForAll",
      "type": "event"
    },
    {
      "anonymous": false,
      "inputs": [
        {
          "indexed": false,
          "internalType": "uint256",
          "name": "_fromTokenId",
          "type": "uint256"
        },
        {
          "indexed": false,
          "internalType": "uint256",
          "name": "_toTokenId",
          "type": "uint256"
        }
      ],
      "name": "BatchMetadataUpdate",
      "type": "event"
    },
    {
      "anonymous": false,
      "inputs": [
        {
          "indexed": false,
          "internalType": "uint256",
          "name": "_tokenId",
          "type": "uint256"
        }
      ],
      "name": "MetadataUpdate",
      "type": "event"
    },
    {
      "anonymous": false,
      "inputs": [
        {
          "indexed": true,
          "internalType": "address",
          "name": "owner",
          "type": "address"
        },
        {
          "indexed": true,
          "internalType": "uint256",
          "name": "tokenId",
          "type": "uint256"
        },
        {
          "indexed": false,
          "internalType": "string",
          "name": "tokenURI",
          "type": "string"
        },
        {
          "indexed": false,
          "internalType": "string",
          "name": "name",
          "type": "string"
        },
        {
          "indexed": false,
          "internalType": "string",
          "name": "description",
          "type": "string"
        },
        {
          "indexed": false,
          "internalType": "string",
          "name": "category",
          "type": "string"
        }
      ],
      "name": "NFTMinted",
      "type": "event"
    },
    {
      "anonymous": false,
      "inputs": [
        {
          "indexed": true,
          "internalType": "address",
          "name": "previousOwner",
          "type": "address"
        },
        {
          "indexed": true,
          "internalType": "address",
          "name": "newOwner",
          "type": "address"
        }
      ],
      "name": "OwnershipTransferred",
      "type": "event"
    },
    {
      "anonymous": false,
      "inputs": [
        {
          "indexed": true,
          "internalType": "address",
          "name": "from",
          "type": "address"
        },
        {
          "indexed": true,
          "internalType": "address",
          "name": "to",
          "type": "address"
        },
        {
          "indexed": true,
          "internalType": "uint256",
          "name": "tokenId",
          "type": "uint256"
        }
      ],
      "name": "Transfer",
      "type": "event"
    },
    {
      "inputs": [
        {
          "internalType": "address",
          "name": "to",
          "type": "address"
        },
        {
          "internalType": "uint256",
          "name": "tokenId",
          "type": "uint256"
        }
      ],
      "name": "approve",
      "outputs": [],
      "stateMutability": "nonpayable",
      "type": "function"
    },
    {
      "inputs": [
        {
          "internalType": "uint256",
          "name": "",
          "type": "uint256"
        }
      ],
      "name": "auctions",
      "outputs": [
        {
          "internalType": "uint256",
          "name": "tokenIndex",
          "type": "uint256"
        },
        {
          "internalType": "uint256",
          "name": "startingPrice",
          "type": "uint256"
        },
        {
          "internalType": "address payable",
          "name": "creator",
          "type": "address"
        },
        {
          "internalType": "uint256",
          "name": "endTime",
          "type": "uint256"
        },
        {
          "internalType": "uint256",
          "name": "highestBid",
          "type": "uint256"
        },
        {
          "internalType": "address",
          "name": "highestBidder",
          "type": "address"
        }
      ],
      "stateMutability": "view",
      "type": "function"
    },
    {
      "inputs": [
        {
          "internalType": "address",
          "name": "owner",
          "type": "address"
        }
      ],
      "name": "balanceOf",
      "outputs": [
        {
          "internalType": "uint256",
          "name": "",
          "type": "uint256"
        }
      ],
      "stateMutability": "view",
      "type": "function"
    },
    {
      "inputs": [
        {
          "internalType": "uint256",
          "name": "auctionIndex",
          "type": "uint256"
        }
      ],
      "name": "bidOnAuction",
      "outputs": [],
      "stateMutability": "payable",
      "type": "function"
    },
    {
      "inputs": [
        {
          "internalType": "uint256",
          "name": "auctionIndex",
          "type": "uint256"
        }
      ],
      "name": "finalizeAuction",
      "outputs": [],
      "stateMutability": "payable",
      "type": "function"
    },
    {
      "inputs": [],
      "name": "getAllAuctions",
      "outputs": [
        {
          "components": [
            {
              "internalType": "uint256",
              "name": "tokenIndex",
              "type": "uint256"
            },
            {
              "internalType": "uint256",
              "name": "startingPrice",
              "type": "uint256"
            },
            {
              "internalType": "address payable",
              "name": "creator",
              "type": "address"
            },
            {
              "internalType": "uint256",
              "name": "endTime",
              "type": "uint256"
            },
            {
              "internalType": "uint256",
              "name": "highestBid",
              "type": "uint256"
            },
            {
              "internalType": "address",
              "name": "highestBidder",
              "type": "address"
            }
          ],
          "internalType": "struct Market.Auction[]",
          "name": "",
          "type": "tuple[]"
        }
      ],
      "stateMutability": "view",
      "type": "function"
    },
    {
      "inputs": [
        {
          "internalType": "uint256",
          "name": "tokenId",
          "type": "uint256"
        }
      ],
      "name": "getApproved",
      "outputs": [
        {
          "internalType": "address",
          "name": "",
          "type": "address"
        }
      ],
      "stateMutability": "view",
      "type": "function"
    },
    {
      "inputs": [
        {
          "internalType": "address",
          "name": "owner",
          "type": "address"
        },
        {
          "internalType": "address",
          "name": "operator",
          "type": "address"
        }
      ],
      "name": "isApprovedForAll",
      "outputs": [
        {
          "internalType": "bool",
          "name": "",
          "type": "bool"
        }
      ],
      "stateMutability": "view",
      "type": "function"
    },
    {
      "inputs": [
        {
          "internalType": "string",
          "name": "tokenURI",
          "type": "string"
        },
        {
          "internalType": "string",
          "name": "name",
          "type": "string"
        },
        {
          "internalType": "string",
          "name": "description",
          "type": "string"
        },
        {
          "internalType": "string",
          "name": "category",
          "type": "string"
        }
      ],
      "name": "mintNFT",
      "outputs": [
        {
          "internalType": "uint256",
          "name": "",
          "type": "uint256"
        }
      ],
      "stateMutability": "nonpayable",
      "type": "function"
    },
    {
      "inputs": [],
      "name": "name",
      "outputs": [
        {
          "internalType": "string",
          "name": "",
          "type": "string"
        }
      ],
      "stateMutability": "view",
      "type": "function"
    },
    {
      "inputs": [],
      "name": "owner",
      "outputs": [
        {
          "internalType": "address",
          "name": "",
          "type": "address"
        }
      ],
      "stateMutability": "view",
      "type": "function"
    },
    {
      "inputs": [
        {
          "internalType": "uint256",
          "name": "tokenId",
          "type": "uint256"
        }
      ],
      "name": "ownerOf",
      "outputs": [
        {
          "internalType": "address",
          "name": "",
          "type": "address"
        }
      ],
      "stateMutability": "view",
      "type": "function"
    },
    {
      "inputs": [
        {
          "internalType": "uint256",
          "name": "index",
          "type": "uint256"
        }
      ],
      "name": "purchaseNFT",
      "outputs": [],
      "stateMutability": "payable",
      "type": "function"
    },
    {
      "inputs": [
        {
          "internalType": "uint256",
          "name": "index",
          "type": "uint256"
        }
      ],
      "name": "removeFromSale",
      "outputs": [],
      "stateMutability": "nonpayable",
      "type": "function"
    },
    {
      "inputs": [],
      "name": "renounceOwnership",
      "outputs": [],
      "stateMutability": "nonpayable",
      "type": "function"
    },
    {
      "inputs": [
        {
          "internalType": "address",
          "name": "from",
          "type": "address"
        },
        {
          "internalType": "address",
          "name": "to",
          "type": "address"
        },
        {
          "internalType": "uint256",
          "name": "tokenId",
          "type": "uint256"
        }
      ],
      "name": "safeTransferFrom",
      "outputs": [],
      "stateMutability": "nonpayable",
      "type": "function"
    },
    {
      "inputs": [
        {
          "internalType": "address",
          "name": "from",
          "type": "address"
        },
        {
          "internalType": "address",
          "name": "to",
          "type": "address"
        },
        {
          "internalType": "uint256",
          "name": "tokenId",
          "type": "uint256"
        },
        {
          "internalType": "bytes",
          "name": "data",
          "type": "bytes"
        }
      ],
      "name": "safeTransferFrom",
      "outputs": [],
      "stateMutability": "nonpayable",
      "type": "function"
    },
    {
      "inputs": [
        {
          "internalType": "uint256",
          "name": "index",
          "type": "uint256"
        },
        {
          "internalType": "uint256",
          "name": "price",
          "type": "uint256"
        }
      ],
      "name": "sellNFT",
      "outputs": [],
      "stateMutability": "nonpayable",
      "type": "function"
    },
    {
      "inputs": [
        {
          "internalType": "address",
          "name": "operator",
          "type": "address"
        },
        {
          "internalType": "bool",
          "name": "approved",
          "type": "bool"
        }
      ],
      "name": "setApprovalForAll",
      "outputs": [],
      "stateMutability": "nonpayable",
      "type": "function"
    },
    {
      "inputs": [
        {
          "internalType": "uint256",
          "name": "startingPrice",
          "type": "uint256"
        },
        {
          "internalType": "uint256",
          "name": "durationInSeconds",
          "type": "uint256"
        },
        {
          "internalType": "uint256",
          "name": "index",
          "type": "uint256"
        }
      ],
      "name": "startAuction",
      "outputs": [],
      "stateMutability": "nonpayable",
      "type": "function"
    },
    {
      "inputs": [
        {
          "internalType": "bytes4",
          "name": "interfaceId",
          "type": "bytes4"
        }
      ],
      "name": "supportsInterface",
      "outputs": [
        {
          "internalType": "bool",
          "name": "",
          "type": "bool"
        }
      ],
      "stateMutability": "view",
      "type": "function"
    },
    {
      "inputs": [],
      "name": "symbol",
      "outputs": [
        {
          "internalType": "string",
          "name": "",
          "type": "string"
        }
      ],
      "stateMutability": "view",
      "type": "function"
    },
    {
      "inputs": [
        {
          "internalType": "uint256",
          "name": "tokenId",
          "type": "uint256"
        }
      ],
      "name": "tokenURI",
      "outputs": [
        {
          "internalType": "string",
          "name": "",
          "type": "string"
        }
      ],
      "stateMutability": "view",
      "type": "function"
    },
    {
      "inputs": [
        {
          "internalType": "uint256",
          "name": "",
          "type": "uint256"
        }
      ],
      "name": "tokens",
      "outputs": [
        {
          "internalType": "address payable",
          "name": "owner",
          "type": "address"
        },
        {
          "internalType": "uint256",
          "name": "tokenId",
          "type": "uint256"
        },
        {
          "internalType": "string",
          "name": "tokenURI",
          "type": "string"
        },
        {
          "internalType": "uint256",
          "name": "price",
          "type": "uint256"
        },
        {
          "internalType": "string",
          "name": "name",
          "type": "string"
        },
        {
          "internalType": "string",
          "name": "description",
          "type": "string"
        },
        {
          "internalType": "string",
          "name": "category",
          "type": "string"
        },
        {
          "internalType": "bool",
          "name": "isListedForSale",
          "type": "bool"
        },
        {
          "internalType": "bool",
          "name": "isListedForAuction",
          "type": "bool"
        }
      ],
      "stateMutability": "view",
      "type": "function"
    },
    {
      "inputs": [
        {
          "internalType": "address",
          "name": "from",
          "type": "address"
        },
        {
          "internalType": "address",
          "name": "to",
          "type": "address"
        },
        {
          "internalType": "uint256",
          "name": "tokenId",
          "type": "uint256"
        }
      ],
      "name": "transferFrom",
      "outputs": [],
      "stateMutability": "nonpayable",
      "type": "function"
    },
    {
      "inputs": [
        {
          "internalType": "address",
          "name": "newOwner",
          "type": "address"
        }
      ],
      "name": "transferOwnership",
      "outputs": [],
      "stateMutability": "nonpayable",
      "type": "function"
    },
    {
      "inputs": [],
      "name": "viewAllTokens",
      "outputs": [
        {
          "components": [
            {
              "internalType": "address payable",
              "name": "owner",
              "type": "address"
            },
            {
              "internalType": "uint256",
              "name": "tokenId",
              "type": "uint256"
            },
            {
              "internalType": "string",
              "name": "tokenURI",
              "type": "string"
            },
            {
              "internalType": "uint256",
              "name": "price",
              "type": "uint256"
            },
            {
              "internalType": "string",
              "name": "name",
              "type": "string"
            },
            {
              "internalType": "string",
              "name": "description",
              "type": "string"
            },
            {
              "internalType": "string",
              "name": "category",
              "type": "string"
            },
            {
              "internalType": "bool",
              "name": "isListedForSale",
              "type": "bool"
            },
            {
              "internalType": "bool",
              "name": "isListedForAuction",
              "type": "bool"
            }
          ],
          "internalType": "struct Market.Token[]",
          "name": "",
          "type": "tuple[]"
        }
      ],
      "stateMutability": "view",
      "type": "function"
    }
  ],
  "bytecode": "0x60806040523480156200001157600080fd5b506040518060400160405280600c81526020017f4d61726b65745f506c61636500000000000000000000000000000000000000008152506040518060400160405280600381526020017f4d4b50000000000000000000000000000000000000000000000000000000000081525081600090816200008f919062000412565b508060019081620000a1919062000412565b505050620000c4620000b8620000ca60201b60201c565b620000d260201b60201c565b620004f9565b600033905090565b6000600760009054906101000a900473ffffffffffffffffffffffffffffffffffffffff16905081600760006101000a81548173ffffffffffffffffffffffffffffffffffffffff021916908373ffffffffffffffffffffffffffffffffffffffff1602179055508173ffffffffffffffffffffffffffffffffffffffff168173ffffffffffffffffffffffffffffffffffffffff167f8be0079c531659141344cd1fd0a4f28419497f9722a3daafe3b4186f6b6457e060405160405180910390a35050565b600081519050919050565b7f4e487b7100000000000000000000000000000000000000000000000000000000600052604160045260246000fd5b7f4e487b7100000000000000000000000000000000000000000000000000000000600052602260045260246000fd5b600060028204905060018216806200021a57607f821691505b60208210810362000230576200022f620001d2565b5b50919050565b60008190508160005260206000209050919050565b60006020601f8301049050919050565b600082821b905092915050565b6000600883026200029a7fffffffffffffffffffffffffffffffffffffffffffffffffffffffffffffffff826200025b565b620002a686836200025b565b95508019841693508086168417925050509392505050565b6000819050919050565b6000819050919050565b6000620002f3620002ed620002e784620002be565b620002c8565b620002be565b9050919050565b6000819050919050565b6200030f83620002d2565b620003276200031e82620002fa565b84845462000268565b825550505050565b600090565b6200033e6200032f565b6200034b81848462000304565b505050565b5b8181101562000373576200036760008262000334565b60018101905062000351565b5050565b601f821115620003c2576200038c8162000236565b62000397846200024b565b81016020851015620003a7578190505b620003bf620003b6856200024b565b83018262000350565b50505b505050565b600082821c905092915050565b6000620003e760001984600802620003c7565b1980831691505092915050565b6000620004028383620003d4565b9150826002028217905092915050565b6200041d8262000198565b67ffffffffffffffff811115620004395762000438620001a3565b5b62000445825462000201565b6200045282828562000377565b600060209050601f8311600181146200048a576000841562000475578287015190505b620004818582620003f4565b865550620004f1565b601f1984166200049a8662000236565b60005b82811015620004c4578489015182556001820191506020850194506020810190506200049d565b86831015620004e45784890151620004e0601f891682620003d4565b8355505b6001600288020188555050505b505050505050565b61583e80620005096000396000f3fe60806040526004361061019c5760003560e01c806370a08231116100ec578063b88d4fde1161008a578063e808386311610064578063e8083863146105c7578063e985e9c5146105e3578063eec9057114610620578063f2fde38b1461065d5761019c565b8063b88d4fde14610536578063c87b56dd1461055f578063cbd2bdfd1461059c5761019c565b806391a48a1e116100c657806391a48a1e1461049057806391e078bb146104b957806395d89b41146104e2578063a22cb4651461050d5761019c565b806370a0823114610411578063715018a61461044e5780638da5cb5b146104655761019c565b8063150bde031161015957806342842e0e1161013357806342842e0e146103245780634f64b2be1461034d578063571a26a0146103925780636352211e146103d45761019c565b8063150bde03146102c357806323b872dd146102df57806326b7aeea146103085761019c565b806301ffc9a7146101a157806302cfba81146101de57806306fdde0314610209578063081812fc14610234578063095ea7b3146102715780631361a3b61461029a575b600080fd5b3480156101ad57600080fd5b506101c860048036038101906101c39190613a66565b610686565b6040516101d59190613aae565b60405180910390f35b3480156101ea57600080fd5b506101f36106e7565b6040516102009190613d5e565b60405180910390f35b34801561021557600080fd5b5061021e610a2f565b60405161022b9190613dca565b60405180910390f35b34801561024057600080fd5b5061025b60048036038101906102569190613e18565b610ac1565b6040516102689190613e66565b60405180910390f35b34801561027d57600080fd5b5061029860048036038101906102939190613ead565b610b07565b005b3480156102a657600080fd5b506102c160048036038101906102bc9190613e18565b610c1e565b005b6102dd60048036038101906102d89190613e18565b610d89565b005b3480156102eb57600080fd5b5061030660048036038101906103019190613eed565b610fbc565b005b610322600480360381019061031d9190613e18565b61101c565b005b34801561033057600080fd5b5061034b60048036038101906103469190613eed565b611314565b005b34801561035957600080fd5b50610374600480360381019061036f9190613e18565b611334565b60405161038999989796959493929190613f5e565b60405180910390f35b34801561039e57600080fd5b506103b960048036038101906103b49190613e18565b6115ec565b6040516103cb96959493929190614007565b60405180910390f35b3480156103e057600080fd5b506103fb60048036038101906103f69190613e18565b611678565b6040516104089190613e66565b60405180910390f35b34801561041d57600080fd5b5061043860048036038101906104339190614068565b6116fe565b6040516104459190614095565b60405180910390f35b34801561045a57600080fd5b506104636117b5565b005b34801561047157600080fd5b5061047a6117c9565b6040516104879190613e66565b60405180910390f35b34801561049c57600080fd5b506104b760048036038101906104b291906140b0565b6117f3565b005b3480156104c557600080fd5b506104e060048036038101906104db91906140f0565b611a41565b005b3480156104ee57600080fd5b506104f7611cbd565b6040516105049190613dca565b60405180910390f35b34801561051957600080fd5b50610534600480360381019061052f919061416f565b611d4f565b005b34801561054257600080fd5b5061055d600480360381019061055891906142e4565b611d65565b005b34801561056b57600080fd5b5061058660048036038101906105819190613e18565b611dc7565b6040516105939190613dca565b60405180910390f35b3480156105a857600080fd5b506105b1611ed9565b6040516105be91906144a0565b60405180910390f35b6105e160048036038101906105dc9190613e18565b61200c565b005b3480156105ef57600080fd5b5061060a600480360381019061060591906144c2565b612615565b6040516106179190613aae565b60405180910390f35b34801561062c57600080fd5b50610647600480360381019061064291906145a3565b6126a9565b6040516106549190614095565b60405180910390f35b34801561066957600080fd5b50610684600480360381019061067f9190614068565b6128cc565b005b6000634906490660e01b7bffffffffffffffffffffffffffffffffffffffffffffffffffffffff1916827bffffffffffffffffffffffffffffffffffffffffffffffffffffffff191614806106e057506106df8261294f565b5b9050919050565b60606009805480602002602001604051908101604052809291908181526020016000905b82821015610a265783829060005260206000209060080201604051806101200160405290816000820160009054906101000a900473ffffffffffffffffffffffffffffffffffffffff1673ffffffffffffffffffffffffffffffffffffffff1673ffffffffffffffffffffffffffffffffffffffff1681526020016001820154815260200160028201805461079f906146a9565b80601f01602080910402602001604051908101604052809291908181526020018280546107cb906146a9565b80156108185780601f106107ed57610100808354040283529160200191610818565b820191906000526020600020905b8154815290600101906020018083116107fb57829003601f168201915b505050505081526020016003820154815260200160048201805461083b906146a9565b80601f0160208091040260200160405190810160405280929190818152602001828054610867906146a9565b80156108b45780601f10610889576101008083540402835291602001916108b4565b820191906000526020600020905b81548152906001019060200180831161089757829003601f168201915b505050505081526020016005820180546108cd906146a9565b80601f01602080910402602001604051908101604052809291908181526020018280546108f9906146a9565b80156109465780601f1061091b57610100808354040283529160200191610946565b820191906000526020600020905b81548152906001019060200180831161092957829003601f168201915b5050505050815260200160068201805461095f906146a9565b80601f016020809104026020016040519081016040528092919081815260200182805461098b906146a9565b80156109d85780601f106109ad576101008083540402835291602001916109d8565b820191906000526020600020905b8154815290600101906020018083116109bb57829003601f168201915b505050505081526020016007820160009054906101000a900460ff161515151581526020016007820160019054906101000a900460ff1615151515815250508152602001906001019061070b565b50505050905090565b606060008054610a3e906146a9565b80601f0160208091040260200160405190810160405280929190818152602001828054610a6a906146a9565b8015610ab75780601f10610a8c57610100808354040283529160200191610ab7565b820191906000526020600020905b815481529060010190602001808311610a9a57829003601f168201915b5050505050905090565b6000610acc82612a31565b6004600083815260200190815260200160002060009054906101000a900473ffffffffffffffffffffffffffffffffffffffff169050919050565b6000610b1282611678565b90508073ffffffffffffffffffffffffffffffffffffffff168373ffffffffffffffffffffffffffffffffffffffff1603610b82576040517f08c379a0000000000000000000000000000000000000000000000000000000008152600401610b799061474c565b60405180910390fd5b8073ffffffffffffffffffffffffffffffffffffffff16610ba1612a7c565b73ffffffffffffffffffffffffffffffffffffffff161480610bd05750610bcf81610bca612a7c565b612615565b5b610c0f576040517f08c379a0000000000000000000000000000000000000000000000000000000008152600401610c06906147de565b60405180910390fd5b610c198383612a84565b505050565b8060098181548110610c3357610c326147fe565b5b906000526020600020906008020160000160009054906101000a900473ffffffffffffffffffffffffffffffffffffffff1673ffffffffffffffffffffffffffffffffffffffff163373ffffffffffffffffffffffffffffffffffffffff1614610cd2576040517f08c379a0000000000000000000000000000000000000000000000000000000008152600401610cc990614879565b60405180910390fd5b8160098181548110610ce757610ce66147fe565b5b906000526020600020906008020160070160009054906101000a900460ff1615610d46576040517f08c379a0000000000000000000000000000000000000000000000000000000008152600401610d3d906148e5565b60405180910390fd5b600060098481548110610d5c57610d5b6147fe565b5b906000526020600020906008020160070160006101000a81548160ff021916908315150217905550505050565b8060098181548110610d9e57610d9d6147fe565b5b906000526020600020906008020160070160019054906101000a900460ff1615610dfd576040517f08c379a0000000000000000000000000000000000000000000000000000000008152600401610df490614951565b60405180910390fd5b600060098381548110610e1357610e126147fe565b5b906000526020600020906008020190506009805490508310610e6a576040517f08c379a0000000000000000000000000000000000000000000000000000000008152600401610e61906149bd565b60405180910390fd5b8060030154341015610eb1576040517f08c379a0000000000000000000000000000000000000000000000000000000008152600401610ea890614a29565b60405180910390fd5b60008160000160009054906101000a900473ffffffffffffffffffffffffffffffffffffffff169050338260000160006101000a81548173ffffffffffffffffffffffffffffffffffffffff021916908373ffffffffffffffffffffffffffffffffffffffff16021790555060008260070160016101000a81548160ff02191690831515021790555060008260070160006101000a81548160ff021916908315150217905550348260030181905550610f6f81338460010154612b3d565b8073ffffffffffffffffffffffffffffffffffffffff166108fc349081150290604051600060405180830381858888f19350505050158015610fb5573d6000803e3d6000fd5b5050505050565b610fcd610fc7612a7c565b82612e36565b61100c576040517f08c379a000000000000000000000000000000000000000000000000000000000815260040161100390614abb565b60405180910390fd5b611017838383612b3d565b505050565b3373ffffffffffffffffffffffffffffffffffffffff16600a8281548110611047576110466147fe565b5b906000526020600020906006020160020160009054906101000a900473ffffffffffffffffffffffffffffffffffffffff1673ffffffffffffffffffffffffffffffffffffffff16036110cf576040517f08c379a00000000000000000000000000000000000000000000000000000000081526004016110c690614b4d565b60405180910390fd5b600a81815481106110e3576110e26147fe565b5b9060005260206000209060060201600401543411611136576040517f08c379a000000000000000000000000000000000000000000000000000000000815260040161112d90614bdf565b60405180910390fd5b600a818154811061114a576111496147fe565b5b906000526020600020906006020160030154421061119d576040517f08c379a000000000000000000000000000000000000000000000000000000000815260040161119490614c4b565b60405180910390fd5b6000600a82815481106111b3576111b26147fe565b5b9060005260206000209060060201600401541115611283576000600a82815481106111e1576111e06147fe565b5b906000526020600020906006020160050160009054906101000a900473ffffffffffffffffffffffffffffffffffffffff1690508073ffffffffffffffffffffffffffffffffffffffff166108fc600a8481548110611243576112426147fe565b5b9060005260206000209060060201600401549081150290604051600060405180830381858888f19350505050158015611280573d6000803e3d6000fd5b50505b34600a8281548110611298576112976147fe565b5b90600052602060002090600602016004018190555033600a82815481106112c2576112c16147fe565b5b906000526020600020906006020160050160006101000a81548173ffffffffffffffffffffffffffffffffffffffff021916908373ffffffffffffffffffffffffffffffffffffffff16021790555050565b61132f83838360405180602001604052806000815250611d65565b505050565b6009818154811061134457600080fd5b90600052602060002090600802016000915090508060000160009054906101000a900473ffffffffffffffffffffffffffffffffffffffff1690806001015490806002018054611393906146a9565b80601f01602080910402602001604051908101604052809291908181526020018280546113bf906146a9565b801561140c5780601f106113e15761010080835404028352916020019161140c565b820191906000526020600020905b8154815290600101906020018083116113ef57829003601f168201915b505050505090806003015490806004018054611427906146a9565b80601f0160208091040260200160405190810160405280929190818152602001828054611453906146a9565b80156114a05780601f10611475576101008083540402835291602001916114a0565b820191906000526020600020905b81548152906001019060200180831161148357829003601f168201915b5050505050908060050180546114b5906146a9565b80601f01602080910402602001604051908101604052809291908181526020018280546114e1906146a9565b801561152e5780601f106115035761010080835404028352916020019161152e565b820191906000526020600020905b81548152906001019060200180831161151157829003601f168201915b505050505090806006018054611543906146a9565b80601f016020809104026020016040519081016040528092919081815260200182805461156f906146a9565b80156115bc5780601f10611591576101008083540402835291602001916115bc565b820191906000526020600020905b81548152906001019060200180831161159f57829003601f168201915b5050505050908060070160009054906101000a900460ff16908060070160019054906101000a900460ff16905089565b600a81815481106115fc57600080fd5b90600052602060002090600602016000915090508060000154908060010154908060020160009054906101000a900473ffffffffffffffffffffffffffffffffffffffff16908060030154908060040154908060050160009054906101000a900473ffffffffffffffffffffffffffffffffffffffff16905086565b60008061168483612ecb565b9050600073ffffffffffffffffffffffffffffffffffffffff168173ffffffffffffffffffffffffffffffffffffffff16036116f5576040517f08c379a00000000000000000000000000000000000000000000000000000000081526004016116ec90614cb7565b60405180910390fd5b80915050919050565b60008073ffffffffffffffffffffffffffffffffffffffff168273ffffffffffffffffffffffffffffffffffffffff160361176e576040517f08c379a000000000000000000000000000000000000000000000000000000000815260040161176590614d49565b60405180910390fd5b600360008373ffffffffffffffffffffffffffffffffffffffff1673ffffffffffffffffffffffffffffffffffffffff168152602001908152602001600020549050919050565b6117bd612f08565b6117c76000612f86565b565b6000600760009054906101000a900473ffffffffffffffffffffffffffffffffffffffff16905090565b8160098181548110611808576118076147fe565b5b906000526020600020906008020160000160009054906101000a900473ffffffffffffffffffffffffffffffffffffffff1673ffffffffffffffffffffffffffffffffffffffff163373ffffffffffffffffffffffffffffffffffffffff16146118a7576040517f08c379a000000000000000000000000000000000000000000000000000000000815260040161189e90614879565b60405180910390fd5b82600981815481106118bc576118bb6147fe565b5b906000526020600020906008020160070160009054906101000a900460ff161561191b576040517f08c379a0000000000000000000000000000000000000000000000000000000008152600401611912906148e5565b60405180910390fd5b83600981815481106119305761192f6147fe565b5b906000526020600020906008020160070160019054906101000a900460ff161561198f576040517f08c379a000000000000000000000000000000000000000000000000000000000815260040161198690614951565b60405180910390fd5b600084116119d2576040517f08c379a00000000000000000000000000000000000000000000000000000000081526004016119c990614ddb565b60405180910390fd5b83600986815481106119e7576119e66147fe565b5b906000526020600020906008020160030181905550600160098681548110611a1257611a116147fe565b5b906000526020600020906008020160070160006101000a81548160ff0219169083151502179055505050505050565b8060098181548110611a5657611a556147fe565b5b906000526020600020906008020160070160009054906101000a900460ff1615611ab5576040517f08c379a0000000000000000000000000000000000000000000000000000000008152600401611aac906148e5565b60405180910390fd5b8160098181548110611aca57611ac96147fe565b5b906000526020600020906008020160070160019054906101000a900460ff1615611b29576040517f08c379a0000000000000000000000000000000000000000000000000000000008152600401611b2090614951565b60405180910390fd5b60006040518060c001604052808581526020018781526020013373ffffffffffffffffffffffffffffffffffffffff1681526020018642611b6a9190614e2a565b815260200160008152602001600073ffffffffffffffffffffffffffffffffffffffff168152509050600160098581548110611ba957611ba86147fe565b5b906000526020600020906008020160070160016101000a81548160ff021916908315150217905550600a819080600181540180825580915050600190039060005260206000209060060201600090919091909150600082015181600001556020820151816001015560408201518160020160006101000a81548173ffffffffffffffffffffffffffffffffffffffff021916908373ffffffffffffffffffffffffffffffffffffffff160217905550606082015181600301556080820151816004015560a08201518160050160006101000a81548173ffffffffffffffffffffffffffffffffffffffff021916908373ffffffffffffffffffffffffffffffffffffffff1602179055505050505050505050565b606060018054611ccc906146a9565b80601f0160208091040260200160405190810160405280929190818152602001828054611cf8906146a9565b8015611d455780601f10611d1a57610100808354040283529160200191611d45565b820191906000526020600020905b815481529060010190602001808311611d2857829003601f168201915b5050505050905090565b611d61611d5a612a7c565b838361304c565b5050565b611d76611d70612a7c565b83612e36565b611db5576040517f08c379a0000000000000000000000000000000000000000000000000000000008152600401611dac90614abb565b60405180910390fd5b611dc1848484846131b8565b50505050565b6060611dd282612a31565b6000600660008481526020019081526020016000208054611df2906146a9565b80601f0160208091040260200160405190810160405280929190818152602001828054611e1e906146a9565b8015611e6b5780601f10611e4057610100808354040283529160200191611e6b565b820191906000526020600020905b815481529060010190602001808311611e4e57829003601f168201915b505050505090506000611e7c613214565b90506000815103611e91578192505050611ed4565b600082511115611ec6578082604051602001611eae929190614e9a565b60405160208183030381529060405292505050611ed4565b611ecf8461322b565b925050505b919050565b6060600a805480602002602001604051908101604052809291908181526020016000905b8282101561200357838290600052602060002090600602016040518060c001604052908160008201548152602001600182015481526020016002820160009054906101000a900473ffffffffffffffffffffffffffffffffffffffff1673ffffffffffffffffffffffffffffffffffffffff1673ffffffffffffffffffffffffffffffffffffffff16815260200160038201548152602001600482015481526020016005820160009054906101000a900473ffffffffffffffffffffffffffffffffffffffff1673ffffffffffffffffffffffffffffffffffffffff1673ffffffffffffffffffffffffffffffffffffffff168152505081526020019060010190611efd565b50505050905090565b80600a8181548110612021576120206147fe565b5b906000526020600020906006020160020160009054906101000a900473ffffffffffffffffffffffffffffffffffffffff1673ffffffffffffffffffffffffffffffffffffffff163373ffffffffffffffffffffffffffffffffffffffff16146120c0576040517f08c379a00000000000000000000000000000000000000000000000000000000081526004016120b790614f0a565b60405180910390fd5b6000600a83815481106120d6576120d56147fe565b5b90600052602060002090600602016004015411156123c7576000600a8381548110612104576121036147fe565b5b906000526020600020906006020160020160009054906101000a900473ffffffffffffffffffffffffffffffffffffffff1690506121d281600a85815481106121505761214f6147fe565b5b906000526020600020906006020160050160009054906101000a900473ffffffffffffffffffffffffffffffffffffffff166009600a8781548110612198576121976147fe565b5b906000526020600020906006020160000154815481106121bb576121ba6147fe565b5b906000526020600020906008020160010154610fbc565b600a83815481106121e6576121e56147fe565b5b906000526020600020906006020160050160009054906101000a900473ffffffffffffffffffffffffffffffffffffffff166009600a858154811061222e5761222d6147fe565b5b90600052602060002090600602016000015481548110612251576122506147fe565b5b906000526020600020906008020160000160006101000a81548173ffffffffffffffffffffffffffffffffffffffff021916908373ffffffffffffffffffffffffffffffffffffffff160217905550600a83815481106122b4576122b36147fe565b5b9060005260206000209060060201600401546009600a85815481106122dc576122db6147fe565b5b906000526020600020906006020160000154815481106122ff576122fe6147fe565b5b906000526020600020906008020160030181905550600a8381548110612328576123276147fe565b5b906000526020600020906006020160020160009054906101000a900473ffffffffffffffffffffffffffffffffffffffff1673ffffffffffffffffffffffffffffffffffffffff166108fc600a8581548110612387576123866147fe565b5b9060005260206000209060060201600401549081150290604051600060405180830381858888f193505050501580156123c4573d6000803e3d6000fd5b50505b600a6001600a805490506123db9190614f2a565b815481106123ec576123eb6147fe565b5b9060005260206000209060060201600a838154811061240e5761240d6147fe565b5b906000526020600020906006020160008201548160000155600182015481600101556002820160009054906101000a900473ffffffffffffffffffffffffffffffffffffffff168160020160006101000a81548173ffffffffffffffffffffffffffffffffffffffff021916908373ffffffffffffffffffffffffffffffffffffffff16021790555060038201548160030155600482015481600401556005820160009054906101000a900473ffffffffffffffffffffffffffffffffffffffff168160050160006101000a81548173ffffffffffffffffffffffffffffffffffffffff021916908373ffffffffffffffffffffffffffffffffffffffff16021790555090505060006009600a848154811061252d5761252c6147fe565b5b906000526020600020906006020160000154815481106125505761254f6147fe565b5b906000526020600020906008020160070160016101000a81548160ff021916908315150217905550600a80548061258a57612589614f5e565b5b600190038181906000526020600020906006020160008082016000905560018201600090556002820160006101000a81549073ffffffffffffffffffffffffffffffffffffffff0219169055600382016000905560048201600090556005820160006101000a81549073ffffffffffffffffffffffffffffffffffffffff0219169055505090555050565b6000600560008473ffffffffffffffffffffffffffffffffffffffff1673ffffffffffffffffffffffffffffffffffffffff16815260200190815260200160002060008373ffffffffffffffffffffffffffffffffffffffff1673ffffffffffffffffffffffffffffffffffffffff16815260200190815260200160002060009054906101000a900460ff16905092915050565b6000806126b66008613293565b90506126c233826132a1565b6126cc81876134be565b60006040518061012001604052803373ffffffffffffffffffffffffffffffffffffffff16815260200183815260200188815260200160008152602001878152602001868152602001858152602001600015158152602001600015158152509050600981908060018154018082558091505060019003906000526020600020906008020160009091909190915060008201518160000160006101000a81548173ffffffffffffffffffffffffffffffffffffffff021916908373ffffffffffffffffffffffffffffffffffffffff1602179055506020820151816001015560408201518160020190816127bf9190615139565b506060820151816003015560808201518160040190816127df9190615139565b5060a08201518160050190816127f59190615139565b5060c082015181600601908161280b9190615139565b5060e08201518160070160006101000a81548160ff0219169083151502179055506101008201518160070160016101000a81548160ff02191690831515021790555050506128596008613562565b813373ffffffffffffffffffffffffffffffffffffffff167fd517afb36f117519a1b60791d436e10d670c17e4543975e77b8948f337a69bf8898989896040516128a6949392919061520b565b60405180910390a360016009805490506128c09190614f2a565b92505050949350505050565b6128d4612f08565b600073ffffffffffffffffffffffffffffffffffffffff168173ffffffffffffffffffffffffffffffffffffffff1603612943576040517f08c379a000000000000000000000000000000000000000000000000000000000815260040161293a906152de565b60405180910390fd5b61294c81612f86565b50565b60007f80ac58cd000000000000000000000000000000000000000000000000000000007bffffffffffffffffffffffffffffffffffffffffffffffffffffffff1916827bffffffffffffffffffffffffffffffffffffffffffffffffffffffff19161480612a1a57507f5b5e139f000000000000000000000000000000000000000000000000000000007bffffffffffffffffffffffffffffffffffffffffffffffffffffffff1916827bffffffffffffffffffffffffffffffffffffffffffffffffffffffff1916145b80612a2a5750612a2982613578565b5b9050919050565b612a3a816135e2565b612a79576040517f08c379a0000000000000000000000000000000000000000000000000000000008152600401612a7090614cb7565b60405180910390fd5b50565b600033905090565b816004600083815260200190815260200160002060006101000a81548173ffffffffffffffffffffffffffffffffffffffff021916908373ffffffffffffffffffffffffffffffffffffffff160217905550808273ffffffffffffffffffffffffffffffffffffffff16612af783611678565b73ffffffffffffffffffffffffffffffffffffffff167f8c5be1e5ebec7d5bd14f71427d1e84f3dd0314c0f7b2291e5b200ac8c7c3b92560405160405180910390a45050565b8273ffffffffffffffffffffffffffffffffffffffff16612b5d82611678565b73ffffffffffffffffffffffffffffffffffffffff1614612bb3576040517f08c379a0000000000000000000000000000000000000000000000000000000008152600401612baa90615370565b60405180910390fd5b600073ffffffffffffffffffffffffffffffffffffffff168273ffffffffffffffffffffffffffffffffffffffff1603612c22576040517f08c379a0000000000000000000000000000000000000000000000000000000008152600401612c1990615402565b60405180910390fd5b612c2f8383836001613623565b8273ffffffffffffffffffffffffffffffffffffffff16612c4f82611678565b73ffffffffffffffffffffffffffffffffffffffff1614612ca5576040517f08c379a0000000000000000000000000000000000000000000000000000000008152600401612c9c90615370565b60405180910390fd5b6004600082815260200190815260200160002060006101000a81549073ffffffffffffffffffffffffffffffffffffffff02191690556001600360008573ffffffffffffffffffffffffffffffffffffffff1673ffffffffffffffffffffffffffffffffffffffff168152602001908152602001600020600082825403925050819055506001600360008473ffffffffffffffffffffffffffffffffffffffff1673ffffffffffffffffffffffffffffffffffffffff16815260200190815260200160002060008282540192505081905550816002600083815260200190815260200160002060006101000a81548173ffffffffffffffffffffffffffffffffffffffff021916908373ffffffffffffffffffffffffffffffffffffffff160217905550808273ffffffffffffffffffffffffffffffffffffffff168473ffffffffffffffffffffffffffffffffffffffff167fddf252ad1be2c89b69c2b068fc378daa952ba7f163c4a11628f55a4df523b3ef60405160405180910390a4612e318383836001613629565b505050565b600080612e4283611678565b90508073ffffffffffffffffffffffffffffffffffffffff168473ffffffffffffffffffffffffffffffffffffffff161480612e845750612e838185612615565b5b80612ec257508373ffffffffffffffffffffffffffffffffffffffff16612eaa84610ac1565b73ffffffffffffffffffffffffffffffffffffffff16145b91505092915050565b60006002600083815260200190815260200160002060009054906101000a900473ffffffffffffffffffffffffffffffffffffffff169050919050565b612f10612a7c565b73ffffffffffffffffffffffffffffffffffffffff16612f2e6117c9565b73ffffffffffffffffffffffffffffffffffffffff1614612f84576040517f08c379a0000000000000000000000000000000000000000000000000000000008152600401612f7b9061546e565b60405180910390fd5b565b6000600760009054906101000a900473ffffffffffffffffffffffffffffffffffffffff16905081600760006101000a81548173ffffffffffffffffffffffffffffffffffffffff021916908373ffffffffffffffffffffffffffffffffffffffff1602179055508173ffffffffffffffffffffffffffffffffffffffff168173ffffffffffffffffffffffffffffffffffffffff167f8be0079c531659141344cd1fd0a4f28419497f9722a3daafe3b4186f6b6457e060405160405180910390a35050565b8173ffffffffffffffffffffffffffffffffffffffff168373ffffffffffffffffffffffffffffffffffffffff16036130ba576040517f08c379a00000000000000000000000000000000000000000000000000000000081526004016130b1906154da565b60405180910390fd5b80600560008573ffffffffffffffffffffffffffffffffffffffff1673ffffffffffffffffffffffffffffffffffffffff16815260200190815260200160002060008473ffffffffffffffffffffffffffffffffffffffff1673ffffffffffffffffffffffffffffffffffffffff16815260200190815260200160002060006101000a81548160ff0219169083151502179055508173ffffffffffffffffffffffffffffffffffffffff168373ffffffffffffffffffffffffffffffffffffffff167f17307eab39ab6107e8899845ad3d59bd9653f200f220920489ca2b5937696c31836040516131ab9190613aae565b60405180910390a3505050565b6131c3848484612b3d565b6131cf8484848461362f565b61320e576040517f08c379a00000000000000000000000000000000000000000000000000000000081526004016132059061556c565b60405180910390fd5b50505050565b606060405180602001604052806000815250905090565b606061323682612a31565b6000613240613214565b90506000815111613260576040518060200160405280600081525061328b565b8061326a846137b6565b60405160200161327b929190614e9a565b6040516020818303038152906040525b915050919050565b600081600001549050919050565b600073ffffffffffffffffffffffffffffffffffffffff168273ffffffffffffffffffffffffffffffffffffffff1603613310576040517f08c379a0000000000000000000000000000000000000000000000000000000008152600401613307906155d8565b60405180910390fd5b613319816135e2565b15613359576040517f08c379a000000000000000000000000000000000000000000000000000000000815260040161335090615644565b60405180910390fd5b613367600083836001613623565b613370816135e2565b156133b0576040517f08c379a00000000000000000000000000000000000000000000000000000000081526004016133a790615644565b60405180910390fd5b6001600360008473ffffffffffffffffffffffffffffffffffffffff1673ffffffffffffffffffffffffffffffffffffffff16815260200190815260200160002060008282540192505081905550816002600083815260200190815260200160002060006101000a81548173ffffffffffffffffffffffffffffffffffffffff021916908373ffffffffffffffffffffffffffffffffffffffff160217905550808273ffffffffffffffffffffffffffffffffffffffff16600073ffffffffffffffffffffffffffffffffffffffff167fddf252ad1be2c89b69c2b068fc378daa952ba7f163c4a11628f55a4df523b3ef60405160405180910390a46134ba600083836001613629565b5050565b6134c7826135e2565b613506576040517f08c379a00000000000000000000000000000000000000000000000000000000081526004016134fd906156d6565b60405180910390fd5b806006600084815260200190815260200160002090816135269190615139565b507ff8e1a15aba9398e019f0b49df1a4fde98ee17ae345cb5f6b5e2c27f5033e8ce7826040516135569190614095565b60405180910390a15050565b6001816000016000828254019250508190555050565b60007f01ffc9a7000000000000000000000000000000000000000000000000000000007bffffffffffffffffffffffffffffffffffffffffffffffffffffffff1916827bffffffffffffffffffffffffffffffffffffffffffffffffffffffff1916149050919050565b60008073ffffffffffffffffffffffffffffffffffffffff1661360483612ecb565b73ffffffffffffffffffffffffffffffffffffffff1614159050919050565b50505050565b50505050565b60006136508473ffffffffffffffffffffffffffffffffffffffff16613884565b156137a9578373ffffffffffffffffffffffffffffffffffffffff1663150b7a02613679612a7c565b8786866040518563ffffffff1660e01b815260040161369b949392919061574b565b6020604051808303816000875af19250505080156136d757506040513d601f19601f820116820180604052508101906136d491906157ac565b60015b613759573d8060008114613707576040519150601f19603f3d011682016040523d82523d6000602084013e61370c565b606091505b506000815103613751576040517f08c379a00000000000000000000000000000000000000000000000000000000081526004016137489061556c565b60405180910390fd5b805181602001fd5b63150b7a0260e01b7bffffffffffffffffffffffffffffffffffffffffffffffffffffffff1916817bffffffffffffffffffffffffffffffffffffffffffffffffffffffff1916149150506137ae565b600190505b949350505050565b6060600060016137c5846138a7565b01905060008167ffffffffffffffff8111156137e4576137e36141b9565b5b6040519080825280601f01601f1916602001820160405280156138165781602001600182028036833780820191505090505b509050600082602001820190505b600115613879578080600190039150507f3031323334353637383961626364656600000000000000000000000000000000600a86061a8153600a858161386d5761386c6157d9565b5b04945060008503613824575b819350505050919050565b6000808273ffffffffffffffffffffffffffffffffffffffff163b119050919050565b600080600090507a184f03e93ff9f4daa797ed6e38ed64bf6a1f0100000000000000008310613905577a184f03e93ff9f4daa797ed6e38ed64bf6a1f01000000000000000083816138fb576138fa6157d9565b5b0492506040810190505b6d04ee2d6d415b85acef81000000008310613942576d04ee2d6d415b85acef81000000008381613938576139376157d9565b5b0492506020810190505b662386f26fc10000831061397157662386f26fc100008381613967576139666157d9565b5b0492506010810190505b6305f5e100831061399a576305f5e10083816139905761398f6157d9565b5b0492506008810190505b61271083106139bf5761271083816139b5576139b46157d9565b5b0492506004810190505b606483106139e257606483816139d8576139d76157d9565b5b0492506002810190505b600a83106139f1576001810190505b80915050919050565b6000604051905090565b600080fd5b600080fd5b60007fffffffff0000000000000000000000000000000000000000000000000000000082169050919050565b613a4381613a0e565b8114613a4e57600080fd5b50565b600081359050613a6081613a3a565b92915050565b600060208284031215613a7c57613a7b613a04565b5b6000613a8a84828501613a51565b91505092915050565b60008115159050919050565b613aa881613a93565b82525050565b6000602082019050613ac36000830184613a9f565b92915050565b600081519050919050565b600082825260208201905092915050565b6000819050602082019050919050565b600073ffffffffffffffffffffffffffffffffffffffff82169050919050565b6000613b2082613af5565b9050919050565b613b3081613b15565b82525050565b6000819050919050565b613b4981613b36565b82525050565b600081519050919050565b600082825260208201905092915050565b60005b83811015613b89578082015181840152602081019050613b6e565b60008484015250505050565b6000601f19601f8301169050919050565b6000613bb182613b4f565b613bbb8185613b5a565b9350613bcb818560208601613b6b565b613bd481613b95565b840191505092915050565b613be881613a93565b82525050565b600061012083016000830151613c076000860182613b27565b506020830151613c1a6020860182613b40565b5060408301518482036040860152613c328282613ba6565b9150506060830151613c476060860182613b40565b5060808301518482036080860152613c5f8282613ba6565b91505060a083015184820360a0860152613c798282613ba6565b91505060c083015184820360c0860152613c938282613ba6565b91505060e0830151613ca860e0860182613bdf565b50610100830151613cbd610100860182613bdf565b508091505092915050565b6000613cd48383613bee565b905092915050565b6000602082019050919050565b6000613cf482613ac9565b613cfe8185613ad4565b935083602082028501613d1085613ae5565b8060005b85811015613d4c5784840389528151613d2d8582613cc8565b9450613d3883613cdc565b925060208a01995050600181019050613d14565b50829750879550505050505092915050565b60006020820190508181036000830152613d788184613ce9565b905092915050565b600082825260208201905092915050565b6000613d9c82613b4f565b613da68185613d80565b9350613db6818560208601613b6b565b613dbf81613b95565b840191505092915050565b60006020820190508181036000830152613de48184613d91565b905092915050565b613df581613b36565b8114613e0057600080fd5b50565b600081359050613e1281613dec565b92915050565b600060208284031215613e2e57613e2d613a04565b5b6000613e3c84828501613e03565b91505092915050565b6000613e5082613af5565b9050919050565b613e6081613e45565b82525050565b6000602082019050613e7b6000830184613e57565b92915050565b613e8a81613e45565b8114613e9557600080fd5b50565b600081359050613ea781613e81565b92915050565b60008060408385031215613ec457613ec3613a04565b5b6000613ed285828601613e98565b9250506020613ee385828601613e03565b9150509250929050565b600080600060608486031215613f0657613f05613a04565b5b6000613f1486828701613e98565b9350506020613f2586828701613e98565b9250506040613f3686828701613e03565b9150509250925092565b613f4981613b15565b82525050565b613f5881613b36565b82525050565b600061012082019050613f74600083018c613f40565b613f81602083018b613f4f565b8181036040830152613f93818a613d91565b9050613fa26060830189613f4f565b8181036080830152613fb48188613d91565b905081810360a0830152613fc88187613d91565b905081810360c0830152613fdc8186613d91565b9050613feb60e0830185613a9f565b613ff9610100830184613a9f565b9a9950505050505050505050565b600060c08201905061401c6000830189613f4f565b6140296020830188613f4f565b6140366040830187613f40565b6140436060830186613f4f565b6140506080830185613f4f565b61405d60a0830184613e57565b979650505050505050565b60006020828403121561407e5761407d613a04565b5b600061408c84828501613e98565b91505092915050565b60006020820190506140aa6000830184613f4f565b92915050565b600080604083850312156140c7576140c6613a04565b5b60006140d585828601613e03565b92505060206140e685828601613e03565b9150509250929050565b60008060006060848603121561410957614108613a04565b5b600061411786828701613e03565b935050602061412886828701613e03565b925050604061413986828701613e03565b9150509250925092565b61414c81613a93565b811461415757600080fd5b50565b60008135905061416981614143565b92915050565b6000806040838503121561418657614185613a04565b5b600061419485828601613e98565b92505060206141a58582860161415a565b9150509250929050565b600080fd5b600080fd5b7f4e487b7100000000000000000000000000000000000000000000000000000000600052604160045260246000fd5b6141f182613b95565b810181811067ffffffffffffffff821117156142105761420f6141b9565b5b80604052505050565b60006142236139fa565b905061422f82826141e8565b919050565b600067ffffffffffffffff82111561424f5761424e6141b9565b5b61425882613b95565b9050602081019050919050565b82818337600083830152505050565b600061428761428284614234565b614219565b9050828152602081018484840111156142a3576142a26141b4565b5b6142ae848285614265565b509392505050565b600082601f8301126142cb576142ca6141af565b5b81356142db848260208601614274565b91505092915050565b600080600080608085870312156142fe576142fd613a04565b5b600061430c87828801613e98565b945050602061431d87828801613e98565b935050604061432e87828801613e03565b925050606085013567ffffffffffffffff81111561434f5761434e613a09565b5b61435b878288016142b6565b91505092959194509250565b600081519050919050565b600082825260208201905092915050565b6000819050602082019050919050565b61439c81613e45565b82525050565b60c0820160008201516143b86000850182613b40565b5060208201516143cb6020850182613b40565b5060408201516143de6040850182613b27565b5060608201516143f16060850182613b40565b5060808201516144046080850182613b40565b5060a082015161441760a0850182614393565b50505050565b600061442983836143a2565b60c08301905092915050565b6000602082019050919050565b600061444d82614367565b6144578185614372565b935061446283614383565b8060005b8381101561449357815161447a888261441d565b975061448583614435565b925050600181019050614466565b5085935050505092915050565b600060208201905081810360008301526144ba8184614442565b905092915050565b600080604083850312156144d9576144d8613a04565b5b60006144e785828601613e98565b92505060206144f885828601613e98565b9150509250929050565b600067ffffffffffffffff82111561451d5761451c6141b9565b5b61452682613b95565b9050602081019050919050565b600061454661454184614502565b614219565b905082815260208101848484011115614562576145616141b4565b5b61456d848285614265565b509392505050565b600082601f83011261458a576145896141af565b5b813561459a848260208601614533565b91505092915050565b600080600080608085870312156145bd576145bc613a04565b5b600085013567ffffffffffffffff8111156145db576145da613a09565b5b6145e787828801614575565b945050602085013567ffffffffffffffff81111561460857614607613a09565b5b61461487828801614575565b935050604085013567ffffffffffffffff81111561463557614634613a09565b5b61464187828801614575565b925050606085013567ffffffffffffffff81111561466257614661613a09565b5b61466e87828801614575565b91505092959194509250565b7f4e487b7100000000000000000000000000000000000000000000000000000000600052602260045260246000fd5b600060028204905060018216806146c157607f821691505b6020821081036146d4576146d361467a565b5b50919050565b7f4552433732313a20617070726f76616c20746f2063757272656e74206f776e6560008201527f7200000000000000000000000000000000000000000000000000000000000000602082015250565b6000614736602183613d80565b9150614741826146da565b604082019050919050565b6000602082019050818103600083015261476581614729565b9050919050565b7f4552433732313a20617070726f76652063616c6c6572206973206e6f7420746f60008201527f6b656e206f776e6572206f7220617070726f76656420666f7220616c6c000000602082015250565b60006147c8603d83613d80565b91506147d38261476c565b604082019050919050565b600060208201905081810360008301526147f7816147bb565b9050919050565b7f4e487b7100000000000000000000000000000000000000000000000000000000600052603260045260246000fd5b7f4e6f742074686520746f6b656e206f776e657200000000000000000000000000600082015250565b6000614863601383613d80565b915061486e8261482d565b602082019050919050565b6000602082019050818103600083015261489281614856565b9050919050565b7f416c7265616479206c697374656420666f722073616c65000000000000000000600082015250565b60006148cf601783613d80565b91506148da82614899565b602082019050919050565b600060208201905081810360008301526148fe816148c2565b9050919050565b7f416c7265616479206c697374656420666f722061756374696f6e000000000000600082015250565b600061493b601a83613d80565b915061494682614905565b602082019050919050565b6000602082019050818103600083015261496a8161492e565b9050919050565b7f496e76616c696420696e64657800000000000000000000000000000000000000600082015250565b60006149a7600d83613d80565b91506149b282614971565b602082019050919050565b600060208201905081810360008301526149d68161499a565b9050919050565b7f496e73756666696369656e7420616d6f756e7400000000000000000000000000600082015250565b6000614a13601383613d80565b9150614a1e826149dd565b602082019050919050565b60006020820190508181036000830152614a4281614a06565b9050919050565b7f4552433732313a2063616c6c6572206973206e6f7420746f6b656e206f776e6560008201527f72206f7220617070726f76656400000000000000000000000000000000000000602082015250565b6000614aa5602d83613d80565b9150614ab082614a49565b604082019050919050565b60006020820190508181036000830152614ad481614a98565b9050919050565b7f4f776e6572732063616e6e6f7420626964206f6e207468656972206f776e204e60008201527f4654000000000000000000000000000000000000000000000000000000000000602082015250565b6000614b37602283613d80565b9150614b4282614adb565b604082019050919050565b60006020820190508181036000830152614b6681614b2a565b9050919050565b7f426964206d75737420626520686967686572207468616e20746865207072657660008201527f696f757320626964000000000000000000000000000000000000000000000000602082015250565b6000614bc9602883613d80565b9150614bd482614b6d565b604082019050919050565b60006020820190508181036000830152614bf881614bbc565b9050919050565b7f41756374696f6e2068617320656e646564000000000000000000000000000000600082015250565b6000614c35601183613d80565b9150614c4082614bff565b602082019050919050565b60006020820190508181036000830152614c6481614c28565b9050919050565b7f4552433732313a20696e76616c696420746f6b656e2049440000000000000000600082015250565b6000614ca1601883613d80565b9150614cac82614c6b565b602082019050919050565b60006020820190508181036000830152614cd081614c94565b9050919050565b7f4552433732313a2061646472657373207a65726f206973206e6f74206120766160008201527f6c6964206f776e65720000000000000000000000000000000000000000000000602082015250565b6000614d33602983613d80565b9150614d3e82614cd7565b604082019050919050565b60006020820190508181036000830152614d6281614d26565b9050919050565b7f50726963652073686f756c642062652067726561746572207468616e207a657260008201527f6f00000000000000000000000000000000000000000000000000000000000000602082015250565b6000614dc5602183613d80565b9150614dd082614d69565b604082019050919050565b60006020820190508181036000830152614df481614db8565b9050919050565b7f4e487b7100000000000000000000000000000000000000000000000000000000600052601160045260246000fd5b6000614e3582613b36565b9150614e4083613b36565b9250828201905080821115614e5857614e57614dfb565b5b92915050565b600081905092915050565b6000614e7482613b4f565b614e7e8185614e5e565b9350614e8e818560208601613b6b565b80840191505092915050565b6000614ea68285614e69565b9150614eb28284614e69565b91508190509392505050565b7f4e6f74207468652061756374696f6e206f776e65720000000000000000000000600082015250565b6000614ef4601583613d80565b9150614eff82614ebe565b602082019050919050565b60006020820190508181036000830152614f2381614ee7565b9050919050565b6000614f3582613b36565b9150614f4083613b36565b9250828203905081811115614f5857614f57614dfb565b5b92915050565b7f4e487b7100000000000000000000000000000000000000000000000000000000600052603160045260246000fd5b60008190508160005260206000209050919050565b60006020601f8301049050919050565b600082821b905092915050565b600060088302614fef7fffffffffffffffffffffffffffffffffffffffffffffffffffffffffffffffff82614fb2565b614ff98683614fb2565b95508019841693508086168417925050509392505050565b6000819050919050565b600061503661503161502c84613b36565b615011565b613b36565b9050919050565b6000819050919050565b6150508361501b565b61506461505c8261503d565b848454614fbf565b825550505050565b600090565b61507961506c565b615084818484615047565b505050565b5b818110156150a85761509d600082615071565b60018101905061508a565b5050565b601f8211156150ed576150be81614f8d565b6150c784614fa2565b810160208510156150d6578190505b6150ea6150e285614fa2565b830182615089565b50505b505050565b600082821c905092915050565b6000615110600019846008026150f2565b1980831691505092915050565b600061512983836150ff565b9150826002028217905092915050565b61514282613b4f565b67ffffffffffffffff81111561515b5761515a6141b9565b5b61516582546146a9565b6151708282856150ac565b600060209050601f8311600181146151a35760008415615191578287015190505b61519b858261511d565b865550615203565b601f1984166151b186614f8d565b60005b828110156151d9578489015182556001820191506020850194506020810190506151b4565b868310156151f657848901516151f2601f8916826150ff565b8355505b6001600288020188555050505b505050505050565b600060808201905081810360008301526152258187613d91565b905081810360208301526152398186613d91565b9050818103604083015261524d8185613d91565b905081810360608301526152618184613d91565b905095945050505050565b7f4f776e61626c653a206e6577206f776e657220697320746865207a65726f206160008201527f6464726573730000000000000000000000000000000000000000000000000000602082015250565b60006152c8602683613d80565b91506152d38261526c565b604082019050919050565b600060208201905081810360008301526152f7816152bb565b9050919050565b7f4552433732313a207472616e736665722066726f6d20696e636f72726563742060008201527f6f776e6572000000000000000000000000000000000000000000000000000000602082015250565b600061535a602583613d80565b9150615365826152fe565b604082019050919050565b600060208201905081810360008301526153898161534d565b9050919050565b7f4552433732313a207472616e7366657220746f20746865207a65726f2061646460008201527f7265737300000000000000000000000000000000000000000000000000000000602082015250565b60006153ec602483613d80565b91506153f782615390565b604082019050919050565b6000602082019050818103600083015261541b816153df565b9050919050565b7f4f776e61626c653a2063616c6c6572206973206e6f7420746865206f776e6572600082015250565b6000615458602083613d80565b915061546382615422565b602082019050919050565b600060208201905081810360008301526154878161544b565b9050919050565b7f4552433732313a20617070726f766520746f2063616c6c657200000000000000600082015250565b60006154c4601983613d80565b91506154cf8261548e565b602082019050919050565b600060208201905081810360008301526154f3816154b7565b9050919050565b7f4552433732313a207472616e7366657220746f206e6f6e20455243373231526560008201527f63656976657220696d706c656d656e7465720000000000000000000000000000602082015250565b6000615556603283613d80565b9150615561826154fa565b604082019050919050565b6000602082019050818103600083015261558581615549565b9050919050565b7f4552433732313a206d696e7420746f20746865207a65726f2061646472657373600082015250565b60006155c2602083613d80565b91506155cd8261558c565b602082019050919050565b600060208201905081810360008301526155f1816155b5565b9050919050565b7f4552433732313a20746f6b656e20616c7265616479206d696e74656400000000600082015250565b600061562e601c83613d80565b9150615639826155f8565b602082019050919050565b6000602082019050818103600083015261565d81615621565b9050919050565b7f45524337323155524953746f726167653a2055524920736574206f66206e6f6e60008201527f6578697374656e7420746f6b656e000000000000000000000000000000000000602082015250565b60006156c0602e83613d80565b91506156cb82615664565b604082019050919050565b600060208201905081810360008301526156ef816156b3565b9050919050565b600081519050919050565b600082825260208201905092915050565b600061571d826156f6565b6157278185615701565b9350615737818560208601613b6b565b61574081613b95565b840191505092915050565b60006080820190506157606000830187613e57565b61576d6020830186613e57565b61577a6040830185613f4f565b818103606083015261578c8184615712565b905095945050505050565b6000815190506157a681613a3a565b92915050565b6000602082840312156157c2576157c1613a04565b5b60006157d084828501615797565b91505092915050565b7f4e487b7100000000000000000000000000000000000000000000000000000000600052601260045260246000fdfea26469706673582212204fad8c4783c847f6da8e0b8f8e36e61ab1da357820e2cf83e9d073a89d180ece64736f6c63430008130033",
  "linkReferences": {},
  "deployedLinkReferences": {}
}