{
  "_format": "hh-sol-artifact-1",
  "contractName": "Market",
  "sourceName": "contracts/NFTmarketplace.sol",
  "abi": [
    {
      "inputs": [],
      "stateMutability": "nonpayable",
      "type": "constructor"
    },
    {
      "anonymous": false,
      "inputs": [
        {
          "indexed": true,
          "internalType": "address",
          "name": "owner",
          "type": "address"
        },
        {
          "indexed": true,
          "internalType": "address",
          "name": "approved",
          "type": "address"
        },
        {
          "indexed": true,
          "internalType": "uint256",
          "name": "tokenId",
          "type": "uint256"
        }
      ],
      "name": "Approval",
      "type": "event"
    },
    {
      "anonymous": false,
      "inputs": [
        {
          "indexed": true,
          "internalType": "address",
          "name": "owner",
          "type": "address"
        },
        {
          "indexed": true,
          "internalType": "address",
          "name": "operator",
          "type": "address"
        },
        {
          "indexed": false,
          "internalType": "bool",
          "name": "approved",
          "type": "bool"
        }
      ],
      "name": "ApprovalForAll",
      "type": "event"
    },
    {
      "anonymous": false,
      "inputs": [
        {
          "indexed": false,
          "internalType": "uint256",
          "name": "_fromTokenId",
          "type": "uint256"
        },
        {
          "indexed": false,
          "internalType": "uint256",
          "name": "_toTokenId",
          "type": "uint256"
        }
      ],
      "name": "BatchMetadataUpdate",
      "type": "event"
    },
    {
      "anonymous": false,
      "inputs": [
        {
          "indexed": false,
          "internalType": "uint256",
          "name": "_tokenId",
          "type": "uint256"
        }
      ],
      "name": "MetadataUpdate",
      "type": "event"
    },
    {
      "anonymous": false,
      "inputs": [
        {
          "indexed": true,
          "internalType": "address",
          "name": "previousOwner",
          "type": "address"
        },
        {
          "indexed": true,
          "internalType": "address",
          "name": "newOwner",
          "type": "address"
        }
      ],
      "name": "OwnershipTransferred",
      "type": "event"
    },
    {
      "anonymous": false,
      "inputs": [
        {
          "indexed": true,
          "internalType": "address",
          "name": "from",
          "type": "address"
        },
        {
          "indexed": true,
          "internalType": "address",
          "name": "to",
          "type": "address"
        },
        {
          "indexed": true,
          "internalType": "uint256",
          "name": "tokenId",
          "type": "uint256"
        }
      ],
      "name": "Transfer",
      "type": "event"
    },
    {
      "inputs": [
        {
          "internalType": "address",
          "name": "to",
          "type": "address"
        },
        {
          "internalType": "uint256",
          "name": "tokenId",
          "type": "uint256"
        }
      ],
      "name": "approve",
      "outputs": [],
      "stateMutability": "nonpayable",
      "type": "function"
    },
    {
      "inputs": [
        {
          "internalType": "address",
          "name": "owner",
          "type": "address"
        }
      ],
      "name": "balanceOf",
      "outputs": [
        {
          "internalType": "uint256",
          "name": "",
          "type": "uint256"
        }
      ],
      "stateMutability": "view",
      "type": "function"
    },
    {
      "inputs": [],
      "name": "getAllListings",
      "outputs": [
        {
          "components": [
            {
              "internalType": "address",
              "name": "owner",
              "type": "address"
            },
            {
              "internalType": "uint256",
              "name": "tokenId",
              "type": "uint256"
            },
            {
              "internalType": "string",
              "name": "tokenURI",
              "type": "string"
            },
            {
              "internalType": "uint256",
              "name": "price",
              "type": "uint256"
            },
            {
              "internalType": "bool",
              "name": "isSold",
              "type": "bool"
            },
            {
              "internalType": "string",
              "name": "name",
              "type": "string"
            },
            {
              "internalType": "string",
              "name": "description",
              "type": "string"
            }
          ],
          "internalType": "struct Market.Token[]",
          "name": "",
          "type": "tuple[]"
        }
      ],
      "stateMutability": "view",
      "type": "function"
    },
    {
      "inputs": [
        {
          "internalType": "uint256",
          "name": "tokenId",
          "type": "uint256"
        }
      ],
      "name": "getApproved",
      "outputs": [
        {
          "internalType": "address",
          "name": "",
          "type": "address"
        }
      ],
      "stateMutability": "view",
      "type": "function"
    },
    {
      "inputs": [
        {
          "internalType": "address",
          "name": "owner",
          "type": "address"
        },
        {
          "internalType": "address",
          "name": "operator",
          "type": "address"
        }
      ],
      "name": "isApprovedForAll",
      "outputs": [
        {
          "internalType": "bool",
          "name": "",
          "type": "bool"
        }
      ],
      "stateMutability": "view",
      "type": "function"
    },
    {
      "inputs": [
        {
          "internalType": "uint256",
          "name": "index",
          "type": "uint256"
        }
      ],
      "name": "listNFT",
      "outputs": [],
      "stateMutability": "nonpayable",
      "type": "function"
    },
    {
      "inputs": [
        {
          "internalType": "uint256",
          "name": "",
          "type": "uint256"
        }
      ],
      "name": "listings",
      "outputs": [
        {
          "internalType": "address",
          "name": "owner",
          "type": "address"
        },
        {
          "internalType": "uint256",
          "name": "tokenId",
          "type": "uint256"
        },
        {
          "internalType": "string",
          "name": "tokenURI",
          "type": "string"
        },
        {
          "internalType": "uint256",
          "name": "price",
          "type": "uint256"
        },
        {
          "internalType": "bool",
          "name": "isSold",
          "type": "bool"
        },
        {
          "internalType": "string",
          "name": "name",
          "type": "string"
        },
        {
          "internalType": "string",
          "name": "description",
          "type": "string"
        }
      ],
      "stateMutability": "view",
      "type": "function"
    },
    {
      "inputs": [
        {
          "internalType": "string",
          "name": "tokenURI",
          "type": "string"
        },
        {
          "internalType": "uint256",
          "name": "price",
          "type": "uint256"
        },
        {
          "internalType": "string",
          "name": "name",
          "type": "string"
        },
        {
          "internalType": "string",
          "name": "description",
          "type": "string"
        }
      ],
      "name": "mintNFT",
      "outputs": [
        {
          "internalType": "uint256",
          "name": "",
          "type": "uint256"
        }
      ],
      "stateMutability": "payable",
      "type": "function"
    },
    {
      "inputs": [],
      "name": "name",
      "outputs": [
        {
          "internalType": "string",
          "name": "",
          "type": "string"
        }
      ],
      "stateMutability": "view",
      "type": "function"
    },
    {
      "inputs": [],
      "name": "owner",
      "outputs": [
        {
          "internalType": "address",
          "name": "",
          "type": "address"
        }
      ],
      "stateMutability": "view",
      "type": "function"
    },
    {
      "inputs": [
        {
          "internalType": "uint256",
          "name": "tokenId",
          "type": "uint256"
        }
      ],
      "name": "ownerOf",
      "outputs": [
        {
          "internalType": "address",
          "name": "",
          "type": "address"
        }
      ],
      "stateMutability": "view",
      "type": "function"
    },
    {
      "inputs": [
        {
          "internalType": "uint256",
          "name": "index",
          "type": "uint256"
        }
      ],
      "name": "purchaseNFT",
      "outputs": [],
      "stateMutability": "payable",
      "type": "function"
    },
    {
      "inputs": [],
      "name": "renounceOwnership",
      "outputs": [],
      "stateMutability": "nonpayable",
      "type": "function"
    },
    {
      "inputs": [
        {
          "internalType": "address",
          "name": "from",
          "type": "address"
        },
        {
          "internalType": "address",
          "name": "to",
          "type": "address"
        },
        {
          "internalType": "uint256",
          "name": "tokenId",
          "type": "uint256"
        }
      ],
      "name": "safeTransferFrom",
      "outputs": [],
      "stateMutability": "nonpayable",
      "type": "function"
    },
    {
      "inputs": [
        {
          "internalType": "address",
          "name": "from",
          "type": "address"
        },
        {
          "internalType": "address",
          "name": "to",
          "type": "address"
        },
        {
          "internalType": "uint256",
          "name": "tokenId",
          "type": "uint256"
        },
        {
          "internalType": "bytes",
          "name": "data",
          "type": "bytes"
        }
      ],
      "name": "safeTransferFrom",
      "outputs": [],
      "stateMutability": "nonpayable",
      "type": "function"
    },
    {
      "inputs": [
        {
          "internalType": "address",
          "name": "operator",
          "type": "address"
        },
        {
          "internalType": "bool",
          "name": "approved",
          "type": "bool"
        }
      ],
      "name": "setApprovalForAll",
      "outputs": [],
      "stateMutability": "nonpayable",
      "type": "function"
    },
    {
      "inputs": [
        {
          "internalType": "bytes4",
          "name": "interfaceId",
          "type": "bytes4"
        }
      ],
      "name": "supportsInterface",
      "outputs": [
        {
          "internalType": "bool",
          "name": "",
          "type": "bool"
        }
      ],
      "stateMutability": "view",
      "type": "function"
    },
    {
      "inputs": [],
      "name": "symbol",
      "outputs": [
        {
          "internalType": "string",
          "name": "",
          "type": "string"
        }
      ],
      "stateMutability": "view",
      "type": "function"
    },
    {
      "inputs": [
        {
          "internalType": "uint256",
          "name": "tokenId",
          "type": "uint256"
        }
      ],
      "name": "tokenURI",
      "outputs": [
        {
          "internalType": "string",
          "name": "",
          "type": "string"
        }
      ],
      "stateMutability": "view",
      "type": "function"
    },
    {
      "inputs": [
        {
          "internalType": "uint256",
          "name": "",
          "type": "uint256"
        }
      ],
      "name": "tokens",
      "outputs": [
        {
          "internalType": "address",
          "name": "owner",
          "type": "address"
        },
        {
          "internalType": "uint256",
          "name": "tokenId",
          "type": "uint256"
        },
        {
          "internalType": "string",
          "name": "tokenURI",
          "type": "string"
        },
        {
          "internalType": "uint256",
          "name": "price",
          "type": "uint256"
        },
        {
          "internalType": "bool",
          "name": "isSold",
          "type": "bool"
        },
        {
          "internalType": "string",
          "name": "name",
          "type": "string"
        },
        {
          "internalType": "string",
          "name": "description",
          "type": "string"
        }
      ],
      "stateMutability": "view",
      "type": "function"
    },
    {
      "inputs": [
        {
          "internalType": "address",
          "name": "from",
          "type": "address"
        },
        {
          "internalType": "address",
          "name": "to",
          "type": "address"
        },
        {
          "internalType": "uint256",
          "name": "tokenId",
          "type": "uint256"
        }
      ],
      "name": "transferFrom",
      "outputs": [],
      "stateMutability": "nonpayable",
      "type": "function"
    },
    {
      "inputs": [
        {
          "internalType": "address",
          "name": "newOwner",
          "type": "address"
        }
      ],
      "name": "transferOwnership",
      "outputs": [],
      "stateMutability": "nonpayable",
      "type": "function"
    },
    {
      "inputs": [],
      "name": "viewAllTokens",
      "outputs": [
        {
          "components": [
            {
              "internalType": "address",
              "name": "owner",
              "type": "address"
            },
            {
              "internalType": "uint256",
              "name": "tokenId",
              "type": "uint256"
            },
            {
              "internalType": "string",
              "name": "tokenURI",
              "type": "string"
            },
            {
              "internalType": "uint256",
              "name": "price",
              "type": "uint256"
            },
            {
              "internalType": "bool",
              "name": "isSold",
              "type": "bool"
            },
            {
              "internalType": "string",
              "name": "name",
              "type": "string"
            },
            {
              "internalType": "string",
              "name": "description",
              "type": "string"
            }
          ],
          "internalType": "struct Market.Token[]",
          "name": "",
          "type": "tuple[]"
        }
      ],
      "stateMutability": "view",
      "type": "function"
    }
  ],
  "bytecode": "0x60806040523480156200001157600080fd5b506040518060400160405280600b81526020017f4d61726b6574706c6163650000000000000000000000000000000000000000008152506040518060400160405280600381526020017f4d4b50000000000000000000000000000000000000000000000000000000000081525081600090816200008f919062000412565b508060019081620000a1919062000412565b505050620000c4620000b8620000ca60201b60201c565b620000d260201b60201c565b620004f9565b600033905090565b6000600760009054906101000a900473ffffffffffffffffffffffffffffffffffffffff16905081600760006101000a81548173ffffffffffffffffffffffffffffffffffffffff021916908373ffffffffffffffffffffffffffffffffffffffff1602179055508173ffffffffffffffffffffffffffffffffffffffff168173ffffffffffffffffffffffffffffffffffffffff167f8be0079c531659141344cd1fd0a4f28419497f9722a3daafe3b4186f6b6457e060405160405180910390a35050565b600081519050919050565b7f4e487b7100000000000000000000000000000000000000000000000000000000600052604160045260246000fd5b7f4e487b7100000000000000000000000000000000000000000000000000000000600052602260045260246000fd5b600060028204905060018216806200021a57607f821691505b60208210810362000230576200022f620001d2565b5b50919050565b60008190508160005260206000209050919050565b60006020601f8301049050919050565b600082821b905092915050565b6000600883026200029a7fffffffffffffffffffffffffffffffffffffffffffffffffffffffffffffffff826200025b565b620002a686836200025b565b95508019841693508086168417925050509392505050565b6000819050919050565b6000819050919050565b6000620002f3620002ed620002e784620002be565b620002c8565b620002be565b9050919050565b6000819050919050565b6200030f83620002d2565b620003276200031e82620002fa565b84845462000268565b825550505050565b600090565b6200033e6200032f565b6200034b81848462000304565b505050565b5b8181101562000373576200036760008262000334565b60018101905062000351565b5050565b601f821115620003c2576200038c8162000236565b62000397846200024b565b81016020851015620003a7578190505b620003bf620003b6856200024b565b83018262000350565b50505b505050565b600082821c905092915050565b6000620003e760001984600802620003c7565b1980831691505092915050565b6000620004028383620003d4565b9150826002028217905092915050565b6200041d8262000198565b67ffffffffffffffff811115620004395762000438620001a3565b5b62000445825462000201565b6200045282828562000377565b600060209050601f8311600181146200048a576000841562000475578287015190505b620004818582620003f4565b865550620004f1565b601f1984166200049a8662000236565b60005b82811015620004c4578489015182556001820191506020850194506020810190506200049d565b86831015620004e45784890151620004e0601f891682620003d4565b8355505b6001600288020188555050505b505050505050565b61479980620005096000396000f3fe6080604052600436106101405760003560e01c806370a08231116100b6578063b88d4fde1161006f578063b88d4fde1461045a578063c87b56dd14610483578063d076f13f146104c0578063de74e57b146104e9578063e985e9c51461052c578063f2fde38b1461056957610140565b806370a082311461035c578063715018a6146103995780638da5cb5b146103b057806395d89b41146103db578063a22cb46514610406578063ae73ccec1461042f57610140565b806313de98261161010857806313de98261461023e578063150bde031461026e57806323b872dd1461028a57806342842e0e146102b35780634f64b2be146102dc5780636352211e1461031f57610140565b806301ffc9a71461014557806302cfba811461018257806306fdde03146101ad578063081812fc146101d8578063095ea7b314610215575b600080fd5b34801561015157600080fd5b5061016c60048036038101906101679190612e3e565b610592565b6040516101799190612e86565b60405180910390f35b34801561018e57600080fd5b506101976105f3565b6040516101a49190613106565b60405180910390f35b3480156101b957600080fd5b506101c261088d565b6040516101cf9190613172565b60405180910390f35b3480156101e457600080fd5b506101ff60048036038101906101fa91906131c0565b61091f565b60405161020c91906131fc565b60405180910390f35b34801561022157600080fd5b5061023c60048036038101906102379190613243565b610965565b005b610258600480360381019061025391906133b8565b610a7c565b6040516102659190613482565b60405180910390f35b610288600480360381019061028391906131c0565b610c45565b005b34801561029657600080fd5b506102b160048036038101906102ac919061349d565b610f45565b005b3480156102bf57600080fd5b506102da60048036038101906102d5919061349d565b610fa5565b005b3480156102e857600080fd5b5061030360048036038101906102fe91906131c0565b610fc5565b60405161031697969594939291906134f0565b60405180910390f35b34801561032b57600080fd5b50610346600480360381019061034191906131c0565b6111dc565b60405161035391906131fc565b60405180910390f35b34801561036857600080fd5b50610383600480360381019061037e9190613574565b611262565b6040516103909190613482565b60405180910390f35b3480156103a557600080fd5b506103ae611319565b005b3480156103bc57600080fd5b506103c561132d565b6040516103d291906131fc565b60405180910390f35b3480156103e757600080fd5b506103f0611357565b6040516103fd9190613172565b60405180910390f35b34801561041257600080fd5b5061042d600480360381019061042891906135cd565b6113e9565b005b34801561043b57600080fd5b506104446113ff565b6040516104519190613106565b60405180910390f35b34801561046657600080fd5b50610481600480360381019061047c91906136ae565b611699565b005b34801561048f57600080fd5b506104aa60048036038101906104a591906131c0565b6116fb565b6040516104b79190613172565b60405180910390f35b3480156104cc57600080fd5b506104e760048036038101906104e291906131c0565b61180d565b005b3480156104f557600080fd5b50610510600480360381019061050b91906131c0565b6119f9565b60405161052397969594939291906134f0565b60405180910390f35b34801561053857600080fd5b50610553600480360381019061054e9190613731565b611c10565b6040516105609190612e86565b60405180910390f35b34801561057557600080fd5b50610590600480360381019061058b9190613574565b611ca4565b005b6000634906490660e01b7bffffffffffffffffffffffffffffffffffffffffffffffffffffffff1916827bffffffffffffffffffffffffffffffffffffffffffffffffffffffff191614806105ec57506105eb82611d27565b5b9050919050565b60606009805480602002602001604051908101604052809291908181526020016000905b8282101561088457838290600052602060002090600702016040518060e00160405290816000820160009054906101000a900473ffffffffffffffffffffffffffffffffffffffff1673ffffffffffffffffffffffffffffffffffffffff1673ffffffffffffffffffffffffffffffffffffffff168152602001600182015481526020016002820180546106aa906137a0565b80601f01602080910402602001604051908101604052809291908181526020018280546106d6906137a0565b80156107235780601f106106f857610100808354040283529160200191610723565b820191906000526020600020905b81548152906001019060200180831161070657829003601f168201915b50505050508152602001600382015481526020016004820160009054906101000a900460ff16151515158152602001600582018054610761906137a0565b80601f016020809104026020016040519081016040528092919081815260200182805461078d906137a0565b80156107da5780601f106107af576101008083540402835291602001916107da565b820191906000526020600020905b8154815290600101906020018083116107bd57829003601f168201915b505050505081526020016006820180546107f3906137a0565b80601f016020809104026020016040519081016040528092919081815260200182805461081f906137a0565b801561086c5780601f106108415761010080835404028352916020019161086c565b820191906000526020600020905b81548152906001019060200180831161084f57829003601f168201915b50505050508152505081526020019060010190610617565b50505050905090565b60606000805461089c906137a0565b80601f01602080910402602001604051908101604052809291908181526020018280546108c8906137a0565b80156109155780601f106108ea57610100808354040283529160200191610915565b820191906000526020600020905b8154815290600101906020018083116108f857829003601f168201915b5050505050905090565b600061092a82611e09565b6004600083815260200190815260200160002060009054906101000a900473ffffffffffffffffffffffffffffffffffffffff169050919050565b6000610970826111dc565b90508073ffffffffffffffffffffffffffffffffffffffff168373ffffffffffffffffffffffffffffffffffffffff16036109e0576040517f08c379a00000000000000000000000000000000000000000000000000000000081526004016109d790613843565b60405180910390fd5b8073ffffffffffffffffffffffffffffffffffffffff166109ff611e54565b73ffffffffffffffffffffffffffffffffffffffff161480610a2e5750610a2d81610a28611e54565b611c10565b5b610a6d576040517f08c379a0000000000000000000000000000000000000000000000000000000008152600401610a64906138d5565b60405180910390fd5b610a778383611e5c565b505050565b6000808411610ac0576040517f08c379a0000000000000000000000000000000000000000000000000000000008152600401610ab790613967565b60405180910390fd5b6000610acc6008611f15565b9050610ad83382611f23565b610ae28187612140565b60006040518060e001604052803373ffffffffffffffffffffffffffffffffffffffff168152602001838152602001888152602001878152602001600015158152602001868152602001858152509050600981908060018154018082558091505060019003906000526020600020906007020160009091909190915060008201518160000160006101000a81548173ffffffffffffffffffffffffffffffffffffffff021916908373ffffffffffffffffffffffffffffffffffffffff160217905550602082015181600101556040820151816002019081610bc49190613b33565b506060820151816003015560808201518160040160006101000a81548160ff02191690831515021790555060a0820151816005019081610c049190613b33565b5060c0820151816006019081610c1a9190613b33565b505050610c2760086121e4565b6001600980549050610c399190613c34565b92505050949350505050565b600081101580610c59575060098054905081105b610c98576040517f08c379a0000000000000000000000000000000000000000000000000000000008152600401610c8f90613cb4565b60405180910390fd5b60098181548110610cac57610cab613cd4565b5b9060005260206000209060070201600301543414610cff576040517f08c379a0000000000000000000000000000000000000000000000000000000008152600401610cf690613d4f565b60405180910390fd5b60098181548110610d1357610d12613cd4565b5b906000526020600020906007020160040160009054906101000a900460ff1615610d72576040517f08c379a0000000000000000000000000000000000000000000000000000000008152600401610d6990613dbb565b60405180910390fd5b3373ffffffffffffffffffffffffffffffffffffffff1660098281548110610d9d57610d9c613cd4565b5b906000526020600020906007020160000160009054906101000a900473ffffffffffffffffffffffffffffffffffffffff1673ffffffffffffffffffffffffffffffffffffffff1603610e25576040517f08c379a0000000000000000000000000000000000000000000000000000000008152600401610e1c90613e4d565b60405180910390fd5b600060098281548110610e3b57610e3a613cd4565b5b906000526020600020906007020160000160009054906101000a900473ffffffffffffffffffffffffffffffffffffffff1690503360098381548110610e8457610e83613cd4565b5b906000526020600020906007020160000160006101000a81548173ffffffffffffffffffffffffffffffffffffffff021916908373ffffffffffffffffffffffffffffffffffffffff160217905550610f03813360098581548110610eec57610eeb613cd4565b5b9060005260206000209060070201600101546121fa565b600160098381548110610f1957610f18613cd4565b5b906000526020600020906007020160040160006101000a81548160ff0219169083151502179055505050565b610f56610f50611e54565b826124f3565b610f95576040517f08c379a0000000000000000000000000000000000000000000000000000000008152600401610f8c90613edf565b60405180910390fd5b610fa08383836121fa565b505050565b610fc083838360405180602001604052806000815250611699565b505050565b60098181548110610fd557600080fd5b90600052602060002090600702016000915090508060000160009054906101000a900473ffffffffffffffffffffffffffffffffffffffff1690806001015490806002018054611024906137a0565b80601f0160208091040260200160405190810160405280929190818152602001828054611050906137a0565b801561109d5780601f106110725761010080835404028352916020019161109d565b820191906000526020600020905b81548152906001019060200180831161108057829003601f168201915b5050505050908060030154908060040160009054906101000a900460ff16908060050180546110cb906137a0565b80601f01602080910402602001604051908101604052809291908181526020018280546110f7906137a0565b80156111445780601f1061111957610100808354040283529160200191611144565b820191906000526020600020905b81548152906001019060200180831161112757829003601f168201915b505050505090806006018054611159906137a0565b80601f0160208091040260200160405190810160405280929190818152602001828054611185906137a0565b80156111d25780601f106111a7576101008083540402835291602001916111d2565b820191906000526020600020905b8154815290600101906020018083116111b557829003601f168201915b5050505050905087565b6000806111e883612588565b9050600073ffffffffffffffffffffffffffffffffffffffff168173ffffffffffffffffffffffffffffffffffffffff1603611259576040517f08c379a000000000000000000000000000000000000000000000000000000000815260040161125090613f4b565b60405180910390fd5b80915050919050565b60008073ffffffffffffffffffffffffffffffffffffffff168273ffffffffffffffffffffffffffffffffffffffff16036112d2576040517f08c379a00000000000000000000000000000000000000000000000000000000081526004016112c990613fdd565b60405180910390fd5b600360008373ffffffffffffffffffffffffffffffffffffffff1673ffffffffffffffffffffffffffffffffffffffff168152602001908152602001600020549050919050565b6113216125c5565b61132b6000612643565b565b6000600760009054906101000a900473ffffffffffffffffffffffffffffffffffffffff16905090565b606060018054611366906137a0565b80601f0160208091040260200160405190810160405280929190818152602001828054611392906137a0565b80156113df5780601f106113b4576101008083540402835291602001916113df565b820191906000526020600020905b8154815290600101906020018083116113c257829003601f168201915b5050505050905090565b6113fb6113f4611e54565b8383612709565b5050565b6060600a805480602002602001604051908101604052809291908181526020016000905b8282101561169057838290600052602060002090600702016040518060e00160405290816000820160009054906101000a900473ffffffffffffffffffffffffffffffffffffffff1673ffffffffffffffffffffffffffffffffffffffff1673ffffffffffffffffffffffffffffffffffffffff168152602001600182015481526020016002820180546114b6906137a0565b80601f01602080910402602001604051908101604052809291908181526020018280546114e2906137a0565b801561152f5780601f106115045761010080835404028352916020019161152f565b820191906000526020600020905b81548152906001019060200180831161151257829003601f168201915b50505050508152602001600382015481526020016004820160009054906101000a900460ff1615151515815260200160058201805461156d906137a0565b80601f0160208091040260200160405190810160405280929190818152602001828054611599906137a0565b80156115e65780601f106115bb576101008083540402835291602001916115e6565b820191906000526020600020905b8154815290600101906020018083116115c957829003601f168201915b505050505081526020016006820180546115ff906137a0565b80601f016020809104026020016040519081016040528092919081815260200182805461162b906137a0565b80156116785780601f1061164d57610100808354040283529160200191611678565b820191906000526020600020905b81548152906001019060200180831161165b57829003601f168201915b50505050508152505081526020019060010190611423565b50505050905090565b6116aa6116a4611e54565b836124f3565b6116e9576040517f08c379a00000000000000000000000000000000000000000000000000000000081526004016116e090613edf565b60405180910390fd5b6116f584848484612875565b50505050565b606061170682611e09565b6000600660008481526020019081526020016000208054611726906137a0565b80601f0160208091040260200160405190810160405280929190818152602001828054611752906137a0565b801561179f5780601f106117745761010080835404028352916020019161179f565b820191906000526020600020905b81548152906001019060200180831161178257829003601f168201915b5050505050905060006117b06128d1565b905060008151036117c5578192505050611808565b6000825111156117fa5780826040516020016117e2929190614039565b60405160208183030381529060405292505050611808565b611803846128e8565b925050505b919050565b3373ffffffffffffffffffffffffffffffffffffffff166009828154811061183857611837613cd4565b5b906000526020600020906007020160000160009054906101000a900473ffffffffffffffffffffffffffffffffffffffff1673ffffffffffffffffffffffffffffffffffffffff16146118c0576040517f08c379a00000000000000000000000000000000000000000000000000000000081526004016118b7906140a9565b60405180910390fd5b600a600982815481106118d6576118d5613cd4565b5b906000526020600020906007020190806001815401808255809150506001900390600052602060002090600702016000909190919091506000820160009054906101000a900473ffffffffffffffffffffffffffffffffffffffff168160000160006101000a81548173ffffffffffffffffffffffffffffffffffffffff021916908373ffffffffffffffffffffffffffffffffffffffff160217905550600182015481600101556002820181600201908161199291906140df565b50600382015481600301556004820160009054906101000a900460ff168160040160006101000a81548160ff021916908315150217905550600582018160050190816119de91906140df565b50600682018160060190816119f391906140df565b50505050565b600a8181548110611a0957600080fd5b90600052602060002090600702016000915090508060000160009054906101000a900473ffffffffffffffffffffffffffffffffffffffff1690806001015490806002018054611a58906137a0565b80601f0160208091040260200160405190810160405280929190818152602001828054611a84906137a0565b8015611ad15780601f10611aa657610100808354040283529160200191611ad1565b820191906000526020600020905b815481529060010190602001808311611ab457829003601f168201915b5050505050908060030154908060040160009054906101000a900460ff1690806005018054611aff906137a0565b80601f0160208091040260200160405190810160405280929190818152602001828054611b2b906137a0565b8015611b785780601f10611b4d57610100808354040283529160200191611b78565b820191906000526020600020905b815481529060010190602001808311611b5b57829003601f168201915b505050505090806006018054611b8d906137a0565b80601f0160208091040260200160405190810160405280929190818152602001828054611bb9906137a0565b8015611c065780601f10611bdb57610100808354040283529160200191611c06565b820191906000526020600020905b815481529060010190602001808311611be957829003601f168201915b5050505050905087565b6000600560008473ffffffffffffffffffffffffffffffffffffffff1673ffffffffffffffffffffffffffffffffffffffff16815260200190815260200160002060008373ffffffffffffffffffffffffffffffffffffffff1673ffffffffffffffffffffffffffffffffffffffff16815260200190815260200160002060009054906101000a900460ff16905092915050565b611cac6125c5565b600073ffffffffffffffffffffffffffffffffffffffff168173ffffffffffffffffffffffffffffffffffffffff1603611d1b576040517f08c379a0000000000000000000000000000000000000000000000000000000008152600401611d1290614239565b60405180910390fd5b611d2481612643565b50565b60007f80ac58cd000000000000000000000000000000000000000000000000000000007bffffffffffffffffffffffffffffffffffffffffffffffffffffffff1916827bffffffffffffffffffffffffffffffffffffffffffffffffffffffff19161480611df257507f5b5e139f000000000000000000000000000000000000000000000000000000007bffffffffffffffffffffffffffffffffffffffffffffffffffffffff1916827bffffffffffffffffffffffffffffffffffffffffffffffffffffffff1916145b80611e025750611e0182612950565b5b9050919050565b611e12816129ba565b611e51576040517f08c379a0000000000000000000000000000000000000000000000000000000008152600401611e4890613f4b565b60405180910390fd5b50565b600033905090565b816004600083815260200190815260200160002060006101000a81548173ffffffffffffffffffffffffffffffffffffffff021916908373ffffffffffffffffffffffffffffffffffffffff160217905550808273ffffffffffffffffffffffffffffffffffffffff16611ecf836111dc565b73ffffffffffffffffffffffffffffffffffffffff167f8c5be1e5ebec7d5bd14f71427d1e84f3dd0314c0f7b2291e5b200ac8c7c3b92560405160405180910390a45050565b600081600001549050919050565b600073ffffffffffffffffffffffffffffffffffffffff168273ffffffffffffffffffffffffffffffffffffffff1603611f92576040517f08c379a0000000000000000000000000000000000000000000000000000000008152600401611f89906142a5565b60405180910390fd5b611f9b816129ba565b15611fdb576040517f08c379a0000000000000000000000000000000000000000000000000000000008152600401611fd290614311565b60405180910390fd5b611fe96000838360016129fb565b611ff2816129ba565b15612032576040517f08c379a000000000000000000000000000000000000000000000000000000000815260040161202990614311565b60405180910390fd5b6001600360008473ffffffffffffffffffffffffffffffffffffffff1673ffffffffffffffffffffffffffffffffffffffff16815260200190815260200160002060008282540192505081905550816002600083815260200190815260200160002060006101000a81548173ffffffffffffffffffffffffffffffffffffffff021916908373ffffffffffffffffffffffffffffffffffffffff160217905550808273ffffffffffffffffffffffffffffffffffffffff16600073ffffffffffffffffffffffffffffffffffffffff167fddf252ad1be2c89b69c2b068fc378daa952ba7f163c4a11628f55a4df523b3ef60405160405180910390a461213c600083836001612a01565b5050565b612149826129ba565b612188576040517f08c379a000000000000000000000000000000000000000000000000000000000815260040161217f906143a3565b60405180910390fd5b806006600084815260200190815260200160002090816121a89190613b33565b507ff8e1a15aba9398e019f0b49df1a4fde98ee17ae345cb5f6b5e2c27f5033e8ce7826040516121d89190613482565b60405180910390a15050565b6001816000016000828254019250508190555050565b8273ffffffffffffffffffffffffffffffffffffffff1661221a826111dc565b73ffffffffffffffffffffffffffffffffffffffff1614612270576040517f08c379a000000000000000000000000000000000000000000000000000000000815260040161226790614435565b60405180910390fd5b600073ffffffffffffffffffffffffffffffffffffffff168273ffffffffffffffffffffffffffffffffffffffff16036122df576040517f08c379a00000000000000000000000000000000000000000000000000000000081526004016122d6906144c7565b60405180910390fd5b6122ec83838360016129fb565b8273ffffffffffffffffffffffffffffffffffffffff1661230c826111dc565b73ffffffffffffffffffffffffffffffffffffffff1614612362576040517f08c379a000000000000000000000000000000000000000000000000000000000815260040161235990614435565b60405180910390fd5b6004600082815260200190815260200160002060006101000a81549073ffffffffffffffffffffffffffffffffffffffff02191690556001600360008573ffffffffffffffffffffffffffffffffffffffff1673ffffffffffffffffffffffffffffffffffffffff168152602001908152602001600020600082825403925050819055506001600360008473ffffffffffffffffffffffffffffffffffffffff1673ffffffffffffffffffffffffffffffffffffffff16815260200190815260200160002060008282540192505081905550816002600083815260200190815260200160002060006101000a81548173ffffffffffffffffffffffffffffffffffffffff021916908373ffffffffffffffffffffffffffffffffffffffff160217905550808273ffffffffffffffffffffffffffffffffffffffff168473ffffffffffffffffffffffffffffffffffffffff167fddf252ad1be2c89b69c2b068fc378daa952ba7f163c4a11628f55a4df523b3ef60405160405180910390a46124ee8383836001612a01565b505050565b6000806124ff836111dc565b90508073ffffffffffffffffffffffffffffffffffffffff168473ffffffffffffffffffffffffffffffffffffffff16148061254157506125408185611c10565b5b8061257f57508373ffffffffffffffffffffffffffffffffffffffff166125678461091f565b73ffffffffffffffffffffffffffffffffffffffff16145b91505092915050565b60006002600083815260200190815260200160002060009054906101000a900473ffffffffffffffffffffffffffffffffffffffff169050919050565b6125cd611e54565b73ffffffffffffffffffffffffffffffffffffffff166125eb61132d565b73ffffffffffffffffffffffffffffffffffffffff1614612641576040517f08c379a000000000000000000000000000000000000000000000000000000000815260040161263890614533565b60405180910390fd5b565b6000600760009054906101000a900473ffffffffffffffffffffffffffffffffffffffff16905081600760006101000a81548173ffffffffffffffffffffffffffffffffffffffff021916908373ffffffffffffffffffffffffffffffffffffffff1602179055508173ffffffffffffffffffffffffffffffffffffffff168173ffffffffffffffffffffffffffffffffffffffff167f8be0079c531659141344cd1fd0a4f28419497f9722a3daafe3b4186f6b6457e060405160405180910390a35050565b8173ffffffffffffffffffffffffffffffffffffffff168373ffffffffffffffffffffffffffffffffffffffff1603612777576040517f08c379a000000000000000000000000000000000000000000000000000000000815260040161276e9061459f565b60405180910390fd5b80600560008573ffffffffffffffffffffffffffffffffffffffff1673ffffffffffffffffffffffffffffffffffffffff16815260200190815260200160002060008473ffffffffffffffffffffffffffffffffffffffff1673ffffffffffffffffffffffffffffffffffffffff16815260200190815260200160002060006101000a81548160ff0219169083151502179055508173ffffffffffffffffffffffffffffffffffffffff168373ffffffffffffffffffffffffffffffffffffffff167f17307eab39ab6107e8899845ad3d59bd9653f200f220920489ca2b5937696c31836040516128689190612e86565b60405180910390a3505050565b6128808484846121fa565b61288c84848484612a07565b6128cb576040517f08c379a00000000000000000000000000000000000000000000000000000000081526004016128c290614631565b60405180910390fd5b50505050565b606060405180602001604052806000815250905090565b60606128f382611e09565b60006128fd6128d1565b9050600081511161291d5760405180602001604052806000815250612948565b8061292784612b8e565b604051602001612938929190614039565b6040516020818303038152906040525b915050919050565b60007f01ffc9a7000000000000000000000000000000000000000000000000000000007bffffffffffffffffffffffffffffffffffffffffffffffffffffffff1916827bffffffffffffffffffffffffffffffffffffffffffffffffffffffff1916149050919050565b60008073ffffffffffffffffffffffffffffffffffffffff166129dc83612588565b73ffffffffffffffffffffffffffffffffffffffff1614159050919050565b50505050565b50505050565b6000612a288473ffffffffffffffffffffffffffffffffffffffff16612c5c565b15612b81578373ffffffffffffffffffffffffffffffffffffffff1663150b7a02612a51611e54565b8786866040518563ffffffff1660e01b8152600401612a7394939291906146a6565b6020604051808303816000875af1925050508015612aaf57506040513d601f19601f82011682018060405250810190612aac9190614707565b60015b612b31573d8060008114612adf576040519150601f19603f3d011682016040523d82523d6000602084013e612ae4565b606091505b506000815103612b29576040517f08c379a0000000000000000000000000000000000000000000000000000000008152600401612b2090614631565b60405180910390fd5b805181602001fd5b63150b7a0260e01b7bffffffffffffffffffffffffffffffffffffffffffffffffffffffff1916817bffffffffffffffffffffffffffffffffffffffffffffffffffffffff191614915050612b86565b600190505b949350505050565b606060006001612b9d84612c7f565b01905060008167ffffffffffffffff811115612bbc57612bbb61328d565b5b6040519080825280601f01601f191660200182016040528015612bee5781602001600182028036833780820191505090505b509050600082602001820190505b600115612c51578080600190039150507f3031323334353637383961626364656600000000000000000000000000000000600a86061a8153600a8581612c4557612c44614734565b5b04945060008503612bfc575b819350505050919050565b6000808273ffffffffffffffffffffffffffffffffffffffff163b119050919050565b600080600090507a184f03e93ff9f4daa797ed6e38ed64bf6a1f0100000000000000008310612cdd577a184f03e93ff9f4daa797ed6e38ed64bf6a1f0100000000000000008381612cd357612cd2614734565b5b0492506040810190505b6d04ee2d6d415b85acef81000000008310612d1a576d04ee2d6d415b85acef81000000008381612d1057612d0f614734565b5b0492506020810190505b662386f26fc100008310612d4957662386f26fc100008381612d3f57612d3e614734565b5b0492506010810190505b6305f5e1008310612d72576305f5e1008381612d6857612d67614734565b5b0492506008810190505b6127108310612d97576127108381612d8d57612d8c614734565b5b0492506004810190505b60648310612dba5760648381612db057612daf614734565b5b0492506002810190505b600a8310612dc9576001810190505b80915050919050565b6000604051905090565b600080fd5b600080fd5b60007fffffffff0000000000000000000000000000000000000000000000000000000082169050919050565b612e1b81612de6565b8114612e2657600080fd5b50565b600081359050612e3881612e12565b92915050565b600060208284031215612e5457612e53612ddc565b5b6000612e6284828501612e29565b91505092915050565b60008115159050919050565b612e8081612e6b565b82525050565b6000602082019050612e9b6000830184612e77565b92915050565b600081519050919050565b600082825260208201905092915050565b6000819050602082019050919050565b600073ffffffffffffffffffffffffffffffffffffffff82169050919050565b6000612ef882612ecd565b9050919050565b612f0881612eed565b82525050565b6000819050919050565b612f2181612f0e565b82525050565b600081519050919050565b600082825260208201905092915050565b60005b83811015612f61578082015181840152602081019050612f46565b60008484015250505050565b6000601f19601f8301169050919050565b6000612f8982612f27565b612f938185612f32565b9350612fa3818560208601612f43565b612fac81612f6d565b840191505092915050565b612fc081612e6b565b82525050565b600060e083016000830151612fde6000860182612eff565b506020830151612ff16020860182612f18565b50604083015184820360408601526130098282612f7e565b915050606083015161301e6060860182612f18565b5060808301516130316080860182612fb7565b5060a083015184820360a08601526130498282612f7e565b91505060c083015184820360c08601526130638282612f7e565b9150508091505092915050565b600061307c8383612fc6565b905092915050565b6000602082019050919050565b600061309c82612ea1565b6130a68185612eac565b9350836020820285016130b885612ebd565b8060005b858110156130f457848403895281516130d58582613070565b94506130e083613084565b925060208a019950506001810190506130bc565b50829750879550505050505092915050565b600060208201905081810360008301526131208184613091565b905092915050565b600082825260208201905092915050565b600061314482612f27565b61314e8185613128565b935061315e818560208601612f43565b61316781612f6d565b840191505092915050565b6000602082019050818103600083015261318c8184613139565b905092915050565b61319d81612f0e565b81146131a857600080fd5b50565b6000813590506131ba81613194565b92915050565b6000602082840312156131d6576131d5612ddc565b5b60006131e4848285016131ab565b91505092915050565b6131f681612eed565b82525050565b600060208201905061321160008301846131ed565b92915050565b61322081612eed565b811461322b57600080fd5b50565b60008135905061323d81613217565b92915050565b6000806040838503121561325a57613259612ddc565b5b60006132688582860161322e565b9250506020613279858286016131ab565b9150509250929050565b600080fd5b600080fd5b7f4e487b7100000000000000000000000000000000000000000000000000000000600052604160045260246000fd5b6132c582612f6d565b810181811067ffffffffffffffff821117156132e4576132e361328d565b5b80604052505050565b60006132f7612dd2565b905061330382826132bc565b919050565b600067ffffffffffffffff8211156133235761332261328d565b5b61332c82612f6d565b9050602081019050919050565b82818337600083830152505050565b600061335b61335684613308565b6132ed565b90508281526020810184848401111561337757613376613288565b5b613382848285613339565b509392505050565b600082601f83011261339f5761339e613283565b5b81356133af848260208601613348565b91505092915050565b600080600080608085870312156133d2576133d1612ddc565b5b600085013567ffffffffffffffff8111156133f0576133ef612de1565b5b6133fc8782880161338a565b945050602061340d878288016131ab565b935050604085013567ffffffffffffffff81111561342e5761342d612de1565b5b61343a8782880161338a565b925050606085013567ffffffffffffffff81111561345b5761345a612de1565b5b6134678782880161338a565b91505092959194509250565b61347c81612f0e565b82525050565b60006020820190506134976000830184613473565b92915050565b6000806000606084860312156134b6576134b5612ddc565b5b60006134c48682870161322e565b93505060206134d58682870161322e565b92505060406134e6868287016131ab565b9150509250925092565b600060e082019050613505600083018a6131ed565b6135126020830189613473565b81810360408301526135248188613139565b90506135336060830187613473565b6135406080830186612e77565b81810360a08301526135528185613139565b905081810360c08301526135668184613139565b905098975050505050505050565b60006020828403121561358a57613589612ddc565b5b60006135988482850161322e565b91505092915050565b6135aa81612e6b565b81146135b557600080fd5b50565b6000813590506135c7816135a1565b92915050565b600080604083850312156135e4576135e3612ddc565b5b60006135f28582860161322e565b9250506020613603858286016135b8565b9150509250929050565b600067ffffffffffffffff8211156136285761362761328d565b5b61363182612f6d565b9050602081019050919050565b600061365161364c8461360d565b6132ed565b90508281526020810184848401111561366d5761366c613288565b5b613678848285613339565b509392505050565b600082601f83011261369557613694613283565b5b81356136a584826020860161363e565b91505092915050565b600080600080608085870312156136c8576136c7612ddc565b5b60006136d68782880161322e565b94505060206136e78782880161322e565b93505060406136f8878288016131ab565b925050606085013567ffffffffffffffff81111561371957613718612de1565b5b61372587828801613680565b91505092959194509250565b6000806040838503121561374857613747612ddc565b5b60006137568582860161322e565b92505060206137678582860161322e565b9150509250929050565b7f4e487b7100000000000000000000000000000000000000000000000000000000600052602260045260246000fd5b600060028204905060018216806137b857607f821691505b6020821081036137cb576137ca613771565b5b50919050565b7f4552433732313a20617070726f76616c20746f2063757272656e74206f776e6560008201527f7200000000000000000000000000000000000000000000000000000000000000602082015250565b600061382d602183613128565b9150613838826137d1565b604082019050919050565b6000602082019050818103600083015261385c81613820565b9050919050565b7f4552433732313a20617070726f76652063616c6c6572206973206e6f7420746f60008201527f6b656e206f776e6572206f7220617070726f76656420666f7220616c6c000000602082015250565b60006138bf603d83613128565b91506138ca82613863565b604082019050919050565b600060208201905081810360008301526138ee816138b2565b9050919050565b7f496e697469616c2070726963652073686f756c6420626520677265617465722060008201527f7468616e20300000000000000000000000000000000000000000000000000000602082015250565b6000613951602683613128565b915061395c826138f5565b604082019050919050565b6000602082019050818103600083015261398081613944565b9050919050565b60008190508160005260206000209050919050565b60006020601f8301049050919050565b600082821b905092915050565b6000600883026139e97fffffffffffffffffffffffffffffffffffffffffffffffffffffffffffffffff826139ac565b6139f386836139ac565b95508019841693508086168417925050509392505050565b6000819050919050565b6000613a30613a2b613a2684612f0e565b613a0b565b612f0e565b9050919050565b6000819050919050565b613a4a83613a15565b613a5e613a5682613a37565b8484546139b9565b825550505050565b600090565b613a73613a66565b613a7e818484613a41565b505050565b5b81811015613aa257613a97600082613a6b565b600181019050613a84565b5050565b601f821115613ae757613ab881613987565b613ac18461399c565b81016020851015613ad0578190505b613ae4613adc8561399c565b830182613a83565b50505b505050565b600082821c905092915050565b6000613b0a60001984600802613aec565b1980831691505092915050565b6000613b238383613af9565b9150826002028217905092915050565b613b3c82612f27565b67ffffffffffffffff811115613b5557613b5461328d565b5b613b5f82546137a0565b613b6a828285613aa6565b600060209050601f831160018114613b9d5760008415613b8b578287015190505b613b958582613b17565b865550613bfd565b601f198416613bab86613987565b60005b82811015613bd357848901518255600182019150602085019450602081019050613bae565b86831015613bf05784890151613bec601f891682613af9565b8355505b6001600288020188555050505b505050505050565b7f4e487b7100000000000000000000000000000000000000000000000000000000600052601160045260246000fd5b6000613c3f82612f0e565b9150613c4a83612f0e565b9250828203905081811115613c6257613c61613c05565b5b92915050565b7f696e76616c696420696e64657800000000000000000000000000000000000000600082015250565b6000613c9e600d83613128565b9150613ca982613c68565b602082019050919050565b60006020820190508181036000830152613ccd81613c91565b9050919050565b7f4e487b7100000000000000000000000000000000000000000000000000000000600052603260045260246000fd5b7f496e73756666696369656e7420616d6f756e7400000000000000000000000000600082015250565b6000613d39601383613128565b9150613d4482613d03565b602082019050919050565b60006020820190508181036000830152613d6881613d2c565b9050919050565b7f546f6b656e20616c726561647920736f6c640000000000000000000000000000600082015250565b6000613da5601283613128565b9150613db082613d6f565b602082019050919050565b60006020820190508181036000830152613dd481613d98565b9050919050565b7f546f6b656e20616c72656164792062656c6f6e677320746f207468652075736560008201527f7200000000000000000000000000000000000000000000000000000000000000602082015250565b6000613e37602183613128565b9150613e4282613ddb565b604082019050919050565b60006020820190508181036000830152613e6681613e2a565b9050919050565b7f4552433732313a2063616c6c6572206973206e6f7420746f6b656e206f776e6560008201527f72206f7220617070726f76656400000000000000000000000000000000000000602082015250565b6000613ec9602d83613128565b9150613ed482613e6d565b604082019050919050565b60006020820190508181036000830152613ef881613ebc565b9050919050565b7f4552433732313a20696e76616c696420746f6b656e2049440000000000000000600082015250565b6000613f35601883613128565b9150613f4082613eff565b602082019050919050565b60006020820190508181036000830152613f6481613f28565b9050919050565b7f4552433732313a2061646472657373207a65726f206973206e6f74206120766160008201527f6c6964206f776e65720000000000000000000000000000000000000000000000602082015250565b6000613fc7602983613128565b9150613fd282613f6b565b604082019050919050565b60006020820190508181036000830152613ff681613fba565b9050919050565b600081905092915050565b600061401382612f27565b61401d8185613ffd565b935061402d818560208601612f43565b80840191505092915050565b60006140458285614008565b91506140518284614008565b91508190509392505050565b7f4f6e6c79204f776e65722063616e206c697374207468656972204e4654000000600082015250565b6000614093601d83613128565b915061409e8261405d565b602082019050919050565b600060208201905081810360008301526140c281614086565b9050919050565b6000815490506140d8816137a0565b9050919050565b8181036140ed5750506141c5565b6140f6826140c9565b67ffffffffffffffff81111561410f5761410e61328d565b5b61411982546137a0565b614124828285613aa6565b6000601f8311600181146141535760008415614141578287015490505b61414b8582613b17565b8655506141be565b601f19841661416187613987565b965061416c86613987565b60005b828110156141945784890154825560018201915060018501945060208101905061416f565b868310156141b157848901546141ad601f891682613af9565b8355505b6001600288020188555050505b5050505050505b565b7f4f776e61626c653a206e6577206f776e657220697320746865207a65726f206160008201527f6464726573730000000000000000000000000000000000000000000000000000602082015250565b6000614223602683613128565b915061422e826141c7565b604082019050919050565b6000602082019050818103600083015261425281614216565b9050919050565b7f4552433732313a206d696e7420746f20746865207a65726f2061646472657373600082015250565b600061428f602083613128565b915061429a82614259565b602082019050919050565b600060208201905081810360008301526142be81614282565b9050919050565b7f4552433732313a20746f6b656e20616c7265616479206d696e74656400000000600082015250565b60006142fb601c83613128565b9150614306826142c5565b602082019050919050565b6000602082019050818103600083015261432a816142ee565b9050919050565b7f45524337323155524953746f726167653a2055524920736574206f66206e6f6e60008201527f6578697374656e7420746f6b656e000000000000000000000000000000000000602082015250565b600061438d602e83613128565b915061439882614331565b604082019050919050565b600060208201905081810360008301526143bc81614380565b9050919050565b7f4552433732313a207472616e736665722066726f6d20696e636f72726563742060008201527f6f776e6572000000000000000000000000000000000000000000000000000000602082015250565b600061441f602583613128565b915061442a826143c3565b604082019050919050565b6000602082019050818103600083015261444e81614412565b9050919050565b7f4552433732313a207472616e7366657220746f20746865207a65726f2061646460008201527f7265737300000000000000000000000000000000000000000000000000000000602082015250565b60006144b1602483613128565b91506144bc82614455565b604082019050919050565b600060208201905081810360008301526144e0816144a4565b9050919050565b7f4f776e61626c653a2063616c6c6572206973206e6f7420746865206f776e6572600082015250565b600061451d602083613128565b9150614528826144e7565b602082019050919050565b6000602082019050818103600083015261454c81614510565b9050919050565b7f4552433732313a20617070726f766520746f2063616c6c657200000000000000600082015250565b6000614589601983613128565b915061459482614553565b602082019050919050565b600060208201905081810360008301526145b88161457c565b9050919050565b7f4552433732313a207472616e7366657220746f206e6f6e20455243373231526560008201527f63656976657220696d706c656d656e7465720000000000000000000000000000602082015250565b600061461b603283613128565b9150614626826145bf565b604082019050919050565b6000602082019050818103600083015261464a8161460e565b9050919050565b600081519050919050565b600082825260208201905092915050565b600061467882614651565b614682818561465c565b9350614692818560208601612f43565b61469b81612f6d565b840191505092915050565b60006080820190506146bb60008301876131ed565b6146c860208301866131ed565b6146d56040830185613473565b81810360608301526146e7818461466d565b905095945050505050565b60008151905061470181612e12565b92915050565b60006020828403121561471d5761471c612ddc565b5b600061472b848285016146f2565b91505092915050565b7f4e487b7100000000000000000000000000000000000000000000000000000000600052601260045260246000fdfea26469706673582212207f108b6302a6adeb235972eb338b9230b5e3ad435e5269b5bd12b56bae0960bb64736f6c63430008130033",
  "linkReferences": {},
  "deployedLinkReferences": {}
}