{
  "_format": "hh-sol-artifact-1",
  "contractName": "Market",
  "sourceName": "contracts/NFTmarketplace.sol",
  "abi": [
    {
      "inputs": [],
      "stateMutability": "nonpayable",
      "type": "constructor"
    },
    {
      "anonymous": false,
      "inputs": [
        {
          "indexed": true,
          "internalType": "address",
          "name": "owner",
          "type": "address"
        },
        {
          "indexed": true,
          "internalType": "address",
          "name": "approved",
          "type": "address"
        },
        {
          "indexed": true,
          "internalType": "uint256",
          "name": "tokenId",
          "type": "uint256"
        }
      ],
      "name": "Approval",
      "type": "event"
    },
    {
      "anonymous": false,
      "inputs": [
        {
          "indexed": true,
          "internalType": "address",
          "name": "owner",
          "type": "address"
        },
        {
          "indexed": true,
          "internalType": "address",
          "name": "operator",
          "type": "address"
        },
        {
          "indexed": false,
          "internalType": "bool",
          "name": "approved",
          "type": "bool"
        }
      ],
      "name": "ApprovalForAll",
      "type": "event"
    },
    {
      "anonymous": false,
      "inputs": [
        {
          "indexed": false,
          "internalType": "uint256",
          "name": "_fromTokenId",
          "type": "uint256"
        },
        {
          "indexed": false,
          "internalType": "uint256",
          "name": "_toTokenId",
          "type": "uint256"
        }
      ],
      "name": "BatchMetadataUpdate",
      "type": "event"
    },
    {
      "anonymous": false,
      "inputs": [
        {
          "indexed": false,
          "internalType": "uint256",
          "name": "_tokenId",
          "type": "uint256"
        }
      ],
      "name": "MetadataUpdate",
      "type": "event"
    },
    {
      "anonymous": false,
      "inputs": [
        {
          "indexed": true,
          "internalType": "address",
          "name": "owner",
          "type": "address"
        },
        {
          "indexed": true,
          "internalType": "uint256",
          "name": "tokenId",
          "type": "uint256"
        },
        {
          "indexed": false,
          "internalType": "string",
          "name": "tokenURI",
          "type": "string"
        },
        {
          "indexed": false,
          "internalType": "string",
          "name": "name",
          "type": "string"
        },
        {
          "indexed": false,
          "internalType": "string",
          "name": "description",
          "type": "string"
        },
        {
          "indexed": false,
          "internalType": "string",
          "name": "category",
          "type": "string"
        }
      ],
      "name": "NFTMinted",
      "type": "event"
    },
    {
      "anonymous": false,
      "inputs": [
        {
          "indexed": true,
          "internalType": "address",
          "name": "previousOwner",
          "type": "address"
        },
        {
          "indexed": true,
          "internalType": "address",
          "name": "newOwner",
          "type": "address"
        }
      ],
      "name": "OwnershipTransferred",
      "type": "event"
    },
    {
      "anonymous": false,
      "inputs": [
        {
          "indexed": true,
          "internalType": "address",
          "name": "from",
          "type": "address"
        },
        {
          "indexed": true,
          "internalType": "address",
          "name": "to",
          "type": "address"
        },
        {
          "indexed": true,
          "internalType": "uint256",
          "name": "tokenId",
          "type": "uint256"
        }
      ],
      "name": "Transfer",
      "type": "event"
    },
    {
      "inputs": [
        {
          "internalType": "address",
          "name": "to",
          "type": "address"
        },
        {
          "internalType": "uint256",
          "name": "tokenId",
          "type": "uint256"
        }
      ],
      "name": "approve",
      "outputs": [],
      "stateMutability": "nonpayable",
      "type": "function"
    },
    {
      "inputs": [
        {
          "internalType": "uint256",
          "name": "",
          "type": "uint256"
        }
      ],
      "name": "auctions",
      "outputs": [
        {
          "internalType": "uint256",
          "name": "tokenIndex",
          "type": "uint256"
        },
        {
          "internalType": "uint256",
          "name": "startingPrice",
          "type": "uint256"
        },
        {
          "internalType": "address payable",
          "name": "creator",
          "type": "address"
        },
        {
          "internalType": "uint256",
          "name": "endTime",
          "type": "uint256"
        },
        {
          "internalType": "uint256",
          "name": "highestBid",
          "type": "uint256"
        },
        {
          "internalType": "address",
          "name": "highestBidder",
          "type": "address"
        }
      ],
      "stateMutability": "view",
      "type": "function"
    },
    {
      "inputs": [
        {
          "internalType": "address",
          "name": "owner",
          "type": "address"
        }
      ],
      "name": "balanceOf",
      "outputs": [
        {
          "internalType": "uint256",
          "name": "",
          "type": "uint256"
        }
      ],
      "stateMutability": "view",
      "type": "function"
    },
    {
      "inputs": [
        {
          "internalType": "uint256",
          "name": "auctionIndex",
          "type": "uint256"
        }
      ],
      "name": "bidOnAuction",
      "outputs": [],
      "stateMutability": "payable",
      "type": "function"
    },
    {
      "inputs": [
        {
          "internalType": "uint256",
          "name": "auctionIndex",
          "type": "uint256"
        }
      ],
      "name": "finalizeAuction",
      "outputs": [],
      "stateMutability": "payable",
      "type": "function"
    },
    {
      "inputs": [],
      "name": "getAllAuctions",
      "outputs": [
        {
          "components": [
            {
              "internalType": "uint256",
              "name": "tokenIndex",
              "type": "uint256"
            },
            {
              "internalType": "uint256",
              "name": "startingPrice",
              "type": "uint256"
            },
            {
              "internalType": "address payable",
              "name": "creator",
              "type": "address"
            },
            {
              "internalType": "uint256",
              "name": "endTime",
              "type": "uint256"
            },
            {
              "internalType": "uint256",
              "name": "highestBid",
              "type": "uint256"
            },
            {
              "internalType": "address",
              "name": "highestBidder",
              "type": "address"
            }
          ],
          "internalType": "struct Market.Auction[]",
          "name": "",
          "type": "tuple[]"
        }
      ],
      "stateMutability": "view",
      "type": "function"
    },
    {
      "inputs": [
        {
          "internalType": "uint256",
          "name": "tokenId",
          "type": "uint256"
        }
      ],
      "name": "getApproved",
      "outputs": [
        {
          "internalType": "address",
          "name": "",
          "type": "address"
        }
      ],
      "stateMutability": "view",
      "type": "function"
    },
    {
      "inputs": [
        {
          "internalType": "address",
          "name": "owner",
          "type": "address"
        },
        {
          "internalType": "address",
          "name": "operator",
          "type": "address"
        }
      ],
      "name": "isApprovedForAll",
      "outputs": [
        {
          "internalType": "bool",
          "name": "",
          "type": "bool"
        }
      ],
      "stateMutability": "view",
      "type": "function"
    },
    {
      "inputs": [
        {
          "internalType": "string",
          "name": "tokenURI",
          "type": "string"
        },
        {
          "internalType": "string",
          "name": "name",
          "type": "string"
        },
        {
          "internalType": "string",
          "name": "description",
          "type": "string"
        },
        {
          "internalType": "string",
          "name": "category",
          "type": "string"
        }
      ],
      "name": "mintNFT",
      "outputs": [
        {
          "internalType": "uint256",
          "name": "",
          "type": "uint256"
        }
      ],
      "stateMutability": "nonpayable",
      "type": "function"
    },
    {
      "inputs": [],
      "name": "name",
      "outputs": [
        {
          "internalType": "string",
          "name": "",
          "type": "string"
        }
      ],
      "stateMutability": "view",
      "type": "function"
    },
    {
      "inputs": [],
      "name": "owner",
      "outputs": [
        {
          "internalType": "address",
          "name": "",
          "type": "address"
        }
      ],
      "stateMutability": "view",
      "type": "function"
    },
    {
      "inputs": [
        {
          "internalType": "uint256",
          "name": "tokenId",
          "type": "uint256"
        }
      ],
      "name": "ownerOf",
      "outputs": [
        {
          "internalType": "address",
          "name": "",
          "type": "address"
        }
      ],
      "stateMutability": "view",
      "type": "function"
    },
    {
      "inputs": [
        {
          "internalType": "uint256",
          "name": "index",
          "type": "uint256"
        }
      ],
      "name": "purchaseNFT",
      "outputs": [],
      "stateMutability": "payable",
      "type": "function"
    },
    {
      "inputs": [
        {
          "internalType": "uint256",
          "name": "index",
          "type": "uint256"
        }
      ],
      "name": "removeFromSale",
      "outputs": [],
      "stateMutability": "nonpayable",
      "type": "function"
    },
    {
      "inputs": [],
      "name": "renounceOwnership",
      "outputs": [],
      "stateMutability": "nonpayable",
      "type": "function"
    },
    {
      "inputs": [
        {
          "internalType": "address",
          "name": "from",
          "type": "address"
        },
        {
          "internalType": "address",
          "name": "to",
          "type": "address"
        },
        {
          "internalType": "uint256",
          "name": "tokenId",
          "type": "uint256"
        }
      ],
      "name": "safeTransferFrom",
      "outputs": [],
      "stateMutability": "nonpayable",
      "type": "function"
    },
    {
      "inputs": [
        {
          "internalType": "address",
          "name": "from",
          "type": "address"
        },
        {
          "internalType": "address",
          "name": "to",
          "type": "address"
        },
        {
          "internalType": "uint256",
          "name": "tokenId",
          "type": "uint256"
        },
        {
          "internalType": "bytes",
          "name": "data",
          "type": "bytes"
        }
      ],
      "name": "safeTransferFrom",
      "outputs": [],
      "stateMutability": "nonpayable",
      "type": "function"
    },
    {
      "inputs": [
        {
          "internalType": "uint256",
          "name": "index",
          "type": "uint256"
        },
        {
          "internalType": "uint256",
          "name": "price",
          "type": "uint256"
        }
      ],
      "name": "sellNFT",
      "outputs": [],
      "stateMutability": "nonpayable",
      "type": "function"
    },
    {
      "inputs": [
        {
          "internalType": "address",
          "name": "operator",
          "type": "address"
        },
        {
          "internalType": "bool",
          "name": "approved",
          "type": "bool"
        }
      ],
      "name": "setApprovalForAll",
      "outputs": [],
      "stateMutability": "nonpayable",
      "type": "function"
    },
    {
      "inputs": [
        {
          "internalType": "uint256",
          "name": "startingPrice",
          "type": "uint256"
        },
        {
          "internalType": "uint256",
          "name": "durationInSeconds",
          "type": "uint256"
        },
        {
          "internalType": "uint256",
          "name": "index",
          "type": "uint256"
        }
      ],
      "name": "startAuction",
      "outputs": [],
      "stateMutability": "nonpayable",
      "type": "function"
    },
    {
      "inputs": [
        {
          "internalType": "bytes4",
          "name": "interfaceId",
          "type": "bytes4"
        }
      ],
      "name": "supportsInterface",
      "outputs": [
        {
          "internalType": "bool",
          "name": "",
          "type": "bool"
        }
      ],
      "stateMutability": "view",
      "type": "function"
    },
    {
      "inputs": [],
      "name": "symbol",
      "outputs": [
        {
          "internalType": "string",
          "name": "",
          "type": "string"
        }
      ],
      "stateMutability": "view",
      "type": "function"
    },
    {
      "inputs": [
        {
          "internalType": "uint256",
          "name": "tokenId",
          "type": "uint256"
        }
      ],
      "name": "tokenURI",
      "outputs": [
        {
          "internalType": "string",
          "name": "",
          "type": "string"
        }
      ],
      "stateMutability": "view",
      "type": "function"
    },
    {
      "inputs": [
        {
          "internalType": "uint256",
          "name": "",
          "type": "uint256"
        }
      ],
      "name": "tokens",
      "outputs": [
        {
          "internalType": "address payable",
          "name": "owner",
          "type": "address"
        },
        {
          "internalType": "uint256",
          "name": "tokenId",
          "type": "uint256"
        },
        {
          "internalType": "string",
          "name": "tokenURI",
          "type": "string"
        },
        {
          "internalType": "uint256",
          "name": "price",
          "type": "uint256"
        },
        {
          "internalType": "string",
          "name": "name",
          "type": "string"
        },
        {
          "internalType": "string",
          "name": "description",
          "type": "string"
        },
        {
          "internalType": "string",
          "name": "category",
          "type": "string"
        },
        {
          "internalType": "bool",
          "name": "isListedForSale",
          "type": "bool"
        },
        {
          "internalType": "bool",
          "name": "isListedForAuction",
          "type": "bool"
        }
      ],
      "stateMutability": "view",
      "type": "function"
    },
    {
      "inputs": [
        {
          "internalType": "address",
          "name": "from",
          "type": "address"
        },
        {
          "internalType": "address",
          "name": "to",
          "type": "address"
        },
        {
          "internalType": "uint256",
          "name": "tokenId",
          "type": "uint256"
        }
      ],
      "name": "transferFrom",
      "outputs": [],
      "stateMutability": "nonpayable",
      "type": "function"
    },
    {
      "inputs": [
        {
          "internalType": "address",
          "name": "newOwner",
          "type": "address"
        }
      ],
      "name": "transferOwnership",
      "outputs": [],
      "stateMutability": "nonpayable",
      "type": "function"
    },
    {
      "inputs": [],
      "name": "viewAllTokens",
      "outputs": [
        {
          "components": [
            {
              "internalType": "address payable",
              "name": "owner",
              "type": "address"
            },
            {
              "internalType": "uint256",
              "name": "tokenId",
              "type": "uint256"
            },
            {
              "internalType": "string",
              "name": "tokenURI",
              "type": "string"
            },
            {
              "internalType": "uint256",
              "name": "price",
              "type": "uint256"
            },
            {
              "internalType": "string",
              "name": "name",
              "type": "string"
            },
            {
              "internalType": "string",
              "name": "description",
              "type": "string"
            },
            {
              "internalType": "string",
              "name": "category",
              "type": "string"
            },
            {
              "internalType": "bool",
              "name": "isListedForSale",
              "type": "bool"
            },
            {
              "internalType": "bool",
              "name": "isListedForAuction",
              "type": "bool"
            }
          ],
          "internalType": "struct Market.Token[]",
          "name": "",
          "type": "tuple[]"
        }
      ],
      "stateMutability": "view",
      "type": "function"
    }
  ],
  "bytecode": "0x60806040523480156200001157600080fd5b506040518060400160405280600c81526020017f4d61726b65745f506c61636500000000000000000000000000000000000000008152506040518060400160405280600381526020017f4d4b50000000000000000000000000000000000000000000000000000000000081525081600090816200008f919062000412565b508060019081620000a1919062000412565b505050620000c4620000b8620000ca60201b60201c565b620000d260201b60201c565b620004f9565b600033905090565b6000600760009054906101000a900473ffffffffffffffffffffffffffffffffffffffff16905081600760006101000a81548173ffffffffffffffffffffffffffffffffffffffff021916908373ffffffffffffffffffffffffffffffffffffffff1602179055508173ffffffffffffffffffffffffffffffffffffffff168173ffffffffffffffffffffffffffffffffffffffff167f8be0079c531659141344cd1fd0a4f28419497f9722a3daafe3b4186f6b6457e060405160405180910390a35050565b600081519050919050565b7f4e487b7100000000000000000000000000000000000000000000000000000000600052604160045260246000fd5b7f4e487b7100000000000000000000000000000000000000000000000000000000600052602260045260246000fd5b600060028204905060018216806200021a57607f821691505b60208210810362000230576200022f620001d2565b5b50919050565b60008190508160005260206000209050919050565b60006020601f8301049050919050565b600082821b905092915050565b6000600883026200029a7fffffffffffffffffffffffffffffffffffffffffffffffffffffffffffffffff826200025b565b620002a686836200025b565b95508019841693508086168417925050509392505050565b6000819050919050565b6000819050919050565b6000620002f3620002ed620002e784620002be565b620002c8565b620002be565b9050919050565b6000819050919050565b6200030f83620002d2565b620003276200031e82620002fa565b84845462000268565b825550505050565b600090565b6200033e6200032f565b6200034b81848462000304565b505050565b5b8181101562000373576200036760008262000334565b60018101905062000351565b5050565b601f821115620003c2576200038c8162000236565b62000397846200024b565b81016020851015620003a7578190505b620003bf620003b6856200024b565b83018262000350565b50505b505050565b600082821c905092915050565b6000620003e760001984600802620003c7565b1980831691505092915050565b6000620004028383620003d4565b9150826002028217905092915050565b6200041d8262000198565b67ffffffffffffffff811115620004395762000438620001a3565b5b62000445825462000201565b6200045282828562000377565b600060209050601f8311600181146200048a576000841562000475578287015190505b620004818582620003f4565b865550620004f1565b601f1984166200049a8662000236565b60005b82811015620004c4578489015182556001820191506020850194506020810190506200049d565b86831015620004e45784890151620004e0601f891682620003d4565b8355505b6001600288020188555050505b505050505050565b6157c980620005096000396000f3fe60806040526004361061019c5760003560e01c806370a08231116100ec578063b88d4fde1161008a578063e808386311610064578063e8083863146105c7578063e985e9c5146105e3578063eec9057114610620578063f2fde38b1461065d5761019c565b8063b88d4fde14610536578063c87b56dd1461055f578063cbd2bdfd1461059c5761019c565b806391a48a1e116100c657806391a48a1e1461049057806391e078bb146104b957806395d89b41146104e2578063a22cb4651461050d5761019c565b806370a0823114610411578063715018a61461044e5780638da5cb5b146104655761019c565b8063150bde031161015957806342842e0e1161013357806342842e0e146103245780634f64b2be1461034d578063571a26a0146103925780636352211e146103d45761019c565b8063150bde03146102c357806323b872dd146102df57806326b7aeea146103085761019c565b806301ffc9a7146101a157806302cfba81146101de57806306fdde0314610209578063081812fc14610234578063095ea7b3146102715780631361a3b61461029a575b600080fd5b3480156101ad57600080fd5b506101c860048036038101906101c391906139f1565b610686565b6040516101d59190613a39565b60405180910390f35b3480156101ea57600080fd5b506101f36106e7565b6040516102009190613ce9565b60405180910390f35b34801561021557600080fd5b5061021e610a2f565b60405161022b9190613d55565b60405180910390f35b34801561024057600080fd5b5061025b60048036038101906102569190613da3565b610ac1565b6040516102689190613df1565b60405180910390f35b34801561027d57600080fd5b5061029860048036038101906102939190613e38565b610b07565b005b3480156102a657600080fd5b506102c160048036038101906102bc9190613da3565b610c1e565b005b6102dd60048036038101906102d89190613da3565b610d14565b005b3480156102eb57600080fd5b5061030660048036038101906103019190613e78565b610f47565b005b610322600480360381019061031d9190613da3565b610fa7565b005b34801561033057600080fd5b5061034b60048036038101906103469190613e78565b61129f565b005b34801561035957600080fd5b50610374600480360381019061036f9190613da3565b6112bf565b60405161038999989796959493929190613ee9565b60405180910390f35b34801561039e57600080fd5b506103b960048036038101906103b49190613da3565b611577565b6040516103cb96959493929190613f92565b60405180910390f35b3480156103e057600080fd5b506103fb60048036038101906103f69190613da3565b611603565b6040516104089190613df1565b60405180910390f35b34801561041d57600080fd5b5061043860048036038101906104339190613ff3565b611689565b6040516104459190614020565b60405180910390f35b34801561045a57600080fd5b50610463611740565b005b34801561047157600080fd5b5061047a611754565b6040516104879190613df1565b60405180910390f35b34801561049c57600080fd5b506104b760048036038101906104b2919061403b565b61177e565b005b3480156104c557600080fd5b506104e060048036038101906104db919061407b565b6119cc565b005b3480156104ee57600080fd5b506104f7611c48565b6040516105049190613d55565b60405180910390f35b34801561051957600080fd5b50610534600480360381019061052f91906140fa565b611cda565b005b34801561054257600080fd5b5061055d6004803603810190610558919061426f565b611cf0565b005b34801561056b57600080fd5b5061058660048036038101906105819190613da3565b611d52565b6040516105939190613d55565b60405180910390f35b3480156105a857600080fd5b506105b1611e64565b6040516105be919061442b565b60405180910390f35b6105e160048036038101906105dc9190613da3565b611f97565b005b3480156105ef57600080fd5b5061060a6004803603810190610605919061444d565b6125a0565b6040516106179190613a39565b60405180910390f35b34801561062c57600080fd5b506106476004803603810190610642919061452e565b612634565b6040516106549190614020565b60405180910390f35b34801561066957600080fd5b50610684600480360381019061067f9190613ff3565b612857565b005b6000634906490660e01b7bffffffffffffffffffffffffffffffffffffffffffffffffffffffff1916827bffffffffffffffffffffffffffffffffffffffffffffffffffffffff191614806106e057506106df826128da565b5b9050919050565b60606009805480602002602001604051908101604052809291908181526020016000905b82821015610a265783829060005260206000209060080201604051806101200160405290816000820160009054906101000a900473ffffffffffffffffffffffffffffffffffffffff1673ffffffffffffffffffffffffffffffffffffffff1673ffffffffffffffffffffffffffffffffffffffff1681526020016001820154815260200160028201805461079f90614634565b80601f01602080910402602001604051908101604052809291908181526020018280546107cb90614634565b80156108185780601f106107ed57610100808354040283529160200191610818565b820191906000526020600020905b8154815290600101906020018083116107fb57829003601f168201915b505050505081526020016003820154815260200160048201805461083b90614634565b80601f016020809104026020016040519081016040528092919081815260200182805461086790614634565b80156108b45780601f10610889576101008083540402835291602001916108b4565b820191906000526020600020905b81548152906001019060200180831161089757829003601f168201915b505050505081526020016005820180546108cd90614634565b80601f01602080910402602001604051908101604052809291908181526020018280546108f990614634565b80156109465780601f1061091b57610100808354040283529160200191610946565b820191906000526020600020905b81548152906001019060200180831161092957829003601f168201915b5050505050815260200160068201805461095f90614634565b80601f016020809104026020016040519081016040528092919081815260200182805461098b90614634565b80156109d85780601f106109ad576101008083540402835291602001916109d8565b820191906000526020600020905b8154815290600101906020018083116109bb57829003601f168201915b505050505081526020016007820160009054906101000a900460ff161515151581526020016007820160019054906101000a900460ff1615151515815250508152602001906001019061070b565b50505050905090565b606060008054610a3e90614634565b80601f0160208091040260200160405190810160405280929190818152602001828054610a6a90614634565b8015610ab75780601f10610a8c57610100808354040283529160200191610ab7565b820191906000526020600020905b815481529060010190602001808311610a9a57829003601f168201915b5050505050905090565b6000610acc826129bc565b6004600083815260200190815260200160002060009054906101000a900473ffffffffffffffffffffffffffffffffffffffff169050919050565b6000610b1282611603565b90508073ffffffffffffffffffffffffffffffffffffffff168373ffffffffffffffffffffffffffffffffffffffff1603610b82576040517f08c379a0000000000000000000000000000000000000000000000000000000008152600401610b79906146d7565b60405180910390fd5b8073ffffffffffffffffffffffffffffffffffffffff16610ba1612a07565b73ffffffffffffffffffffffffffffffffffffffff161480610bd05750610bcf81610bca612a07565b6125a0565b5b610c0f576040517f08c379a0000000000000000000000000000000000000000000000000000000008152600401610c0690614769565b60405180910390fd5b610c198383612a0f565b505050565b8060098181548110610c3357610c32614789565b5b906000526020600020906008020160000160009054906101000a900473ffffffffffffffffffffffffffffffffffffffff1673ffffffffffffffffffffffffffffffffffffffff163373ffffffffffffffffffffffffffffffffffffffff1614610cd2576040517f08c379a0000000000000000000000000000000000000000000000000000000008152600401610cc990614804565b60405180910390fd5b600060098381548110610ce857610ce7614789565b5b906000526020600020906008020160070160006101000a81548160ff0219169083151502179055505050565b8060098181548110610d2957610d28614789565b5b906000526020600020906008020160070160019054906101000a900460ff1615610d88576040517f08c379a0000000000000000000000000000000000000000000000000000000008152600401610d7f90614870565b60405180910390fd5b600060098381548110610d9e57610d9d614789565b5b906000526020600020906008020190506009805490508310610df5576040517f08c379a0000000000000000000000000000000000000000000000000000000008152600401610dec906148dc565b60405180910390fd5b8060030154341015610e3c576040517f08c379a0000000000000000000000000000000000000000000000000000000008152600401610e3390614948565b60405180910390fd5b60008160000160009054906101000a900473ffffffffffffffffffffffffffffffffffffffff169050338260000160006101000a81548173ffffffffffffffffffffffffffffffffffffffff021916908373ffffffffffffffffffffffffffffffffffffffff16021790555060008260070160016101000a81548160ff02191690831515021790555060008260070160006101000a81548160ff021916908315150217905550348260030181905550610efa81338460010154612ac8565b8073ffffffffffffffffffffffffffffffffffffffff166108fc349081150290604051600060405180830381858888f19350505050158015610f40573d6000803e3d6000fd5b5050505050565b610f58610f52612a07565b82612dc1565b610f97576040517f08c379a0000000000000000000000000000000000000000000000000000000008152600401610f8e906149da565b60405180910390fd5b610fa2838383612ac8565b505050565b3373ffffffffffffffffffffffffffffffffffffffff16600a8281548110610fd257610fd1614789565b5b906000526020600020906006020160020160009054906101000a900473ffffffffffffffffffffffffffffffffffffffff1673ffffffffffffffffffffffffffffffffffffffff160361105a576040517f08c379a000000000000000000000000000000000000000000000000000000000815260040161105190614a6c565b60405180910390fd5b600a818154811061106e5761106d614789565b5b90600052602060002090600602016004015434116110c1576040517f08c379a00000000000000000000000000000000000000000000000000000000081526004016110b890614afe565b60405180910390fd5b600a81815481106110d5576110d4614789565b5b9060005260206000209060060201600301544210611128576040517f08c379a000000000000000000000000000000000000000000000000000000000815260040161111f90614b6a565b60405180910390fd5b6000600a828154811061113e5761113d614789565b5b906000526020600020906006020160040154111561120e576000600a828154811061116c5761116b614789565b5b906000526020600020906006020160050160009054906101000a900473ffffffffffffffffffffffffffffffffffffffff1690508073ffffffffffffffffffffffffffffffffffffffff166108fc600a84815481106111ce576111cd614789565b5b9060005260206000209060060201600401549081150290604051600060405180830381858888f1935050505015801561120b573d6000803e3d6000fd5b50505b34600a828154811061122357611222614789565b5b90600052602060002090600602016004018190555033600a828154811061124d5761124c614789565b5b906000526020600020906006020160050160006101000a81548173ffffffffffffffffffffffffffffffffffffffff021916908373ffffffffffffffffffffffffffffffffffffffff16021790555050565b6112ba83838360405180602001604052806000815250611cf0565b505050565b600981815481106112cf57600080fd5b90600052602060002090600802016000915090508060000160009054906101000a900473ffffffffffffffffffffffffffffffffffffffff169080600101549080600201805461131e90614634565b80601f016020809104026020016040519081016040528092919081815260200182805461134a90614634565b80156113975780601f1061136c57610100808354040283529160200191611397565b820191906000526020600020905b81548152906001019060200180831161137a57829003601f168201915b5050505050908060030154908060040180546113b290614634565b80601f01602080910402602001604051908101604052809291908181526020018280546113de90614634565b801561142b5780601f106114005761010080835404028352916020019161142b565b820191906000526020600020905b81548152906001019060200180831161140e57829003601f168201915b50505050509080600501805461144090614634565b80601f016020809104026020016040519081016040528092919081815260200182805461146c90614634565b80156114b95780601f1061148e576101008083540402835291602001916114b9565b820191906000526020600020905b81548152906001019060200180831161149c57829003601f168201915b5050505050908060060180546114ce90614634565b80601f01602080910402602001604051908101604052809291908181526020018280546114fa90614634565b80156115475780601f1061151c57610100808354040283529160200191611547565b820191906000526020600020905b81548152906001019060200180831161152a57829003601f168201915b5050505050908060070160009054906101000a900460ff16908060070160019054906101000a900460ff16905089565b600a818154811061158757600080fd5b90600052602060002090600602016000915090508060000154908060010154908060020160009054906101000a900473ffffffffffffffffffffffffffffffffffffffff16908060030154908060040154908060050160009054906101000a900473ffffffffffffffffffffffffffffffffffffffff16905086565b60008061160f83612e56565b9050600073ffffffffffffffffffffffffffffffffffffffff168173ffffffffffffffffffffffffffffffffffffffff1603611680576040517f08c379a000000000000000000000000000000000000000000000000000000000815260040161167790614bd6565b60405180910390fd5b80915050919050565b60008073ffffffffffffffffffffffffffffffffffffffff168273ffffffffffffffffffffffffffffffffffffffff16036116f9576040517f08c379a00000000000000000000000000000000000000000000000000000000081526004016116f090614c68565b60405180910390fd5b600360008373ffffffffffffffffffffffffffffffffffffffff1673ffffffffffffffffffffffffffffffffffffffff168152602001908152602001600020549050919050565b611748612e93565b6117526000612f11565b565b6000600760009054906101000a900473ffffffffffffffffffffffffffffffffffffffff16905090565b816009818154811061179357611792614789565b5b906000526020600020906008020160000160009054906101000a900473ffffffffffffffffffffffffffffffffffffffff1673ffffffffffffffffffffffffffffffffffffffff163373ffffffffffffffffffffffffffffffffffffffff1614611832576040517f08c379a000000000000000000000000000000000000000000000000000000000815260040161182990614804565b60405180910390fd5b826009818154811061184757611846614789565b5b906000526020600020906008020160070160009054906101000a900460ff16156118a6576040517f08c379a000000000000000000000000000000000000000000000000000000000815260040161189d90614cd4565b60405180910390fd5b83600981815481106118bb576118ba614789565b5b906000526020600020906008020160070160019054906101000a900460ff161561191a576040517f08c379a000000000000000000000000000000000000000000000000000000000815260040161191190614870565b60405180910390fd5b6000841161195d576040517f08c379a000000000000000000000000000000000000000000000000000000000815260040161195490614d66565b60405180910390fd5b836009868154811061197257611971614789565b5b90600052602060002090600802016003018190555060016009868154811061199d5761199c614789565b5b906000526020600020906008020160070160006101000a81548160ff0219169083151502179055505050505050565b80600981815481106119e1576119e0614789565b5b906000526020600020906008020160070160009054906101000a900460ff1615611a40576040517f08c379a0000000000000000000000000000000000000000000000000000000008152600401611a3790614cd4565b60405180910390fd5b8160098181548110611a5557611a54614789565b5b906000526020600020906008020160070160019054906101000a900460ff1615611ab4576040517f08c379a0000000000000000000000000000000000000000000000000000000008152600401611aab90614870565b60405180910390fd5b60006040518060c001604052808581526020018781526020013373ffffffffffffffffffffffffffffffffffffffff1681526020018642611af59190614db5565b815260200160008152602001600073ffffffffffffffffffffffffffffffffffffffff168152509050600160098581548110611b3457611b33614789565b5b906000526020600020906008020160070160016101000a81548160ff021916908315150217905550600a819080600181540180825580915050600190039060005260206000209060060201600090919091909150600082015181600001556020820151816001015560408201518160020160006101000a81548173ffffffffffffffffffffffffffffffffffffffff021916908373ffffffffffffffffffffffffffffffffffffffff160217905550606082015181600301556080820151816004015560a08201518160050160006101000a81548173ffffffffffffffffffffffffffffffffffffffff021916908373ffffffffffffffffffffffffffffffffffffffff1602179055505050505050505050565b606060018054611c5790614634565b80601f0160208091040260200160405190810160405280929190818152602001828054611c8390614634565b8015611cd05780601f10611ca557610100808354040283529160200191611cd0565b820191906000526020600020905b815481529060010190602001808311611cb357829003601f168201915b5050505050905090565b611cec611ce5612a07565b8383612fd7565b5050565b611d01611cfb612a07565b83612dc1565b611d40576040517f08c379a0000000000000000000000000000000000000000000000000000000008152600401611d37906149da565b60405180910390fd5b611d4c84848484613143565b50505050565b6060611d5d826129bc565b6000600660008481526020019081526020016000208054611d7d90614634565b80601f0160208091040260200160405190810160405280929190818152602001828054611da990614634565b8015611df65780601f10611dcb57610100808354040283529160200191611df6565b820191906000526020600020905b815481529060010190602001808311611dd957829003601f168201915b505050505090506000611e0761319f565b90506000815103611e1c578192505050611e5f565b600082511115611e51578082604051602001611e39929190614e25565b60405160208183030381529060405292505050611e5f565b611e5a846131b6565b925050505b919050565b6060600a805480602002602001604051908101604052809291908181526020016000905b82821015611f8e57838290600052602060002090600602016040518060c001604052908160008201548152602001600182015481526020016002820160009054906101000a900473ffffffffffffffffffffffffffffffffffffffff1673ffffffffffffffffffffffffffffffffffffffff1673ffffffffffffffffffffffffffffffffffffffff16815260200160038201548152602001600482015481526020016005820160009054906101000a900473ffffffffffffffffffffffffffffffffffffffff1673ffffffffffffffffffffffffffffffffffffffff1673ffffffffffffffffffffffffffffffffffffffff168152505081526020019060010190611e88565b50505050905090565b80600a8181548110611fac57611fab614789565b5b906000526020600020906006020160020160009054906101000a900473ffffffffffffffffffffffffffffffffffffffff1673ffffffffffffffffffffffffffffffffffffffff163373ffffffffffffffffffffffffffffffffffffffff161461204b576040517f08c379a000000000000000000000000000000000000000000000000000000000815260040161204290614e95565b60405180910390fd5b6000600a838154811061206157612060614789565b5b9060005260206000209060060201600401541115612352576000600a838154811061208f5761208e614789565b5b906000526020600020906006020160020160009054906101000a900473ffffffffffffffffffffffffffffffffffffffff16905061215d81600a85815481106120db576120da614789565b5b906000526020600020906006020160050160009054906101000a900473ffffffffffffffffffffffffffffffffffffffff166009600a878154811061212357612122614789565b5b9060005260206000209060060201600001548154811061214657612145614789565b5b906000526020600020906008020160010154610f47565b600a838154811061217157612170614789565b5b906000526020600020906006020160050160009054906101000a900473ffffffffffffffffffffffffffffffffffffffff166009600a85815481106121b9576121b8614789565b5b906000526020600020906006020160000154815481106121dc576121db614789565b5b906000526020600020906008020160000160006101000a81548173ffffffffffffffffffffffffffffffffffffffff021916908373ffffffffffffffffffffffffffffffffffffffff160217905550600a838154811061223f5761223e614789565b5b9060005260206000209060060201600401546009600a858154811061226757612266614789565b5b9060005260206000209060060201600001548154811061228a57612289614789565b5b906000526020600020906008020160030181905550600a83815481106122b3576122b2614789565b5b906000526020600020906006020160020160009054906101000a900473ffffffffffffffffffffffffffffffffffffffff1673ffffffffffffffffffffffffffffffffffffffff166108fc600a858154811061231257612311614789565b5b9060005260206000209060060201600401549081150290604051600060405180830381858888f1935050505015801561234f573d6000803e3d6000fd5b50505b600a6001600a805490506123669190614eb5565b8154811061237757612376614789565b5b9060005260206000209060060201600a838154811061239957612398614789565b5b906000526020600020906006020160008201548160000155600182015481600101556002820160009054906101000a900473ffffffffffffffffffffffffffffffffffffffff168160020160006101000a81548173ffffffffffffffffffffffffffffffffffffffff021916908373ffffffffffffffffffffffffffffffffffffffff16021790555060038201548160030155600482015481600401556005820160009054906101000a900473ffffffffffffffffffffffffffffffffffffffff168160050160006101000a81548173ffffffffffffffffffffffffffffffffffffffff021916908373ffffffffffffffffffffffffffffffffffffffff16021790555090505060006009600a84815481106124b8576124b7614789565b5b906000526020600020906006020160000154815481106124db576124da614789565b5b906000526020600020906008020160070160016101000a81548160ff021916908315150217905550600a80548061251557612514614ee9565b5b600190038181906000526020600020906006020160008082016000905560018201600090556002820160006101000a81549073ffffffffffffffffffffffffffffffffffffffff0219169055600382016000905560048201600090556005820160006101000a81549073ffffffffffffffffffffffffffffffffffffffff0219169055505090555050565b6000600560008473ffffffffffffffffffffffffffffffffffffffff1673ffffffffffffffffffffffffffffffffffffffff16815260200190815260200160002060008373ffffffffffffffffffffffffffffffffffffffff1673ffffffffffffffffffffffffffffffffffffffff16815260200190815260200160002060009054906101000a900460ff16905092915050565b600080612641600861321e565b905061264d338261322c565b6126578187613449565b60006040518061012001604052803373ffffffffffffffffffffffffffffffffffffffff16815260200183815260200188815260200160008152602001878152602001868152602001858152602001600015158152602001600015158152509050600981908060018154018082558091505060019003906000526020600020906008020160009091909190915060008201518160000160006101000a81548173ffffffffffffffffffffffffffffffffffffffff021916908373ffffffffffffffffffffffffffffffffffffffff16021790555060208201518160010155604082015181600201908161274a91906150c4565b5060608201518160030155608082015181600401908161276a91906150c4565b5060a082015181600501908161278091906150c4565b5060c082015181600601908161279691906150c4565b5060e08201518160070160006101000a81548160ff0219169083151502179055506101008201518160070160016101000a81548160ff02191690831515021790555050506127e460086134ed565b813373ffffffffffffffffffffffffffffffffffffffff167fd517afb36f117519a1b60791d436e10d670c17e4543975e77b8948f337a69bf8898989896040516128319493929190615196565b60405180910390a3600160098054905061284b9190614eb5565b92505050949350505050565b61285f612e93565b600073ffffffffffffffffffffffffffffffffffffffff168173ffffffffffffffffffffffffffffffffffffffff16036128ce576040517f08c379a00000000000000000000000000000000000000000000000000000000081526004016128c590615269565b60405180910390fd5b6128d781612f11565b50565b60007f80ac58cd000000000000000000000000000000000000000000000000000000007bffffffffffffffffffffffffffffffffffffffffffffffffffffffff1916827bffffffffffffffffffffffffffffffffffffffffffffffffffffffff191614806129a557507f5b5e139f000000000000000000000000000000000000000000000000000000007bffffffffffffffffffffffffffffffffffffffffffffffffffffffff1916827bffffffffffffffffffffffffffffffffffffffffffffffffffffffff1916145b806129b557506129b482613503565b5b9050919050565b6129c58161356d565b612a04576040517f08c379a00000000000000000000000000000000000000000000000000000000081526004016129fb90614bd6565b60405180910390fd5b50565b600033905090565b816004600083815260200190815260200160002060006101000a81548173ffffffffffffffffffffffffffffffffffffffff021916908373ffffffffffffffffffffffffffffffffffffffff160217905550808273ffffffffffffffffffffffffffffffffffffffff16612a8283611603565b73ffffffffffffffffffffffffffffffffffffffff167f8c5be1e5ebec7d5bd14f71427d1e84f3dd0314c0f7b2291e5b200ac8c7c3b92560405160405180910390a45050565b8273ffffffffffffffffffffffffffffffffffffffff16612ae882611603565b73ffffffffffffffffffffffffffffffffffffffff1614612b3e576040517f08c379a0000000000000000000000000000000000000000000000000000000008152600401612b35906152fb565b60405180910390fd5b600073ffffffffffffffffffffffffffffffffffffffff168273ffffffffffffffffffffffffffffffffffffffff1603612bad576040517f08c379a0000000000000000000000000000000000000000000000000000000008152600401612ba49061538d565b60405180910390fd5b612bba83838360016135ae565b8273ffffffffffffffffffffffffffffffffffffffff16612bda82611603565b73ffffffffffffffffffffffffffffffffffffffff1614612c30576040517f08c379a0000000000000000000000000000000000000000000000000000000008152600401612c27906152fb565b60405180910390fd5b6004600082815260200190815260200160002060006101000a81549073ffffffffffffffffffffffffffffffffffffffff02191690556001600360008573ffffffffffffffffffffffffffffffffffffffff1673ffffffffffffffffffffffffffffffffffffffff168152602001908152602001600020600082825403925050819055506001600360008473ffffffffffffffffffffffffffffffffffffffff1673ffffffffffffffffffffffffffffffffffffffff16815260200190815260200160002060008282540192505081905550816002600083815260200190815260200160002060006101000a81548173ffffffffffffffffffffffffffffffffffffffff021916908373ffffffffffffffffffffffffffffffffffffffff160217905550808273ffffffffffffffffffffffffffffffffffffffff168473ffffffffffffffffffffffffffffffffffffffff167fddf252ad1be2c89b69c2b068fc378daa952ba7f163c4a11628f55a4df523b3ef60405160405180910390a4612dbc83838360016135b4565b505050565b600080612dcd83611603565b90508073ffffffffffffffffffffffffffffffffffffffff168473ffffffffffffffffffffffffffffffffffffffff161480612e0f5750612e0e81856125a0565b5b80612e4d57508373ffffffffffffffffffffffffffffffffffffffff16612e3584610ac1565b73ffffffffffffffffffffffffffffffffffffffff16145b91505092915050565b60006002600083815260200190815260200160002060009054906101000a900473ffffffffffffffffffffffffffffffffffffffff169050919050565b612e9b612a07565b73ffffffffffffffffffffffffffffffffffffffff16612eb9611754565b73ffffffffffffffffffffffffffffffffffffffff1614612f0f576040517f08c379a0000000000000000000000000000000000000000000000000000000008152600401612f06906153f9565b60405180910390fd5b565b6000600760009054906101000a900473ffffffffffffffffffffffffffffffffffffffff16905081600760006101000a81548173ffffffffffffffffffffffffffffffffffffffff021916908373ffffffffffffffffffffffffffffffffffffffff1602179055508173ffffffffffffffffffffffffffffffffffffffff168173ffffffffffffffffffffffffffffffffffffffff167f8be0079c531659141344cd1fd0a4f28419497f9722a3daafe3b4186f6b6457e060405160405180910390a35050565b8173ffffffffffffffffffffffffffffffffffffffff168373ffffffffffffffffffffffffffffffffffffffff1603613045576040517f08c379a000000000000000000000000000000000000000000000000000000000815260040161303c90615465565b60405180910390fd5b80600560008573ffffffffffffffffffffffffffffffffffffffff1673ffffffffffffffffffffffffffffffffffffffff16815260200190815260200160002060008473ffffffffffffffffffffffffffffffffffffffff1673ffffffffffffffffffffffffffffffffffffffff16815260200190815260200160002060006101000a81548160ff0219169083151502179055508173ffffffffffffffffffffffffffffffffffffffff168373ffffffffffffffffffffffffffffffffffffffff167f17307eab39ab6107e8899845ad3d59bd9653f200f220920489ca2b5937696c31836040516131369190613a39565b60405180910390a3505050565b61314e848484612ac8565b61315a848484846135ba565b613199576040517f08c379a0000000000000000000000000000000000000000000000000000000008152600401613190906154f7565b60405180910390fd5b50505050565b606060405180602001604052806000815250905090565b60606131c1826129bc565b60006131cb61319f565b905060008151116131eb5760405180602001604052806000815250613216565b806131f584613741565b604051602001613206929190614e25565b6040516020818303038152906040525b915050919050565b600081600001549050919050565b600073ffffffffffffffffffffffffffffffffffffffff168273ffffffffffffffffffffffffffffffffffffffff160361329b576040517f08c379a000000000000000000000000000000000000000000000000000000000815260040161329290615563565b60405180910390fd5b6132a48161356d565b156132e4576040517f08c379a00000000000000000000000000000000000000000000000000000000081526004016132db906155cf565b60405180910390fd5b6132f26000838360016135ae565b6132fb8161356d565b1561333b576040517f08c379a0000000000000000000000000000000000000000000000000000000008152600401613332906155cf565b60405180910390fd5b6001600360008473ffffffffffffffffffffffffffffffffffffffff1673ffffffffffffffffffffffffffffffffffffffff16815260200190815260200160002060008282540192505081905550816002600083815260200190815260200160002060006101000a81548173ffffffffffffffffffffffffffffffffffffffff021916908373ffffffffffffffffffffffffffffffffffffffff160217905550808273ffffffffffffffffffffffffffffffffffffffff16600073ffffffffffffffffffffffffffffffffffffffff167fddf252ad1be2c89b69c2b068fc378daa952ba7f163c4a11628f55a4df523b3ef60405160405180910390a46134456000838360016135b4565b5050565b6134528261356d565b613491576040517f08c379a000000000000000000000000000000000000000000000000000000000815260040161348890615661565b60405180910390fd5b806006600084815260200190815260200160002090816134b191906150c4565b507ff8e1a15aba9398e019f0b49df1a4fde98ee17ae345cb5f6b5e2c27f5033e8ce7826040516134e19190614020565b60405180910390a15050565b6001816000016000828254019250508190555050565b60007f01ffc9a7000000000000000000000000000000000000000000000000000000007bffffffffffffffffffffffffffffffffffffffffffffffffffffffff1916827bffffffffffffffffffffffffffffffffffffffffffffffffffffffff1916149050919050565b60008073ffffffffffffffffffffffffffffffffffffffff1661358f83612e56565b73ffffffffffffffffffffffffffffffffffffffff1614159050919050565b50505050565b50505050565b60006135db8473ffffffffffffffffffffffffffffffffffffffff1661380f565b15613734578373ffffffffffffffffffffffffffffffffffffffff1663150b7a02613604612a07565b8786866040518563ffffffff1660e01b815260040161362694939291906156d6565b6020604051808303816000875af192505050801561366257506040513d601f19601f8201168201806040525081019061365f9190615737565b60015b6136e4573d8060008114613692576040519150601f19603f3d011682016040523d82523d6000602084013e613697565b606091505b5060008151036136dc576040517f08c379a00000000000000000000000000000000000000000000000000000000081526004016136d3906154f7565b60405180910390fd5b805181602001fd5b63150b7a0260e01b7bffffffffffffffffffffffffffffffffffffffffffffffffffffffff1916817bffffffffffffffffffffffffffffffffffffffffffffffffffffffff191614915050613739565b600190505b949350505050565b60606000600161375084613832565b01905060008167ffffffffffffffff81111561376f5761376e614144565b5b6040519080825280601f01601f1916602001820160405280156137a15781602001600182028036833780820191505090505b509050600082602001820190505b600115613804578080600190039150507f3031323334353637383961626364656600000000000000000000000000000000600a86061a8153600a85816137f8576137f7615764565b5b049450600085036137af575b819350505050919050565b6000808273ffffffffffffffffffffffffffffffffffffffff163b119050919050565b600080600090507a184f03e93ff9f4daa797ed6e38ed64bf6a1f0100000000000000008310613890577a184f03e93ff9f4daa797ed6e38ed64bf6a1f010000000000000000838161388657613885615764565b5b0492506040810190505b6d04ee2d6d415b85acef810000000083106138cd576d04ee2d6d415b85acef810000000083816138c3576138c2615764565b5b0492506020810190505b662386f26fc1000083106138fc57662386f26fc1000083816138f2576138f1615764565b5b0492506010810190505b6305f5e1008310613925576305f5e100838161391b5761391a615764565b5b0492506008810190505b612710831061394a5761271083816139405761393f615764565b5b0492506004810190505b6064831061396d576064838161396357613962615764565b5b0492506002810190505b600a831061397c576001810190505b80915050919050565b6000604051905090565b600080fd5b600080fd5b60007fffffffff0000000000000000000000000000000000000000000000000000000082169050919050565b6139ce81613999565b81146139d957600080fd5b50565b6000813590506139eb816139c5565b92915050565b600060208284031215613a0757613a0661398f565b5b6000613a15848285016139dc565b91505092915050565b60008115159050919050565b613a3381613a1e565b82525050565b6000602082019050613a4e6000830184613a2a565b92915050565b600081519050919050565b600082825260208201905092915050565b6000819050602082019050919050565b600073ffffffffffffffffffffffffffffffffffffffff82169050919050565b6000613aab82613a80565b9050919050565b613abb81613aa0565b82525050565b6000819050919050565b613ad481613ac1565b82525050565b600081519050919050565b600082825260208201905092915050565b60005b83811015613b14578082015181840152602081019050613af9565b60008484015250505050565b6000601f19601f8301169050919050565b6000613b3c82613ada565b613b468185613ae5565b9350613b56818560208601613af6565b613b5f81613b20565b840191505092915050565b613b7381613a1e565b82525050565b600061012083016000830151613b926000860182613ab2565b506020830151613ba56020860182613acb565b5060408301518482036040860152613bbd8282613b31565b9150506060830151613bd26060860182613acb565b5060808301518482036080860152613bea8282613b31565b91505060a083015184820360a0860152613c048282613b31565b91505060c083015184820360c0860152613c1e8282613b31565b91505060e0830151613c3360e0860182613b6a565b50610100830151613c48610100860182613b6a565b508091505092915050565b6000613c5f8383613b79565b905092915050565b6000602082019050919050565b6000613c7f82613a54565b613c898185613a5f565b935083602082028501613c9b85613a70565b8060005b85811015613cd75784840389528151613cb88582613c53565b9450613cc383613c67565b925060208a01995050600181019050613c9f565b50829750879550505050505092915050565b60006020820190508181036000830152613d038184613c74565b905092915050565b600082825260208201905092915050565b6000613d2782613ada565b613d318185613d0b565b9350613d41818560208601613af6565b613d4a81613b20565b840191505092915050565b60006020820190508181036000830152613d6f8184613d1c565b905092915050565b613d8081613ac1565b8114613d8b57600080fd5b50565b600081359050613d9d81613d77565b92915050565b600060208284031215613db957613db861398f565b5b6000613dc784828501613d8e565b91505092915050565b6000613ddb82613a80565b9050919050565b613deb81613dd0565b82525050565b6000602082019050613e066000830184613de2565b92915050565b613e1581613dd0565b8114613e2057600080fd5b50565b600081359050613e3281613e0c565b92915050565b60008060408385031215613e4f57613e4e61398f565b5b6000613e5d85828601613e23565b9250506020613e6e85828601613d8e565b9150509250929050565b600080600060608486031215613e9157613e9061398f565b5b6000613e9f86828701613e23565b9350506020613eb086828701613e23565b9250506040613ec186828701613d8e565b9150509250925092565b613ed481613aa0565b82525050565b613ee381613ac1565b82525050565b600061012082019050613eff600083018c613ecb565b613f0c602083018b613eda565b8181036040830152613f1e818a613d1c565b9050613f2d6060830189613eda565b8181036080830152613f3f8188613d1c565b905081810360a0830152613f538187613d1c565b905081810360c0830152613f678186613d1c565b9050613f7660e0830185613a2a565b613f84610100830184613a2a565b9a9950505050505050505050565b600060c082019050613fa76000830189613eda565b613fb46020830188613eda565b613fc16040830187613ecb565b613fce6060830186613eda565b613fdb6080830185613eda565b613fe860a0830184613de2565b979650505050505050565b6000602082840312156140095761400861398f565b5b600061401784828501613e23565b91505092915050565b60006020820190506140356000830184613eda565b92915050565b600080604083850312156140525761405161398f565b5b600061406085828601613d8e565b925050602061407185828601613d8e565b9150509250929050565b6000806000606084860312156140945761409361398f565b5b60006140a286828701613d8e565b93505060206140b386828701613d8e565b92505060406140c486828701613d8e565b9150509250925092565b6140d781613a1e565b81146140e257600080fd5b50565b6000813590506140f4816140ce565b92915050565b600080604083850312156141115761411061398f565b5b600061411f85828601613e23565b9250506020614130858286016140e5565b9150509250929050565b600080fd5b600080fd5b7f4e487b7100000000000000000000000000000000000000000000000000000000600052604160045260246000fd5b61417c82613b20565b810181811067ffffffffffffffff8211171561419b5761419a614144565b5b80604052505050565b60006141ae613985565b90506141ba8282614173565b919050565b600067ffffffffffffffff8211156141da576141d9614144565b5b6141e382613b20565b9050602081019050919050565b82818337600083830152505050565b600061421261420d846141bf565b6141a4565b90508281526020810184848401111561422e5761422d61413f565b5b6142398482856141f0565b509392505050565b600082601f8301126142565761425561413a565b5b81356142668482602086016141ff565b91505092915050565b600080600080608085870312156142895761428861398f565b5b600061429787828801613e23565b94505060206142a887828801613e23565b93505060406142b987828801613d8e565b925050606085013567ffffffffffffffff8111156142da576142d9613994565b5b6142e687828801614241565b91505092959194509250565b600081519050919050565b600082825260208201905092915050565b6000819050602082019050919050565b61432781613dd0565b82525050565b60c0820160008201516143436000850182613acb565b5060208201516143566020850182613acb565b5060408201516143696040850182613ab2565b50606082015161437c6060850182613acb565b50608082015161438f6080850182613acb565b5060a08201516143a260a085018261431e565b50505050565b60006143b4838361432d565b60c08301905092915050565b6000602082019050919050565b60006143d8826142f2565b6143e281856142fd565b93506143ed8361430e565b8060005b8381101561441e57815161440588826143a8565b9750614410836143c0565b9250506001810190506143f1565b5085935050505092915050565b6000602082019050818103600083015261444581846143cd565b905092915050565b600080604083850312156144645761446361398f565b5b600061447285828601613e23565b925050602061448385828601613e23565b9150509250929050565b600067ffffffffffffffff8211156144a8576144a7614144565b5b6144b182613b20565b9050602081019050919050565b60006144d16144cc8461448d565b6141a4565b9050828152602081018484840111156144ed576144ec61413f565b5b6144f88482856141f0565b509392505050565b600082601f8301126145155761451461413a565b5b81356145258482602086016144be565b91505092915050565b600080600080608085870312156145485761454761398f565b5b600085013567ffffffffffffffff81111561456657614565613994565b5b61457287828801614500565b945050602085013567ffffffffffffffff81111561459357614592613994565b5b61459f87828801614500565b935050604085013567ffffffffffffffff8111156145c0576145bf613994565b5b6145cc87828801614500565b925050606085013567ffffffffffffffff8111156145ed576145ec613994565b5b6145f987828801614500565b91505092959194509250565b7f4e487b7100000000000000000000000000000000000000000000000000000000600052602260045260246000fd5b6000600282049050600182168061464c57607f821691505b60208210810361465f5761465e614605565b5b50919050565b7f4552433732313a20617070726f76616c20746f2063757272656e74206f776e6560008201527f7200000000000000000000000000000000000000000000000000000000000000602082015250565b60006146c1602183613d0b565b91506146cc82614665565b604082019050919050565b600060208201905081810360008301526146f0816146b4565b9050919050565b7f4552433732313a20617070726f76652063616c6c6572206973206e6f7420746f60008201527f6b656e206f776e6572206f7220617070726f76656420666f7220616c6c000000602082015250565b6000614753603d83613d0b565b915061475e826146f7565b604082019050919050565b6000602082019050818103600083015261478281614746565b9050919050565b7f4e487b7100000000000000000000000000000000000000000000000000000000600052603260045260246000fd5b7f4e6f742074686520746f6b656e206f776e657200000000000000000000000000600082015250565b60006147ee601383613d0b565b91506147f9826147b8565b602082019050919050565b6000602082019050818103600083015261481d816147e1565b9050919050565b7f416c7265616479206c697374656420666f722061756374696f6e000000000000600082015250565b600061485a601a83613d0b565b915061486582614824565b602082019050919050565b600060208201905081810360008301526148898161484d565b9050919050565b7f496e76616c696420696e64657800000000000000000000000000000000000000600082015250565b60006148c6600d83613d0b565b91506148d182614890565b602082019050919050565b600060208201905081810360008301526148f5816148b9565b9050919050565b7f496e73756666696369656e7420616d6f756e7400000000000000000000000000600082015250565b6000614932601383613d0b565b915061493d826148fc565b602082019050919050565b6000602082019050818103600083015261496181614925565b9050919050565b7f4552433732313a2063616c6c6572206973206e6f7420746f6b656e206f776e6560008201527f72206f7220617070726f76656400000000000000000000000000000000000000602082015250565b60006149c4602d83613d0b565b91506149cf82614968565b604082019050919050565b600060208201905081810360008301526149f3816149b7565b9050919050565b7f4f776e6572732063616e6e6f7420626964206f6e207468656972206f776e204e60008201527f4654000000000000000000000000000000000000000000000000000000000000602082015250565b6000614a56602283613d0b565b9150614a61826149fa565b604082019050919050565b60006020820190508181036000830152614a8581614a49565b9050919050565b7f426964206d75737420626520686967686572207468616e20746865207072657660008201527f696f757320626964000000000000000000000000000000000000000000000000602082015250565b6000614ae8602883613d0b565b9150614af382614a8c565b604082019050919050565b60006020820190508181036000830152614b1781614adb565b9050919050565b7f41756374696f6e2068617320656e646564000000000000000000000000000000600082015250565b6000614b54601183613d0b565b9150614b5f82614b1e565b602082019050919050565b60006020820190508181036000830152614b8381614b47565b9050919050565b7f4552433732313a20696e76616c696420746f6b656e2049440000000000000000600082015250565b6000614bc0601883613d0b565b9150614bcb82614b8a565b602082019050919050565b60006020820190508181036000830152614bef81614bb3565b9050919050565b7f4552433732313a2061646472657373207a65726f206973206e6f74206120766160008201527f6c6964206f776e65720000000000000000000000000000000000000000000000602082015250565b6000614c52602983613d0b565b9150614c5d82614bf6565b604082019050919050565b60006020820190508181036000830152614c8181614c45565b9050919050565b7f416c7265616479206c697374656420666f722073616c65000000000000000000600082015250565b6000614cbe601783613d0b565b9150614cc982614c88565b602082019050919050565b60006020820190508181036000830152614ced81614cb1565b9050919050565b7f50726963652073686f756c642062652067726561746572207468616e207a657260008201527f6f00000000000000000000000000000000000000000000000000000000000000602082015250565b6000614d50602183613d0b565b9150614d5b82614cf4565b604082019050919050565b60006020820190508181036000830152614d7f81614d43565b9050919050565b7f4e487b7100000000000000000000000000000000000000000000000000000000600052601160045260246000fd5b6000614dc082613ac1565b9150614dcb83613ac1565b9250828201905080821115614de357614de2614d86565b5b92915050565b600081905092915050565b6000614dff82613ada565b614e098185614de9565b9350614e19818560208601613af6565b80840191505092915050565b6000614e318285614df4565b9150614e3d8284614df4565b91508190509392505050565b7f4e6f74207468652061756374696f6e206f776e65720000000000000000000000600082015250565b6000614e7f601583613d0b565b9150614e8a82614e49565b602082019050919050565b60006020820190508181036000830152614eae81614e72565b9050919050565b6000614ec082613ac1565b9150614ecb83613ac1565b9250828203905081811115614ee357614ee2614d86565b5b92915050565b7f4e487b7100000000000000000000000000000000000000000000000000000000600052603160045260246000fd5b60008190508160005260206000209050919050565b60006020601f8301049050919050565b600082821b905092915050565b600060088302614f7a7fffffffffffffffffffffffffffffffffffffffffffffffffffffffffffffffff82614f3d565b614f848683614f3d565b95508019841693508086168417925050509392505050565b6000819050919050565b6000614fc1614fbc614fb784613ac1565b614f9c565b613ac1565b9050919050565b6000819050919050565b614fdb83614fa6565b614fef614fe782614fc8565b848454614f4a565b825550505050565b600090565b615004614ff7565b61500f818484614fd2565b505050565b5b8181101561503357615028600082614ffc565b600181019050615015565b5050565b601f8211156150785761504981614f18565b61505284614f2d565b81016020851015615061578190505b61507561506d85614f2d565b830182615014565b50505b505050565b600082821c905092915050565b600061509b6000198460080261507d565b1980831691505092915050565b60006150b4838361508a565b9150826002028217905092915050565b6150cd82613ada565b67ffffffffffffffff8111156150e6576150e5614144565b5b6150f08254614634565b6150fb828285615037565b600060209050601f83116001811461512e576000841561511c578287015190505b61512685826150a8565b86555061518e565b601f19841661513c86614f18565b60005b828110156151645784890151825560018201915060208501945060208101905061513f565b86831015615181578489015161517d601f89168261508a565b8355505b6001600288020188555050505b505050505050565b600060808201905081810360008301526151b08187613d1c565b905081810360208301526151c48186613d1c565b905081810360408301526151d88185613d1c565b905081810360608301526151ec8184613d1c565b905095945050505050565b7f4f776e61626c653a206e6577206f776e657220697320746865207a65726f206160008201527f6464726573730000000000000000000000000000000000000000000000000000602082015250565b6000615253602683613d0b565b915061525e826151f7565b604082019050919050565b6000602082019050818103600083015261528281615246565b9050919050565b7f4552433732313a207472616e736665722066726f6d20696e636f72726563742060008201527f6f776e6572000000000000000000000000000000000000000000000000000000602082015250565b60006152e5602583613d0b565b91506152f082615289565b604082019050919050565b60006020820190508181036000830152615314816152d8565b9050919050565b7f4552433732313a207472616e7366657220746f20746865207a65726f2061646460008201527f7265737300000000000000000000000000000000000000000000000000000000602082015250565b6000615377602483613d0b565b91506153828261531b565b604082019050919050565b600060208201905081810360008301526153a68161536a565b9050919050565b7f4f776e61626c653a2063616c6c6572206973206e6f7420746865206f776e6572600082015250565b60006153e3602083613d0b565b91506153ee826153ad565b602082019050919050565b60006020820190508181036000830152615412816153d6565b9050919050565b7f4552433732313a20617070726f766520746f2063616c6c657200000000000000600082015250565b600061544f601983613d0b565b915061545a82615419565b602082019050919050565b6000602082019050818103600083015261547e81615442565b9050919050565b7f4552433732313a207472616e7366657220746f206e6f6e20455243373231526560008201527f63656976657220696d706c656d656e7465720000000000000000000000000000602082015250565b60006154e1603283613d0b565b91506154ec82615485565b604082019050919050565b60006020820190508181036000830152615510816154d4565b9050919050565b7f4552433732313a206d696e7420746f20746865207a65726f2061646472657373600082015250565b600061554d602083613d0b565b915061555882615517565b602082019050919050565b6000602082019050818103600083015261557c81615540565b9050919050565b7f4552433732313a20746f6b656e20616c7265616479206d696e74656400000000600082015250565b60006155b9601c83613d0b565b91506155c482615583565b602082019050919050565b600060208201905081810360008301526155e8816155ac565b9050919050565b7f45524337323155524953746f726167653a2055524920736574206f66206e6f6e60008201527f6578697374656e7420746f6b656e000000000000000000000000000000000000602082015250565b600061564b602e83613d0b565b9150615656826155ef565b604082019050919050565b6000602082019050818103600083015261567a8161563e565b9050919050565b600081519050919050565b600082825260208201905092915050565b60006156a882615681565b6156b2818561568c565b93506156c2818560208601613af6565b6156cb81613b20565b840191505092915050565b60006080820190506156eb6000830187613de2565b6156f86020830186613de2565b6157056040830185613eda565b8181036060830152615717818461569d565b905095945050505050565b600081519050615731816139c5565b92915050565b60006020828403121561574d5761574c61398f565b5b600061575b84828501615722565b91505092915050565b7f4e487b7100000000000000000000000000000000000000000000000000000000600052601260045260246000fdfea2646970667358221220d5119ff9e3f25f3dd28dabaad7d3f2c06844331b4b47f1971e7cf85635ce349764736f6c63430008130033",
  "linkReferences": {},
  "deployedLinkReferences": {}
}